{
  "contractName": "PlayToken",
  "abi": [
    {
      "anonymous": false,
      "inputs": [
        {
          "indexed": true,
          "internalType": "address",
          "name": "owner",
          "type": "address"
        },
        {
          "indexed": true,
          "internalType": "address",
          "name": "spender",
          "type": "address"
        },
        {
          "indexed": false,
          "internalType": "uint256",
          "name": "value",
          "type": "uint256"
        }
      ],
      "name": "Approval",
      "type": "event"
    },
    {
      "anonymous": false,
      "inputs": [
        {
          "indexed": true,
          "internalType": "address",
          "name": "previousOwner",
          "type": "address"
        },
        {
          "indexed": true,
          "internalType": "address",
          "name": "newOwner",
          "type": "address"
        }
      ],
      "name": "OwnershipTransferred",
      "type": "event"
    },
    {
      "anonymous": false,
      "inputs": [
        {
          "indexed": false,
          "internalType": "address",
          "name": "account",
          "type": "address"
        }
      ],
      "name": "Paused",
      "type": "event"
    },
    {
      "anonymous": false,
      "inputs": [
        {
          "indexed": true,
          "internalType": "address",
          "name": "from",
          "type": "address"
        },
        {
          "indexed": true,
          "internalType": "address",
          "name": "to",
          "type": "address"
        },
        {
          "indexed": false,
          "internalType": "uint256",
          "name": "value",
          "type": "uint256"
        }
      ],
      "name": "Transfer",
      "type": "event"
    },
    {
      "anonymous": false,
      "inputs": [
        {
          "indexed": false,
          "internalType": "address",
          "name": "account",
          "type": "address"
        }
      ],
      "name": "Unpaused",
      "type": "event"
    },
    {
      "inputs": [
        {
          "internalType": "address",
          "name": "owner",
          "type": "address"
        },
        {
          "internalType": "address",
          "name": "spender",
          "type": "address"
        }
      ],
      "name": "allowance",
      "outputs": [
        {
          "internalType": "uint256",
          "name": "",
          "type": "uint256"
        }
      ],
      "stateMutability": "view",
      "type": "function",
      "constant": true
    },
    {
      "inputs": [
        {
          "internalType": "address",
          "name": "spender",
          "type": "address"
        },
        {
          "internalType": "uint256",
          "name": "amount",
          "type": "uint256"
        }
      ],
      "name": "approve",
      "outputs": [
        {
          "internalType": "bool",
          "name": "",
          "type": "bool"
        }
      ],
      "stateMutability": "nonpayable",
      "type": "function"
    },
    {
      "inputs": [
        {
          "internalType": "address",
          "name": "account",
          "type": "address"
        }
      ],
      "name": "balanceOf",
      "outputs": [
        {
          "internalType": "uint256",
          "name": "",
          "type": "uint256"
        }
      ],
      "stateMutability": "view",
      "type": "function",
      "constant": true
    },
    {
      "inputs": [],
      "name": "decimals",
      "outputs": [
        {
          "internalType": "uint8",
          "name": "",
          "type": "uint8"
        }
      ],
      "stateMutability": "view",
      "type": "function",
      "constant": true
    },
    {
      "inputs": [
        {
          "internalType": "address",
          "name": "spender",
          "type": "address"
        },
        {
          "internalType": "uint256",
          "name": "subtractedValue",
          "type": "uint256"
        }
      ],
      "name": "decreaseAllowance",
      "outputs": [
        {
          "internalType": "bool",
          "name": "",
          "type": "bool"
        }
      ],
      "stateMutability": "nonpayable",
      "type": "function"
    },
    {
      "inputs": [
        {
          "internalType": "address",
          "name": "spender",
          "type": "address"
        },
        {
          "internalType": "uint256",
          "name": "addedValue",
          "type": "uint256"
        }
      ],
      "name": "increaseAllowance",
      "outputs": [
        {
          "internalType": "bool",
          "name": "",
          "type": "bool"
        }
      ],
      "stateMutability": "nonpayable",
      "type": "function"
    },
    {
      "inputs": [],
      "name": "name",
      "outputs": [
        {
          "internalType": "string",
          "name": "",
          "type": "string"
        }
      ],
      "stateMutability": "view",
      "type": "function",
      "constant": true
    },
    {
      "inputs": [],
      "name": "owner",
      "outputs": [
        {
          "internalType": "address",
          "name": "",
          "type": "address"
        }
      ],
      "stateMutability": "view",
      "type": "function",
      "constant": true
    },
    {
      "inputs": [],
      "name": "paused",
      "outputs": [
        {
          "internalType": "bool",
          "name": "",
          "type": "bool"
        }
      ],
      "stateMutability": "view",
      "type": "function",
      "constant": true
    },
    {
      "inputs": [],
      "name": "renounceOwnership",
      "outputs": [],
      "stateMutability": "nonpayable",
      "type": "function"
    },
    {
      "inputs": [],
      "name": "symbol",
      "outputs": [
        {
          "internalType": "string",
          "name": "",
          "type": "string"
        }
      ],
      "stateMutability": "view",
      "type": "function",
      "constant": true
    },
    {
      "inputs": [],
      "name": "totalSupply",
      "outputs": [
        {
          "internalType": "uint256",
          "name": "",
          "type": "uint256"
        }
      ],
      "stateMutability": "view",
      "type": "function",
      "constant": true
    },
    {
      "inputs": [
        {
          "internalType": "address",
          "name": "recipient",
          "type": "address"
        },
        {
          "internalType": "uint256",
          "name": "amount",
          "type": "uint256"
        }
      ],
      "name": "transfer",
      "outputs": [
        {
          "internalType": "bool",
          "name": "",
          "type": "bool"
        }
      ],
      "stateMutability": "nonpayable",
      "type": "function"
    },
    {
      "inputs": [
        {
          "internalType": "address",
          "name": "sender",
          "type": "address"
        },
        {
          "internalType": "address",
          "name": "recipient",
          "type": "address"
        },
        {
          "internalType": "uint256",
          "name": "amount",
          "type": "uint256"
        }
      ],
      "name": "transferFrom",
      "outputs": [
        {
          "internalType": "bool",
          "name": "",
          "type": "bool"
        }
      ],
      "stateMutability": "nonpayable",
      "type": "function"
    },
    {
      "inputs": [
        {
          "internalType": "address",
          "name": "newOwner",
          "type": "address"
        }
      ],
      "name": "transferOwnership",
      "outputs": [],
      "stateMutability": "nonpayable",
      "type": "function"
    },
    {
      "inputs": [
        {
          "internalType": "address",
          "name": "",
          "type": "address"
        },
        {
          "internalType": "uint8",
          "name": "",
          "type": "uint8"
        }
      ],
      "name": "userToVestingDetails",
      "outputs": [
        {
          "internalType": "uint8",
          "name": "vestingIndex",
          "type": "uint8"
        },
        {
          "internalType": "address",
          "name": "walletAddress",
          "type": "address"
        },
        {
          "internalType": "uint256",
          "name": "totalTokensAllocated",
          "type": "uint256"
        },
        {
          "internalType": "uint256",
          "name": "tgeTokensAllocated",
          "type": "uint256"
        },
        {
          "internalType": "uint256",
          "name": "monthlyTokens",
          "type": "uint256"
        },
        {
          "internalType": "uint256",
          "name": "vestingDuration",
          "type": "uint256"
        },
        {
          "internalType": "uint256",
          "name": "vestingCliff",
          "type": "uint256"
        },
        {
          "internalType": "uint256",
          "name": "totalVestingTokensClaimed",
          "type": "uint256"
        },
        {
          "internalType": "bool",
          "name": "isVesting",
          "type": "bool"
        },
        {
          "internalType": "bool",
          "name": "isTgeTokensClaimed",
          "type": "bool"
        }
      ],
      "stateMutability": "view",
      "type": "function",
      "constant": true
    },
    {
      "inputs": [
        {
          "internalType": "uint256",
          "name": "",
          "type": "uint256"
        }
      ],
      "name": "vestCategory",
      "outputs": [
        {
          "internalType": "uint8",
          "name": "vestingIndex",
          "type": "uint8"
        },
        {
          "internalType": "uint256",
          "name": "vestingCliff",
          "type": "uint256"
        },
        {
          "internalType": "uint256",
          "name": "vestingDuration",
          "type": "uint256"
        },
        {
          "internalType": "uint256",
          "name": "tgePercent",
          "type": "uint256"
        },
        {
          "internalType": "uint256",
          "name": "monthlyPercent",
          "type": "uint256"
        },
        {
          "internalType": "uint256",
          "name": "totalAllocatedToken",
          "type": "uint256"
        }
      ],
      "stateMutability": "view",
      "type": "function",
      "constant": true
    },
    {
      "inputs": [
        {
          "internalType": "address",
          "name": "_PublicSaleAddress",
          "type": "address"
        }
      ],
      "name": "initialize",
      "outputs": [],
      "stateMutability": "nonpayable",
      "type": "function"
    },
    {
      "inputs": [],
      "name": "getCurrentTime",
      "outputs": [
        {
          "internalType": "uint256",
          "name": "",
          "type": "uint256"
        }
      ],
      "stateMutability": "view",
      "type": "function",
      "constant": true
    },
    {
      "inputs": [],
      "name": "getTgeTIME",
      "outputs": [
        {
          "internalType": "uint256",
          "name": "",
          "type": "uint256"
        }
      ],
      "stateMutability": "pure",
      "type": "function",
      "constant": true
    },
    {
      "inputs": [
        {
          "internalType": "uint256",
          "name": "x",
          "type": "uint256"
        },
        {
          "internalType": "uint256",
          "name": "y",
          "type": "uint256"
        },
        {
          "internalType": "uint256",
          "name": "z",
          "type": "uint256"
        }
      ],
      "name": "getTokenAmount",
      "outputs": [
        {
          "internalType": "uint256",
          "name": "",
          "type": "uint256"
        }
      ],
      "stateMutability": "pure",
      "type": "function",
      "constant": true
    },
    {
      "inputs": [
        {
          "internalType": "address[]",
          "name": "_userAddresses",
          "type": "address[]"
        },
        {
          "internalType": "uint256[]",
          "name": "_vestingAmounts",
          "type": "uint256[]"
        },
        {
          "internalType": "uint8",
          "name": "_vestnigType",
          "type": "uint8"
        }
      ],
      "name": "addVestingDetails",
      "outputs": [
        {
          "internalType": "bool",
          "name": "",
          "type": "bool"
        }
      ],
      "stateMutability": "nonpayable",
      "type": "function"
    },
    {
      "inputs": [
        {
          "internalType": "address",
          "name": "_userAddresses",
          "type": "address"
        },
        {
          "internalType": "uint8",
          "name": "_vestingIndex",
          "type": "uint8"
        }
      ],
      "name": "totalTokensClaimed",
      "outputs": [
        {
          "internalType": "uint256",
          "name": "",
          "type": "uint256"
        }
      ],
      "stateMutability": "view",
      "type": "function",
      "constant": true
    },
    {
      "inputs": [
        {
          "internalType": "address",
          "name": "_userAddresses",
          "type": "address"
        },
        {
          "internalType": "uint8",
          "name": "_vestingIndex",
          "type": "uint8"
        }
      ],
      "name": "calculateClaimableTokens",
      "outputs": [
        {
          "internalType": "uint256",
          "name": "",
          "type": "uint256"
        }
      ],
      "stateMutability": "view",
      "type": "function",
      "constant": true
    },
    {
      "inputs": [
        {
          "internalType": "address",
          "name": "_userAddresses",
          "type": "address"
        },
        {
          "internalType": "uint8",
          "name": "_vestingIndex",
          "type": "uint8"
        }
      ],
      "name": "claimTGETokens",
      "outputs": [
        {
          "internalType": "bool",
          "name": "",
          "type": "bool"
        }
      ],
      "stateMutability": "nonpayable",
      "type": "function"
    },
    {
      "inputs": [
        {
          "internalType": "address",
          "name": "_userAddresses",
          "type": "address"
        },
        {
          "internalType": "uint8",
          "name": "_vestingIndex",
          "type": "uint8"
        }
      ],
      "name": "claimVestTokens",
      "outputs": [
        {
          "internalType": "bool",
          "name": "",
          "type": "bool"
        }
      ],
      "stateMutability": "nonpayable",
      "type": "function"
    }
  ],
  "bytecode": "0x608060405234801561001057600080fd5b50614bc0806100206000396000f3fe608060405234801561001057600080fd5b50600436106101ab576000357c0100000000000000000000000000000000000000000000000000000000900480638da5cb5b116100fb578063b09ee193116100b4578063e4f150be1161008e578063e4f150be1461095c578063f2fde38b14610a3a578063f70c12d314610a7e578063f864e1c514610ae3576101ab565b8063b09ee19314610882578063c4d66de8146108a0578063dd62ed3e146108e4576101ab565b80638da5cb5b1461061b5780638e6e9e22146106655780638f9335e4146106ce57806395d89b4114610733578063a457c2d7146107b6578063a9059cbb1461081c576101ab565b8063313ce5671161016857806358a91b761161014257806358a91b761461052e5780635c975abb1461059757806370a08231146105b9578063715018a614610611576101ab565b8063313ce567146103b157806339509351146103d557806352985d2a1461043b576101ab565b806306fdde03146101b0578063095ea7b31461023357806318160ddd1461029957806323b872dd146102b757806329cb924d1461033d5780632be7d6481461035b575b600080fd5b6101b8610b4e565b6040518080602001828103825283818151815260200191508051906020019080838360005b838110156101f85780820151818401526020810190506101dd565b50505050905090810190601f1680156102255780820380516001836020036101000a031916815260200191505b509250505060405180910390f35b61027f6004803603604081101561024957600080fd5b81019080803573ffffffffffffffffffffffffffffffffffffffff16906020019092919080359060200190929190505050610bf0565b604051808215151515815260200191505060405180910390f35b6102a1610c0e565b6040518082815260200191505060405180910390f35b610323600480360360608110156102cd57600080fd5b81019080803573ffffffffffffffffffffffffffffffffffffffff169060200190929190803573ffffffffffffffffffffffffffffffffffffffff16906020019092919080359060200190929190505050610c18565b604051808215151515815260200191505060405180910390f35b610345610cf1565b6040518082815260200191505060405180910390f35b61039b6004803603606081101561037157600080fd5b81019080803590602001909291908035906020019092919080359060200190929190505050610cf9565b6040518082815260200191505060405180910390f35b6103b9610d29565b604051808260ff1660ff16815260200191505060405180910390f35b610421600480360360408110156103eb57600080fd5b81019080803573ffffffffffffffffffffffffffffffffffffffff16906020019092919080359060200190929190505050610d40565b604051808215151515815260200191505060405180910390f35b6105146004803603606081101561045157600080fd5b810190808035906020019064010000000081111561046e57600080fd5b82018360208201111561048057600080fd5b803590602001918460208302840111640100000000831117156104a257600080fd5b9091929391929390803590602001906401000000008111156104c357600080fd5b8201836020820111156104d557600080fd5b803590602001918460208302840111640100000000831117156104f757600080fd5b9091929391929390803560ff169060200190929190505050610df3565b604051808215151515815260200191505060405180910390f35b61057d6004803603604081101561054457600080fd5b81019080803573ffffffffffffffffffffffffffffffffffffffff169060200190929190803560ff169060200190929190505050611089565b604051808215151515815260200191505060405180910390f35b61059f6115c7565b604051808215151515815260200191505060405180910390f35b6105fb600480360360208110156105cf57600080fd5b81019080803573ffffffffffffffffffffffffffffffffffffffff1690602001909291905050506115de565b6040518082815260200191505060405180910390f35b610619611627565b005b610623611797565b604051808273ffffffffffffffffffffffffffffffffffffffff1673ffffffffffffffffffffffffffffffffffffffff16815260200191505060405180910390f35b6106b46004803603604081101561067b57600080fd5b81019080803573ffffffffffffffffffffffffffffffffffffffff169060200190929190803560ff1690602001909291905050506117c1565b604051808215151515815260200191505060405180910390f35b61071d600480360360408110156106e457600080fd5b81019080803573ffffffffffffffffffffffffffffffffffffffff169060200190929190803560ff169060200190929190505050611c85565b6040518082815260200191505060405180910390f35b61073b612171565b6040518080602001828103825283818151815260200191508051906020019080838360005b8381101561077b578082015181840152602081019050610760565b50505050905090810190601f1680156107a85780820380516001836020036101000a031916815260200191505b509250505060405180910390f35b610802600480360360408110156107cc57600080fd5b81019080803573ffffffffffffffffffffffffffffffffffffffff16906020019092919080359060200190929190505050612213565b604051808215151515815260200191505060405180910390f35b6108686004803603604081101561083257600080fd5b81019080803573ffffffffffffffffffffffffffffffffffffffff169060200190929190803590602001909291905050506122e0565b604051808215151515815260200191505060405180910390f35b61088a6122fe565b6040518082815260200191505060405180910390f35b6108e2600480360360208110156108b657600080fd5b81019080803573ffffffffffffffffffffffffffffffffffffffff16906020019092919050505061230a565b005b610946600480360360408110156108fa57600080fd5b81019080803573ffffffffffffffffffffffffffffffffffffffff169060200190929190803573ffffffffffffffffffffffffffffffffffffffff169060200190929190505050612b62565b6040518082815260200191505060405180910390f35b6109ab6004803603604081101561097257600080fd5b81019080803573ffffffffffffffffffffffffffffffffffffffff169060200190929190803560ff169060200190929190505050612be9565b604051808b60ff1660ff1681526020018a73ffffffffffffffffffffffffffffffffffffffff1673ffffffffffffffffffffffffffffffffffffffff16815260200189815260200188815260200187815260200186815260200185815260200184815260200183151515158152602001821515151581526020019a505050505050505050505060405180910390f35b610a7c60048036036020811015610a5057600080fd5b81019080803573ffffffffffffffffffffffffffffffffffffffff169060200190929190505050612c91565b005b610acd60048036036040811015610a9457600080fd5b81019080803573ffffffffffffffffffffffffffffffffffffffff169060200190929190803560ff169060200190929190505050612e86565b6040518082815260200191505060405180910390f35b610b0f60048036036020811015610af957600080fd5b8101908080359060200190929190505050613023565b604051808760ff1660ff168152602001868152602001858152602001848152602001838152602001828152602001965050505050505060405180910390f35b606060688054600181600116156101000203166002900480601f016020809104026020016040519081016040528092919081815260200182805460018160011615610100020316600290048015610be65780601f10610bbb57610100808354040283529160200191610be6565b820191906000526020600020905b815481529060010190602001808311610bc957829003601f168201915b5050505050905090565b6000610c04610bfd61306c565b8484613074565b6001905092915050565b6000606754905090565b6000610c2584848461326b565b610ce684610c3161306c565b610ce185604051806060016040528060288152602001614a4b60289139606660008b73ffffffffffffffffffffffffffffffffffffffff1673ffffffffffffffffffffffffffffffffffffffff1681526020019081526020016000206000610c9761306c565b73ffffffffffffffffffffffffffffffffffffffff1673ffffffffffffffffffffffffffffffffffffffff168152602001908152602001600020546135309092919063ffffffff16565b613074565b600190509392505050565b600042905090565b6000610d2082610d1285876135ea90919063ffffffff16565b61367090919063ffffffff16565b90509392505050565b6000606a60009054906101000a900460ff16905090565b6000610de9610d4d61306c565b84610de48560666000610d5e61306c565b73ffffffffffffffffffffffffffffffffffffffff1673ffffffffffffffffffffffffffffffffffffffff16815260200190815260200160002060008973ffffffffffffffffffffffffffffffffffffffff1673ffffffffffffffffffffffffffffffffffffffff168152602001908152602001600020546136f990919063ffffffff16565b613074565b6001905092915050565b6000610dfd61306c565b73ffffffffffffffffffffffffffffffffffffffff16610e1b611797565b73ffffffffffffffffffffffffffffffffffffffff1614610ea4576040517f08c379a00000000000000000000000000000000000000000000000000000000081526004018080602001828103825260208152602001807f4f776e61626c653a2063616c6c6572206973206e6f7420746865206f776e657281525060200191505060405180910390fd5b838390508686905014610f1f576040517f08c379a00000000000000000000000000000000000000000000000000000000081526004018080602001828103825260158152602001807f556e657175616c2061727261797320706173736564000000000000000000000081525060200191505060405180910390fd5b610f27614772565b60fb60008460ff1681526020019081526020016000206040518060c00160405290816000820160009054906101000a900460ff1660ff1660ff168152602001600182015481526020016002820154815260200160038201548152602001600482015481526020016005820154815250509050600087879050905060008090505b8181101561107957600085905060008a8a84818110610fc257fe5b9050602002013573ffffffffffffffffffffffffffffffffffffffff1690506000898985818110610fef57fe5b905060200201359050600086602001519050600087604001519050600061102e8d8d8981811061101b57fe5b905060200201358a606001516064610cf9565b905060006110548e8e8a81811061104157fe5b905060200201358b608001516064610cf9565b905061106586888787878787613781565b505050505050508080600101915050610fa7565b5060019250505095945050505050565b6000828260fc60008373ffffffffffffffffffffffffffffffffffffffff1673ffffffffffffffffffffffffffffffffffffffff16815260200190815260200160002060008260ff1660ff16815260200190815260200160002060070160009054906101000a900460ff16611149576040517f08c379a00000000000000000000000000000000000000000000000000000000081526004018080602001828103825260268152602001806149746026913960400191505060405180910390fd5b6111516147ab565b60fc60008773ffffffffffffffffffffffffffffffffffffffff1673ffffffffffffffffffffffffffffffffffffffff16815260200190815260200160002060008660ff1660ff168152602001908152602001600020604051806101400160405290816000820160009054906101000a900460ff1660ff1660ff1681526020016000820160019054906101000a900473ffffffffffffffffffffffffffffffffffffffff1673ffffffffffffffffffffffffffffffffffffffff1673ffffffffffffffffffffffffffffffffffffffff1681526020016001820154815260200160028201548152602001600382015481526020016004820154815260200160058201548152602001600682015481526020016007820160009054906101000a900460ff161515151581526020016007820160019054906101000a900460ff161515151581525050905060006112a68787612e86565b905060006112b48888611c85565b90506000811161132c576040517f08c379a00000000000000000000000000000000000000000000000000000000081526004018080602001828103825260158152602001807f4e6f20746f6b656e7320746f207472616e73666572000000000000000000000081525060200191505060405180910390fd5b6000611337306115de565b9050818111611391576040517f08c379a0000000000000000000000000000000000000000000000000000000008152600401808060200182810382526024815260200180614b186024913960400191505060405180910390fd5b83604001516113a983856136f990919063ffffffff16565b111561141d576040517f08c379a00000000000000000000000000000000000000000000000000000000081526004018080602001828103825260208152602001807f43616e6e6f7420436c61696d206d6f7265207468616e20416c6c6f636174656481525060200191505060405180910390fd5b818460e0018181510191508181525050836040015161144583856136f990919063ffffffff16565b1415611470576000846101000190151590811515815250506001846101200190151590811515815250505b8360fc60008b73ffffffffffffffffffffffffffffffffffffffff1673ffffffffffffffffffffffffffffffffffffffff16815260200190815260200160002060008a60ff1660ff16815260200190815260200160002060008201518160000160006101000a81548160ff021916908360ff16021790555060208201518160000160016101000a81548173ffffffffffffffffffffffffffffffffffffffff021916908373ffffffffffffffffffffffffffffffffffffffff16021790555060408201518160010155606082015181600201556080820151816003015560a0820151816004015560c0820151816005015560e082015181600601556101008201518160070160006101000a81548160ff0219169083151502179055506101208201518160070160016101000a81548160ff0219169083151502179055509050506115ba8983613b29565b5050505050505092915050565b6000609760009054906101000a900460ff16905090565b6000606560008373ffffffffffffffffffffffffffffffffffffffff1673ffffffffffffffffffffffffffffffffffffffff168152602001908152602001600020549050919050565b61162f61306c565b73ffffffffffffffffffffffffffffffffffffffff1661164d611797565b73ffffffffffffffffffffffffffffffffffffffff16146116d6576040517f08c379a00000000000000000000000000000000000000000000000000000000081526004018080602001828103825260208152602001807f4f776e61626c653a2063616c6c6572206973206e6f7420746865206f776e657281525060200191505060405180910390fd5b600073ffffffffffffffffffffffffffffffffffffffff16603360009054906101000a900473ffffffffffffffffffffffffffffffffffffffff1673ffffffffffffffffffffffffffffffffffffffff167f8be0079c531659141344cd1fd0a4f28419497f9722a3daafe3b4186f6b6457e060405160405180910390a36000603360006101000a81548173ffffffffffffffffffffffffffffffffffffffff021916908373ffffffffffffffffffffffffffffffffffffffff160217905550565b6000603360009054906101000a900473ffffffffffffffffffffffffffffffffffffffff16905090565b6000828260fc60008373ffffffffffffffffffffffffffffffffffffffff1673ffffffffffffffffffffffffffffffffffffffff16815260200190815260200160002060008260ff1660ff16815260200190815260200160002060070160009054906101000a900460ff16611881576040517f08c379a00000000000000000000000000000000000000000000000000000000081526004018080602001828103825260268152602001806149746026913960400191505060405180910390fd5b600061188b610cf1565b90506118956122fe565b81116118ec576040517f08c379a0000000000000000000000000000000000000000000000000000000008152600401808060200182810382526026815260200180614aa96026913960400191505060405180910390fd5b6118f46147ab565b60fc60008873ffffffffffffffffffffffffffffffffffffffff1673ffffffffffffffffffffffffffffffffffffffff16815260200190815260200160002060008760ff1660ff168152602001908152602001600020604051806101400160405290816000820160009054906101000a900460ff1660ff1660ff1681526020016000820160019054906101000a900473ffffffffffffffffffffffffffffffffffffffff1673ffffffffffffffffffffffffffffffffffffffff1673ffffffffffffffffffffffffffffffffffffffff1681526020016001820154815260200160028201548152602001600382015481526020016004820154815260200160058201548152602001600682015481526020016007820160009054906101000a900460ff161515151581526020016007820160019054906101000a900460ff16151515158152505090506007816000015160ff1610158015611a5d57506009816000015160ff1611155b611ab2576040517f08c379a000000000000000000000000000000000000000000000000000000000815260040180806020018281038252602f81526020018061499a602f913960400191505060405180910390fd5b60001515816101200151151514611b14576040517f08c379a0000000000000000000000000000000000000000000000000000000008152600401808060200182810382526036815260200180614a736036913960400191505060405180910390fd5b6000816060015190506001826101200190151590811515815250508160fc60008a73ffffffffffffffffffffffffffffffffffffffff1673ffffffffffffffffffffffffffffffffffffffff16815260200190815260200160002060008960ff1660ff16815260200190815260200160002060008201518160000160006101000a81548160ff021916908360ff16021790555060208201518160000160016101000a81548173ffffffffffffffffffffffffffffffffffffffff021916908373ffffffffffffffffffffffffffffffffffffffff16021790555060408201518160010155606082015181600201556080820151816003015560a0820151816004015560c0820151816005015560e082015181600601556101008201518160070160006101000a81548160ff0219169083151502179055506101208201518160070160016101000a81548160ff021916908315150217905550905050611c798882613b29565b50505050505092915050565b6000828260fc60008373ffffffffffffffffffffffffffffffffffffffff1673ffffffffffffffffffffffffffffffffffffffff16815260200190815260200160002060008260ff1660ff16815260200190815260200160002060070160009054906101000a900460ff16611d45576040517f08c379a00000000000000000000000000000000000000000000000000000000081526004018080602001828103825260268152602001806149746026913960400191505060405180910390fd5b611d4d6147ab565b60fc60008773ffffffffffffffffffffffffffffffffffffffff1673ffffffffffffffffffffffffffffffffffffffff16815260200190815260200160002060008660ff1660ff168152602001908152602001600020604051806101400160405290816000820160009054906101000a900460ff1660ff1660ff1681526020016000820160019054906101000a900473ffffffffffffffffffffffffffffffffffffffff1673ffffffffffffffffffffffffffffffffffffffff1673ffffffffffffffffffffffffffffffffffffffff1681526020016001820154815260200160028201548152602001600382015481526020016004820154815260200160058201548152602001600682015481526020016007820160009054906101000a900460ff161515151581526020016007820160019054906101000a900460ff1615151515815250509050611e9e61481b565b601481600160048110611ead57fe5b602002018181525050603281600260048110611ec557fe5b602002018181525050605081600360048110611edd57fe5b6020020181815250506000806000611ef36122fe565b90506000611eff610cf1565b90506000611f168383613b4090919063ffffffff16565b90506000611f34611f25613bc3565b8361367090919063ffffffff16565b90506000611f428e8e612e86565b90508860c001518211611fbd576040517f08c379a000000000000000000000000000000000000000000000000000000000815260040180806020018281038252601d8152602001807f56657374696e6720436c696666204e6f742043726f737365642059657400000081525060200191505060405180910390fd5b8860a00151821115611fe757611fe0818a60400151613b4090919063ffffffff16565b965061215d565b60006120008a60c0015184613b4090919063ffffffff16565b905060008111612078576040517f08c379a00000000000000000000000000000000000000000000000000000000081526004018080602001828103825260208152602001807f4e756d626572206f66206d6f6e74687320656c6170736564206973205a45524f81525060200191505060405180910390fd5b60098a6000015160ff1614156120af576120a88a604001518a836004811061209c57fe5b60200201516064610cf9565b96506120c9565b6120c6818b608001516135ea90919063ffffffff16565b96505b8960e001518711612142576040517f08c379a00000000000000000000000000000000000000000000000000000000081526004018080602001828103825260208152602001807f4e6f20436c61696d61626c6520546f6b656e7320617420746869732054696d6581525060200191505060405180910390fd5b6121598a60e0015188613b4090919063ffffffff16565b9750505b869b50505050505050505050505092915050565b606060698054600181600116156101000203166002900480601f0160208091040260200160405190810160405280929190818152602001828054600181600116156101000203166002900480156122095780601f106121de57610100808354040283529160200191612209565b820191906000526020600020905b8154815290600101906020018083116121ec57829003601f168201915b5050505050905090565b60006122d661222061306c565b846122d185604051806060016040528060258152602001614b3c602591396066600061224a61306c565b73ffffffffffffffffffffffffffffffffffffffff1673ffffffffffffffffffffffffffffffffffffffff16815260200190815260200160002060008a73ffffffffffffffffffffffffffffffffffffffff1673ffffffffffffffffffffffffffffffffffffffff168152602001908152602001600020546135309092919063ffffffff16565b613074565b6001905092915050565b60006122f46122ed61306c565b848461326b565b6001905092915050565b6000636043398b905090565b600060019054906101000a900460ff16806123295750612328613bce565b5b8061234057506000809054906101000a900460ff16155b612395576040517f08c379a000000000000000000000000000000000000000000000000000000000815260040180806020018281038252602e8152602001806149c9602e913960400191505060405180910390fd5b60008060019054906101000a900460ff1615905080156123e5576001600060016101000a81548160ff02191690831515021790555060016000806101000a81548160ff0219169083151502179055505b6123ed613bdf565b6124616040518060400160405280600881526020017f506c617963656e740000000000000000000000000000000000000000000000008152506040518060400160405280600481526020017f50434e5400000000000000000000000000000000000000000000000000000000815250613cee565b612469613e01565b612485612474611797565b6a2fa54641bae8aaa0000000613f18565b61249a826a01fc3842bd1f071c000000613f18565b6040518060c00160405280600060ff168152602001600c81526020016020815260200160008152602001600581526020016a0771d2fa45345aa900000081525060fb600080815260200190815260200160002060008201518160000160006101000a81548160ff021916908360ff1602179055506020820151816001015560408201518160020155606082015181600301556080820151816004015560a082015181600501559050506040518060c00160405280600160ff16815260200160038152602001600d815260200160008152602001600a81526020016a03f870857a3e0e3800000081525060fb60006001815260200190815260200160002060008201518160000160006101000a81548160ff021916908360ff1602179055506020820151816001015560408201518160020155606082015181600301556080820151816004015560a082015181600501559050506040518060c00160405280600260ff16815260200160038152602001600d815260200160008152602001600a81526020016a03f870857a3e0e3800000081525060fb60006002815260200190815260200160002060008201518160000160006101000a81548160ff021916908360ff1602179055506020820151816001015560408201518160020155606082015181600301556080820151816004015560a082015181600501559050506040518060c00160405280600360ff16815260200160018152602001600b815260200160008152602001600a81526020016a01fc3842bd1f071c00000081525060fb60006003815260200190815260200160002060008201518160000160006101000a81548160ff021916908360ff1602179055506020820151816001015560408201518160020155606082015181600301556080820151816004015560a082015181600501559050506040518060c00160405280600460ff16815260200160018152602001600a815260200160008152602001600a81526020016a03f870857a3e0e3800000081525060fb60006004815260200190815260200160002060008201518160000160006101000a81548160ff021916908360ff1602179055506020820151816001015560408201518160020155606082015181600301556080820151816004015560a082015181600501559050506040518060c00160405280600560ff16815260200160038152602001601c815260200160008152602001600481526020016a0771d2fa45345aa900000081525060fb60006005815260200190815260200160002060008201518160000160006101000a81548160ff021916908360ff1602179055506020820151816001015560408201518160020155606082015181600301556080820151816004015560a082015181600501559050506040518060c00160405280600660ff16815260200160068152602001601f815260200160008152602001600481526020016a03796274caf64c7100000081525060fb60006006815260200190815260200160002060008201518160000160006101000a81548160ff021916908360ff1602179055506020820151816001015560408201518160020155606082015181600301556080820151816004015560a082015181600501559050506040518060c00160405280600760ff1681526020016001815260200160078152602001600a8152602001600f81526020016a04b7059e8129b0e280000081525060fb60006007815260200190815260200160002060008201518160000160006101000a81548160ff021916908360ff1602179055506020820151816001015560408201518160020155606082015181600301556080820151816004015560a082015181600501559050506040518060c00160405280600860ff1681526020016001815260200160058152602001600f8152602001601481526020016a04777e962985cfff00000081525060fb60006008815260200190815260200160002060008201518160000160006101000a81548160ff021916908360ff1602179055506020820151816001015560408201518160020155606082015181600301556080820151816004015560a082015181600501559050506040518060c00160405280600960ff168152602001600181526020016004815260200160148152602001601481526020016a0437f78dd1e1ef1b80000081525060fb60006009815260200190815260200160002060008201518160000160006101000a81548160ff021916908360ff1602179055506020820151816001015560408201518160020155606082015181600301556080820151816004015560a082015181600501559050508015612b5e5760008060016101000a81548160ff0219169083151502179055505b5050565b6000606660008473ffffffffffffffffffffffffffffffffffffffff1673ffffffffffffffffffffffffffffffffffffffff16815260200190815260200160002060008373ffffffffffffffffffffffffffffffffffffffff1673ffffffffffffffffffffffffffffffffffffffff16815260200190815260200160002054905092915050565b60fc602052816000526040600020602052806000526040600020600091509150508060000160009054906101000a900460ff16908060000160019054906101000a900473ffffffffffffffffffffffffffffffffffffffff16908060010154908060020154908060030154908060040154908060050154908060060154908060070160009054906101000a900460ff16908060070160019054906101000a900460ff1690508a565b612c9961306c565b73ffffffffffffffffffffffffffffffffffffffff16612cb7611797565b73ffffffffffffffffffffffffffffffffffffffff1614612d40576040517f08c379a00000000000000000000000000000000000000000000000000000000081526004018080602001828103825260208152602001807f4f776e61626c653a2063616c6c6572206973206e6f7420746865206f776e657281525060200191505060405180910390fd5b600073ffffffffffffffffffffffffffffffffffffffff168173ffffffffffffffffffffffffffffffffffffffff161415612dc6576040517f08c379a00000000000000000000000000000000000000000000000000000000081526004018080602001828103825260268152602001806149066026913960400191505060405180910390fd5b8073ffffffffffffffffffffffffffffffffffffffff16603360009054906101000a900473ffffffffffffffffffffffffffffffffffffffff1673ffffffffffffffffffffffffffffffffffffffff167f8be0079c531659141344cd1fd0a4f28419497f9722a3daafe3b4186f6b6457e060405160405180910390a380603360006101000a81548173ffffffffffffffffffffffffffffffffffffffff021916908373ffffffffffffffffffffffffffffffffffffffff16021790555050565b600080612e916147ab565b60fc60008673ffffffffffffffffffffffffffffffffffffffff1673ffffffffffffffffffffffffffffffffffffffff16815260200190815260200160002060008560ff1660ff168152602001908152602001600020604051806101400160405290816000820160009054906101000a900460ff1660ff1660ff1681526020016000820160019054906101000a900473ffffffffffffffffffffffffffffffffffffffff1673ffffffffffffffffffffffffffffffffffffffff1673ffffffffffffffffffffffffffffffffffffffff1681526020016001820154815260200160028201548152602001600382015481526020016004820154815260200160058201548152602001600682015481526020016007820160009054906101000a900460ff161515151581526020016007820160019054906101000a900460ff1615151515815250509050612ff18160e00151836136f990919063ffffffff16565b915080610120015115613018576130158160600151836136f990919063ffffffff16565b91505b819250505092915050565b60fb6020528060005260406000206000915090508060000160009054906101000a900460ff16908060010154908060020154908060030154908060040154908060050154905086565b600033905090565b600073ffffffffffffffffffffffffffffffffffffffff168373ffffffffffffffffffffffffffffffffffffffff1614156130fa576040517f08c379a0000000000000000000000000000000000000000000000000000000008152600401808060200182810382526024815260200180614af46024913960400191505060405180910390fd5b600073ffffffffffffffffffffffffffffffffffffffff168273ffffffffffffffffffffffffffffffffffffffff161415613180576040517f08c379a000000000000000000000000000000000000000000000000000000000815260040180806020018281038252602281526020018061492c6022913960400191505060405180910390fd5b80606660008573ffffffffffffffffffffffffffffffffffffffff1673ffffffffffffffffffffffffffffffffffffffff16815260200190815260200160002060008473ffffffffffffffffffffffffffffffffffffffff1673ffffffffffffffffffffffffffffffffffffffff168152602001908152602001600020819055508173ffffffffffffffffffffffffffffffffffffffff168373ffffffffffffffffffffffffffffffffffffffff167f8c5be1e5ebec7d5bd14f71427d1e84f3dd0314c0f7b2291e5b200ac8c7c3b925836040518082815260200191505060405180910390a3505050565b600073ffffffffffffffffffffffffffffffffffffffff168373ffffffffffffffffffffffffffffffffffffffff1614156132f1576040517f08c379a0000000000000000000000000000000000000000000000000000000008152600401808060200182810382526025815260200180614acf6025913960400191505060405180910390fd5b600073ffffffffffffffffffffffffffffffffffffffff168273ffffffffffffffffffffffffffffffffffffffff161415613377576040517f08c379a00000000000000000000000000000000000000000000000000000000081526004018080602001828103825260238152602001806148e36023913960400191505060405180910390fd5b6133828383836140e1565b6133ee8160405180606001604052806026815260200161494e60269139606560008773ffffffffffffffffffffffffffffffffffffffff1673ffffffffffffffffffffffffffffffffffffffff168152602001908152602001600020546135309092919063ffffffff16565b606560008573ffffffffffffffffffffffffffffffffffffffff1673ffffffffffffffffffffffffffffffffffffffff1681526020019081526020016000208190555061348381606560008573ffffffffffffffffffffffffffffffffffffffff1673ffffffffffffffffffffffffffffffffffffffff168152602001908152602001600020546136f990919063ffffffff16565b606560008473ffffffffffffffffffffffffffffffffffffffff1673ffffffffffffffffffffffffffffffffffffffff168152602001908152602001600020819055508173ffffffffffffffffffffffffffffffffffffffff168373ffffffffffffffffffffffffffffffffffffffff167fddf252ad1be2c89b69c2b068fc378daa952ba7f163c4a11628f55a4df523b3ef836040518082815260200191505060405180910390a3505050565b60008383111582906135dd576040517f08c379a00000000000000000000000000000000000000000000000000000000081526004018080602001828103825283818151815260200191508051906020019080838360005b838110156135a2578082015181840152602081019050613587565b50505050905090810190601f1680156135cf5780820380516001836020036101000a031916815260200191505b509250505060405180910390fd5b5082840390509392505050565b6000808314156135fd576000905061366a565b600082840290508284828161360e57fe5b0414613665576040517f08c379a0000000000000000000000000000000000000000000000000000000008152600401808060200182810382526021815260200180614a2a6021913960400191505060405180910390fd5b809150505b92915050565b60008082116136e7576040517f08c379a000000000000000000000000000000000000000000000000000000000815260040180806020018281038252601a8152602001807f536166654d6174683a206469766973696f6e206279207a65726f00000000000081525060200191505060405180910390fd5b8183816136f057fe5b04905092915050565b600080828401905083811015613777576040517f08c379a000000000000000000000000000000000000000000000000000000000815260040180806020018281038252601b8152602001807f536166654d6174683a206164646974696f6e206f766572666c6f77000000000081525060200191505060405180910390fd5b8091505092915050565b868660008160ff161015801561379b575060098160ff1611155b61380d576040517f08c379a00000000000000000000000000000000000000000000000000000000081526004018080602001828103825260158152602001807f496e76616c69642056657374696e6720496e646578000000000000000000000081525060200191505060405180910390fd5b600073ffffffffffffffffffffffffffffffffffffffff168273ffffffffffffffffffffffffffffffffffffffff1614156138b0576040517f08c379a000000000000000000000000000000000000000000000000000000000815260040180806020018281038252600f8152602001807f496e76616c69642041646472657373000000000000000000000000000000000081525060200191505060405180910390fd5b60fc60008373ffffffffffffffffffffffffffffffffffffffff1673ffffffffffffffffffffffffffffffffffffffff16815260200190815260200160002060008260ff1660ff16815260200190815260200160002060070160009054906101000a900460ff161561396d576040517f08c379a00000000000000000000000000000000000000000000000000000000081526004018080602001828103825260338152602001806149f76033913960400191505060405180910390fd5b6139756147ab565b6040518061014001604052808a60ff1681526020018b73ffffffffffffffffffffffffffffffffffffffff168152602001898152602001868152602001858152602001878152602001888152602001600081526020016001151581526020016000151581525090508060fc60008c73ffffffffffffffffffffffffffffffffffffffff1673ffffffffffffffffffffffffffffffffffffffff16815260200190815260200160002060008b60ff1660ff16815260200190815260200160002060008201518160000160006101000a81548160ff021916908360ff16021790555060208201518160000160016101000a81548173ffffffffffffffffffffffffffffffffffffffff021916908373ffffffffffffffffffffffffffffffffffffffff16021790555060408201518160010155606082015181600201556080820151816003015560a0820151816004015560c0820151816005015560e082015181600601556101008201518160070160006101000a81548160ff0219169083151502179055506101208201518160070160016101000a81548160ff02191690831515021790555090505050505050505050505050565b6000613b3630848461326b565b6001905092915050565b600082821115613bb8576040517f08c379a000000000000000000000000000000000000000000000000000000000815260040180806020018281038252601e8152602001807f536166654d6174683a207375627472616374696f6e206f766572666c6f77000081525060200191505060405180910390fd5b818303905092915050565b600062278d00905090565b6000613bd93061414f565b15905090565b600060019054906101000a900460ff1680613bfe5750613bfd613bce565b5b80613c1557506000809054906101000a900460ff16155b613c6a576040517f08c379a000000000000000000000000000000000000000000000000000000000815260040180806020018281038252602e8152602001806149c9602e913960400191505060405180910390fd5b60008060019054906101000a900460ff161590508015613cba576001600060016101000a81548160ff02191690831515021790555060016000806101000a81548160ff0219169083151502179055505b613cc2614162565b613cca614261565b8015613ceb5760008060016101000a81548160ff0219169083151502179055505b50565b600060019054906101000a900460ff1680613d0d5750613d0c613bce565b5b80613d2457506000809054906101000a900460ff16155b613d79576040517f08c379a000000000000000000000000000000000000000000000000000000000815260040180806020018281038252602e8152602001806149c9602e913960400191505060405180910390fd5b60008060019054906101000a900460ff161590508015613dc9576001600060016101000a81548160ff02191690831515021790555060016000806101000a81548160ff0219169083151502179055505b613dd1614162565b613ddb8383614409565b8015613dfc5760008060016101000a81548160ff0219169083151502179055505b505050565b600060019054906101000a900460ff1680613e205750613e1f613bce565b5b80613e3757506000809054906101000a900460ff16155b613e8c576040517f08c379a000000000000000000000000000000000000000000000000000000000815260040180806020018281038252602e8152602001806149c9602e913960400191505060405180910390fd5b60008060019054906101000a900460ff161590508015613edc576001600060016101000a81548160ff02191690831515021790555060016000806101000a81548160ff0219169083151502179055505b613ee4614162565b613eec614554565b613ef461466e565b8015613f155760008060016101000a81548160ff0219169083151502179055505b50565b600073ffffffffffffffffffffffffffffffffffffffff168273ffffffffffffffffffffffffffffffffffffffff161415613fbb576040517f08c379a000000000000000000000000000000000000000000000000000000000815260040180806020018281038252601f8152602001807f45524332303a206d696e7420746f20746865207a65726f20616464726573730081525060200191505060405180910390fd5b613fc7600083836140e1565b613fdc816067546136f990919063ffffffff16565b60678190555061403481606560008573ffffffffffffffffffffffffffffffffffffffff1673ffffffffffffffffffffffffffffffffffffffff168152602001908152602001600020546136f990919063ffffffff16565b606560008473ffffffffffffffffffffffffffffffffffffffff1673ffffffffffffffffffffffffffffffffffffffff168152602001908152602001600020819055508173ffffffffffffffffffffffffffffffffffffffff16600073ffffffffffffffffffffffffffffffffffffffff167fddf252ad1be2c89b69c2b068fc378daa952ba7f163c4a11628f55a4df523b3ef836040518082815260200191505060405180910390a35050565b6140ec83838361476d565b6140f46115c7565b1561414a576040517f08c379a000000000000000000000000000000000000000000000000000000000815260040180806020018281038252602a815260200180614b61602a913960400191505060405180910390fd5b505050565b600080823b905060008111915050919050565b600060019054906101000a900460ff16806141815750614180613bce565b5b8061419857506000809054906101000a900460ff16155b6141ed576040517f08c379a000000000000000000000000000000000000000000000000000000000815260040180806020018281038252602e8152602001806149c9602e913960400191505060405180910390fd5b60008060019054906101000a900460ff16159050801561423d576001600060016101000a81548160ff02191690831515021790555060016000806101000a81548160ff0219169083151502179055505b801561425e5760008060016101000a81548160ff0219169083151502179055505b50565b600060019054906101000a900460ff1680614280575061427f613bce565b5b8061429757506000809054906101000a900460ff16155b6142ec576040517f08c379a000000000000000000000000000000000000000000000000000000000815260040180806020018281038252602e8152602001806149c9602e913960400191505060405180910390fd5b60008060019054906101000a900460ff16159050801561433c576001600060016101000a81548160ff02191690831515021790555060016000806101000a81548160ff0219169083151502179055505b600061434661306c565b905080603360006101000a81548173ffffffffffffffffffffffffffffffffffffffff021916908373ffffffffffffffffffffffffffffffffffffffff1602179055508073ffffffffffffffffffffffffffffffffffffffff16600073ffffffffffffffffffffffffffffffffffffffff167f8be0079c531659141344cd1fd0a4f28419497f9722a3daafe3b4186f6b6457e060405160405180910390a35080156144065760008060016101000a81548160ff0219169083151502179055505b50565b600060019054906101000a900460ff16806144285750614427613bce565b5b8061443f57506000809054906101000a900460ff16155b614494576040517f08c379a000000000000000000000000000000000000000000000000000000000815260040180806020018281038252602e8152602001806149c9602e913960400191505060405180910390fd5b60008060019054906101000a900460ff1615905080156144e4576001600060016101000a81548160ff02191690831515021790555060016000806101000a81548160ff0219169083151502179055505b82606890805190602001906144fa92919061483d565b50816069908051906020019061451192919061483d565b506012606a60006101000a81548160ff021916908360ff160217905550801561454f5760008060016101000a81548160ff0219169083151502179055505b505050565b600060019054906101000a900460ff16806145735750614572613bce565b5b8061458a57506000809054906101000a900460ff16155b6145df576040517f08c379a000000000000000000000000000000000000000000000000000000000815260040180806020018281038252602e8152602001806149c9602e913960400191505060405180910390fd5b60008060019054906101000a900460ff16159050801561462f576001600060016101000a81548160ff02191690831515021790555060016000806101000a81548160ff0219169083151502179055505b6000609760006101000a81548160ff021916908315150217905550801561466b5760008060016101000a81548160ff0219169083151502179055505b50565b600060019054906101000a900460ff168061468d575061468c613bce565b5b806146a457506000809054906101000a900460ff16155b6146f9576040517f08c379a000000000000000000000000000000000000000000000000000000000815260040180806020018281038252602e8152602001806149c9602e913960400191505060405180910390fd5b60008060019054906101000a900460ff161590508015614749576001600060016101000a81548160ff02191690831515021790555060016000806101000a81548160ff0219169083151502179055505b801561476a5760008060016101000a81548160ff0219169083151502179055505b50565b505050565b6040518060c00160405280600060ff16815260200160008152602001600081526020016000815260200160008152602001600081525090565b604051806101400160405280600060ff168152602001600073ffffffffffffffffffffffffffffffffffffffff1681526020016000815260200160008152602001600081526020016000815260200160008152602001600081526020016000151581526020016000151581525090565b6040518060800160405280600490602082028038833980820191505090505090565b828054600181600116156101000203166002900490600052602060002090601f016020900481019282601f1061487e57805160ff19168380011785556148ac565b828001600101855582156148ac579182015b828111156148ab578251825591602001919060010190614890565b5b5090506148b991906148bd565b5090565b6148df91905b808211156148db5760008160009055506001016148c3565b5090565b9056fe45524332303a207472616e7366657220746f20746865207a65726f20616464726573734f776e61626c653a206e6577206f776e657220697320746865207a65726f206164647265737345524332303a20617070726f766520746f20746865207a65726f206164647265737345524332303a207472616e7366657220616d6f756e7420657863656564732062616c616e636555736572204e4f5420616464656420746f20616e792056657374696e672043617465676f727956657374696e672043617465676f727920646f65736e27742062656c6f6e6720746f2053414c452056457374696e67496e697469616c697a61626c653a20636f6e747261637420697320616c726561647920696e697469616c697a6564557365722056657374696e672044657461696c7320416c726561647920416464656420746f20746869732043617465676f7279536166654d6174683a206d756c7469706c69636174696f6e206f766572666c6f7745524332303a207472616e7366657220616d6f756e74206578636565647320616c6c6f77616e636554474520546f6b656e73204861766520616c7265616479206265656e20636c61696d656420666f7220476976656e2041646472657373546f6b656e2047656e65726174696f6e204576656e74204e6f7420537461727465642059657445524332303a207472616e736665722066726f6d20746865207a65726f206164647265737345524332303a20617070726f76652066726f6d20746865207a65726f20616464726573734e6f7420456e6f75676820546f6b656e2042616c616e636520696e20436f6e747261637445524332303a2064656372656173656420616c6c6f77616e63652062656c6f77207a65726f45524332305061757361626c653a20746f6b656e207472616e73666572207768696c6520706175736564a2646970667358221220c42825124dfd0d0359bf6b784c9a2737e6250a2100972dc29f715a1f6918ae9a64736f6c63430006020033",
  "source": "pragma solidity 0.6.2;\n// SPDX-License-Identifier: MIT\n\nimport \"@openzeppelin/contracts-upgradeable/token/ERC20/ERC20Upgradeable.sol\";\nimport \"@openzeppelin/contracts-upgradeable/math/SafeMathUpgradeable.sol\";\nimport \"@openzeppelin/contracts-upgradeable/access/OwnableUpgradeable.sol\";\nimport \"@openzeppelin/contracts-upgradeable/proxy/Initializable.sol\";\nimport \"@openzeppelin/contracts-upgradeable/token/ERC20/ERC20PausableUpgradeable.sol\";\nimport \"@openzeppelin/contracts-upgradeable/math/SafeMathUpgradeable.sol\";\n\n\ncontract PlayToken is Initializable,OwnableUpgradeable,ERC20PausableUpgradeable{\n    using SafeMathUpgradeable for uint;\n    /**\n     * Category 0 - Team\n     * Category 1 - Operations\n     * Category 2 - Marketing/Partners\n     * Category 3 - Advisors\n     * Category 4 - Staking/Earn Incentives\n     * Category 5 - Play/Mining\n     * Category 6 - Reserve\n     * Category 7 - Seed Sale\n     * Category 8 - Private 1\n     * Category 9 - Private 2\n     */\n    struct VestingDetails{\n        uint8 vestingIndex;\n        uint vestingCliff;\n        uint vestingDuration;\n        uint tgePercent;\n        uint monthlyPercent;\n        uint totalAllocatedToken;\n    }\n\n    struct VestAccountDetails{\n        uint8 vestingIndex;\n        address walletAddress;\n        uint totalTokensAllocated;\n        uint tgeTokensAllocated;\n        uint monthlyTokens;\n        uint vestingDuration;\n        uint vestingCliff;\n        uint totalVestingTokensClaimed;\n        bool isVesting;\n        bool isTgeTokensClaimed;\n    }\n\n    mapping (uint => VestingDetails) public vestCategory;\n    \n    mapping(address => mapping(uint8 => VestAccountDetails)) public userToVestingDetails;\n    \n    function initialize(address _PublicSaleAddress) initializer public{\n        __Ownable_init();\n        __ERC20_init('Playcent','PCNT');        \n        __ERC20Pausable_init();\n        _mint(owner(),57600000 ether);\n        _mint(_PublicSaleAddress,2400000 ether);\n        \n        vestCategory[0] = VestingDetails(0,12,32,0,5,9000000 ether); // Team\n        vestCategory[1] = VestingDetails(1,3,13,0,10,4800000 ether); // Operations\n        vestCategory[2] = VestingDetails(2,3,13,0,10,4800000 ether); // Marketing/Partners\n        vestCategory[3] = VestingDetails(3,1,11,0,10,2400000 ether); // Advisors\n        vestCategory[4] = VestingDetails(4,1,10,0,10,4800000 ether); //Staking/Early Incentive Rewards\n        vestCategory[5] = VestingDetails(5,3,28,0,4, 9000000 ether); //Play Mining  \n        vestCategory[6] = VestingDetails(6,6,31,0,4, 4200000 ether); //Reserve  \n        // Sale Vesting Strategies\n        vestCategory[7] = VestingDetails(7,1,7,10,15,5700000 ether); // Seed Sale\n        vestCategory[8] = VestingDetails(8,1,5,15,20,5400000 ether); // Private Sale 1\n        vestCategory[9] = VestingDetails(9,1,4,20,20,5100000 ether); // Private Sale 2\n    }\n\n    modifier onlyValidVestingBenifciary(address _userAddresses,uint8 _vestingIndex) { \n        require(_vestingIndex >= 0 && _vestingIndex <= 9,\"Invalid Vesting Index\");        \n        require (_userAddresses != address(0),\"Invalid Address\");\n        require (!userToVestingDetails[_userAddresses][_vestingIndex].isVesting,\"User Vesting Details Already Added to this Category\");\n        _; \n    }\n\n    modifier checkValidVestingCategory(uint8 _index){ \n        require(_index >= 0 && _index <= 9,\"Invalid Vesting Index\");\n        _; \n    }\n\n    modifier checkVestingStatus(address _userAddresses,uint8 _vestingIndex){ \n        require (userToVestingDetails[_userAddresses][_vestingIndex].isVesting,\"User NOT added to any Vesting Category\");\n        _; \n    }\n\n    function getCurrentTime() public view returns(uint256){\n        return block.timestamp;\n    }   \n\n    function monthInSeconds() internal pure returns(uint256){       \n        return 2592000;\n    }\n    \n    function daysInSeconds() internal pure returns(uint256){        \n        return 86400;\n    }\n\n    function  getTgeTIME() public pure returns(uint256){\n        return 1615018379; // Sat Mar 06 2021 11:30:00 GMT+0000\n    }\n\n    function getTokenAmount(uint x, uint y, uint z) public pure returns (uint) {\n        return x.mul(y).div(z);\n    }\n    \n    \n\n    /**\n     * @notice - Allows only the Owner to ADD an array of Addresses as well as their Vesting Amount\n               - The array of user and amounts should be passed along with the vestingCategory Index. \n               - Thus, a particular batch of addresses shall be added under only one Vesting Category Index \n     * @param _userAddresses array of addresses of the Users\n     * @param _vestingAmounts array of amounts to be vested\n     * @param _vestnigType allows the owner to select the type of vesting category\n     * @return - true if Function executes successfully\n     */\n\n    function addVestingDetails(address[] calldata _userAddresses, uint256[] calldata _vestingAmounts, uint8 _vestnigType) external onlyOwner returns(bool){\n        require(_userAddresses.length == _vestingAmounts.length,\"Unequal arrays passed\");\n\n        // Get Vesting Category Details\n        VestingDetails memory vestData = vestCategory[_vestnigType];\n        uint arrayLength = _userAddresses.length;\n\n        for(uint i= 0; i<arrayLength; i++){\n            uint8 vestingIndex = _vestnigType;\n            address user = _userAddresses[i];\n            uint256 amount = _vestingAmounts[i];\n            uint256 vestingCliff = vestData.vestingCliff;\n            uint256 vestingDuration = vestData.vestingDuration;\n            uint tgeAmount = getTokenAmount(_vestingAmounts[i], vestData.tgePercent, 100);\n            uint monthlyAmount = getTokenAmount(_vestingAmounts[i], vestData.monthlyPercent, 100);\n\n            addUserVestingDetails(user,vestingIndex,amount,vestingCliff,vestingDuration,tgeAmount,monthlyAmount);\n        }\n        return true;\n    }\n\n\n    \n    /** @notice - Internal functions that is initializes the VestAccountDetails Struct with the respective arguments passed\n     * @param _userAddresses addresses of the User\n     * @param _totalAmount total amount to be lockedUp\n     * @param _vestingIndex denotes the type of vesting selected\n     * @param _vestingCliff denotes the cliff of the vesting category selcted\n     * @param _vestingDuration denotes the total duration of the vesting category selcted\n     * @param _tgeAmount denotes the total TGE amount to be transferred to the userVestingData\n     * @param _monthlyAmount denotes the total Monthly Amount to be transferred to the user\n     */\n     \n     \n    function addUserVestingDetails(address _userAddresses, uint8 _vestingIndex, uint256 _totalAmount, uint256 _vestingCliff, uint256 _vestingDuration,uint256 _tgeAmount,uint256 _monthlyAmount) onlyValidVestingBenifciary(_userAddresses,_vestingIndex) internal{ \n        VestAccountDetails memory userVestingData = VestAccountDetails(\n            _vestingIndex,\n            _userAddresses,\n            _totalAmount,\n            _tgeAmount,\n            _monthlyAmount,\n            _vestingDuration,\n            _vestingCliff,\n            0,\n            true,\n            false   \n        );\n        userToVestingDetails[_userAddresses][_vestingIndex] = userVestingData;\n    }\n\n    function totalTokensClaimed(address _userAddresses,uint8 _vestingIndex) public view returns(uint256){\n        // Get Vesting Details\n        uint256 totalClaimedTokens;\n        VestAccountDetails memory vestData = userToVestingDetails[_userAddresses][_vestingIndex];\n\n        totalClaimedTokens = totalClaimedTokens.add(vestData.totalVestingTokensClaimed);\n        \n        if(vestData.isTgeTokensClaimed){\n            totalClaimedTokens = totalClaimedTokens.add(vestData.tgeTokensAllocated);\n        }\n        \n        return totalClaimedTokens;\n    }\n    \n    \n  /**\n     * @notice Calculates the amount of tokens to be transferred at any given point of time\n     * @param _userAddresses address of the User  \n     */\n     function calculateClaimableTokens(address _userAddresses,uint8 _vestingIndex) public view checkVestingStatus(_userAddresses,_vestingIndex) returns(uint256){       \n        // Get Vesting Details\n        VestAccountDetails memory vestData = userToVestingDetails[_userAddresses][_vestingIndex];\n        \n        uint[4] memory monthsToRates;\n        monthsToRates[1] = 20;\n        monthsToRates[2] = 50;\n        monthsToRates[3] = 80;\n\n        // Get Time Details\n        uint256 actualClaimableAmount;\n        uint256 tokensAfterElapsedMonths;\n        uint256 vestStartTime = getTgeTIME();\n        uint256 currentTime = getCurrentTime();\n        uint256 timeElapsed = currentTime.sub(vestStartTime);\n        uint256 totalMonthsElapsed = timeElapsed.div(monthInSeconds());\n        uint256 _totalTokensClaimed = totalTokensClaimed(_userAddresses,_vestingIndex);\n\n        //Check whether or not the VESTING CLIFF has been reached\n        require (totalMonthsElapsed > vestData.vestingCliff,\"Vesting Cliff Not Crossed Yet\");\n\n        // If total duration of Vesting already crossed, return pending tokens to claimed\n        if(totalMonthsElapsed > vestData.vestingDuration){ \n                actualClaimableAmount = vestData.totalTokensAllocated.sub(_totalTokensClaimed);\n         // if current time has crossed the Vesting Cliff but not the total Vesting Duration\n         // Calculating Actual Months(Excluding the CLIFF) to initiate vesting\n         }else{ \n\n            uint actualMonthElapsed = totalMonthsElapsed.sub(vestData.vestingCliff); \n            require (actualMonthElapsed > 0,\"Number of months elapsed is ZERO\");\n            // Calculate the Total Tokens on the basis of Vesting Index and Month elapsed\n            if (vestData.vestingIndex == 9){\n                tokensAfterElapsedMonths = getTokenAmount(vestData.totalTokensAllocated,monthsToRates[actualMonthElapsed],100);\n            }else{\n                tokensAfterElapsedMonths = vestData.monthlyTokens.mul(actualMonthElapsed);\n            }\n            require (tokensAfterElapsedMonths > vestData.totalVestingTokensClaimed, \"No Claimable Tokens at this Time\");\n            // Get the actual Claimable Tokens\n            actualClaimableAmount = tokensAfterElapsedMonths.sub(vestData.totalVestingTokensClaimed);\n         }\n        return actualClaimableAmount;\n\n     }\n\n    /**\n     * @notice An Internal Function to transfer tokens from this contract to the user\n     * @param _beneficiary address of the User  \n     * @param _amountOfTokens number of tokens to be transferred\n     */\n    function _sendTokens(address _beneficiary, uint256 _amountOfTokens) internal returns(bool){\n        _transfer(address(this),_beneficiary,_amountOfTokens);\n        return true;\n    }\n\n    /**\n     * @notice Calculates and Transfer the total tokens to be transferred to the user after Token Generation Event is over\n     * @dev The function shall only work for users under Sale Vesting Category(index - 7,8,9). \n     * @dev The function can only be called once by the user(only if the isTgeTokensClaimed boolean value is FALSE). \n     * Once the tokens have been transferred, isTgeTokensClaimed becomes TRUE for that particular address\n     * @param _userAddresses address of the User  \n     */\n    function  claimTGETokens(address _userAddresses,uint8 _vestingIndex) external checkVestingStatus(_userAddresses,_vestingIndex) returns(bool){\n        uint256 currentTime = getCurrentTime();\n        require (currentTime>getTgeTIME(), \"Token Generation Event Not Started Yet\");\n        // Get Vesting Details\n        VestAccountDetails memory vestData = userToVestingDetails[_userAddresses][_vestingIndex];\n\n        require (vestData.vestingIndex >= 7 && vestData.vestingIndex <= 9, \"Vesting Category doesn't belong to SALE VEsting\" );\n        require (vestData.isTgeTokensClaimed == false, \"TGE Tokens Have already been claimed for Given Address\");\n        \n        uint256 tokensToTransfer = vestData.tgeTokensAllocated;\n\n        // Updating Contract State\n        vestData.isTgeTokensClaimed = true;\n        userToVestingDetails[_userAddresses][_vestingIndex] = vestData;\n        _sendTokens(_userAddresses,tokensToTransfer);\n    }\n    \n    /**\n     * @notice Calculates and Transfers the total tokens to be transferred to the user by calculating the Amount of tokens to be transferred at the given time\n     * @dev The function shall only work for users under Vesting Category is valid(index - 1 to 9). \n     * @dev isVesting becomes false if all allocated tokens have been claimed.\n     * @dev User cannot claim more tokens than actually allocated to them by the OWNER\n     * @param _userAddresses address of the User  \n     */\n    function claimVestTokens(address _userAddresses,uint8 _vestingIndex) external checkVestingStatus(_userAddresses,_vestingIndex) returns(bool){\n        // Get Vesting Details\n        VestAccountDetails memory vestData = userToVestingDetails[_userAddresses][_vestingIndex];\n        \n        // Get total token amount to be transferred\n        uint256 _totalTokensClaimed = totalTokensClaimed(_userAddresses,_vestingIndex);\n        uint256 tokensToTransfer = calculateClaimableTokens(_userAddresses,_vestingIndex);\n        \n        require (tokensToTransfer > 0,\"No tokens to transfer\");\n        uint256 contractTokenBalance = balanceOf(address(this));\n        require(contractTokenBalance > tokensToTransfer,\"Not Enough Token Balance in Contract\");\n        require(_totalTokensClaimed.add(tokensToTransfer) <= vestData.totalTokensAllocated,\"Cannot Claim more than Allocated\");\n        \n        vestData.totalVestingTokensClaimed += tokensToTransfer;\n        if(_totalTokensClaimed.add(tokensToTransfer) == vestData.totalTokensAllocated){\n            vestData.isVesting = false;\n            vestData.isTgeTokensClaimed = true;\n        }\n        userToVestingDetails[_userAddresses][_vestingIndex] = vestData;\n        _sendTokens(_userAddresses,tokensToTransfer);\n    }\n    \n}",
  "sourcePath": "/home/zaryab/blockchain_begins/all_about_ethereum/quillHash_CODES/bloqueLabs/playcentGIT/ico-contract/contracts/pcntTokenVesting.sol",
  "compiler": {
    "name": "solc",
    "version": "0.6.2+commit.bacdbe57.Linux.g++"
  },
  "schemaVersion": "3.3.3",
  "updatedAt": "2021-03-01T14:26:39.045Z",
  "networkType": "ethereum",
  "devdoc": {
    "methods": {
      "addVestingDetails(address[],uint256[],uint8)": {
        "params": {
          "_userAddresses": "array of addresses of the Users",
          "_vestingAmounts": "array of amounts to be vested",
          "_vestnigType": "allows the owner to select the type of vesting category"
        },
        "returns": {
          "_0": "- true if Function executes successfully"
        }
      },
      "allowance(address,address)": {
        "details": "See {IERC20-allowance}."
      },
      "approve(address,uint256)": {
        "details": "See {IERC20-approve}.     * Requirements:     * - `spender` cannot be the zero address."
      },
      "balanceOf(address)": {
        "details": "See {IERC20-balanceOf}."
      },
      "calculateClaimableTokens(address,uint8)": {
        "params": {
          "_userAddresses": "address of the User  "
        }
      },
      "claimTGETokens(address,uint8)": {
        "details": "The function shall only work for users under Sale Vesting Category(index - 7,8,9). The function can only be called once by the user(only if the isTgeTokensClaimed boolean value is FALSE).  Once the tokens have been transferred, isTgeTokensClaimed becomes TRUE for that particular address",
        "params": {
          "_userAddresses": "address of the User  "
        }
      },
      "claimVestTokens(address,uint8)": {
        "details": "The function shall only work for users under Vesting Category is valid(index - 1 to 9). isVesting becomes false if all allocated tokens have been claimed.User cannot claim more tokens than actually allocated to them by the OWNER",
        "params": {
          "_userAddresses": "address of the User  "
        }
      },
      "decimals()": {
        "details": "Returns the number of decimals used to get its user representation. For example, if `decimals` equals `2`, a balance of `505` tokens should be displayed to a user as `5,05` (`505 / 10 ** 2`).     * Tokens usually opt for a value of 18, imitating the relationship between Ether and Wei. This is the value {ERC20} uses, unless {_setupDecimals} is called.     * NOTE: This information is only used for _display_ purposes: it in no way affects any of the arithmetic of the contract, including {IERC20-balanceOf} and {IERC20-transfer}."
      },
      "decreaseAllowance(address,uint256)": {
        "details": "Atomically decreases the allowance granted to `spender` by the caller.     * This is an alternative to {approve} that can be used as a mitigation for problems described in {IERC20-approve}.     * Emits an {Approval} event indicating the updated allowance.     * Requirements:     * - `spender` cannot be the zero address. - `spender` must have allowance for the caller of at least `subtractedValue`."
      },
      "increaseAllowance(address,uint256)": {
        "details": "Atomically increases the allowance granted to `spender` by the caller.     * This is an alternative to {approve} that can be used as a mitigation for problems described in {IERC20-approve}.     * Emits an {Approval} event indicating the updated allowance.     * Requirements:     * - `spender` cannot be the zero address."
      },
      "name()": {
        "details": "Returns the name of the token."
      },
      "owner()": {
        "details": "Returns the address of the current owner."
      },
      "paused()": {
        "details": "Returns true if the contract is paused, and false otherwise."
      },
      "renounceOwnership()": {
        "details": "Leaves the contract without owner. It will not be possible to call `onlyOwner` functions anymore. Can only be called by the current owner.     * NOTE: Renouncing ownership will leave the contract without an owner, thereby removing any functionality that is only available to the owner."
      },
      "symbol()": {
        "details": "Returns the symbol of the token, usually a shorter version of the name."
      },
      "totalSupply()": {
        "details": "See {IERC20-totalSupply}."
      },
      "transfer(address,uint256)": {
        "details": "See {IERC20-transfer}.     * Requirements:     * - `recipient` cannot be the zero address. - the caller must have a balance of at least `amount`."
      },
      "transferFrom(address,address,uint256)": {
        "details": "See {IERC20-transferFrom}.     * Emits an {Approval} event indicating the updated allowance. This is not required by the EIP. See the note at the beginning of {ERC20}.     * Requirements:     * - `sender` and `recipient` cannot be the zero address. - `sender` must have a balance of at least `amount`. - the caller must have allowance for ``sender``'s tokens of at least `amount`."
      },
      "transferOwnership(address)": {
        "details": "Transfers ownership of the contract to a new account (`newOwner`). Can only be called by the current owner."
      }
    }
  },
  "userdoc": {
    "methods": {
      "addVestingDetails(address[],uint256[],uint8)": {
        "notice": "- Allows only the Owner to ADD an array of Addresses as well as their Vesting Amount - The array of user and amounts should be passed along with the vestingCategory Index.  - Thus, a particular batch of addresses shall be added under only one Vesting Category Index "
      },
      "calculateClaimableTokens(address,uint8)": {
        "notice": "Calculates the amount of tokens to be transferred at any given point of time"
      },
      "claimTGETokens(address,uint8)": {
        "notice": "Calculates and Transfer the total tokens to be transferred to the user after Token Generation Event is over"
      },
      "claimVestTokens(address,uint8)": {
        "notice": "Calculates and Transfers the total tokens to be transferred to the user by calculating the Amount of tokens to be transferred at the given time"
      }
    }
  }
}