{
  "contractName": "PlayToken",
  "abi": [
    {
      "anonymous": false,
      "inputs": [
        {
          "indexed": true,
          "internalType": "address",
          "name": "owner",
          "type": "address"
        },
        {
          "indexed": true,
          "internalType": "address",
          "name": "spender",
          "type": "address"
        },
        {
          "indexed": false,
          "internalType": "uint256",
          "name": "value",
          "type": "uint256"
        }
      ],
      "name": "Approval",
      "type": "event"
    },
    {
      "anonymous": false,
      "inputs": [
        {
          "indexed": true,
          "internalType": "address",
          "name": "previousOwner",
          "type": "address"
        },
        {
          "indexed": true,
          "internalType": "address",
          "name": "newOwner",
          "type": "address"
        }
      ],
      "name": "OwnershipTransferred",
      "type": "event"
    },
    {
      "anonymous": false,
      "inputs": [
        {
          "indexed": false,
          "internalType": "address",
          "name": "account",
          "type": "address"
        }
      ],
      "name": "Paused",
      "type": "event"
    },
    {
      "anonymous": false,
      "inputs": [
        {
          "indexed": true,
          "internalType": "address",
          "name": "from",
          "type": "address"
        },
        {
          "indexed": true,
          "internalType": "address",
          "name": "to",
          "type": "address"
        },
        {
          "indexed": false,
          "internalType": "uint256",
          "name": "value",
          "type": "uint256"
        }
      ],
      "name": "Transfer",
      "type": "event"
    },
    {
      "anonymous": false,
      "inputs": [
        {
          "indexed": false,
          "internalType": "address",
          "name": "account",
          "type": "address"
        }
      ],
      "name": "Unpaused",
      "type": "event"
    },
    {
      "inputs": [
        {
          "internalType": "address",
          "name": "owner",
          "type": "address"
        },
        {
          "internalType": "address",
          "name": "spender",
          "type": "address"
        }
      ],
      "name": "allowance",
      "outputs": [
        {
          "internalType": "uint256",
          "name": "",
          "type": "uint256"
        }
      ],
      "stateMutability": "view",
      "type": "function"
    },
    {
      "inputs": [
        {
          "internalType": "address",
          "name": "spender",
          "type": "address"
        },
        {
          "internalType": "uint256",
          "name": "amount",
          "type": "uint256"
        }
      ],
      "name": "approve",
      "outputs": [
        {
          "internalType": "bool",
          "name": "",
          "type": "bool"
        }
      ],
      "stateMutability": "nonpayable",
      "type": "function"
    },
    {
      "inputs": [
        {
          "internalType": "address",
          "name": "account",
          "type": "address"
        }
      ],
      "name": "balanceOf",
      "outputs": [
        {
          "internalType": "uint256",
          "name": "",
          "type": "uint256"
        }
      ],
      "stateMutability": "view",
      "type": "function"
    },
    {
      "inputs": [],
      "name": "decimals",
      "outputs": [
        {
          "internalType": "uint8",
          "name": "",
          "type": "uint8"
        }
      ],
      "stateMutability": "view",
      "type": "function"
    },
    {
      "inputs": [
        {
          "internalType": "address",
          "name": "spender",
          "type": "address"
        },
        {
          "internalType": "uint256",
          "name": "subtractedValue",
          "type": "uint256"
        }
      ],
      "name": "decreaseAllowance",
      "outputs": [
        {
          "internalType": "bool",
          "name": "",
          "type": "bool"
        }
      ],
      "stateMutability": "nonpayable",
      "type": "function"
    },
    {
      "inputs": [
        {
          "internalType": "address",
          "name": "spender",
          "type": "address"
        },
        {
          "internalType": "uint256",
          "name": "addedValue",
          "type": "uint256"
        }
      ],
      "name": "increaseAllowance",
      "outputs": [
        {
          "internalType": "bool",
          "name": "",
          "type": "bool"
        }
      ],
      "stateMutability": "nonpayable",
      "type": "function"
    },
    {
      "inputs": [],
      "name": "name",
      "outputs": [
        {
          "internalType": "string",
          "name": "",
          "type": "string"
        }
      ],
      "stateMutability": "view",
      "type": "function"
    },
    {
      "inputs": [],
      "name": "owner",
      "outputs": [
        {
          "internalType": "address",
          "name": "",
          "type": "address"
        }
      ],
      "stateMutability": "view",
      "type": "function"
    },
    {
      "inputs": [],
      "name": "paused",
      "outputs": [
        {
          "internalType": "bool",
          "name": "",
          "type": "bool"
        }
      ],
      "stateMutability": "view",
      "type": "function"
    },
    {
      "inputs": [],
      "name": "renounceOwnership",
      "outputs": [],
      "stateMutability": "nonpayable",
      "type": "function"
    },
    {
      "inputs": [],
      "name": "symbol",
      "outputs": [
        {
          "internalType": "string",
          "name": "",
          "type": "string"
        }
      ],
      "stateMutability": "view",
      "type": "function"
    },
    {
      "inputs": [],
      "name": "totalSupply",
      "outputs": [
        {
          "internalType": "uint256",
          "name": "",
          "type": "uint256"
        }
      ],
      "stateMutability": "view",
      "type": "function"
    },
    {
      "inputs": [
        {
          "internalType": "address",
          "name": "recipient",
          "type": "address"
        },
        {
          "internalType": "uint256",
          "name": "amount",
          "type": "uint256"
        }
      ],
      "name": "transfer",
      "outputs": [
        {
          "internalType": "bool",
          "name": "",
          "type": "bool"
        }
      ],
      "stateMutability": "nonpayable",
      "type": "function"
    },
    {
      "inputs": [
        {
          "internalType": "address",
          "name": "sender",
          "type": "address"
        },
        {
          "internalType": "address",
          "name": "recipient",
          "type": "address"
        },
        {
          "internalType": "uint256",
          "name": "amount",
          "type": "uint256"
        }
      ],
      "name": "transferFrom",
      "outputs": [
        {
          "internalType": "bool",
          "name": "",
          "type": "bool"
        }
      ],
      "stateMutability": "nonpayable",
      "type": "function"
    },
    {
      "inputs": [
        {
          "internalType": "address",
          "name": "newOwner",
          "type": "address"
        }
      ],
      "name": "transferOwnership",
      "outputs": [],
      "stateMutability": "nonpayable",
      "type": "function"
    },
    {
      "inputs": [
        {
          "internalType": "uint256",
          "name": "",
          "type": "uint256"
        }
      ],
      "name": "vestTypes",
      "outputs": [
        {
          "internalType": "uint8",
          "name": "indexId",
          "type": "uint8"
        },
        {
          "internalType": "uint256",
          "name": "lockPeriod",
          "type": "uint256"
        },
        {
          "internalType": "uint256",
          "name": "vestingDuration",
          "type": "uint256"
        },
        {
          "internalType": "uint256",
          "name": "tgePercent",
          "type": "uint256"
        },
        {
          "internalType": "uint256",
          "name": "monthlyPercent",
          "type": "uint256"
        },
        {
          "internalType": "uint256",
          "name": "totalTokenAllocation",
          "type": "uint256"
        }
      ],
      "stateMutability": "view",
      "type": "function"
    },
    {
      "inputs": [
        {
          "internalType": "address",
          "name": "",
          "type": "address"
        },
        {
          "internalType": "uint8",
          "name": "",
          "type": "uint8"
        }
      ],
      "name": "walletToVestAllocations",
      "outputs": [
        {
          "internalType": "uint8",
          "name": "vestIndexID",
          "type": "uint8"
        },
        {
          "internalType": "uint256",
          "name": "totalTokensAllocated",
          "type": "uint256"
        },
        {
          "internalType": "uint256",
          "name": "totalTGETokens",
          "type": "uint256"
        },
        {
          "internalType": "uint256",
          "name": "monthlyTokens",
          "type": "uint256"
        },
        {
          "internalType": "uint256",
          "name": "vestingDuration",
          "type": "uint256"
        },
        {
          "internalType": "uint256",
          "name": "lockPeriod",
          "type": "uint256"
        },
        {
          "internalType": "uint256",
          "name": "totalVestTokensClaimed",
          "type": "uint256"
        },
        {
          "internalType": "bool",
          "name": "isVesting",
          "type": "bool"
        },
        {
          "internalType": "bool",
          "name": "isTgeTokensClaimed",
          "type": "bool"
        }
      ],
      "stateMutability": "view",
      "type": "function"
    },
    {
      "inputs": [
        {
          "internalType": "address",
          "name": "_PublicSaleAddress",
          "type": "address"
        }
      ],
      "name": "initialize",
      "outputs": [],
      "stateMutability": "nonpayable",
      "type": "function"
    },
    {
      "inputs": [],
      "name": "getCurrentTime",
      "outputs": [
        {
          "internalType": "uint256",
          "name": "",
          "type": "uint256"
        }
      ],
      "stateMutability": "view",
      "type": "function"
    },
    {
      "inputs": [],
      "name": "getTgeTIME",
      "outputs": [
        {
          "internalType": "uint256",
          "name": "",
          "type": "uint256"
        }
      ],
      "stateMutability": "pure",
      "type": "function"
    },
    {
      "inputs": [
        {
          "internalType": "uint256",
          "name": "x",
          "type": "uint256"
        },
        {
          "internalType": "uint256",
          "name": "y",
          "type": "uint256"
        },
        {
          "internalType": "uint256",
          "name": "z",
          "type": "uint256"
        }
      ],
      "name": "getTokenAmount",
      "outputs": [
        {
          "internalType": "uint256",
          "name": "",
          "type": "uint256"
        }
      ],
      "stateMutability": "pure",
      "type": "function"
    },
    {
      "inputs": [
        {
          "internalType": "address[]",
          "name": "_userAddresses",
          "type": "address[]"
        },
        {
          "internalType": "uint256[]",
          "name": "_vestingAmounts",
          "type": "uint256[]"
        },
        {
          "internalType": "uint8",
          "name": "_vestnigType",
          "type": "uint8"
        }
      ],
      "name": "addVestingDetails",
      "outputs": [
        {
          "internalType": "bool",
          "name": "",
          "type": "bool"
        }
      ],
      "stateMutability": "nonpayable",
      "type": "function"
    },
    {
      "inputs": [
        {
          "internalType": "address",
          "name": "_userAddresses",
          "type": "address"
        },
        {
          "internalType": "uint8",
          "name": "_vestingIndex",
          "type": "uint8"
        }
      ],
      "name": "totalTokensClaimed",
      "outputs": [
        {
          "internalType": "uint256",
          "name": "",
          "type": "uint256"
        }
      ],
      "stateMutability": "view",
      "type": "function"
    },
    {
      "inputs": [
        {
          "internalType": "address",
          "name": "_userAddresses",
          "type": "address"
        },
        {
          "internalType": "uint8",
          "name": "_vestingIndex",
          "type": "uint8"
        }
      ],
      "name": "calculateClaimableTokens",
      "outputs": [
        {
          "internalType": "uint256",
          "name": "",
          "type": "uint256"
        }
      ],
      "stateMutability": "view",
      "type": "function"
    },
    {
      "inputs": [
        {
          "internalType": "address",
          "name": "_userAddresses",
          "type": "address"
        },
        {
          "internalType": "uint8",
          "name": "_vestingIndex",
          "type": "uint8"
        }
      ],
      "name": "claimTGETokensOnlyOwner",
      "outputs": [
        {
          "internalType": "bool",
          "name": "",
          "type": "bool"
        }
      ],
      "stateMutability": "nonpayable",
      "type": "function"
    },
    {
      "inputs": [
        {
          "internalType": "uint8",
          "name": "_vestingIndex",
          "type": "uint8"
        }
      ],
      "name": "claimTGETokens",
      "outputs": [
        {
          "internalType": "bool",
          "name": "",
          "type": "bool"
        }
      ],
      "stateMutability": "nonpayable",
      "type": "function"
    },
    {
      "inputs": [
        {
          "internalType": "address",
          "name": "_userAddresses",
          "type": "address"
        },
        {
          "internalType": "uint8",
          "name": "_vestingIndex",
          "type": "uint8"
        }
      ],
      "name": "claimVestTokensOnlyOwner",
      "outputs": [
        {
          "internalType": "bool",
          "name": "",
          "type": "bool"
        }
      ],
      "stateMutability": "nonpayable",
      "type": "function"
    },
    {
      "inputs": [
        {
          "internalType": "uint8",
          "name": "_vestingIndex",
          "type": "uint8"
        }
      ],
      "name": "claimVestTokens",
      "outputs": [
        {
          "internalType": "bool",
          "name": "",
          "type": "bool"
        }
      ],
      "stateMutability": "nonpayable",
      "type": "function"
    },
    {
      "inputs": [],
      "name": "pullRemainingTokens",
      "outputs": [
        {
          "internalType": "bool",
          "name": "",
          "type": "bool"
        }
      ],
      "stateMutability": "nonpayable",
      "type": "function"
    }
  ],
  "bytecode": "0x608060405234801561001057600080fd5b50614c56806100206000396000f3fe608060405234801561001057600080fd5b50600436106101ec576000357c010000000000000000000000000000000000000000000000000000000090048063655894c21161012157806395d89b41116100bf578063c4d66de81161008e578063c4d66de814610aab578063dd62ed3e14610aef578063f2fde38b14610b67578063f70c12d314610bab576101ec565b806395d89b411461093e578063a457c2d7146109c1578063a9059cbb14610a27578063b09ee19314610a8d576101ec565b80638da5cb5b116100fb5780638da5cb5b1461079b5780638f9335e4146107e5578063930185471461084a578063943e7b7b146108f5576101ec565b8063655894c2146106f057806370a0823114610739578063715018a614610791576101ec565b8063313ce5671161018e578063395093511161016857806339509351146105535780633c569d2c146105b957806352985d2a146105db5780635c975abb146106ce576101ec565b8063313ce5671461045b578063316fb2f51461047f57806337285ee9146104ea576101ec565b806318160ddd116101ca57806318160ddd1461034357806323b872dd1461036157806329cb924d146103e75780632be7d64814610405576101ec565b806306fdde03146101f1578063095ea7b31461027457806317228d1e146102da575b600080fd5b6101f9610c10565b6040518080602001828103825283818151815260200191508051906020019080838360005b8381101561023957808201518184015260208101905061021e565b50505050905090810190601f1680156102665780820380516001836020036101000a031916815260200191505b509250505060405180910390f35b6102c06004803603604081101561028a57600080fd5b81019080803573ffffffffffffffffffffffffffffffffffffffff16906020019092919080359060200190929190505050610cb2565b604051808215151515815260200191505060405180910390f35b610329600480360360408110156102f057600080fd5b81019080803573ffffffffffffffffffffffffffffffffffffffff169060200190929190803560ff169060200190929190505050610cd0565b604051808215151515815260200191505060405180910390f35b61034b610d92565b6040518082815260200191505060405180910390f35b6103cd6004803603606081101561037757600080fd5b81019080803573ffffffffffffffffffffffffffffffffffffffff169060200190929190803573ffffffffffffffffffffffffffffffffffffffff16906020019092919080359060200190929190505050610d9c565b604051808215151515815260200191505060405180910390f35b6103ef610e75565b6040518082815260200191505060405180910390f35b6104456004803603606081101561041b57600080fd5b81019080803590602001909291908035906020019092919080359060200190929190505050610e7d565b6040518082815260200191505060405180910390f35b610463610ead565b604051808260ff1660ff16815260200191505060405180910390f35b6104ab6004803603602081101561049557600080fd5b8101908080359060200190929190505050610ec4565b604051808760ff1660ff168152602001868152602001858152602001848152602001838152602001828152602001965050505050505060405180910390f35b6105396004803603604081101561050057600080fd5b81019080803573ffffffffffffffffffffffffffffffffffffffff169060200190929190803560ff169060200190929190505050610f0d565b604051808215151515815260200191505060405180910390f35b61059f6004803603604081101561056957600080fd5b81019080803573ffffffffffffffffffffffffffffffffffffffff16906020019092919080359060200190929190505050610fcf565b604051808215151515815260200191505060405180910390f35b6105c1611082565b604051808215151515815260200191505060405180910390f35b6106b4600480360360608110156105f157600080fd5b810190808035906020019064010000000081111561060e57600080fd5b82018360208201111561062057600080fd5b8035906020019184602083028401116401000000008311171561064257600080fd5b90919293919293908035906020019064010000000081111561066357600080fd5b82018360208201111561067557600080fd5b8035906020019184602083028401116401000000008311171561069757600080fd5b9091929391929390803560ff169060200190929190505050611156565b604051808215151515815260200191505060405180910390f35b6106d66113ec565b604051808215151515815260200191505060405180910390f35b61071f6004803603602081101561070657600080fd5b81019080803560ff169060200190929190505050611403565b604051808215151515815260200191505060405180910390f35b61077b6004803603602081101561074f57600080fd5b81019080803573ffffffffffffffffffffffffffffffffffffffff169060200190929190505050611415565b6040518082815260200191505060405180910390f35b61079961145e565b005b6107a36115ce565b604051808273ffffffffffffffffffffffffffffffffffffffff1673ffffffffffffffffffffffffffffffffffffffff16815260200191505060405180910390f35b610834600480360360408110156107fb57600080fd5b81019080803573ffffffffffffffffffffffffffffffffffffffff169060200190929190803560ff1690602001909291905050506115f8565b6040518082815260200191505060405180910390f35b6108996004803603604081101561086057600080fd5b81019080803573ffffffffffffffffffffffffffffffffffffffff169060200190929190803560ff169060200190929190505050611a8e565b604051808a60ff1660ff1681526020018981526020018881526020018781526020018681526020018581526020018481526020018315151515815260200182151515158152602001995050505050505050505060405180910390f35b6109246004803603602081101561090b57600080fd5b81019080803560ff169060200190929190505050611b10565b604051808215151515815260200191505060405180910390f35b610946611b22565b6040518080602001828103825283818151815260200191508051906020019080838360005b8381101561098657808201518184015260208101905061096b565b50505050905090810190601f1680156109b35780820380516001836020036101000a031916815260200191505b509250505060405180910390f35b610a0d600480360360408110156109d757600080fd5b81019080803573ffffffffffffffffffffffffffffffffffffffff16906020019092919080359060200190929190505050611bc4565b604051808215151515815260200191505060405180910390f35b610a7360048036036040811015610a3d57600080fd5b81019080803573ffffffffffffffffffffffffffffffffffffffff16906020019092919080359060200190929190505050611c91565b604051808215151515815260200191505060405180910390f35b610a95611caf565b6040518082815260200191505060405180910390f35b610aed60048036036020811015610ac157600080fd5b81019080803573ffffffffffffffffffffffffffffffffffffffff169060200190929190505050611cbb565b005b610b5160048036036040811015610b0557600080fd5b81019080803573ffffffffffffffffffffffffffffffffffffffff169060200190929190803573ffffffffffffffffffffffffffffffffffffffff169060200190929190505050612513565b6040518082815260200191505060405180910390f35b610ba960048036036020811015610b7d57600080fd5b81019080803573ffffffffffffffffffffffffffffffffffffffff16906020019092919050505061259a565b005b610bfa60048036036040811015610bc157600080fd5b81019080803573ffffffffffffffffffffffffffffffffffffffff169060200190929190803560ff16906020019092919050505061278f565b6040518082815260200191505060405180910390f35b606060688054600181600116156101000203166002900480601f016020809104026020016040519081016040528092919081815260200182805460018160011615610100020316600290048015610ca85780601f10610c7d57610100808354040283529160200191610ca8565b820191906000526020600020905b815481529060010190602001808311610c8b57829003601f168201915b5050505050905090565b6000610cc6610cbf6128d6565b84846128de565b6001905092915050565b6000610cda6128d6565b73ffffffffffffffffffffffffffffffffffffffff16610cf86115ce565b73ffffffffffffffffffffffffffffffffffffffff1614610d81576040517f08c379a00000000000000000000000000000000000000000000000000000000081526004018080602001828103825260208152602001807f4f776e61626c653a2063616c6c6572206973206e6f7420746865206f776e657281525060200191505060405180910390fd5b610d8b8383612ad5565b5092915050565b6000606754905090565b6000610da9848484612f62565b610e6a84610db56128d6565b610e6585604051806060016040528060288152602001614ae160289139606660008b73ffffffffffffffffffffffffffffffffffffffff1673ffffffffffffffffffffffffffffffffffffffff1681526020019081526020016000206000610e1b6128d6565b73ffffffffffffffffffffffffffffffffffffffff1673ffffffffffffffffffffffffffffffffffffffff168152602001908152602001600020546132279092919063ffffffff16565b6128de565b600190509392505050565b600042905090565b6000610ea482610e9685876132e190919063ffffffff16565b61336790919063ffffffff16565b90509392505050565b6000606a60009054906101000a900460ff16905090565b60fb6020528060005260406000206000915090508060000160009054906101000a900460ff16908060010154908060020154908060030154908060040154908060050154905086565b6000610f176128d6565b73ffffffffffffffffffffffffffffffffffffffff16610f356115ce565b73ffffffffffffffffffffffffffffffffffffffff1614610fbe576040517f08c379a00000000000000000000000000000000000000000000000000000000081526004018080602001828103825260208152602001807f4f776e61626c653a2063616c6c6572206973206e6f7420746865206f776e657281525060200191505060405180910390fd5b610fc883836133f0565b5092915050565b6000611078610fdc6128d6565b846110738560666000610fed6128d6565b73ffffffffffffffffffffffffffffffffffffffff1673ffffffffffffffffffffffffffffffffffffffff16815260200190815260200160002060008973ffffffffffffffffffffffffffffffffffffffff1673ffffffffffffffffffffffffffffffffffffffff1681526020019081526020016000205461381090919063ffffffff16565b6128de565b6001905092915050565b600061108c6128d6565b73ffffffffffffffffffffffffffffffffffffffff166110aa6115ce565b73ffffffffffffffffffffffffffffffffffffffff1614611133576040517f08c379a00000000000000000000000000000000000000000000000000000000081526004018080602001828103825260208152602001807f4f776e61626c653a2063616c6c6572206973206e6f7420746865206f776e657281525060200191505060405180910390fd5b600061113e30611415565b905061115161114b6115ce565b82613898565b505090565b60006111606128d6565b73ffffffffffffffffffffffffffffffffffffffff1661117e6115ce565b73ffffffffffffffffffffffffffffffffffffffff1614611207576040517f08c379a00000000000000000000000000000000000000000000000000000000081526004018080602001828103825260208152602001807f4f776e61626c653a2063616c6c6572206973206e6f7420746865206f776e657281525060200191505060405180910390fd5b838390508686905014611282576040517f08c379a00000000000000000000000000000000000000000000000000000000081526004018080602001828103825260158152602001807f556e657175616c2061727261797320706173736564000000000000000000000081525060200191505060405180910390fd5b61128a614825565b60fb60008460ff1681526020019081526020016000206040518060c00160405290816000820160009054906101000a900460ff1660ff1660ff168152602001600182015481526020016002820154815260200160038201548152602001600482015481526020016005820154815250509050600087879050905060008090505b818110156113dc57600085905060008a8a8481811061132557fe5b9050602002013573ffffffffffffffffffffffffffffffffffffffff169050600089898581811061135257fe5b90506020020135905060008660200151905060008760400151905060006113918d8d8981811061137e57fe5b905060200201358a606001516064610e7d565b905060006113b78e8e8a8181106113a457fe5b905060200201358b608001516064610e7d565b90506113c8868887878787876138af565b50505050505050808060010191505061130a565b5060019250505095945050505050565b6000609760009054906101000a900460ff16905090565b600061140f3383612ad5565b50919050565b6000606560008373ffffffffffffffffffffffffffffffffffffffff1673ffffffffffffffffffffffffffffffffffffffff168152602001908152602001600020549050919050565b6114666128d6565b73ffffffffffffffffffffffffffffffffffffffff166114846115ce565b73ffffffffffffffffffffffffffffffffffffffff161461150d576040517f08c379a00000000000000000000000000000000000000000000000000000000081526004018080602001828103825260208152602001807f4f776e61626c653a2063616c6c6572206973206e6f7420746865206f776e657281525060200191505060405180910390fd5b600073ffffffffffffffffffffffffffffffffffffffff16603360009054906101000a900473ffffffffffffffffffffffffffffffffffffffff1673ffffffffffffffffffffffffffffffffffffffff167f8be0079c531659141344cd1fd0a4f28419497f9722a3daafe3b4186f6b6457e060405160405180910390a36000603360006101000a81548173ffffffffffffffffffffffffffffffffffffffff021916908373ffffffffffffffffffffffffffffffffffffffff160217905550565b6000603360009054906101000a900473ffffffffffffffffffffffffffffffffffffffff16905090565b6000828260fc60008373ffffffffffffffffffffffffffffffffffffffff1673ffffffffffffffffffffffffffffffffffffffff16815260200190815260200160002060008260ff1660ff16815260200190815260200160002060070160009054906101000a900460ff166116b8576040517f08c379a0000000000000000000000000000000000000000000000000000000008152600401808060200182810382526026815260200180614a0a6026913960400191505060405180910390fd5b6116c061485e565b60fc60008773ffffffffffffffffffffffffffffffffffffffff1673ffffffffffffffffffffffffffffffffffffffff16815260200190815260200160002060008660ff1660ff168152602001908152602001600020604051806101200160405290816000820160009054906101000a900460ff1660ff1660ff1681526020016001820154815260200160028201548152602001600382015481526020016004820154815260200160058201548152602001600682015481526020016007820160009054906101000a900460ff161515151581526020016007820160019054906101000a900460ff161515151581525050905060008060006117c0611caf565b905060006117cc610e75565b905060006117e38383613bf390919063ffffffff16565b905060006118016117f2613c76565b8361336790919063ffffffff16565b9050600061180f8d8d61278f565b90508760a00151821161188a576040517f08c379a000000000000000000000000000000000000000000000000000000000815260040180806020018281038252601d8152602001807f56657374696e6720436c696666204e6f742043726f737365642059657400000081525060200191505060405180910390fd5b87608001518211156118b4576118ad818960200151613bf390919063ffffffff16565b9650611a7b565b60006118cd8960a0015184613bf390919063ffffffff16565b905060008111611945576040517f08c379a00000000000000000000000000000000000000000000000000000000081526004018080602001828103825260208152602001807f4e756d626572206f66206d6f6e74687320656c6170736564206973205a45524f81525060200191505060405180910390fd5b6009896000015160ff1614156119cd5761195d6148b1565b60148160016004811061196c57fe5b60200201818152505060328160026004811061198457fe5b60200201818152505060508160036004811061199c57fe5b6020020181815250506119c58a602001518284600481106119b957fe5b60200201516064610e7d565b9750506119e7565b6119e4818a606001516132e190919063ffffffff16565b96505b8860c001518711611a60576040517f08c379a00000000000000000000000000000000000000000000000000000000081526004018080602001828103825260208152602001807f4e6f20436c61696d61626c6520546f6b656e7320617420746869732054696d6581525060200191505060405180910390fd5b611a778960c0015188613bf390919063ffffffff16565b9750505b869a505050505050505050505092915050565b60fc602052816000526040600020602052806000526040600020600091509150508060000160009054906101000a900460ff16908060010154908060020154908060030154908060040154908060050154908060060154908060070160009054906101000a900460ff16908060070160019054906101000a900460ff16905089565b6000611b1c33836133f0565b50919050565b606060698054600181600116156101000203166002900480601f016020809104026020016040519081016040528092919081815260200182805460018160011615610100020316600290048015611bba5780601f10611b8f57610100808354040283529160200191611bba565b820191906000526020600020905b815481529060010190602001808311611b9d57829003601f168201915b5050505050905090565b6000611c87611bd16128d6565b84611c8285604051806060016040528060258152602001614bd26025913960666000611bfb6128d6565b73ffffffffffffffffffffffffffffffffffffffff1673ffffffffffffffffffffffffffffffffffffffff16815260200190815260200160002060008a73ffffffffffffffffffffffffffffffffffffffff1673ffffffffffffffffffffffffffffffffffffffff168152602001908152602001600020546132279092919063ffffffff16565b6128de565b6001905092915050565b6000611ca5611c9e6128d6565b8484612f62565b6001905092915050565b6000636043398b905090565b600060019054906101000a900460ff1680611cda5750611cd9613c81565b5b80611cf157506000809054906101000a900460ff16155b611d46576040517f08c379a000000000000000000000000000000000000000000000000000000000815260040180806020018281038252602e815260200180614a5f602e913960400191505060405180910390fd5b60008060019054906101000a900460ff161590508015611d96576001600060016101000a81548160ff02191690831515021790555060016000806101000a81548160ff0219169083151502179055505b611d9e613c92565b611e126040518060400160405280600881526020017f506c617963656e740000000000000000000000000000000000000000000000008152506040518060400160405280600481526020017f50434e5400000000000000000000000000000000000000000000000000000000815250613da1565b611e1a613eb4565b611e36611e256115ce565b6a2fa54641bae8aaa0000000613fcb565b611e4b826a01fc3842bd1f071c000000613fcb565b6040518060c00160405280600060ff168152602001600c81526020016020815260200160008152602001600581526020016a0771d2fa45345aa900000081525060fb600080815260200190815260200160002060008201518160000160006101000a81548160ff021916908360ff1602179055506020820151816001015560408201518160020155606082015181600301556080820151816004015560a082015181600501559050506040518060c00160405280600160ff16815260200160038152602001600d815260200160008152602001600a81526020016a03f870857a3e0e3800000081525060fb60006001815260200190815260200160002060008201518160000160006101000a81548160ff021916908360ff1602179055506020820151816001015560408201518160020155606082015181600301556080820151816004015560a082015181600501559050506040518060c00160405280600260ff16815260200160038152602001600d815260200160008152602001600a81526020016a03f870857a3e0e3800000081525060fb60006002815260200190815260200160002060008201518160000160006101000a81548160ff021916908360ff1602179055506020820151816001015560408201518160020155606082015181600301556080820151816004015560a082015181600501559050506040518060c00160405280600360ff16815260200160018152602001600b815260200160008152602001600a81526020016a01fc3842bd1f071c00000081525060fb60006003815260200190815260200160002060008201518160000160006101000a81548160ff021916908360ff1602179055506020820151816001015560408201518160020155606082015181600301556080820151816004015560a082015181600501559050506040518060c00160405280600460ff16815260200160018152602001600b815260200160008152602001600a81526020016a03f870857a3e0e3800000081525060fb60006004815260200190815260200160002060008201518160000160006101000a81548160ff021916908360ff1602179055506020820151816001015560408201518160020155606082015181600301556080820151816004015560a082015181600501559050506040518060c00160405280600560ff16815260200160038152602001601c815260200160008152602001600481526020016a0771d2fa45345aa900000081525060fb60006005815260200190815260200160002060008201518160000160006101000a81548160ff021916908360ff1602179055506020820151816001015560408201518160020155606082015181600301556080820151816004015560a082015181600501559050506040518060c00160405280600660ff16815260200160068152602001601f815260200160008152602001600481526020016a03796274caf64c7100000081525060fb60006006815260200190815260200160002060008201518160000160006101000a81548160ff021916908360ff1602179055506020820151816001015560408201518160020155606082015181600301556080820151816004015560a082015181600501559050506040518060c00160405280600760ff1681526020016001815260200160078152602001600a8152602001600f81526020016a04b7059e8129b0e280000081525060fb60006007815260200190815260200160002060008201518160000160006101000a81548160ff021916908360ff1602179055506020820151816001015560408201518160020155606082015181600301556080820151816004015560a082015181600501559050506040518060c00160405280600860ff1681526020016001815260200160058152602001600f8152602001601481526020016a04777e962985cfff00000081525060fb60006008815260200190815260200160002060008201518160000160006101000a81548160ff021916908360ff1602179055506020820151816001015560408201518160020155606082015181600301556080820151816004015560a082015181600501559050506040518060c00160405280600960ff168152602001600181526020016004815260200160148152602001601481526020016a0437f78dd1e1ef1b80000081525060fb60006009815260200190815260200160002060008201518160000160006101000a81548160ff021916908360ff1602179055506020820151816001015560408201518160020155606082015181600301556080820151816004015560a08201518160050155905050801561250f5760008060016101000a81548160ff0219169083151502179055505b5050565b6000606660008473ffffffffffffffffffffffffffffffffffffffff1673ffffffffffffffffffffffffffffffffffffffff16815260200190815260200160002060008373ffffffffffffffffffffffffffffffffffffffff1673ffffffffffffffffffffffffffffffffffffffff16815260200190815260200160002054905092915050565b6125a26128d6565b73ffffffffffffffffffffffffffffffffffffffff166125c06115ce565b73ffffffffffffffffffffffffffffffffffffffff1614612649576040517f08c379a00000000000000000000000000000000000000000000000000000000081526004018080602001828103825260208152602001807f4f776e61626c653a2063616c6c6572206973206e6f7420746865206f776e657281525060200191505060405180910390fd5b600073ffffffffffffffffffffffffffffffffffffffff168173ffffffffffffffffffffffffffffffffffffffff1614156126cf576040517f08c379a000000000000000000000000000000000000000000000000000000000815260040180806020018281038252602681526020018061499c6026913960400191505060405180910390fd5b8073ffffffffffffffffffffffffffffffffffffffff16603360009054906101000a900473ffffffffffffffffffffffffffffffffffffffff1673ffffffffffffffffffffffffffffffffffffffff167f8be0079c531659141344cd1fd0a4f28419497f9722a3daafe3b4186f6b6457e060405160405180910390a380603360006101000a81548173ffffffffffffffffffffffffffffffffffffffff021916908373ffffffffffffffffffffffffffffffffffffffff16021790555050565b60008061279a61485e565b60fc60008673ffffffffffffffffffffffffffffffffffffffff1673ffffffffffffffffffffffffffffffffffffffff16815260200190815260200160002060008560ff1660ff168152602001908152602001600020604051806101200160405290816000820160009054906101000a900460ff1660ff1660ff1681526020016001820154815260200160028201548152602001600382015481526020016004820154815260200160058201548152602001600682015481526020016007820160009054906101000a900460ff161515151581526020016007820160019054906101000a900460ff16151515158152505090506128a48160c001518361381090919063ffffffff16565b9150806101000151156128cb576128c881604001518361381090919063ffffffff16565b91505b819250505092915050565b600033905090565b600073ffffffffffffffffffffffffffffffffffffffff168373ffffffffffffffffffffffffffffffffffffffff161415612964576040517f08c379a0000000000000000000000000000000000000000000000000000000008152600401808060200182810382526024815260200180614b8a6024913960400191505060405180910390fd5b600073ffffffffffffffffffffffffffffffffffffffff168273ffffffffffffffffffffffffffffffffffffffff1614156129ea576040517f08c379a00000000000000000000000000000000000000000000000000000000081526004018080602001828103825260228152602001806149c26022913960400191505060405180910390fd5b80606660008573ffffffffffffffffffffffffffffffffffffffff1673ffffffffffffffffffffffffffffffffffffffff16815260200190815260200160002060008473ffffffffffffffffffffffffffffffffffffffff1673ffffffffffffffffffffffffffffffffffffffff168152602001908152602001600020819055508173ffffffffffffffffffffffffffffffffffffffff168373ffffffffffffffffffffffffffffffffffffffff167f8c5be1e5ebec7d5bd14f71427d1e84f3dd0314c0f7b2291e5b200ac8c7c3b925836040518082815260200191505060405180910390a3505050565b6000828260fc60008373ffffffffffffffffffffffffffffffffffffffff1673ffffffffffffffffffffffffffffffffffffffff16815260200190815260200160002060008260ff1660ff16815260200190815260200160002060070160009054906101000a900460ff16612b95576040517f08c379a0000000000000000000000000000000000000000000000000000000008152600401808060200182810382526026815260200180614a0a6026913960400191505060405180910390fd5b612b9d61485e565b60fc60008773ffffffffffffffffffffffffffffffffffffffff1673ffffffffffffffffffffffffffffffffffffffff16815260200190815260200160002060008660ff1660ff168152602001908152602001600020604051806101200160405290816000820160009054906101000a900460ff1660ff1660ff1681526020016001820154815260200160028201548152602001600382015481526020016004820154815260200160058201548152602001600682015481526020016007820160009054906101000a900460ff161515151581526020016007820160019054906101000a900460ff16151515158152505090506000612c9c878761278f565b90506000612caa88886115f8565b905060008111612d22576040517f08c379a00000000000000000000000000000000000000000000000000000000081526004018080602001828103825260158152602001807f4e6f20746f6b656e7320746f207472616e73666572000000000000000000000081525060200191505060405180910390fd5b6000612d2d30611415565b9050818111612d87576040517f08c379a0000000000000000000000000000000000000000000000000000000008152600401808060200182810382526024815260200180614bae6024913960400191505060405180910390fd5b8360200151612d9f838561381090919063ffffffff16565b1115612e13576040517f08c379a00000000000000000000000000000000000000000000000000000000081526004018080602001828103825260208152602001807f43616e6e6f7420436c61696d206d6f7265207468616e20416c6c6f636174656481525060200191505060405180910390fd5b818460c00181815101915081815250508360200151612e3b838561381090919063ffffffff16565b1415612e535760008460e00190151590811515815250505b8360fc60008b73ffffffffffffffffffffffffffffffffffffffff1673ffffffffffffffffffffffffffffffffffffffff16815260200190815260200160002060008a60ff1660ff16815260200190815260200160002060008201518160000160006101000a81548160ff021916908360ff1602179055506020820151816001015560408201518160020155606082015181600301556080820151816004015560a0820151816005015560c0820151816006015560e08201518160070160006101000a81548160ff0219169083151502179055506101008201518160070160016101000a81548160ff021916908315150217905550905050612f558983613898565b5050505050505092915050565b600073ffffffffffffffffffffffffffffffffffffffff168373ffffffffffffffffffffffffffffffffffffffff161415612fe8576040517f08c379a0000000000000000000000000000000000000000000000000000000008152600401808060200182810382526025815260200180614b656025913960400191505060405180910390fd5b600073ffffffffffffffffffffffffffffffffffffffff168273ffffffffffffffffffffffffffffffffffffffff16141561306e576040517f08c379a00000000000000000000000000000000000000000000000000000000081526004018080602001828103825260238152602001806149796023913960400191505060405180910390fd5b613079838383614194565b6130e5816040518060600160405280602681526020016149e460269139606560008773ffffffffffffffffffffffffffffffffffffffff1673ffffffffffffffffffffffffffffffffffffffff168152602001908152602001600020546132279092919063ffffffff16565b606560008573ffffffffffffffffffffffffffffffffffffffff1673ffffffffffffffffffffffffffffffffffffffff1681526020019081526020016000208190555061317a81606560008573ffffffffffffffffffffffffffffffffffffffff1673ffffffffffffffffffffffffffffffffffffffff1681526020019081526020016000205461381090919063ffffffff16565b606560008473ffffffffffffffffffffffffffffffffffffffff1673ffffffffffffffffffffffffffffffffffffffff168152602001908152602001600020819055508173ffffffffffffffffffffffffffffffffffffffff168373ffffffffffffffffffffffffffffffffffffffff167fddf252ad1be2c89b69c2b068fc378daa952ba7f163c4a11628f55a4df523b3ef836040518082815260200191505060405180910390a3505050565b60008383111582906132d4576040517f08c379a00000000000000000000000000000000000000000000000000000000081526004018080602001828103825283818151815260200191508051906020019080838360005b8381101561329957808201518184015260208101905061327e565b50505050905090810190601f1680156132c65780820380516001836020036101000a031916815260200191505b509250505060405180910390fd5b5082840390509392505050565b6000808314156132f45760009050613361565b600082840290508284828161330557fe5b041461335c576040517f08c379a0000000000000000000000000000000000000000000000000000000008152600401808060200182810382526021815260200180614ac06021913960400191505060405180910390fd5b809150505b92915050565b60008082116133de576040517f08c379a000000000000000000000000000000000000000000000000000000000815260040180806020018281038252601a8152602001807f536166654d6174683a206469766973696f6e206279207a65726f00000000000081525060200191505060405180910390fd5b8183816133e757fe5b04905092915050565b60006133fa611caf565b613402610e75565b11613458576040517f08c379a0000000000000000000000000000000000000000000000000000000008152600401808060200182810382526026815260200180614b3f6026913960400191505060405180910390fd5b828260fc60008373ffffffffffffffffffffffffffffffffffffffff1673ffffffffffffffffffffffffffffffffffffffff16815260200190815260200160002060008260ff1660ff16815260200190815260200160002060070160009054906101000a900460ff16613516576040517f08c379a0000000000000000000000000000000000000000000000000000000008152600401808060200182810382526026815260200180614a0a6026913960400191505060405180910390fd5b61351e61485e565b60fc60008773ffffffffffffffffffffffffffffffffffffffff1673ffffffffffffffffffffffffffffffffffffffff16815260200190815260200160002060008660ff1660ff168152602001908152602001600020604051806101200160405290816000820160009054906101000a900460ff1660ff1660ff1681526020016001820154815260200160028201548152602001600382015481526020016004820154815260200160058201548152602001600682015481526020016007820160009054906101000a900460ff161515151581526020016007820160019054906101000a900460ff16151515158152505090506007816000015160ff161015801561363157506009816000015160ff1611155b613686576040517f08c379a000000000000000000000000000000000000000000000000000000000815260040180806020018281038252602f815260200180614a30602f913960400191505060405180910390fd5b600015158161010001511515146136e8576040517f08c379a0000000000000000000000000000000000000000000000000000000008152600401808060200182810382526036815260200180614b096036913960400191505060405180910390fd5b6000816040015190506001826101000190151590811515815250508160fc60008973ffffffffffffffffffffffffffffffffffffffff1673ffffffffffffffffffffffffffffffffffffffff16815260200190815260200160002060008860ff1660ff16815260200190815260200160002060008201518160000160006101000a81548160ff021916908360ff1602179055506020820151816001015560408201518160020155606082015181600301556080820151816004015560a0820151816005015560c0820151816006015560e08201518160070160006101000a81548160ff0219169083151502179055506101008201518160070160016101000a81548160ff0219169083151502179055509050506138058782613898565b505050505092915050565b60008082840190508381101561388e576040517f08c379a000000000000000000000000000000000000000000000000000000000815260040180806020018281038252601b8152602001807f536166654d6174683a206164646974696f6e206f766572666c6f77000000000081525060200191505060405180910390fd5b8091505092915050565b60006138a5308484612f62565b6001905092915050565b868660008160ff16101580156138c9575060098160ff1611155b61393b576040517f08c379a00000000000000000000000000000000000000000000000000000000081526004018080602001828103825260158152602001807f496e76616c69642056657374696e6720496e646578000000000000000000000081525060200191505060405180910390fd5b600073ffffffffffffffffffffffffffffffffffffffff168273ffffffffffffffffffffffffffffffffffffffff1614156139de576040517f08c379a000000000000000000000000000000000000000000000000000000000815260040180806020018281038252600f8152602001807f496e76616c69642041646472657373000000000000000000000000000000000081525060200191505060405180910390fd5b60fc60008373ffffffffffffffffffffffffffffffffffffffff1673ffffffffffffffffffffffffffffffffffffffff16815260200190815260200160002060008260ff1660ff16815260200190815260200160002060070160009054906101000a900460ff1615613a9b576040517f08c379a0000000000000000000000000000000000000000000000000000000008152600401808060200182810382526033815260200180614a8d6033913960400191505060405180910390fd5b613aa361485e565b6040518061012001604052808a60ff168152602001898152602001868152602001858152602001878152602001888152602001600081526020016001151581526020016000151581525090508060fc60008c73ffffffffffffffffffffffffffffffffffffffff1673ffffffffffffffffffffffffffffffffffffffff16815260200190815260200160002060008b60ff1660ff16815260200190815260200160002060008201518160000160006101000a81548160ff021916908360ff1602179055506020820151816001015560408201518160020155606082015181600301556080820151816004015560a0820151816005015560c0820151816006015560e08201518160070160006101000a81548160ff0219169083151502179055506101008201518160070160016101000a81548160ff02191690831515021790555090505050505050505050505050565b600082821115613c6b576040517f08c379a000000000000000000000000000000000000000000000000000000000815260040180806020018281038252601e8152602001807f536166654d6174683a207375627472616374696f6e206f766572666c6f77000081525060200191505060405180910390fd5b818303905092915050565b600062278d00905090565b6000613c8c30614202565b15905090565b600060019054906101000a900460ff1680613cb15750613cb0613c81565b5b80613cc857506000809054906101000a900460ff16155b613d1d576040517f08c379a000000000000000000000000000000000000000000000000000000000815260040180806020018281038252602e815260200180614a5f602e913960400191505060405180910390fd5b60008060019054906101000a900460ff161590508015613d6d576001600060016101000a81548160ff02191690831515021790555060016000806101000a81548160ff0219169083151502179055505b613d75614215565b613d7d614314565b8015613d9e5760008060016101000a81548160ff0219169083151502179055505b50565b600060019054906101000a900460ff1680613dc05750613dbf613c81565b5b80613dd757506000809054906101000a900460ff16155b613e2c576040517f08c379a000000000000000000000000000000000000000000000000000000000815260040180806020018281038252602e815260200180614a5f602e913960400191505060405180910390fd5b60008060019054906101000a900460ff161590508015613e7c576001600060016101000a81548160ff02191690831515021790555060016000806101000a81548160ff0219169083151502179055505b613e84614215565b613e8e83836144bc565b8015613eaf5760008060016101000a81548160ff0219169083151502179055505b505050565b600060019054906101000a900460ff1680613ed35750613ed2613c81565b5b80613eea57506000809054906101000a900460ff16155b613f3f576040517f08c379a000000000000000000000000000000000000000000000000000000000815260040180806020018281038252602e815260200180614a5f602e913960400191505060405180910390fd5b60008060019054906101000a900460ff161590508015613f8f576001600060016101000a81548160ff02191690831515021790555060016000806101000a81548160ff0219169083151502179055505b613f97614215565b613f9f614607565b613fa7614721565b8015613fc85760008060016101000a81548160ff0219169083151502179055505b50565b600073ffffffffffffffffffffffffffffffffffffffff168273ffffffffffffffffffffffffffffffffffffffff16141561406e576040517f08c379a000000000000000000000000000000000000000000000000000000000815260040180806020018281038252601f8152602001807f45524332303a206d696e7420746f20746865207a65726f20616464726573730081525060200191505060405180910390fd5b61407a60008383614194565b61408f8160675461381090919063ffffffff16565b6067819055506140e781606560008573ffffffffffffffffffffffffffffffffffffffff1673ffffffffffffffffffffffffffffffffffffffff1681526020019081526020016000205461381090919063ffffffff16565b606560008473ffffffffffffffffffffffffffffffffffffffff1673ffffffffffffffffffffffffffffffffffffffff168152602001908152602001600020819055508173ffffffffffffffffffffffffffffffffffffffff16600073ffffffffffffffffffffffffffffffffffffffff167fddf252ad1be2c89b69c2b068fc378daa952ba7f163c4a11628f55a4df523b3ef836040518082815260200191505060405180910390a35050565b61419f838383614820565b6141a76113ec565b156141fd576040517f08c379a000000000000000000000000000000000000000000000000000000000815260040180806020018281038252602a815260200180614bf7602a913960400191505060405180910390fd5b505050565b600080823b905060008111915050919050565b600060019054906101000a900460ff16806142345750614233613c81565b5b8061424b57506000809054906101000a900460ff16155b6142a0576040517f08c379a000000000000000000000000000000000000000000000000000000000815260040180806020018281038252602e815260200180614a5f602e913960400191505060405180910390fd5b60008060019054906101000a900460ff1615905080156142f0576001600060016101000a81548160ff02191690831515021790555060016000806101000a81548160ff0219169083151502179055505b80156143115760008060016101000a81548160ff0219169083151502179055505b50565b600060019054906101000a900460ff16806143335750614332613c81565b5b8061434a57506000809054906101000a900460ff16155b61439f576040517f08c379a000000000000000000000000000000000000000000000000000000000815260040180806020018281038252602e815260200180614a5f602e913960400191505060405180910390fd5b60008060019054906101000a900460ff1615905080156143ef576001600060016101000a81548160ff02191690831515021790555060016000806101000a81548160ff0219169083151502179055505b60006143f96128d6565b905080603360006101000a81548173ffffffffffffffffffffffffffffffffffffffff021916908373ffffffffffffffffffffffffffffffffffffffff1602179055508073ffffffffffffffffffffffffffffffffffffffff16600073ffffffffffffffffffffffffffffffffffffffff167f8be0079c531659141344cd1fd0a4f28419497f9722a3daafe3b4186f6b6457e060405160405180910390a35080156144b95760008060016101000a81548160ff0219169083151502179055505b50565b600060019054906101000a900460ff16806144db57506144da613c81565b5b806144f257506000809054906101000a900460ff16155b614547576040517f08c379a000000000000000000000000000000000000000000000000000000000815260040180806020018281038252602e815260200180614a5f602e913960400191505060405180910390fd5b60008060019054906101000a900460ff161590508015614597576001600060016101000a81548160ff02191690831515021790555060016000806101000a81548160ff0219169083151502179055505b82606890805190602001906145ad9291906148d3565b5081606990805190602001906145c49291906148d3565b506012606a60006101000a81548160ff021916908360ff16021790555080156146025760008060016101000a81548160ff0219169083151502179055505b505050565b600060019054906101000a900460ff16806146265750614625613c81565b5b8061463d57506000809054906101000a900460ff16155b614692576040517f08c379a000000000000000000000000000000000000000000000000000000000815260040180806020018281038252602e815260200180614a5f602e913960400191505060405180910390fd5b60008060019054906101000a900460ff1615905080156146e2576001600060016101000a81548160ff02191690831515021790555060016000806101000a81548160ff0219169083151502179055505b6000609760006101000a81548160ff021916908315150217905550801561471e5760008060016101000a81548160ff0219169083151502179055505b50565b600060019054906101000a900460ff1680614740575061473f613c81565b5b8061475757506000809054906101000a900460ff16155b6147ac576040517f08c379a000000000000000000000000000000000000000000000000000000000815260040180806020018281038252602e815260200180614a5f602e913960400191505060405180910390fd5b60008060019054906101000a900460ff1615905080156147fc576001600060016101000a81548160ff02191690831515021790555060016000806101000a81548160ff0219169083151502179055505b801561481d5760008060016101000a81548160ff0219169083151502179055505b50565b505050565b6040518060c00160405280600060ff16815260200160008152602001600081526020016000815260200160008152602001600081525090565b604051806101200160405280600060ff1681526020016000815260200160008152602001600081526020016000815260200160008152602001600081526020016000151581526020016000151581525090565b6040518060800160405280600490602082028038833980820191505090505090565b828054600181600116156101000203166002900490600052602060002090601f016020900481019282601f1061491457805160ff1916838001178555614942565b82800160010185558215614942579182015b82811115614941578251825591602001919060010190614926565b5b50905061494f9190614953565b5090565b61497591905b80821115614971576000816000905550600101614959565b5090565b9056fe45524332303a207472616e7366657220746f20746865207a65726f20616464726573734f776e61626c653a206e6577206f776e657220697320746865207a65726f206164647265737345524332303a20617070726f766520746f20746865207a65726f206164647265737345524332303a207472616e7366657220616d6f756e7420657863656564732062616c616e636555736572204e4f5420616464656420746f20616e792056657374696e672043617465676f727956657374696e672043617465676f727920646f65736e27742062656c6f6e6720746f2053414c452056457374696e67496e697469616c697a61626c653a20636f6e747261637420697320616c726561647920696e697469616c697a6564557365722056657374696e672044657461696c7320416c726561647920416464656420746f20746869732043617465676f7279536166654d6174683a206d756c7469706c69636174696f6e206f766572666c6f7745524332303a207472616e7366657220616d6f756e74206578636565647320616c6c6f77616e636554474520546f6b656e73204861766520616c7265616479206265656e20636c61696d656420666f7220476976656e2041646472657373546f6b656e2047656e65726174696f6e204576656e74204e6f7420537461727465642059657445524332303a207472616e736665722066726f6d20746865207a65726f206164647265737345524332303a20617070726f76652066726f6d20746865207a65726f20616464726573734e6f7420456e6f75676820546f6b656e2042616c616e636520696e20436f6e747261637445524332303a2064656372656173656420616c6c6f77616e63652062656c6f77207a65726f45524332305061757361626c653a20746f6b656e207472616e73666572207768696c6520706175736564a2646970667358221220f550d528ba5b04b609a55856c90016fd36b44fe52576e9befad407cfc8da333464736f6c63430006020033",
  "source": "pragma solidity 0.6.2;\n// SPDX-License-Identifier: MIT\n\nimport \"@openzeppelin/contracts-upgradeable/token/ERC20/ERC20Upgradeable.sol\";\nimport \"@openzeppelin/contracts-upgradeable/math/SafeMathUpgradeable.sol\";\nimport \"@openzeppelin/contracts-upgradeable/access/OwnableUpgradeable.sol\";\nimport \"@openzeppelin/contracts-upgradeable/proxy/Initializable.sol\";\nimport \"@openzeppelin/contracts-upgradeable/token/ERC20/ERC20PausableUpgradeable.sol\";\nimport \"@openzeppelin/contracts-upgradeable/math/SafeMathUpgradeable.sol\";\n\ncontract PlayToken is\n    Initializable,\n    OwnableUpgradeable,\n    ERC20PausableUpgradeable\n{\n    using SafeMathUpgradeable for uint256;\n    /**\n     * Category 0 - Team\n     * Category 1 - Operations\n     * Category 2 - Marketing/Partners\n     * Category 3 - Advisors\n     * Category 4 - Staking/Earn Incentives\n     * Category 5 - Play/Mining\n     * Category 6 - Reserve\n     * Category 7 - Seed Sale\n     * Category 8 - Private 1\n     * Category 9 - Private 2\n     */\n    struct VestType {\n        uint8 indexId;\n        uint256 lockPeriod;\n        uint256 vestingDuration;\n        uint256 tgePercent;\n        uint256 monthlyPercent;\n        uint256 totalTokenAllocation;\n    }\n\n    struct VestAllocation {\n        uint8 vestIndexID;\n        uint256 totalTokensAllocated;\n        uint256 totalTGETokens;\n        uint256 monthlyTokens;\n        uint256 vestingDuration;\n        uint256 lockPeriod;\n        uint256 totalVestTokensClaimed;\n        bool isVesting;\n        bool isTgeTokensClaimed;\n    }\n\n\n    mapping(uint256 => VestType) public vestTypes;\n    mapping(address => mapping(uint8 => VestAllocation))\n        public walletToVestAllocations;\n\n    function initialize(address _PublicSaleAddress) public initializer {\n        __Ownable_init();\n        __ERC20_init(\"Playcent\", \"PCNT\");\n        __ERC20Pausable_init();\n        _mint(owner(), 57600000 ether);\n        _mint(_PublicSaleAddress, 2400000 ether);\n\n        vestTypes[0] = VestType(0, 12, 32, 0, 5, 9000000 ether); // Team\n        vestTypes[1] = VestType(1, 3, 13, 0, 10, 4800000 ether); // Operations\n        vestTypes[2] = VestType(2, 3, 13, 0, 10, 4800000 ether); // Marketing/Partners\n        vestTypes[3] = VestType(3, 1, 11, 0, 10, 2400000 ether); // Advisors\n        vestTypes[4] = VestType(4, 1, 11, 0, 10, 4800000 ether); //Staking/Early Incentive Rewards\n        vestTypes[5] = VestType(5, 3, 28, 0, 4, 9000000 ether); //Play Mining\n        vestTypes[6] = VestType(6, 6, 31, 0, 4, 4200000 ether); //Reserve\n        // Sale Vesting Strategies\n        vestTypes[7] = VestType(7, 1, 7, 10, 15, 5700000 ether); // Seed Sale\n        vestTypes[8] = VestType(8, 1, 5, 15, 20, 5400000 ether); // Private Sale 1\n        vestTypes[9] = VestType(9, 1, 4, 20, 20, 5100000 ether); // Private Sale 2\n    }\n\n    modifier onlyValidVestingBenifciary(\n        address _userAddresses,\n        uint8 _vestingIndex\n    ) {\n        require(\n            _vestingIndex >= 0 && _vestingIndex <= 9,\n            \"Invalid Vesting Index\"\n        );\n        require(_userAddresses != address(0), \"Invalid Address\");\n        require(\n            !walletToVestAllocations[_userAddresses][_vestingIndex].isVesting,\n            \"User Vesting Details Already Added to this Category\"\n        );\n        _;\n    }\n\n    modifier checkVestingStatus(address _userAddresses, uint8 _vestingIndex) {\n        require(\n            walletToVestAllocations[_userAddresses][_vestingIndex].isVesting,\n            \"User NOT added to any Vesting Category\"\n        );\n        _;\n    }\n\n    modifier onlyAfterTGE(){ \n        require (getCurrentTime() > getTgeTIME(), \"Token Generation Event Not Started Yet\");\n        _; \n    }\n    function getCurrentTime() public view returns (uint256) {\n        return block.timestamp;\n    }\n\n    function monthInSeconds() internal pure returns (uint256) {\n        return 2592000;\n    }\n\n    function daysInSeconds() internal pure returns (uint256) {\n        return 86400;\n    }\n\n    function getTgeTIME() public pure returns (uint256) {\n        return 1615018379; // Sat Mar 06 2021 11:30:00 GMT+0000\n    }\n\n    function getTokenAmount(\n        uint256 x,\n        uint256 y,\n        uint256 z\n    ) public pure returns (uint256) {\n        return x.mul(y).div(z);\n    }\n\n    /**\n     * @notice - Allows only the Owner to ADD an array of Addresses as well as their Vesting Amount\n               - The array of user and amounts should be passed along with the vestingCategory Index. \n               - Thus, a particular batch of addresses shall be added under only one Vesting Category Index \n     * @param _userAddresses array of addresses of the Users\n     * @param _vestingAmounts array of amounts to be vested\n     * @param _vestnigType allows the owner to select the type of vesting category\n     * @return - true if Function executes successfully\n     */\n\n    function addVestingDetails(\n        address[] calldata _userAddresses,\n        uint256[] calldata _vestingAmounts,\n        uint8 _vestnigType\n    ) external onlyOwner returns (bool) {\n        require(\n            _userAddresses.length == _vestingAmounts.length,\n            \"Unequal arrays passed\"\n        );\n\n        // Get Vesting Category Details\n        VestType memory vestData = vestTypes[_vestnigType];\n        uint256 arrayLength = _userAddresses.length;\n\n        for (uint256 i = 0; i < arrayLength; i++) {\n            uint8 vestIndexID = _vestnigType;\n            address user = _userAddresses[i];\n            uint256 amount = _vestingAmounts[i];\n            uint256 lockPeriod = vestData.lockPeriod;\n            uint256 vestingDuration = vestData.vestingDuration;\n            uint256 tgeAmount =\n                getTokenAmount(_vestingAmounts[i], vestData.tgePercent, 100);\n            uint256 monthlyAmount =\n                getTokenAmount(\n                    _vestingAmounts[i],\n                    vestData.monthlyPercent,\n                    100\n                );\n\n            addUserVestingDetails(\n                user,\n                vestIndexID,\n                amount,\n                lockPeriod,\n                vestingDuration,\n                tgeAmount,\n                monthlyAmount\n            );\n        }\n        return true;\n    }\n\n    /** @notice - Internal functions that is initializes the VestAllocation Struct with the respective arguments passed\n     * @param _userAddresses addresses of the User\n     * @param _totalAmount total amount to be lockedUp\n     * @param _vestingIndex denotes the type of vesting selected\n     * @param _vestingCliff denotes the cliff of the vesting category selcted\n     * @param _vestingDuration denotes the total duration of the vesting category selcted\n     * @param _tgeAmount denotes the total TGE amount to be transferred to the userVestingData\n     * @param _monthlyAmount denotes the total Monthly Amount to be transferred to the user\n     */\n\n    function addUserVestingDetails(\n        address _userAddresses,\n        uint8 _vestingIndex,\n        uint256 _totalAmount,\n        uint256 _vestingCliff,\n        uint256 _vestingDuration,\n        uint256 _tgeAmount,\n        uint256 _monthlyAmount\n    ) internal onlyValidVestingBenifciary(_userAddresses, _vestingIndex) {\n        VestAllocation memory userVestingData =\n            VestAllocation(\n                _vestingIndex,\n                _totalAmount,\n                _tgeAmount,\n                _monthlyAmount,\n                _vestingDuration,\n                _vestingCliff,\n                0,\n                true,\n                false\n            );\n        walletToVestAllocations[_userAddresses][_vestingIndex] = userVestingData;\n    }\n\n    function totalTokensClaimed(address _userAddresses, uint8 _vestingIndex)\n        public\n        view\n        returns (uint256)\n    {\n        // Get Vesting Details\n        uint256 totalClaimedTokens;\n        VestAllocation memory vestData =\n            walletToVestAllocations[_userAddresses][_vestingIndex];\n\n        totalClaimedTokens = totalClaimedTokens.add(\n            vestData.totalVestTokensClaimed\n        );\n\n        if (vestData.isTgeTokensClaimed) {\n            totalClaimedTokens = totalClaimedTokens.add(\n                vestData.totalTGETokens\n            );\n        }\n\n        return totalClaimedTokens;\n    }\n\n    /**\n     * @notice Calculates the amount of tokens to be transferred at any given point of time\n     * @param _userAddresses address of the User\n     */\n    function calculateClaimableTokens(\n        address _userAddresses,\n        uint8 _vestingIndex\n    )\n        public\n        view\n        checkVestingStatus(_userAddresses, _vestingIndex)\n        returns (uint256)\n    {\n        // Get Vesting Details\n        VestAllocation memory vestData =\n            walletToVestAllocations[_userAddresses][_vestingIndex];\n\n        // Get Time Details\n        uint256 actualClaimableAmount;\n        uint256 tokensAfterElapsedMonths;\n        uint256 vestStartTime = getTgeTIME();\n        uint256 currentTime = getCurrentTime();\n        uint256 timeElapsed = currentTime.sub(vestStartTime);\n        uint256 totalMonthsElapsed = timeElapsed.div(monthInSeconds());\n        uint256 _totalTokensClaimed =\n            totalTokensClaimed(_userAddresses, _vestingIndex);\n\n        //Check whether or not the VESTING CLIFF has been reached\n        require(\n            totalMonthsElapsed > vestData.lockPeriod,\n            \"Vesting Cliff Not Crossed Yet\"\n        );\n\n        // If total duration of Vesting already crossed, return pending tokens to claimed\n        if (totalMonthsElapsed > vestData.vestingDuration) {\n            actualClaimableAmount = vestData.totalTokensAllocated.sub(\n                _totalTokensClaimed\n            );\n            // if current time has crossed the Vesting Cliff but not the total Vesting Duration\n            // Calculating Actual Months(Excluding the CLIFF) to initiate vesting\n        } else {\n            uint256 actualMonthElapsed =\n                totalMonthsElapsed.sub(vestData.lockPeriod);\n            require(actualMonthElapsed > 0, \"Number of months elapsed is ZERO\");\n            // Calculate the Total Tokens on the basis of Vesting Index and Month elapsed\n            if (vestData.vestIndexID == 9) {\n\n                uint256[4] memory monthsToRates;\n                monthsToRates[1] = 20;\n                monthsToRates[2] = 50;\n                monthsToRates[3] = 80;\n                tokensAfterElapsedMonths = getTokenAmount(\n                    vestData.totalTokensAllocated,\n                    monthsToRates[actualMonthElapsed],\n                    100\n                );\n            } else {\n                tokensAfterElapsedMonths = vestData.monthlyTokens.mul(\n                    actualMonthElapsed\n                );\n            }\n            require(\n                tokensAfterElapsedMonths > vestData.totalVestTokensClaimed,\n                \"No Claimable Tokens at this Time\"\n            );\n            // Get the actual Claimable Tokens\n            actualClaimableAmount = tokensAfterElapsedMonths.sub(\n                vestData.totalVestTokensClaimed\n            );\n        }\n        return actualClaimableAmount;\n    }\n\n    /**\n     * @notice Function to transfer tokens from this contract to the user\n     * @param _beneficiary address of the User\n     * @param _amountOfTokens number of tokens to be transferred\n     */\n    function _sendTokens(address _beneficiary, uint256 _amountOfTokens)\n        private\n        returns (bool)\n    {\n        _transfer(address(this), _beneficiary, _amountOfTokens);\n        return true;\n    }\n\n    /**\n     * @notice Calculates and Transfer the total tokens to be transferred to the user after Token Generation Event is over\n     * @dev The function shall only work for users under Sale Vesting Category(index - 7,8,9).\n     * @dev The function can only be called once by the user(only if the isTgeTokensClaimed boolean value is FALSE).\n     * Once the tokens have been transferred, isTgeTokensClaimed becomes TRUE for that particular address\n     * @param _userAddresses address of the User\n     */\n    function _claimTGETokens(address _userAddresses, uint8 _vestingIndex)\n        internal\n        onlyAfterTGE\n        checkVestingStatus(_userAddresses, _vestingIndex)\n        returns (bool)\n    {\n        // Get Vesting Details\n        VestAllocation memory vestData =\n            walletToVestAllocations[_userAddresses][_vestingIndex];\n\n        require(\n            vestData.vestIndexID >= 7 && vestData.vestIndexID <= 9,\n            \"Vesting Category doesn't belong to SALE VEsting\"\n        );\n        require(\n            vestData.isTgeTokensClaimed == false,\n            \"TGE Tokens Have already been claimed for Given Address\"\n        );\n\n        uint256 tokensToTransfer = vestData.totalTGETokens;\n\n        // Updating Contract State\n        vestData.isTgeTokensClaimed = true;\n        walletToVestAllocations[_userAddresses][_vestingIndex] = vestData;\n        _sendTokens(_userAddresses, tokensToTransfer);\n    }\n\n    function claimTGETokensOnlyOwner(address _userAddresses,uint8 _vestingIndex) external onlyOwner returns(bool){\n            _claimTGETokens(_userAddresses,_vestingIndex);\n    }\n\n    function claimTGETokens(uint8 _vestingIndex) external returns(bool){\n            _claimTGETokens(msg.sender,_vestingIndex);  \n        \n    }\n\n    /**\n     * @notice Calculates and Transfers the total tokens to be transferred to the user by calculating the Amount of tokens to be transferred at the given time\n     * @dev The function shall only work for users under Vesting Category is valid(index - 1 to 9).\n     * @dev isVesting becomes false if all allocated tokens have been claimed.\n     * @dev User cannot claim more tokens than actually allocated to them by the OWNER\n     * @param _userAddresses address of the User\n     */\n    function _claimVestTokens(address _userAddresses, uint8 _vestingIndex)\n        internal\n        checkVestingStatus(_userAddresses, _vestingIndex)\n        returns (bool)\n    {\n        // Get Vesting Details\n        VestAllocation memory vestData =\n            walletToVestAllocations[_userAddresses][_vestingIndex];\n\n        // Get total token amount to be transferred\n        uint256 _totalTokensClaimed =\n            totalTokensClaimed(_userAddresses, _vestingIndex);\n        uint256 tokensToTransfer =\n            calculateClaimableTokens(_userAddresses, _vestingIndex);\n\n        require(tokensToTransfer > 0, \"No tokens to transfer\");\n        uint256 contractTokenBalance = balanceOf(address(this));\n        require(\n            contractTokenBalance > tokensToTransfer,\n            \"Not Enough Token Balance in Contract\"\n        );\n        require(\n            _totalTokensClaimed.add(tokensToTransfer) <=\n                vestData.totalTokensAllocated,\n            \"Cannot Claim more than Allocated\"\n        );\n\n        vestData.totalVestTokensClaimed += tokensToTransfer;\n        if (\n            _totalTokensClaimed.add(tokensToTransfer) ==\n            vestData.totalTokensAllocated\n        ) {\n            vestData.isVesting = false;\n        }\n        walletToVestAllocations[_userAddresses][_vestingIndex] = vestData;\n        _sendTokens(_userAddresses, tokensToTransfer);\n    }\n\n    function claimVestTokensOnlyOwner(address _userAddresses,uint8 _vestingIndex) external onlyOwner returns(bool){\n            _claimVestTokens(_userAddresses,_vestingIndex);\n    }\n\n    function claimVestTokens(uint8 _vestingIndex) external returns(bool){\n            _claimVestTokens(msg.sender,_vestingIndex); \n        \n    }\n\n    function pullRemainingTokens() onlyOwner external returns(bool){\n        uint256 remainingTokens = balanceOf(address(this));\n        _sendTokens(owner(),remainingTokens);\n        \n    }\n    \n    \n}\n\n",
  "sourcePath": "/home/zaryab/blockchain_begins/all_about_ethereum/quillHash_CODES/bloqueLabs/gitPlaycent/ico-contract/contracts/pcntTokenVesting.sol",
  "compiler": {
    "name": "solc",
    "version": "0.6.2+commit.bacdbe57.Linux.g++"
  },
  "schemaVersion": "3.3.3",
  "updatedAt": "2021-03-02T12:08:24.083Z",
  "devdoc": {
    "methods": {
      "addVestingDetails(address[],uint256[],uint8)": {
        "params": {
          "_userAddresses": "array of addresses of the Users",
          "_vestingAmounts": "array of amounts to be vested",
          "_vestnigType": "allows the owner to select the type of vesting category"
        },
        "returns": {
          "_0": "- true if Function executes successfully"
        }
      },
      "allowance(address,address)": {
        "details": "See {IERC20-allowance}."
      },
      "approve(address,uint256)": {
        "details": "See {IERC20-approve}.     * Requirements:     * - `spender` cannot be the zero address."
      },
      "balanceOf(address)": {
        "details": "See {IERC20-balanceOf}."
      },
      "calculateClaimableTokens(address,uint8)": {
        "params": {
          "_userAddresses": "address of the User"
        }
      },
      "decimals()": {
        "details": "Returns the number of decimals used to get its user representation. For example, if `decimals` equals `2`, a balance of `505` tokens should be displayed to a user as `5,05` (`505 / 10 ** 2`).     * Tokens usually opt for a value of 18, imitating the relationship between Ether and Wei. This is the value {ERC20} uses, unless {_setupDecimals} is called.     * NOTE: This information is only used for _display_ purposes: it in no way affects any of the arithmetic of the contract, including {IERC20-balanceOf} and {IERC20-transfer}."
      },
      "decreaseAllowance(address,uint256)": {
        "details": "Atomically decreases the allowance granted to `spender` by the caller.     * This is an alternative to {approve} that can be used as a mitigation for problems described in {IERC20-approve}.     * Emits an {Approval} event indicating the updated allowance.     * Requirements:     * - `spender` cannot be the zero address. - `spender` must have allowance for the caller of at least `subtractedValue`."
      },
      "increaseAllowance(address,uint256)": {
        "details": "Atomically increases the allowance granted to `spender` by the caller.     * This is an alternative to {approve} that can be used as a mitigation for problems described in {IERC20-approve}.     * Emits an {Approval} event indicating the updated allowance.     * Requirements:     * - `spender` cannot be the zero address."
      },
      "name()": {
        "details": "Returns the name of the token."
      },
      "owner()": {
        "details": "Returns the address of the current owner."
      },
      "paused()": {
        "details": "Returns true if the contract is paused, and false otherwise."
      },
      "renounceOwnership()": {
        "details": "Leaves the contract without owner. It will not be possible to call `onlyOwner` functions anymore. Can only be called by the current owner.     * NOTE: Renouncing ownership will leave the contract without an owner, thereby removing any functionality that is only available to the owner."
      },
      "symbol()": {
        "details": "Returns the symbol of the token, usually a shorter version of the name."
      },
      "totalSupply()": {
        "details": "See {IERC20-totalSupply}."
      },
      "transfer(address,uint256)": {
        "details": "See {IERC20-transfer}.     * Requirements:     * - `recipient` cannot be the zero address. - the caller must have a balance of at least `amount`."
      },
      "transferFrom(address,address,uint256)": {
        "details": "See {IERC20-transferFrom}.     * Emits an {Approval} event indicating the updated allowance. This is not required by the EIP. See the note at the beginning of {ERC20}.     * Requirements:     * - `sender` and `recipient` cannot be the zero address. - `sender` must have a balance of at least `amount`. - the caller must have allowance for ``sender``'s tokens of at least `amount`."
      },
      "transferOwnership(address)": {
        "details": "Transfers ownership of the contract to a new account (`newOwner`). Can only be called by the current owner."
      }
    }
  },
  "userdoc": {
    "methods": {
      "addVestingDetails(address[],uint256[],uint8)": {
        "notice": "- Allows only the Owner to ADD an array of Addresses as well as their Vesting Amount - The array of user and amounts should be passed along with the vestingCategory Index.  - Thus, a particular batch of addresses shall be added under only one Vesting Category Index "
      },
      "calculateClaimableTokens(address,uint8)": {
        "notice": "Calculates the amount of tokens to be transferred at any given point of time"
      }
    }
  }
}