{
  "contractName": "PlaycentToken",
  "abi": [
    {
      "anonymous": false,
      "inputs": [
        {
          "indexed": true,
          "internalType": "address",
          "name": "owner",
          "type": "address"
        },
        {
          "indexed": true,
          "internalType": "address",
          "name": "spender",
          "type": "address"
        },
        {
          "indexed": false,
          "internalType": "uint256",
          "name": "value",
          "type": "uint256"
        }
      ],
      "name": "Approval",
      "type": "event"
    },
    {
      "anonymous": false,
      "inputs": [
        {
          "indexed": true,
          "internalType": "address",
          "name": "previousOwner",
          "type": "address"
        },
        {
          "indexed": true,
          "internalType": "address",
          "name": "newOwner",
          "type": "address"
        }
      ],
      "name": "OwnershipTransferred",
      "type": "event"
    },
    {
      "anonymous": false,
      "inputs": [
        {
          "indexed": false,
          "internalType": "address",
          "name": "account",
          "type": "address"
        }
      ],
      "name": "Paused",
      "type": "event"
    },
    {
      "anonymous": false,
      "inputs": [
        {
          "indexed": true,
          "internalType": "address",
          "name": "from",
          "type": "address"
        },
        {
          "indexed": true,
          "internalType": "address",
          "name": "to",
          "type": "address"
        },
        {
          "indexed": false,
          "internalType": "uint256",
          "name": "value",
          "type": "uint256"
        }
      ],
      "name": "Transfer",
      "type": "event"
    },
    {
      "anonymous": false,
      "inputs": [
        {
          "indexed": false,
          "internalType": "address",
          "name": "account",
          "type": "address"
        }
      ],
      "name": "Unpaused",
      "type": "event"
    },
    {
      "inputs": [
        {
          "internalType": "address",
          "name": "owner",
          "type": "address"
        },
        {
          "internalType": "address",
          "name": "spender",
          "type": "address"
        }
      ],
      "name": "allowance",
      "outputs": [
        {
          "internalType": "uint256",
          "name": "",
          "type": "uint256"
        }
      ],
      "stateMutability": "view",
      "type": "function"
    },
    {
      "inputs": [
        {
          "internalType": "address",
          "name": "spender",
          "type": "address"
        },
        {
          "internalType": "uint256",
          "name": "amount",
          "type": "uint256"
        }
      ],
      "name": "approve",
      "outputs": [
        {
          "internalType": "bool",
          "name": "",
          "type": "bool"
        }
      ],
      "stateMutability": "nonpayable",
      "type": "function"
    },
    {
      "inputs": [
        {
          "internalType": "address",
          "name": "account",
          "type": "address"
        }
      ],
      "name": "balanceOf",
      "outputs": [
        {
          "internalType": "uint256",
          "name": "",
          "type": "uint256"
        }
      ],
      "stateMutability": "view",
      "type": "function"
    },
    {
      "inputs": [],
      "name": "decimals",
      "outputs": [
        {
          "internalType": "uint8",
          "name": "",
          "type": "uint8"
        }
      ],
      "stateMutability": "view",
      "type": "function"
    },
    {
      "inputs": [
        {
          "internalType": "address",
          "name": "spender",
          "type": "address"
        },
        {
          "internalType": "uint256",
          "name": "subtractedValue",
          "type": "uint256"
        }
      ],
      "name": "decreaseAllowance",
      "outputs": [
        {
          "internalType": "bool",
          "name": "",
          "type": "bool"
        }
      ],
      "stateMutability": "nonpayable",
      "type": "function"
    },
    {
      "inputs": [
        {
          "internalType": "address",
          "name": "spender",
          "type": "address"
        },
        {
          "internalType": "uint256",
          "name": "addedValue",
          "type": "uint256"
        }
      ],
      "name": "increaseAllowance",
      "outputs": [
        {
          "internalType": "bool",
          "name": "",
          "type": "bool"
        }
      ],
      "stateMutability": "nonpayable",
      "type": "function"
    },
    {
      "inputs": [],
      "name": "name",
      "outputs": [
        {
          "internalType": "string",
          "name": "",
          "type": "string"
        }
      ],
      "stateMutability": "view",
      "type": "function"
    },
    {
      "inputs": [],
      "name": "owner",
      "outputs": [
        {
          "internalType": "address",
          "name": "",
          "type": "address"
        }
      ],
      "stateMutability": "view",
      "type": "function"
    },
    {
      "inputs": [],
      "name": "paused",
      "outputs": [
        {
          "internalType": "bool",
          "name": "",
          "type": "bool"
        }
      ],
      "stateMutability": "view",
      "type": "function"
    },
    {
      "inputs": [],
      "name": "renounceOwnership",
      "outputs": [],
      "stateMutability": "nonpayable",
      "type": "function"
    },
    {
      "inputs": [],
      "name": "symbol",
      "outputs": [
        {
          "internalType": "string",
          "name": "",
          "type": "string"
        }
      ],
      "stateMutability": "view",
      "type": "function"
    },
    {
      "inputs": [],
      "name": "totalSupply",
      "outputs": [
        {
          "internalType": "uint256",
          "name": "",
          "type": "uint256"
        }
      ],
      "stateMutability": "view",
      "type": "function"
    },
    {
      "inputs": [
        {
          "internalType": "address",
          "name": "recipient",
          "type": "address"
        },
        {
          "internalType": "uint256",
          "name": "amount",
          "type": "uint256"
        }
      ],
      "name": "transfer",
      "outputs": [
        {
          "internalType": "bool",
          "name": "",
          "type": "bool"
        }
      ],
      "stateMutability": "nonpayable",
      "type": "function"
    },
    {
      "inputs": [
        {
          "internalType": "address",
          "name": "sender",
          "type": "address"
        },
        {
          "internalType": "address",
          "name": "recipient",
          "type": "address"
        },
        {
          "internalType": "uint256",
          "name": "amount",
          "type": "uint256"
        }
      ],
      "name": "transferFrom",
      "outputs": [
        {
          "internalType": "bool",
          "name": "",
          "type": "bool"
        }
      ],
      "stateMutability": "nonpayable",
      "type": "function"
    },
    {
      "inputs": [
        {
          "internalType": "address",
          "name": "newOwner",
          "type": "address"
        }
      ],
      "name": "transferOwnership",
      "outputs": [],
      "stateMutability": "nonpayable",
      "type": "function"
    },
    {
      "inputs": [
        {
          "internalType": "address",
          "name": "",
          "type": "address"
        }
      ],
      "name": "userToVestingDetails",
      "outputs": [
        {
          "internalType": "uint8",
          "name": "categoryId",
          "type": "uint8"
        },
        {
          "internalType": "address",
          "name": "walletAddress",
          "type": "address"
        },
        {
          "internalType": "uint256",
          "name": "totalAmount",
          "type": "uint256"
        },
        {
          "internalType": "uint256",
          "name": "startTime",
          "type": "uint256"
        },
        {
          "internalType": "uint256",
          "name": "vestingDuration",
          "type": "uint256"
        },
        {
          "internalType": "uint256",
          "name": "vestingCliff",
          "type": "uint256"
        },
        {
          "internalType": "uint256",
          "name": "vestingPercent",
          "type": "uint256"
        },
        {
          "internalType": "uint256",
          "name": "totalMonthsClaimed",
          "type": "uint256"
        },
        {
          "internalType": "uint256",
          "name": "totalAmountClaimed",
          "type": "uint256"
        },
        {
          "internalType": "bool",
          "name": "isVesting",
          "type": "bool"
        }
      ],
      "stateMutability": "view",
      "type": "function"
    },
    {
      "inputs": [
        {
          "internalType": "uint256",
          "name": "",
          "type": "uint256"
        }
      ],
      "name": "vestCategory",
      "outputs": [
        {
          "internalType": "uint8",
          "name": "categoryId",
          "type": "uint8"
        },
        {
          "internalType": "uint256",
          "name": "cliff",
          "type": "uint256"
        },
        {
          "internalType": "uint256",
          "name": "lockUpPeriod",
          "type": "uint256"
        },
        {
          "internalType": "uint256",
          "name": "vestPercentage",
          "type": "uint256"
        },
        {
          "internalType": "uint256",
          "name": "totalAllocatedToken",
          "type": "uint256"
        }
      ],
      "stateMutability": "view",
      "type": "function"
    },
    {
      "inputs": [],
      "name": "initialize",
      "outputs": [],
      "stateMutability": "nonpayable",
      "type": "function"
    },
    {
      "inputs": [
        {
          "internalType": "address[]",
          "name": "_userAddresses",
          "type": "address[]"
        },
        {
          "internalType": "uint256[]",
          "name": "_vestingAmounts",
          "type": "uint256[]"
        },
        {
          "internalType": "uint8",
          "name": "_vestnigType",
          "type": "uint8"
        }
      ],
      "name": "addVestingDetails",
      "outputs": [
        {
          "internalType": "bool",
          "name": "",
          "type": "bool"
        }
      ],
      "stateMutability": "nonpayable",
      "type": "function"
    }
  ],
  "bytecode": "0x608060405234801561001057600080fd5b506134ab806100206000396000f3fe608060405234801561001057600080fd5b506004361061013e576000357c010000000000000000000000000000000000000000000000000000000090048063715018a6116100ca578063a9059cbb1161008e578063a9059cbb1461060e578063dd62ed3e14610674578063f2fde38b146106ec578063f31664ff14610730578063f864e1c5146107fd5761013e565b8063715018a6146104c75780638129fc1c146104d15780638da5cb5b146104db57806395d89b4114610525578063a457c2d7146105a85761013e565b8063313ce56711610111578063313ce567146102d057806339509351146102f457806352985d2a1461035a5780635c975abb1461044d57806370a082311461046f5761013e565b806306fdde0314610143578063095ea7b3146101c657806318160ddd1461022c57806323b872dd1461024a575b600080fd5b61014b610861565b6040518080602001828103825283818151815260200191508051906020019080838360005b8381101561018b578082015181840152602081019050610170565b50505050905090810190601f1680156101b85780820380516001836020036101000a031916815260200191505b509250505060405180910390f35b610212600480360360408110156101dc57600080fd5b81019080803573ffffffffffffffffffffffffffffffffffffffff16906020019092919080359060200190929190505050610903565b604051808215151515815260200191505060405180910390f35b610234610921565b6040518082815260200191505060405180910390f35b6102b66004803603606081101561026057600080fd5b81019080803573ffffffffffffffffffffffffffffffffffffffff169060200190929190803573ffffffffffffffffffffffffffffffffffffffff1690602001909291908035906020019092919050505061092b565b604051808215151515815260200191505060405180910390f35b6102d8610a04565b604051808260ff1660ff16815260200191505060405180910390f35b6103406004803603604081101561030a57600080fd5b81019080803573ffffffffffffffffffffffffffffffffffffffff16906020019092919080359060200190929190505050610a1b565b604051808215151515815260200191505060405180910390f35b6104336004803603606081101561037057600080fd5b810190808035906020019064010000000081111561038d57600080fd5b82018360208201111561039f57600080fd5b803590602001918460208302840111640100000000831117156103c157600080fd5b9091929391929390803590602001906401000000008111156103e257600080fd5b8201836020820111156103f457600080fd5b8035906020019184602083028401116401000000008311171561041657600080fd5b9091929391929390803560ff169060200190929190505050610ace565b604051808215151515815260200191505060405180910390f35b610455610d9f565b604051808215151515815260200191505060405180910390f35b6104b16004803603602081101561048557600080fd5b81019080803573ffffffffffffffffffffffffffffffffffffffff169060200190929190505050610db6565b6040518082815260200191505060405180910390f35b6104cf610dff565b005b6104d9610f6f565b005b6104e3611780565b604051808273ffffffffffffffffffffffffffffffffffffffff1673ffffffffffffffffffffffffffffffffffffffff16815260200191505060405180910390f35b61052d6117aa565b6040518080602001828103825283818151815260200191508051906020019080838360005b8381101561056d578082015181840152602081019050610552565b50505050905090810190601f16801561059a5780820380516001836020036101000a031916815260200191505b509250505060405180910390f35b6105f4600480360360408110156105be57600080fd5b81019080803573ffffffffffffffffffffffffffffffffffffffff1690602001909291908035906020019092919050505061184c565b604051808215151515815260200191505060405180910390f35b61065a6004803603604081101561062457600080fd5b81019080803573ffffffffffffffffffffffffffffffffffffffff16906020019092919080359060200190929190505050611919565b604051808215151515815260200191505060405180910390f35b6106d66004803603604081101561068a57600080fd5b81019080803573ffffffffffffffffffffffffffffffffffffffff169060200190929190803573ffffffffffffffffffffffffffffffffffffffff169060200190929190505050611937565b6040518082815260200191505060405180910390f35b61072e6004803603602081101561070257600080fd5b81019080803573ffffffffffffffffffffffffffffffffffffffff1690602001909291905050506119be565b005b6107726004803603602081101561074657600080fd5b81019080803573ffffffffffffffffffffffffffffffffffffffff169060200190929190505050611bb3565b604051808b60ff1660ff1681526020018a73ffffffffffffffffffffffffffffffffffffffff1673ffffffffffffffffffffffffffffffffffffffff168152602001898152602001888152602001878152602001868152602001858152602001848152602001838152602001821515151581526020019a505050505050505050505060405180910390f35b6108296004803603602081101561081357600080fd5b8101908080359060200190929190505050611c41565b604051808660ff1660ff1681526020018581526020018481526020018381526020018281526020019550505050505060405180910390f35b606060688054600181600116156101000203166002900480601f0160208091040260200160405190810160405280929190818152602001828054600181600116156101000203166002900480156108f95780601f106108ce576101008083540402835291602001916108f9565b820191906000526020600020905b8154815290600101906020018083116108dc57829003601f168201915b5050505050905090565b6000610917610910611c84565b8484611c8c565b6001905092915050565b6000606754905090565b6000610938848484611e83565b6109f984610944611c84565b6109f4856040518060600160405280602881526020016133b660289139606660008b73ffffffffffffffffffffffffffffffffffffffff1673ffffffffffffffffffffffffffffffffffffffff16815260200190815260200160002060006109aa611c84565b73ffffffffffffffffffffffffffffffffffffffff1673ffffffffffffffffffffffffffffffffffffffff168152602001908152602001600020546121489092919063ffffffff16565b611c8c565b600190509392505050565b6000606a60009054906101000a900460ff16905090565b6000610ac4610a28611c84565b84610abf8560666000610a39611c84565b73ffffffffffffffffffffffffffffffffffffffff1673ffffffffffffffffffffffffffffffffffffffff16815260200190815260200160002060008973ffffffffffffffffffffffffffffffffffffffff1673ffffffffffffffffffffffffffffffffffffffff1681526020019081526020016000205461220290919063ffffffff16565b611c8c565b6001905092915050565b6000610ad8611c84565b73ffffffffffffffffffffffffffffffffffffffff16610af6611780565b73ffffffffffffffffffffffffffffffffffffffff1614610b7f576040517f08c379a00000000000000000000000000000000000000000000000000000000081526004018080602001828103825260208152602001807f4f776e61626c653a2063616c6c6572206973206e6f7420746865206f776e657281525060200191505060405180910390fd5b60008260ff1610158015610b97575060098260ff1611155b610c09576040517f08c379a00000000000000000000000000000000000000000000000000000000081526004018080602001828103825260158152602001807f496e76616c69642056657374696e6720496e646578000000000000000000000081525060200191505060405180910390fd5b838390508686905014610c84576040517f08c379a00000000000000000000000000000000000000000000000000000000081526004018080602001828103825260158152602001807f556e657175616c2061727261797320706173736564000000000000000000000081525060200191505060405180910390fd5b610c8c61318f565b60fb60008460ff1681526020019081526020016000206040518060a00160405290816000820160009054906101000a900460ff1660ff1660ff1681526020016001820154815260200160028201548152602001600382015481526020016004820154815250509050600087879050905060008090505b81811015610d8f57600085905060008a8a84818110610d1d57fe5b9050602002013573ffffffffffffffffffffffffffffffffffffffff1690506000898985818110610d4a57fe5b905060200201359050600086604001519050600087602001519050600088606001519050610d7c85878685878661228a565b5050505050508080600101915050610d02565b5060019250505095945050505050565b6000609760009054906101000a900460ff16905090565b6000606560008373ffffffffffffffffffffffffffffffffffffffff1673ffffffffffffffffffffffffffffffffffffffff168152602001908152602001600020549050919050565b610e07611c84565b73ffffffffffffffffffffffffffffffffffffffff16610e25611780565b73ffffffffffffffffffffffffffffffffffffffff1614610eae576040517f08c379a00000000000000000000000000000000000000000000000000000000081526004018080602001828103825260208152602001807f4f776e61626c653a2063616c6c6572206973206e6f7420746865206f776e657281525060200191505060405180910390fd5b600073ffffffffffffffffffffffffffffffffffffffff16603360009054906101000a900473ffffffffffffffffffffffffffffffffffffffff1673ffffffffffffffffffffffffffffffffffffffff167f8be0079c531659141344cd1fd0a4f28419497f9722a3daafe3b4186f6b6457e060405160405180910390a36000603360006101000a81548173ffffffffffffffffffffffffffffffffffffffff021916908373ffffffffffffffffffffffffffffffffffffffff160217905550565b600060019054906101000a900460ff1680610f8e5750610f8d6125eb565b5b80610fa557506000809054906101000a900460ff16155b610ffa576040517f08c379a000000000000000000000000000000000000000000000000000000000815260040180806020018281038252602e815260200180613366602e913960400191505060405180910390fd5b60008060019054906101000a900460ff16159050801561104a576001600060016101000a81548160ff02191690831515021790555060016000806101000a81548160ff0219169083151502179055505b6110526125fc565b6110c66040518060400160405280600881526020017f506c617963656e740000000000000000000000000000000000000000000000008152506040518060400160405280600481526020017f50434e540000000000000000000000000000000000000000000000000000000081525061270b565b6110ce61281e565b6110ea6110d9611780565b6a31a17e847807b1bc000000612935565b6040518060a00160405280600060ff1681526020016301e133808152602001630502c3808152602001674563918244f4000081526020016a0771d2fa45345aa900000081525060fb600080815260200190815260200160002060008201518160000160006101000a81548160ff021916908360ff160217905550602082015181600101556040820151816002015560608201518160030155608082015181600401559050506040518060a00160405280600160ff1681526020016277f8808152602001630208c0808152602001678ac7230489e8000081526020016a03f870857a3e0e3800000081525060fb60006001815260200190815260200160002060008201518160000160006101000a81548160ff021916908360ff160217905550602082015181600101556040820151816002015560608201518160030155608082015181600401559050506040518060a00160405280600260ff1681526020016277f8808152602001630208c0808152602001678ac7230489e8000081526020016a03f870857a3e0e3800000081525060fb60006002815260200190815260200160002060008201518160000160006101000a81548160ff021916908360ff160217905550602082015181600101556040820151816002015560608201518160030155608082015181600401559050506040518060a00160405280600360ff16815260200162278d0081526020016301b855008152602001678ac7230489e8000081526020016a01fc3842bd1f071c00000081525060fb60006003815260200190815260200160002060008201518160000160006101000a81548160ff021916908360ff160217905550602082015181600101556040820151816002015560608201518160030155608082015181600401559050506040518060a00160405280600460ff168152602001630118cf8081526020016301b855008152602001678ac7230489e8000081526020016a03f870857a3e0e3800000081525060fb60006004815260200190815260200160002060008201518160000160006101000a81548160ff021916908360ff160217905550602082015181600101556040820151816002015560608201518160030155608082015181600401559050506040518060a00160405280600560ff1681526020016277f88081526020016304633e008152602001673782dace9d90000081526020016a0771d2fa45345aa900000081525060fb60006005815260200190815260200160002060008201518160000160006101000a81548160ff021916908360ff160217905550602082015181600101556040820151816002015560608201518160030155608082015181600401559050506040518060a00160405280600560ff16815260200162eff10081526020016304b258008152602001670de0b6b3a764000081526020016a03796274caf64c7100000081525060fb60006006815260200190815260200160002060008201518160000160006101000a81548160ff021916908360ff160217905550602082015181600101556040820151816002015560608201518160030155608082015181600401559050506040518060a00160405280600560ff168152602001624f1a008152602001630118cf808152602001678ac7230489e8000081526020016a04b7059e8129b0e280000081525060fb60006007815260200190815260200160002060008201518160000160006101000a81548160ff021916908360ff160217905550602082015181600101556040820151816002015560608201518160030155608082015181600401559050506040518060a00160405280600660ff168152602001624f1a00815260200162c5c100815260200167d02ab486cedc000081526020016a04777e962985cfff00000081525060fb60006008815260200190815260200160002060008201518160000160006101000a81548160ff021916908360ff160217905550602082015181600101556040820151816002015560608201518160030155608082015181600401559050506040518060a00160405280600760ff168152602001624f1a008152602001629e340081526020016801158e460913d0000081526020016a0437f78dd1e1ef1b80000081525060fb60006009815260200190815260200160002060008201518160000160006101000a81548160ff021916908360ff16021790555060208201518160010155604082015181600201556060820151816003015560808201518160040155905050801561177d5760008060016101000a81548160ff0219169083151502179055505b50565b6000603360009054906101000a900473ffffffffffffffffffffffffffffffffffffffff16905090565b606060698054600181600116156101000203166002900480601f0160208091040260200160405190810160405280929190818152602001828054600181600116156101000203166002900480156118425780601f1061181757610100808354040283529160200191611842565b820191906000526020600020905b81548152906001019060200180831161182557829003601f168201915b5050505050905090565b600061190f611859611c84565b8461190a856040518060600160405280602581526020016134276025913960666000611883611c84565b73ffffffffffffffffffffffffffffffffffffffff1673ffffffffffffffffffffffffffffffffffffffff16815260200190815260200160002060008a73ffffffffffffffffffffffffffffffffffffffff1673ffffffffffffffffffffffffffffffffffffffff168152602001908152602001600020546121489092919063ffffffff16565b611c8c565b6001905092915050565b600061192d611926611c84565b8484611e83565b6001905092915050565b6000606660008473ffffffffffffffffffffffffffffffffffffffff1673ffffffffffffffffffffffffffffffffffffffff16815260200190815260200160002060008373ffffffffffffffffffffffffffffffffffffffff1673ffffffffffffffffffffffffffffffffffffffff16815260200190815260200160002054905092915050565b6119c6611c84565b73ffffffffffffffffffffffffffffffffffffffff166119e4611780565b73ffffffffffffffffffffffffffffffffffffffff1614611a6d576040517f08c379a00000000000000000000000000000000000000000000000000000000081526004018080602001828103825260208152602001807f4f776e61626c653a2063616c6c6572206973206e6f7420746865206f776e657281525060200191505060405180910390fd5b600073ffffffffffffffffffffffffffffffffffffffff168173ffffffffffffffffffffffffffffffffffffffff161415611af3576040517f08c379a00000000000000000000000000000000000000000000000000000000081526004018080602001828103825260268152602001806132f86026913960400191505060405180910390fd5b8073ffffffffffffffffffffffffffffffffffffffff16603360009054906101000a900473ffffffffffffffffffffffffffffffffffffffff1673ffffffffffffffffffffffffffffffffffffffff167f8be0079c531659141344cd1fd0a4f28419497f9722a3daafe3b4186f6b6457e060405160405180910390a380603360006101000a81548173ffffffffffffffffffffffffffffffffffffffff021916908373ffffffffffffffffffffffffffffffffffffffff16021790555050565b60fc6020528060005260406000206000915090508060000160009054906101000a900460ff16908060000160019054906101000a900473ffffffffffffffffffffffffffffffffffffffff16908060010154908060020154908060030154908060040154908060050154908060060154908060070154908060080160009054906101000a900460ff1690508a565b60fb6020528060005260406000206000915090508060000160009054906101000a900460ff16908060010154908060020154908060030154908060040154905085565b600033905090565b600073ffffffffffffffffffffffffffffffffffffffff168373ffffffffffffffffffffffffffffffffffffffff161415611d12576040517f08c379a00000000000000000000000000000000000000000000000000000000081526004018080602001828103825260248152602001806134036024913960400191505060405180910390fd5b600073ffffffffffffffffffffffffffffffffffffffff168273ffffffffffffffffffffffffffffffffffffffff161415611d98576040517f08c379a000000000000000000000000000000000000000000000000000000000815260040180806020018281038252602281526020018061331e6022913960400191505060405180910390fd5b80606660008573ffffffffffffffffffffffffffffffffffffffff1673ffffffffffffffffffffffffffffffffffffffff16815260200190815260200160002060008473ffffffffffffffffffffffffffffffffffffffff1673ffffffffffffffffffffffffffffffffffffffff168152602001908152602001600020819055508173ffffffffffffffffffffffffffffffffffffffff168373ffffffffffffffffffffffffffffffffffffffff167f8c5be1e5ebec7d5bd14f71427d1e84f3dd0314c0f7b2291e5b200ac8c7c3b925836040518082815260200191505060405180910390a3505050565b600073ffffffffffffffffffffffffffffffffffffffff168373ffffffffffffffffffffffffffffffffffffffff161415611f09576040517f08c379a00000000000000000000000000000000000000000000000000000000081526004018080602001828103825260258152602001806133de6025913960400191505060405180910390fd5b600073ffffffffffffffffffffffffffffffffffffffff168273ffffffffffffffffffffffffffffffffffffffff161415611f8f576040517f08c379a00000000000000000000000000000000000000000000000000000000081526004018080602001828103825260238152602001806132d56023913960400191505060405180910390fd5b611f9a838383612afe565b6120068160405180606001604052806026815260200161334060269139606560008773ffffffffffffffffffffffffffffffffffffffff1673ffffffffffffffffffffffffffffffffffffffff168152602001908152602001600020546121489092919063ffffffff16565b606560008573ffffffffffffffffffffffffffffffffffffffff1673ffffffffffffffffffffffffffffffffffffffff1681526020019081526020016000208190555061209b81606560008573ffffffffffffffffffffffffffffffffffffffff1673ffffffffffffffffffffffffffffffffffffffff1681526020019081526020016000205461220290919063ffffffff16565b606560008473ffffffffffffffffffffffffffffffffffffffff1673ffffffffffffffffffffffffffffffffffffffff168152602001908152602001600020819055508173ffffffffffffffffffffffffffffffffffffffff168373ffffffffffffffffffffffffffffffffffffffff167fddf252ad1be2c89b69c2b068fc378daa952ba7f163c4a11628f55a4df523b3ef836040518082815260200191505060405180910390a3505050565b60008383111582906121f5576040517f08c379a00000000000000000000000000000000000000000000000000000000081526004018080602001828103825283818151815260200191508051906020019080838360005b838110156121ba57808201518184015260208101905061219f565b50505050905090810190601f1680156121e75780820380516001836020036101000a031916815260200191505b509250505060405180910390fd5b5082840390509392505050565b600080828401905083811015612280576040517f08c379a000000000000000000000000000000000000000000000000000000000815260040180806020018281038252601b8152602001807f536166654d6174683a206164646974696f6e206f766572666c6f77000000000081525060200191505060405180910390fd5b8091505092915050565b858560008160ff16101580156122a4575060098160ff1611155b612316576040517f08c379a00000000000000000000000000000000000000000000000000000000081526004018080602001828103825260158152602001807f496e76616c69642056657374696e6720496e646578000000000000000000000081525060200191505060405180910390fd5b600073ffffffffffffffffffffffffffffffffffffffff168273ffffffffffffffffffffffffffffffffffffffff1614156123b9576040517f08c379a000000000000000000000000000000000000000000000000000000000815260040180806020018281038252600f8152602001807f496e76616c69642041646472657373000000000000000000000000000000000081525060200191505060405180910390fd5b60fc60008373ffffffffffffffffffffffffffffffffffffffff1673ffffffffffffffffffffffffffffffffffffffff16815260200190815260200160002060080160009054906101000a900460ff161561245f576040517f08c379a00000000000000000000000000000000000000000000000000000000081526004018080602001828103825260228152602001806133946022913960400191505060405180910390fd5b6124676131c1565b6040518061014001604052808960ff1681526020018a73ffffffffffffffffffffffffffffffffffffffff16815260200188815260200142815260200186815260200187815260200185815260200160008152602001600081526020016001151581525090508060fc60008b73ffffffffffffffffffffffffffffffffffffffff1673ffffffffffffffffffffffffffffffffffffffff16815260200190815260200160002060008201518160000160006101000a81548160ff021916908360ff16021790555060208201518160000160016101000a81548173ffffffffffffffffffffffffffffffffffffffff021916908373ffffffffffffffffffffffffffffffffffffffff16021790555060408201518160010155606082015181600201556080820151816003015560a0820151816004015560c0820151816005015560e0820151816006015561010082015181600701556101208201518160080160006101000a81548160ff021916908315150217905550905050505050505050505050565b60006125f630612b6c565b15905090565b600060019054906101000a900460ff168061261b575061261a6125eb565b5b8061263257506000809054906101000a900460ff16155b612687576040517f08c379a000000000000000000000000000000000000000000000000000000000815260040180806020018281038252602e815260200180613366602e913960400191505060405180910390fd5b60008060019054906101000a900460ff1615905080156126d7576001600060016101000a81548160ff02191690831515021790555060016000806101000a81548160ff0219169083151502179055505b6126df612b7f565b6126e7612c7e565b80156127085760008060016101000a81548160ff0219169083151502179055505b50565b600060019054906101000a900460ff168061272a57506127296125eb565b5b8061274157506000809054906101000a900460ff16155b612796576040517f08c379a000000000000000000000000000000000000000000000000000000000815260040180806020018281038252602e815260200180613366602e913960400191505060405180910390fd5b60008060019054906101000a900460ff1615905080156127e6576001600060016101000a81548160ff02191690831515021790555060016000806101000a81548160ff0219169083151502179055505b6127ee612b7f565b6127f88383612e26565b80156128195760008060016101000a81548160ff0219169083151502179055505b505050565b600060019054906101000a900460ff168061283d575061283c6125eb565b5b8061285457506000809054906101000a900460ff16155b6128a9576040517f08c379a000000000000000000000000000000000000000000000000000000000815260040180806020018281038252602e815260200180613366602e913960400191505060405180910390fd5b60008060019054906101000a900460ff1615905080156128f9576001600060016101000a81548160ff02191690831515021790555060016000806101000a81548160ff0219169083151502179055505b612901612b7f565b612909612f71565b61291161308b565b80156129325760008060016101000a81548160ff0219169083151502179055505b50565b600073ffffffffffffffffffffffffffffffffffffffff168273ffffffffffffffffffffffffffffffffffffffff1614156129d8576040517f08c379a000000000000000000000000000000000000000000000000000000000815260040180806020018281038252601f8152602001807f45524332303a206d696e7420746f20746865207a65726f20616464726573730081525060200191505060405180910390fd5b6129e460008383612afe565b6129f98160675461220290919063ffffffff16565b606781905550612a5181606560008573ffffffffffffffffffffffffffffffffffffffff1673ffffffffffffffffffffffffffffffffffffffff1681526020019081526020016000205461220290919063ffffffff16565b606560008473ffffffffffffffffffffffffffffffffffffffff1673ffffffffffffffffffffffffffffffffffffffff168152602001908152602001600020819055508173ffffffffffffffffffffffffffffffffffffffff16600073ffffffffffffffffffffffffffffffffffffffff167fddf252ad1be2c89b69c2b068fc378daa952ba7f163c4a11628f55a4df523b3ef836040518082815260200191505060405180910390a35050565b612b0983838361318a565b612b11610d9f565b15612b67576040517f08c379a000000000000000000000000000000000000000000000000000000000815260040180806020018281038252602a81526020018061344c602a913960400191505060405180910390fd5b505050565b600080823b905060008111915050919050565b600060019054906101000a900460ff1680612b9e5750612b9d6125eb565b5b80612bb557506000809054906101000a900460ff16155b612c0a576040517f08c379a000000000000000000000000000000000000000000000000000000000815260040180806020018281038252602e815260200180613366602e913960400191505060405180910390fd5b60008060019054906101000a900460ff161590508015612c5a576001600060016101000a81548160ff02191690831515021790555060016000806101000a81548160ff0219169083151502179055505b8015612c7b5760008060016101000a81548160ff0219169083151502179055505b50565b600060019054906101000a900460ff1680612c9d5750612c9c6125eb565b5b80612cb457506000809054906101000a900460ff16155b612d09576040517f08c379a000000000000000000000000000000000000000000000000000000000815260040180806020018281038252602e815260200180613366602e913960400191505060405180910390fd5b60008060019054906101000a900460ff161590508015612d59576001600060016101000a81548160ff02191690831515021790555060016000806101000a81548160ff0219169083151502179055505b6000612d63611c84565b905080603360006101000a81548173ffffffffffffffffffffffffffffffffffffffff021916908373ffffffffffffffffffffffffffffffffffffffff1602179055508073ffffffffffffffffffffffffffffffffffffffff16600073ffffffffffffffffffffffffffffffffffffffff167f8be0079c531659141344cd1fd0a4f28419497f9722a3daafe3b4186f6b6457e060405160405180910390a3508015612e235760008060016101000a81548160ff0219169083151502179055505b50565b600060019054906101000a900460ff1680612e455750612e446125eb565b5b80612e5c57506000809054906101000a900460ff16155b612eb1576040517f08c379a000000000000000000000000000000000000000000000000000000000815260040180806020018281038252602e815260200180613366602e913960400191505060405180910390fd5b60008060019054906101000a900460ff161590508015612f01576001600060016101000a81548160ff02191690831515021790555060016000806101000a81548160ff0219169083151502179055505b8260689080519060200190612f1792919061322f565b508160699080519060200190612f2e92919061322f565b506012606a60006101000a81548160ff021916908360ff1602179055508015612f6c5760008060016101000a81548160ff0219169083151502179055505b505050565b600060019054906101000a900460ff1680612f905750612f8f6125eb565b5b80612fa757506000809054906101000a900460ff16155b612ffc576040517f08c379a000000000000000000000000000000000000000000000000000000000815260040180806020018281038252602e815260200180613366602e913960400191505060405180910390fd5b60008060019054906101000a900460ff16159050801561304c576001600060016101000a81548160ff02191690831515021790555060016000806101000a81548160ff0219169083151502179055505b6000609760006101000a81548160ff02191690831515021790555080156130885760008060016101000a81548160ff0219169083151502179055505b50565b600060019054906101000a900460ff16806130aa57506130a96125eb565b5b806130c157506000809054906101000a900460ff16155b613116576040517f08c379a000000000000000000000000000000000000000000000000000000000815260040180806020018281038252602e815260200180613366602e913960400191505060405180910390fd5b60008060019054906101000a900460ff161590508015613166576001600060016101000a81548160ff02191690831515021790555060016000806101000a81548160ff0219169083151502179055505b80156131875760008060016101000a81548160ff0219169083151502179055505b50565b505050565b6040518060a00160405280600060ff168152602001600081526020016000815260200160008152602001600081525090565b604051806101400160405280600060ff168152602001600073ffffffffffffffffffffffffffffffffffffffff168152602001600081526020016000815260200160008152602001600081526020016000815260200160008152602001600081526020016000151581525090565b828054600181600116156101000203166002900490600052602060002090601f016020900481019282601f1061327057805160ff191683800117855561329e565b8280016001018555821561329e579182015b8281111561329d578251825591602001919060010190613282565b5b5090506132ab91906132af565b5090565b6132d191905b808211156132cd5760008160009055506001016132b5565b5090565b9056fe45524332303a207472616e7366657220746f20746865207a65726f20616464726573734f776e61626c653a206e6577206f776e657220697320746865207a65726f206164647265737345524332303a20617070726f766520746f20746865207a65726f206164647265737345524332303a207472616e7366657220616d6f756e7420657863656564732062616c616e6365496e697469616c697a61626c653a20636f6e747261637420697320616c726561647920696e697469616c697a6564557365722056657374696e672044657461696c7320416c726561647920416464656445524332303a207472616e7366657220616d6f756e74206578636565647320616c6c6f77616e636545524332303a207472616e736665722066726f6d20746865207a65726f206164647265737345524332303a20617070726f76652066726f6d20746865207a65726f206164647265737345524332303a2064656372656173656420616c6c6f77616e63652062656c6f77207a65726f45524332305061757361626c653a20746f6b656e207472616e73666572207768696c6520706175736564a264697066735822122050bb28e762803f05f0206ba0d73f13db61d78b572df3d41793c40ffc775c5eae64736f6c63430006020033",
  "source": "pragma solidity 0.6.2;\n// SPDX-License-Identifier: MIT\n\nimport \"@openzeppelin/contracts-upgradeable/token/ERC20/ERC20Upgradeable.sol\";\nimport \"@openzeppelin/contracts-upgradeable/math/SafeMathUpgradeable.sol\";\nimport \"@openzeppelin/contracts-upgradeable/access/OwnableUpgradeable.sol\";\nimport \"@openzeppelin/contracts-upgradeable/proxy/Initializable.sol\";\nimport \"@openzeppelin/contracts-upgradeable/token/ERC20/ERC20PausableUpgradeable.sol\";\nimport \"@openzeppelin/contracts-upgradeable/math/SafeMathUpgradeable.sol\";\n\n\ncontract PlaycentToken is Initializable,OwnableUpgradeable,ERC20PausableUpgradeable{\n\tusing SafeMathUpgradeable for uint;\n\t/**\n\t * Category 0 - Team\n\t * Category 1 - Operations\n\t * Category 2 - Marketing/Partners\n\t * Category 3 - Advisors\n\t * Category 4 - Staking/Earn Incentives\n\t * Category 5 - Play/Mining\n\t * Category 6 - Reserve\n\t * Category 7 - Seed Sale\n\t * Category 8 - Private 1\n\t * Category 9 - Private 2\n\t */\n\tstruct vestingDetails{\n\t\tuint8 categoryId;\n\t\tuint cliff;\n\t\tuint lockUpPeriod;\n\t\tuint vestPercentage;\n\t\tuint totalAllocatedToken;\n\t}\n\n\tstruct vestAccountDetails{\n\t\tuint8 categoryId;\n\t\taddress walletAddress;\n\t\tuint totalAmount;\n\t\tuint startTime;\n\t\tuint vestingDuration;\n\t\tuint vestingCliff;\n\t\tuint vestingPercent;\n\t\tuint totalMonthsClaimed;\n\t\tuint totalAmountClaimed;\n\t\tbool isVesting;\n\t}\n\n\tmapping (uint => vestingDetails) public vestCategory;\n\tmapping(address => vestAccountDetails) public userToVestingDetails;\n\n\t/**\n\t * @notice The initialize funtion acts as the constructor in Upgradable Contracts\n\t * @dev All minted tokens goes to the owner of the contract\n\t*/\n\tfunction initialize() initializer public{\n\t\t__Ownable_init();\n        __ERC20_init('Playcent','PCNT');\t\t\n\t\t__ERC20Pausable_init();\n\t\t_mint(owner(),60000000 ether);\n\n\t\tvestCategory[0] = vestingDetails(0,365 days,973 days,5000000000000000000,9000000 ether); // Team\n\t\tvestCategory[1] = vestingDetails(1,91 days, 395 days,10000000000000000000,4800000 ether); // Operations\n\t\tvestCategory[2] = vestingDetails(2,91 days, 395 days,10000000000000000000,4800000 ether); // Marketing/Partners\n\t\tvestCategory[3] = vestingDetails(3,30 days, 334 days,10000000000000000000,2400000 ether); // Advisors\n\t\tvestCategory[4] = vestingDetails(4,213 days, 334 days,10000000000000000000,4800000 ether); //Staking/Early Incentive Rewards\n\t\tvestCategory[5] = vestingDetails(5,91 days, 852 days,4000000000000000000,9000000 ether); //Play Mining\t\n\t\tvestCategory[6] = vestingDetails(5,182 days, 912 days,1000000000000000000,4200000 ether); //Reserve\t\n\t\t// Sale Vesting Strategies\n\t\tvestCategory[7] = vestingDetails(5,60 days,213 days,10000000000000000000,5700000 ether); // Seed Sale\n\t\tvestCategory[8] = vestingDetails(6,60 days,150 days,15000000000000000000,5400000 ether); // Private Sale 1\n\t\tvestCategory[9] = vestingDetails(7,60 days,120 days,20000000000000000000,5100000 ether); // Private Sale 2\n \t\t\n\t}\n\n\t/**\n\t * @notice modifier to check whether or not beneficiery is valid\n\t * @dev Checks that the vesting index passed is correct\n\t * @dev Checks user address is not an Invalid address\n\t * @dev Checks that user's address is not being re-entered for the vesting\n\t */\n\tmodifier onlyValidVestingBenifciary(address _userAddresses,uint8 _vestingIndex) { \n\t\trequire(_vestingIndex >= 0 && _vestingIndex <= 9,\"Invalid Vesting Index\");\t\t  \n\t\trequire (_userAddresses != address(0),\"Invalid Address\");\n\t\trequire (!userToVestingDetails[_userAddresses].isVesting,\"User Vesting Details Already Added\");\n\t\t_; \n\t}\n\n\t\t/**\n\t * @notice - Allows only the Owner to ADD an array of Addresses as well as their Vesting Amount\n\t \t\t   - The array of user and amounts should be passed along with the vestingCategory Index. \n\t \t\t   - Thus, a particular batch of addresses shall be added under only one Vesting Category Index \n\t * @param _userAddresses array of addresses of the Users\n\t * @param _vestingAmounts array of amounts to be vested\n\t * @param _vestnigType allows the owner to select the type of vesting category\n\t * @return - true if Function executes successfully\n\t */\n\n\tfunction addVestingDetails(address[] calldata _userAddresses, uint256[] calldata _vestingAmounts, uint8 _vestnigType) external onlyOwner returns(bool){\n\t\trequire(_vestnigType >= 0 && _vestnigType <= 9,\"Invalid Vesting Index\");\n\t\trequire(_userAddresses.length == _vestingAmounts.length,\"Unequal arrays passed\");\n\n\t\tvestingDetails memory vestData = vestCategory[_vestnigType];\n\t\tuint arrayLength = _userAddresses.length;\n\n\t\tfor(uint i= 0; i<arrayLength; i++){\n\t\t\tuint8 categoryId = _vestnigType;\n\t\t\taddress user = _userAddresses[i];\n\t\t\tuint256 amount = _vestingAmounts[i];\n\t\t\tuint256 vestingDuration = vestData.lockUpPeriod;\n\t\t\tuint256 vestingCliff = vestData.cliff;\n\t\t\tuint256 vestPercent = vestData.vestPercentage;\n\n\n\t\t\taddUserVestingDetails(user,categoryId,amount,vestingCliff,vestingDuration,vestPercent);\n\t\t}\n\t\treturn true;\n\t}\n\n\t/** @notice - Internal functions that is initializes the vestAccountDetails Struct with the respective arguments passed\n\t * @param _userAddresses addresses of the User\n\t * @param _totalAmount total amount to be lockedUp\n\t * @param _categoryId denotes the type of vesting selected\n\t * @param _vestingCliff denotes the cliff of the vesting category selcted\n\t * @param _vestingDuration denotes the total duration of the vesting category selcted\n\t * @param _vestPercent denotes the percentage of total amount to be vested after cliff period\n\t */\n\t \n\tfunction addUserVestingDetails(address _userAddresses, uint8 _categoryId, uint256 _totalAmount, uint256 _vestingCliff, uint256 _vestingDuration,uint256 _vestPercent) onlyValidVestingBenifciary(_userAddresses,_categoryId) internal{\t\n\t\tvestAccountDetails memory userVestingData = vestAccountDetails(\n\t\t\t_categoryId,\n\t\t\t_userAddresses,\n\t\t\t_totalAmount,\n\t\t\tblock.timestamp,\n\t\t\t_vestingDuration,\n\t\t\t_vestingCliff,\n\t\t\t_vestPercent,\n\t\t\t0,\n\t\t\t0,\n\t\t\ttrue\t\n\t\t);\n\t\tuserToVestingDetails[_userAddresses] = userVestingData;\n\t}\n\n\n}",
  "sourcePath": "/home/zaryab/blockchain_begins/all_about_ethereum/quillHash_CODES/bloqueLabs/gitlab_playcent/ico-contract/contracts/pcntTokenVesting.sol",
  "compiler": {
    "name": "solc",
    "version": "0.6.2+commit.bacdbe57.Linux.g++"
  },
  "schemaVersion": "3.3.3",
  "updatedAt": "2021-02-23T14:34:59.052Z",
  "devdoc": {
    "methods": {
      "addVestingDetails(address[],uint256[],uint8)": {
        "params": {
          "_userAddresses": "array of addresses of the Users",
          "_vestingAmounts": "array of amounts to be vested",
          "_vestnigType": "allows the owner to select the type of vesting category"
        },
        "returns": {
          "_0": "- true if Function executes successfully"
        }
      },
      "allowance(address,address)": {
        "details": "See {IERC20-allowance}."
      },
      "approve(address,uint256)": {
        "details": "See {IERC20-approve}.     * Requirements:     * - `spender` cannot be the zero address."
      },
      "balanceOf(address)": {
        "details": "See {IERC20-balanceOf}."
      },
      "decimals()": {
        "details": "Returns the number of decimals used to get its user representation. For example, if `decimals` equals `2`, a balance of `505` tokens should be displayed to a user as `5,05` (`505 / 10 ** 2`).     * Tokens usually opt for a value of 18, imitating the relationship between Ether and Wei. This is the value {ERC20} uses, unless {_setupDecimals} is called.     * NOTE: This information is only used for _display_ purposes: it in no way affects any of the arithmetic of the contract, including {IERC20-balanceOf} and {IERC20-transfer}."
      },
      "decreaseAllowance(address,uint256)": {
        "details": "Atomically decreases the allowance granted to `spender` by the caller.     * This is an alternative to {approve} that can be used as a mitigation for problems described in {IERC20-approve}.     * Emits an {Approval} event indicating the updated allowance.     * Requirements:     * - `spender` cannot be the zero address. - `spender` must have allowance for the caller of at least `subtractedValue`."
      },
      "increaseAllowance(address,uint256)": {
        "details": "Atomically increases the allowance granted to `spender` by the caller.     * This is an alternative to {approve} that can be used as a mitigation for problems described in {IERC20-approve}.     * Emits an {Approval} event indicating the updated allowance.     * Requirements:     * - `spender` cannot be the zero address."
      },
      "initialize()": {
        "details": "All minted tokens goes to the owner of the contract"
      },
      "name()": {
        "details": "Returns the name of the token."
      },
      "owner()": {
        "details": "Returns the address of the current owner."
      },
      "paused()": {
        "details": "Returns true if the contract is paused, and false otherwise."
      },
      "renounceOwnership()": {
        "details": "Leaves the contract without owner. It will not be possible to call `onlyOwner` functions anymore. Can only be called by the current owner.     * NOTE: Renouncing ownership will leave the contract without an owner, thereby removing any functionality that is only available to the owner."
      },
      "symbol()": {
        "details": "Returns the symbol of the token, usually a shorter version of the name."
      },
      "totalSupply()": {
        "details": "See {IERC20-totalSupply}."
      },
      "transfer(address,uint256)": {
        "details": "See {IERC20-transfer}.     * Requirements:     * - `recipient` cannot be the zero address. - the caller must have a balance of at least `amount`."
      },
      "transferFrom(address,address,uint256)": {
        "details": "See {IERC20-transferFrom}.     * Emits an {Approval} event indicating the updated allowance. This is not required by the EIP. See the note at the beginning of {ERC20}.     * Requirements:     * - `sender` and `recipient` cannot be the zero address. - `sender` must have a balance of at least `amount`. - the caller must have allowance for ``sender``'s tokens of at least `amount`."
      },
      "transferOwnership(address)": {
        "details": "Transfers ownership of the contract to a new account (`newOwner`). Can only be called by the current owner."
      }
    }
  },
  "userdoc": {
    "methods": {
      "addVestingDetails(address[],uint256[],uint8)": {
        "notice": "- Allows only the Owner to ADD an array of Addresses as well as their Vesting Amount - The array of user and amounts should be passed along with the vestingCategory Index.  - Thus, a particular batch of addresses shall be added under only one Vesting Category Index "
      },
      "initialize()": {
        "notice": "The initialize funtion acts as the constructor in Upgradable Contracts"
      }
    }
  }
}