{
  "contractName": "PlaycentTokenV1",
  "abi": [
    {
      "anonymous": false,
      "inputs": [
        {
          "indexed": true,
          "internalType": "address",
          "name": "owner",
          "type": "address"
        },
        {
          "indexed": true,
          "internalType": "address",
          "name": "spender",
          "type": "address"
        },
        {
          "indexed": false,
          "internalType": "uint256",
          "name": "value",
          "type": "uint256"
        }
      ],
      "name": "Approval",
      "type": "event"
    },
    {
      "anonymous": false,
      "inputs": [
        {
          "indexed": true,
          "internalType": "address",
          "name": "previousOwner",
          "type": "address"
        },
        {
          "indexed": true,
          "internalType": "address",
          "name": "newOwner",
          "type": "address"
        }
      ],
      "name": "OwnershipTransferred",
      "type": "event"
    },
    {
      "anonymous": false,
      "inputs": [
        {
          "indexed": false,
          "internalType": "address",
          "name": "account",
          "type": "address"
        }
      ],
      "name": "Paused",
      "type": "event"
    },
    {
      "anonymous": false,
      "inputs": [
        {
          "indexed": true,
          "internalType": "address",
          "name": "from",
          "type": "address"
        },
        {
          "indexed": true,
          "internalType": "address",
          "name": "to",
          "type": "address"
        },
        {
          "indexed": false,
          "internalType": "uint256",
          "name": "value",
          "type": "uint256"
        }
      ],
      "name": "Transfer",
      "type": "event"
    },
    {
      "anonymous": false,
      "inputs": [
        {
          "indexed": false,
          "internalType": "address",
          "name": "account",
          "type": "address"
        }
      ],
      "name": "Unpaused",
      "type": "event"
    },
    {
      "inputs": [
        {
          "internalType": "address",
          "name": "owner",
          "type": "address"
        },
        {
          "internalType": "address",
          "name": "spender",
          "type": "address"
        }
      ],
      "name": "allowance",
      "outputs": [
        {
          "internalType": "uint256",
          "name": "",
          "type": "uint256"
        }
      ],
      "stateMutability": "view",
      "type": "function"
    },
    {
      "inputs": [
        {
          "internalType": "address",
          "name": "spender",
          "type": "address"
        },
        {
          "internalType": "uint256",
          "name": "amount",
          "type": "uint256"
        }
      ],
      "name": "approve",
      "outputs": [
        {
          "internalType": "bool",
          "name": "",
          "type": "bool"
        }
      ],
      "stateMutability": "nonpayable",
      "type": "function"
    },
    {
      "inputs": [
        {
          "internalType": "address",
          "name": "account",
          "type": "address"
        }
      ],
      "name": "balanceOf",
      "outputs": [
        {
          "internalType": "uint256",
          "name": "",
          "type": "uint256"
        }
      ],
      "stateMutability": "view",
      "type": "function"
    },
    {
      "inputs": [],
      "name": "decimals",
      "outputs": [
        {
          "internalType": "uint8",
          "name": "",
          "type": "uint8"
        }
      ],
      "stateMutability": "view",
      "type": "function"
    },
    {
      "inputs": [
        {
          "internalType": "address",
          "name": "spender",
          "type": "address"
        },
        {
          "internalType": "uint256",
          "name": "subtractedValue",
          "type": "uint256"
        }
      ],
      "name": "decreaseAllowance",
      "outputs": [
        {
          "internalType": "bool",
          "name": "",
          "type": "bool"
        }
      ],
      "stateMutability": "nonpayable",
      "type": "function"
    },
    {
      "inputs": [
        {
          "internalType": "address",
          "name": "spender",
          "type": "address"
        },
        {
          "internalType": "uint256",
          "name": "addedValue",
          "type": "uint256"
        }
      ],
      "name": "increaseAllowance",
      "outputs": [
        {
          "internalType": "bool",
          "name": "",
          "type": "bool"
        }
      ],
      "stateMutability": "nonpayable",
      "type": "function"
    },
    {
      "inputs": [],
      "name": "locker",
      "outputs": [
        {
          "internalType": "contract ILocker",
          "name": "",
          "type": "address"
        }
      ],
      "stateMutability": "view",
      "type": "function"
    },
    {
      "inputs": [],
      "name": "name",
      "outputs": [
        {
          "internalType": "string",
          "name": "",
          "type": "string"
        }
      ],
      "stateMutability": "view",
      "type": "function"
    },
    {
      "inputs": [],
      "name": "owner",
      "outputs": [
        {
          "internalType": "address",
          "name": "",
          "type": "address"
        }
      ],
      "stateMutability": "view",
      "type": "function"
    },
    {
      "inputs": [],
      "name": "paused",
      "outputs": [
        {
          "internalType": "bool",
          "name": "",
          "type": "bool"
        }
      ],
      "stateMutability": "view",
      "type": "function"
    },
    {
      "inputs": [],
      "name": "renounceOwnership",
      "outputs": [],
      "stateMutability": "nonpayable",
      "type": "function"
    },
    {
      "inputs": [],
      "name": "symbol",
      "outputs": [
        {
          "internalType": "string",
          "name": "",
          "type": "string"
        }
      ],
      "stateMutability": "view",
      "type": "function"
    },
    {
      "inputs": [],
      "name": "totalSupply",
      "outputs": [
        {
          "internalType": "uint256",
          "name": "",
          "type": "uint256"
        }
      ],
      "stateMutability": "view",
      "type": "function"
    },
    {
      "inputs": [
        {
          "internalType": "address",
          "name": "sender",
          "type": "address"
        },
        {
          "internalType": "address",
          "name": "recipient",
          "type": "address"
        },
        {
          "internalType": "uint256",
          "name": "amount",
          "type": "uint256"
        }
      ],
      "name": "transferFrom",
      "outputs": [
        {
          "internalType": "bool",
          "name": "",
          "type": "bool"
        }
      ],
      "stateMutability": "nonpayable",
      "type": "function"
    },
    {
      "inputs": [
        {
          "internalType": "address",
          "name": "newOwner",
          "type": "address"
        }
      ],
      "name": "transferOwnership",
      "outputs": [],
      "stateMutability": "nonpayable",
      "type": "function"
    },
    {
      "inputs": [
        {
          "internalType": "uint256",
          "name": "",
          "type": "uint256"
        }
      ],
      "name": "vestTypes",
      "outputs": [
        {
          "internalType": "uint8",
          "name": "indexId",
          "type": "uint8"
        },
        {
          "internalType": "uint8",
          "name": "lockPeriod",
          "type": "uint8"
        },
        {
          "internalType": "uint8",
          "name": "vestingDuration",
          "type": "uint8"
        },
        {
          "internalType": "uint8",
          "name": "tgePercent",
          "type": "uint8"
        },
        {
          "internalType": "uint8",
          "name": "monthlyPercent",
          "type": "uint8"
        },
        {
          "internalType": "uint256",
          "name": "totalTokenAllocation",
          "type": "uint256"
        }
      ],
      "stateMutability": "view",
      "type": "function"
    },
    {
      "inputs": [
        {
          "internalType": "address",
          "name": "",
          "type": "address"
        },
        {
          "internalType": "uint8",
          "name": "",
          "type": "uint8"
        }
      ],
      "name": "walletToVestAllocations",
      "outputs": [
        {
          "internalType": "uint8",
          "name": "vestIndexID",
          "type": "uint8"
        },
        {
          "internalType": "uint256",
          "name": "totalTokensAllocated",
          "type": "uint256"
        },
        {
          "internalType": "uint256",
          "name": "totalTGETokens",
          "type": "uint256"
        },
        {
          "internalType": "uint256",
          "name": "monthlyTokens",
          "type": "uint256"
        },
        {
          "internalType": "uint8",
          "name": "vestingDuration",
          "type": "uint8"
        },
        {
          "internalType": "uint8",
          "name": "lockPeriod",
          "type": "uint8"
        },
        {
          "internalType": "uint256",
          "name": "totalVestTokensClaimed",
          "type": "uint256"
        },
        {
          "internalType": "bool",
          "name": "isVesting",
          "type": "bool"
        },
        {
          "internalType": "bool",
          "name": "isTgeTokensClaimed",
          "type": "bool"
        }
      ],
      "stateMutability": "view",
      "type": "function"
    },
    {
      "inputs": [
        {
          "internalType": "address",
          "name": "_PublicSaleAddress",
          "type": "address"
        }
      ],
      "name": "initialize",
      "outputs": [],
      "stateMutability": "nonpayable",
      "type": "function"
    },
    {
      "inputs": [
        {
          "internalType": "address",
          "name": "_locker",
          "type": "address"
        }
      ],
      "name": "setLocker",
      "outputs": [],
      "stateMutability": "nonpayable",
      "type": "function"
    },
    {
      "inputs": [
        {
          "internalType": "address",
          "name": "recipient",
          "type": "address"
        },
        {
          "internalType": "uint256",
          "name": "amount",
          "type": "uint256"
        }
      ],
      "name": "transfer",
      "outputs": [
        {
          "internalType": "bool",
          "name": "",
          "type": "bool"
        }
      ],
      "stateMutability": "nonpayable",
      "type": "function"
    },
    {
      "inputs": [],
      "name": "getCurrentTime",
      "outputs": [
        {
          "internalType": "uint256",
          "name": "",
          "type": "uint256"
        }
      ],
      "stateMutability": "view",
      "type": "function"
    },
    {
      "inputs": [],
      "name": "getTgeTIME",
      "outputs": [
        {
          "internalType": "uint256",
          "name": "",
          "type": "uint256"
        }
      ],
      "stateMutability": "pure",
      "type": "function"
    },
    {
      "inputs": [
        {
          "internalType": "uint256",
          "name": "_totalAmount",
          "type": "uint256"
        },
        {
          "internalType": "uint256",
          "name": "_rate",
          "type": "uint256"
        }
      ],
      "name": "percentage",
      "outputs": [
        {
          "internalType": "uint256",
          "name": "",
          "type": "uint256"
        }
      ],
      "stateMutability": "pure",
      "type": "function"
    },
    {
      "inputs": [
        {
          "internalType": "address[]",
          "name": "_userAddresses",
          "type": "address[]"
        },
        {
          "internalType": "uint256[]",
          "name": "_vestingAmounts",
          "type": "uint256[]"
        },
        {
          "internalType": "uint8",
          "name": "_vestnigType",
          "type": "uint8"
        }
      ],
      "name": "addVestingDetails",
      "outputs": [
        {
          "internalType": "bool",
          "name": "",
          "type": "bool"
        }
      ],
      "stateMutability": "nonpayable",
      "type": "function"
    },
    {
      "inputs": [
        {
          "internalType": "address",
          "name": "_userAddresses",
          "type": "address"
        },
        {
          "internalType": "uint8",
          "name": "_vestingIndex",
          "type": "uint8"
        }
      ],
      "name": "totalTokensClaimed",
      "outputs": [
        {
          "internalType": "uint256",
          "name": "",
          "type": "uint256"
        }
      ],
      "stateMutability": "view",
      "type": "function"
    },
    {
      "inputs": [
        {
          "internalType": "address",
          "name": "_userAddresses",
          "type": "address"
        },
        {
          "internalType": "uint8",
          "name": "_vestingIndex",
          "type": "uint8"
        }
      ],
      "name": "calculateClaimableTokens",
      "outputs": [
        {
          "internalType": "uint256",
          "name": "",
          "type": "uint256"
        }
      ],
      "stateMutability": "view",
      "type": "function"
    },
    {
      "inputs": [
        {
          "internalType": "address",
          "name": "_userAddresses",
          "type": "address"
        },
        {
          "internalType": "uint8",
          "name": "_vestingIndex",
          "type": "uint8"
        }
      ],
      "name": "claimTGETokensOnlyOwner",
      "outputs": [
        {
          "internalType": "bool",
          "name": "",
          "type": "bool"
        }
      ],
      "stateMutability": "nonpayable",
      "type": "function"
    },
    {
      "inputs": [
        {
          "internalType": "uint8",
          "name": "_vestingIndex",
          "type": "uint8"
        }
      ],
      "name": "claimTGETokens",
      "outputs": [
        {
          "internalType": "bool",
          "name": "",
          "type": "bool"
        }
      ],
      "stateMutability": "nonpayable",
      "type": "function"
    },
    {
      "inputs": [
        {
          "internalType": "address",
          "name": "_userAddresses",
          "type": "address"
        },
        {
          "internalType": "uint8",
          "name": "_vestingIndex",
          "type": "uint8"
        }
      ],
      "name": "claimVestTokensOnlyOwner",
      "outputs": [
        {
          "internalType": "bool",
          "name": "",
          "type": "bool"
        }
      ],
      "stateMutability": "nonpayable",
      "type": "function"
    },
    {
      "inputs": [
        {
          "internalType": "uint8",
          "name": "_vestingIndex",
          "type": "uint8"
        }
      ],
      "name": "claimVestTokens",
      "outputs": [
        {
          "internalType": "bool",
          "name": "",
          "type": "bool"
        }
      ],
      "stateMutability": "nonpayable",
      "type": "function"
    },
    {
      "inputs": [],
      "name": "withdrawContractTokens",
      "outputs": [
        {
          "internalType": "bool",
          "name": "",
          "type": "bool"
        }
      ],
      "stateMutability": "nonpayable",
      "type": "function"
    }
  ],
  "bytecode": "0x608060405234801561001057600080fd5b5061558a806100206000396000f3fe608060405234801561001057600080fd5b5060043610610202576000357c010000000000000000000000000000000000000000000000000000000090048063655894c21161012c578063a457c2d7116100bf578063d7b96d4e1161008e578063d7b96d4e14610b63578063dd62ed3e14610bad578063f2fde38b14610c25578063f70c12d314610c6957610202565b8063a457c2d714610a35578063a9059cbb14610a9b578063b09ee19314610b01578063c4d66de814610b1f57610202565b80638f9335e4116100fb5780638f9335e41461084d57806393018547146108b2578063943e7b7b1461096957806395d89b41146109b257610202565b8063655894c21461075857806370a08231146107a1578063715018a6146107f95780638da5cb5b1461080357610202565b806329cb924d116101a457806337285ee91161017357806337285ee91461057457806339509351146105dd57806352985d2a146106435780635c975abb1461073657610202565b806329cb924d1461048d5780632fe47163146104ab578063313ce567146104cd578063316fb2f5146104f157610202565b8063171060ec116101e0578063171060ec1461033c57806317228d1e1461038057806318160ddd146103e957806323b872dd1461040757610202565b8063016eb8a81461020757806306fdde0314610253578063095ea7b3146102d6575b600080fd5b61023d6004803603604081101561021d57600080fd5b810190808035906020019092919080359060200190929190505050610cce565b6040518082815260200191505060405180910390f35b61025b610cfe565b6040518080602001828103825283818151815260200191508051906020019080838360005b8381101561029b578082015181840152602081019050610280565b50505050905090810190601f1680156102c85780820380516001836020036101000a031916815260200191505b509250505060405180910390f35b610322600480360360408110156102ec57600080fd5b81019080803573ffffffffffffffffffffffffffffffffffffffff16906020019092919080359060200190929190505050610da0565b604051808215151515815260200191505060405180910390f35b61037e6004803603602081101561035257600080fd5b81019080803573ffffffffffffffffffffffffffffffffffffffff169060200190929190505050610dbe565b005b6103cf6004803603604081101561039657600080fd5b81019080803573ffffffffffffffffffffffffffffffffffffffff169060200190929190803560ff169060200190929190505050610eb1565b604051808215151515815260200191505060405180910390f35b6103f1610f73565b6040518082815260200191505060405180910390f35b6104736004803603606081101561041d57600080fd5b81019080803573ffffffffffffffffffffffffffffffffffffffff169060200190929190803573ffffffffffffffffffffffffffffffffffffffff16906020019092919080359060200190929190505050610f7d565b604051808215151515815260200191505060405180910390f35b610495611056565b6040518082815260200191505060405180910390f35b6104b361105e565b604051808215151515815260200191505060405180910390f35b6104d5611132565b604051808260ff1660ff16815260200191505060405180910390f35b61051d6004803603602081101561050757600080fd5b8101908080359060200190929190505050611149565b604051808760ff1660ff1681526020018660ff1660ff1681526020018560ff1660ff1681526020018460ff1660ff1681526020018360ff1660ff168152602001828152602001965050505050505060405180910390f35b6105c36004803603604081101561058a57600080fd5b81019080803573ffffffffffffffffffffffffffffffffffffffff169060200190929190803560ff1690602001909291905050506111c6565b604051808215151515815260200191505060405180910390f35b610629600480360360408110156105f357600080fd5b81019080803573ffffffffffffffffffffffffffffffffffffffff16906020019092919080359060200190929190505050611288565b604051808215151515815260200191505060405180910390f35b61071c6004803603606081101561065957600080fd5b810190808035906020019064010000000081111561067657600080fd5b82018360208201111561068857600080fd5b803590602001918460208302840111640100000000831117156106aa57600080fd5b9091929391929390803590602001906401000000008111156106cb57600080fd5b8201836020820111156106dd57600080fd5b803590602001918460208302840111640100000000831117156106ff57600080fd5b9091929391929390803560ff16906020019092919050505061133b565b604051808215151515815260200191505060405180910390f35b61073e6115fb565b604051808215151515815260200191505060405180910390f35b6107876004803603602081101561076e57600080fd5b81019080803560ff169060200190929190505050611612565b604051808215151515815260200191505060405180910390f35b6107e3600480360360208110156107b757600080fd5b81019080803573ffffffffffffffffffffffffffffffffffffffff169060200190929190505050611624565b6040518082815260200191505060405180910390f35b61080161166d565b005b61080b6117dd565b604051808273ffffffffffffffffffffffffffffffffffffffff1673ffffffffffffffffffffffffffffffffffffffff16815260200191505060405180910390f35b61089c6004803603604081101561086357600080fd5b81019080803573ffffffffffffffffffffffffffffffffffffffff169060200190929190803560ff169060200190929190505050611807565b6040518082815260200191505060405180910390f35b610901600480360360408110156108c857600080fd5b81019080803573ffffffffffffffffffffffffffffffffffffffff169060200190929190803560ff169060200190929190505050611cca565b604051808a60ff1660ff1681526020018981526020018881526020018781526020018660ff1660ff1681526020018560ff1660ff1681526020018481526020018315151515815260200182151515158152602001995050505050505050505060405180910390f35b6109986004803603602081101561097f57600080fd5b81019080803560ff169060200190929190505050611d66565b604051808215151515815260200191505060405180910390f35b6109ba611d78565b6040518080602001828103825283818151815260200191508051906020019080838360005b838110156109fa5780820151818401526020810190506109df565b50505050905090810190601f168015610a275780820380516001836020036101000a031916815260200191505b509250505060405180910390f35b610a8160048036036040811015610a4b57600080fd5b81019080803573ffffffffffffffffffffffffffffffffffffffff16906020019092919080359060200190929190505050611e1a565b604051808215151515815260200191505060405180910390f35b610ae760048036036040811015610ab157600080fd5b81019080803573ffffffffffffffffffffffffffffffffffffffff16906020019092919080359060200190929190505050611ee7565b604051808215151515815260200191505060405180910390f35b610b09612099565b6040518082815260200191505060405180910390f35b610b6160048036036020811015610b3557600080fd5b81019080803573ffffffffffffffffffffffffffffffffffffffff1690602001909291905050506120a5565b005b610b6b612d0d565b604051808273ffffffffffffffffffffffffffffffffffffffff1673ffffffffffffffffffffffffffffffffffffffff16815260200191505060405180910390f35b610c0f60048036036040811015610bc357600080fd5b81019080803573ffffffffffffffffffffffffffffffffffffffff169060200190929190803573ffffffffffffffffffffffffffffffffffffffff169060200190929190505050612d33565b6040518082815260200191505060405180910390f35b610c6760048036036020811015610c3b57600080fd5b81019080803573ffffffffffffffffffffffffffffffffffffffff169060200190929190505050612dba565b005b610cb860048036036040811015610c7f57600080fd5b81019080803573ffffffffffffffffffffffffffffffffffffffff169060200190929190803560ff169060200190929190505050612faf565b6040518082815260200191505060405180910390f35b6000610cf66064610ce8848661311c90919063ffffffff16565b6131a290919063ffffffff16565b905092915050565b606060688054600181600116156101000203166002900480601f016020809104026020016040519081016040528092919081815260200182805460018160011615610100020316600290048015610d965780601f10610d6b57610100808354040283529160200191610d96565b820191906000526020600020905b815481529060010190602001808311610d7957829003601f168201915b5050505050905090565b6000610db4610dad61322b565b8484613233565b6001905092915050565b610dc661322b565b73ffffffffffffffffffffffffffffffffffffffff16610de46117dd565b73ffffffffffffffffffffffffffffffffffffffff1614610e6d576040517f08c379a00000000000000000000000000000000000000000000000000000000081526004018080602001828103825260208152602001807f4f776e61626c653a2063616c6c6572206973206e6f7420746865206f776e657281525060200191505060405180910390fd5b8060fd60006101000a81548173ffffffffffffffffffffffffffffffffffffffff021916908373ffffffffffffffffffffffffffffffffffffffff16021790555050565b6000610ebb61322b565b73ffffffffffffffffffffffffffffffffffffffff16610ed96117dd565b73ffffffffffffffffffffffffffffffffffffffff1614610f62576040517f08c379a00000000000000000000000000000000000000000000000000000000081526004018080602001828103825260208152602001807f4f776e61626c653a2063616c6c6572206973206e6f7420746865206f776e657281525060200191505060405180910390fd5b610f6c838361342a565b5092915050565b6000606754905090565b6000610f8a84848461390b565b61104b84610f9661322b565b6110468560405180606001604052806028815260200161541560289139606660008b73ffffffffffffffffffffffffffffffffffffffff1673ffffffffffffffffffffffffffffffffffffffff1681526020019081526020016000206000610ffc61322b565b73ffffffffffffffffffffffffffffffffffffffff1673ffffffffffffffffffffffffffffffffffffffff16815260200190815260200160002054613bd09092919063ffffffff16565b613233565b600190509392505050565b600042905090565b600061106861322b565b73ffffffffffffffffffffffffffffffffffffffff166110866117dd565b73ffffffffffffffffffffffffffffffffffffffff161461110f576040517f08c379a00000000000000000000000000000000000000000000000000000000081526004018080602001828103825260208152602001807f4f776e61626c653a2063616c6c6572206973206e6f7420746865206f776e657281525060200191505060405180910390fd5b600061111a30611624565b905061112d6111276117dd565b82613c8a565b505090565b6000606a60009054906101000a900460ff16905090565b60fb6020528060005260406000206000915090508060000160009054906101000a900460ff16908060000160019054906101000a900460ff16908060000160029054906101000a900460ff16908060000160039054906101000a900460ff16908060000160049054906101000a900460ff16908060010154905086565b60006111d061322b565b73ffffffffffffffffffffffffffffffffffffffff166111ee6117dd565b73ffffffffffffffffffffffffffffffffffffffff1614611277576040517f08c379a00000000000000000000000000000000000000000000000000000000081526004018080602001828103825260208152602001807f4f776e61626c653a2063616c6c6572206973206e6f7420746865206f776e657281525060200191505060405180910390fd5b6112818383613ca1565b5092915050565b600061133161129561322b565b8461132c85606660006112a661322b565b73ffffffffffffffffffffffffffffffffffffffff1673ffffffffffffffffffffffffffffffffffffffff16815260200190815260200160002060008973ffffffffffffffffffffffffffffffffffffffff1673ffffffffffffffffffffffffffffffffffffffff1681526020019081526020016000205461411590919063ffffffff16565b613233565b6001905092915050565b600061134561322b565b73ffffffffffffffffffffffffffffffffffffffff166113636117dd565b73ffffffffffffffffffffffffffffffffffffffff16146113ec576040517f08c379a00000000000000000000000000000000000000000000000000000000081526004018080602001828103825260208152602001807f4f776e61626c653a2063616c6c6572206973206e6f7420746865206f776e657281525060200191505060405180910390fd5b838390508686905014611467576040517f08c379a00000000000000000000000000000000000000000000000000000000081526004018080602001828103825260158152602001807f556e657175616c2061727261797320706173736564000000000000000000000081525060200191505060405180910390fd5b61146f615147565b60fb60008460ff1681526020019081526020016000206040518060c00160405290816000820160009054906101000a900460ff1660ff1660ff1681526020016000820160019054906101000a900460ff1660ff1660ff1681526020016000820160029054906101000a900460ff1660ff1660ff1681526020016000820160039054906101000a900460ff1660ff1660ff1681526020016000820160049054906101000a900460ff1660ff1660ff1681526020016001820154815250509050600087879050905060008090505b818110156115eb57600085905060008a8a8481811061155657fe5b9050602002013573ffffffffffffffffffffffffffffffffffffffff169050600089898581811061158357fe5b90506020020135905060008660200151905060008760400151905060006115b1848a6060015160ff16610cce565b905060006115c6858b6080015160ff16610cce565b90506115d78688878787878761419d565b50505050505050808060010191505061153b565b5060019250505095945050505050565b6000609760009054906101000a900460ff16905090565b600061161e338361342a565b50919050565b6000606560008373ffffffffffffffffffffffffffffffffffffffff1673ffffffffffffffffffffffffffffffffffffffff168152602001908152602001600020549050919050565b61167561322b565b73ffffffffffffffffffffffffffffffffffffffff166116936117dd565b73ffffffffffffffffffffffffffffffffffffffff161461171c576040517f08c379a00000000000000000000000000000000000000000000000000000000081526004018080602001828103825260208152602001807f4f776e61626c653a2063616c6c6572206973206e6f7420746865206f776e657281525060200191505060405180910390fd5b600073ffffffffffffffffffffffffffffffffffffffff16603360009054906101000a900473ffffffffffffffffffffffffffffffffffffffff1673ffffffffffffffffffffffffffffffffffffffff167f8be0079c531659141344cd1fd0a4f28419497f9722a3daafe3b4186f6b6457e060405160405180910390a36000603360006101000a81548173ffffffffffffffffffffffffffffffffffffffff021916908373ffffffffffffffffffffffffffffffffffffffff160217905550565b6000603360009054906101000a900473ffffffffffffffffffffffffffffffffffffffff16905090565b6000828260fc60008373ffffffffffffffffffffffffffffffffffffffff1673ffffffffffffffffffffffffffffffffffffffff16815260200190815260200160002060008260ff1660ff16815260200190815260200160002060060160009054906101000a900460ff166118c7576040517f08c379a000000000000000000000000000000000000000000000000000000000815260040180806020018281038252602681526020018061533e6026913960400191505060405180910390fd5b6118cf61518c565b60fc60008773ffffffffffffffffffffffffffffffffffffffff1673ffffffffffffffffffffffffffffffffffffffff16815260200190815260200160002060008660ff1660ff168152602001908152602001600020604051806101200160405290816000820160009054906101000a900460ff1660ff1660ff1681526020016001820154815260200160028201548152602001600382015481526020016004820160009054906101000a900460ff1660ff1660ff1681526020016004820160019054906101000a900460ff1660ff1660ff168152602001600582015481526020016006820160009054906101000a900460ff161515151581526020016006820160019054906101000a900460ff161515151581525050905060008060006119f5612099565b90506000611a01611056565b90506000611a18838361451590919063ffffffff16565b90506000611a36611a27614598565b836131a290919063ffffffff16565b90508660a0015160ff168111611ab4576040517f08c379a000000000000000000000000000000000000000000000000000000000815260040180806020018281038252601d8152602001807f56657374696e6720436c696666204e6f742043726f737365642059657400000081525060200191505060405180910390fd5b866080015160ff16811115611af0576000611acf8d8d612faf565b9050611ae881896020015161451590919063ffffffff16565b965050611cb8565b6000611b0c8860a0015160ff168361451590919063ffffffff16565b905060008111611b84576040517f08c379a00000000000000000000000000000000000000000000000000000000081526004018080602001828103825260208152602001807f4e756d626572206f66206d6f6e74687320656c6170736564206973205a45524f81525060200191505060405180910390fd5b6009886000015160ff161415611c0a57611b9c6151e5565b601481600160048110611bab57fe5b602002018181525050603281600260048110611bc357fe5b602002018181525050605081600360048110611bdb57fe5b602002018181525050611c028960200151828460048110611bf857fe5b6020020151610cce565b965050611c24565b611c2181896060015161311c90919063ffffffff16565b95505b8760c001518611611c9d576040517f08c379a00000000000000000000000000000000000000000000000000000000081526004018080602001828103825260208152602001807f4e6f20436c61696d61626c6520546f6b656e7320617420746869732054696d6581525060200191505060405180910390fd5b611cb48860c001518761451590919063ffffffff16565b9650505b85995050505050505050505092915050565b60fc602052816000526040600020602052806000526040600020600091509150508060000160009054906101000a900460ff16908060010154908060020154908060030154908060040160009054906101000a900460ff16908060040160019054906101000a900460ff16908060050154908060060160009054906101000a900460ff16908060060160019054906101000a900460ff16905089565b6000611d723383613ca1565b50919050565b606060698054600181600116156101000203166002900480601f016020809104026020016040519081016040528092919081815260200182805460018160011615610100020316600290048015611e105780601f10611de557610100808354040283529160200191611e10565b820191906000526020600020905b815481529060010190602001808311611df357829003601f168201915b5050505050905090565b6000611edd611e2761322b565b84611ed8856040518060600160405280602581526020016155066025913960666000611e5161322b565b73ffffffffffffffffffffffffffffffffffffffff1673ffffffffffffffffffffffffffffffffffffffff16815260200190815260200160002060008a73ffffffffffffffffffffffffffffffffffffffff1673ffffffffffffffffffffffffffffffffffffffff16815260200190815260200160002054613bd09092919063ffffffff16565b613233565b6001905092915050565b60008073ffffffffffffffffffffffffffffffffffffffff1660fd60009054906101000a900473ffffffffffffffffffffffffffffffffffffffff1673ffffffffffffffffffffffffffffffffffffffff161461207d5760fd60009054906101000a900473ffffffffffffffffffffffffffffffffffffffff1673ffffffffffffffffffffffffffffffffffffffff1663aa61a9dd611f8461322b565b856040518363ffffffff167c0100000000000000000000000000000000000000000000000000000000028152600401808373ffffffffffffffffffffffffffffffffffffffff1673ffffffffffffffffffffffffffffffffffffffff1681526020018273ffffffffffffffffffffffffffffffffffffffff1673ffffffffffffffffffffffffffffffffffffffff168152602001925050506040805180830381600087803b15801561203557600080fd5b505af1158015612049573d6000803e3d6000fd5b505050506040513d604081101561205f57600080fd5b81019080805190602001909291908051906020019092919050505050505b61208f61208861322b565b848461390b565b6001905092915050565b6000636043398b905090565b600060019054906101000a900460ff16806120c457506120c36145a3565b5b806120db57506000809054906101000a900460ff16155b612130576040517f08c379a000000000000000000000000000000000000000000000000000000000815260040180806020018281038252602e815260200180615393602e913960400191505060405180910390fd5b60008060019054906101000a900460ff161590508015612180576001600060016101000a81548160ff02191690831515021790555060016000806101000a81548160ff0219169083151502179055505b6121886145b4565b6121fc6040518060400160405280600881526020017f506c617963656e740000000000000000000000000000000000000000000000008152506040518060400160405280600481526020017f50434e54000000000000000000000000000000000000000000000000000000008152506146c3565b6122046147d6565b61222061220f6117dd565b6a2fa54641bae8aaa00000006148ed565b612235826a01fc3842bd1f071c0000006148ed565b6040518060c00160405280600060ff168152602001600c60ff168152602001602060ff168152602001600060ff168152602001600560ff1681526020016a0771d2fa45345aa900000081525060fb600080815260200190815260200160002060008201518160000160006101000a81548160ff021916908360ff16021790555060208201518160000160016101000a81548160ff021916908360ff16021790555060408201518160000160026101000a81548160ff021916908360ff16021790555060608201518160000160036101000a81548160ff021916908360ff16021790555060808201518160000160046101000a81548160ff021916908360ff16021790555060a082015181600101559050506040518060c00160405280600160ff168152602001600360ff168152602001600d60ff168152602001600060ff168152602001600a60ff1681526020016a03f870857a3e0e3800000081525060fb60006001815260200190815260200160002060008201518160000160006101000a81548160ff021916908360ff16021790555060208201518160000160016101000a81548160ff021916908360ff16021790555060408201518160000160026101000a81548160ff021916908360ff16021790555060608201518160000160036101000a81548160ff021916908360ff16021790555060808201518160000160046101000a81548160ff021916908360ff16021790555060a082015181600101559050506040518060c00160405280600260ff168152602001600360ff168152602001600d60ff168152602001600060ff168152602001600a60ff1681526020016a03f870857a3e0e3800000081525060fb60006002815260200190815260200160002060008201518160000160006101000a81548160ff021916908360ff16021790555060208201518160000160016101000a81548160ff021916908360ff16021790555060408201518160000160026101000a81548160ff021916908360ff16021790555060608201518160000160036101000a81548160ff021916908360ff16021790555060808201518160000160046101000a81548160ff021916908360ff16021790555060a082015181600101559050506040518060c00160405280600360ff168152602001600160ff168152602001600b60ff168152602001600060ff168152602001600a60ff1681526020016a01fc3842bd1f071c00000081525060fb60006003815260200190815260200160002060008201518160000160006101000a81548160ff021916908360ff16021790555060208201518160000160016101000a81548160ff021916908360ff16021790555060408201518160000160026101000a81548160ff021916908360ff16021790555060608201518160000160036101000a81548160ff021916908360ff16021790555060808201518160000160046101000a81548160ff021916908360ff16021790555060a082015181600101559050506040518060c00160405280600460ff168152602001600160ff168152602001600b60ff168152602001600060ff168152602001600a60ff1681526020016a03f870857a3e0e3800000081525060fb60006004815260200190815260200160002060008201518160000160006101000a81548160ff021916908360ff16021790555060208201518160000160016101000a81548160ff021916908360ff16021790555060408201518160000160026101000a81548160ff021916908360ff16021790555060608201518160000160036101000a81548160ff021916908360ff16021790555060808201518160000160046101000a81548160ff021916908360ff16021790555060a082015181600101559050506040518060c00160405280600560ff168152602001600360ff168152602001601c60ff168152602001600060ff168152602001600460ff1681526020016a0771d2fa45345aa900000081525060fb60006005815260200190815260200160002060008201518160000160006101000a81548160ff021916908360ff16021790555060208201518160000160016101000a81548160ff021916908360ff16021790555060408201518160000160026101000a81548160ff021916908360ff16021790555060608201518160000160036101000a81548160ff021916908360ff16021790555060808201518160000160046101000a81548160ff021916908360ff16021790555060a082015181600101559050506040518060c00160405280600660ff168152602001600660ff168152602001601f60ff168152602001600060ff168152602001600460ff1681526020016a03796274caf64c7100000081525060fb60006006815260200190815260200160002060008201518160000160006101000a81548160ff021916908360ff16021790555060208201518160000160016101000a81548160ff021916908360ff16021790555060408201518160000160026101000a81548160ff021916908360ff16021790555060608201518160000160036101000a81548160ff021916908360ff16021790555060808201518160000160046101000a81548160ff021916908360ff16021790555060a082015181600101559050506040518060c00160405280600760ff168152602001600160ff168152602001600760ff168152602001600a60ff168152602001600f60ff1681526020016a04b7059e8129b0e280000081525060fb60006007815260200190815260200160002060008201518160000160006101000a81548160ff021916908360ff16021790555060208201518160000160016101000a81548160ff021916908360ff16021790555060408201518160000160026101000a81548160ff021916908360ff16021790555060608201518160000160036101000a81548160ff021916908360ff16021790555060808201518160000160046101000a81548160ff021916908360ff16021790555060a082015181600101559050506040518060c00160405280600860ff168152602001600160ff168152602001600560ff168152602001600f60ff168152602001601460ff1681526020016a04777e962985cfff00000081525060fb60006008815260200190815260200160002060008201518160000160006101000a81548160ff021916908360ff16021790555060208201518160000160016101000a81548160ff021916908360ff16021790555060408201518160000160026101000a81548160ff021916908360ff16021790555060608201518160000160036101000a81548160ff021916908360ff16021790555060808201518160000160046101000a81548160ff021916908360ff16021790555060a082015181600101559050506040518060c00160405280600960ff168152602001600160ff168152602001600460ff168152602001601460ff168152602001601460ff1681526020016a0437f78dd1e1ef1b80000081525060fb60006009815260200190815260200160002060008201518160000160006101000a81548160ff021916908360ff16021790555060208201518160000160016101000a81548160ff021916908360ff16021790555060408201518160000160026101000a81548160ff021916908360ff16021790555060608201518160000160036101000a81548160ff021916908360ff16021790555060808201518160000160046101000a81548160ff021916908360ff16021790555060a082015181600101559050508015612d095760008060016101000a81548160ff0219169083151502179055505b5050565b60fd60009054906101000a900473ffffffffffffffffffffffffffffffffffffffff1681565b6000606660008473ffffffffffffffffffffffffffffffffffffffff1673ffffffffffffffffffffffffffffffffffffffff16815260200190815260200160002060008373ffffffffffffffffffffffffffffffffffffffff1673ffffffffffffffffffffffffffffffffffffffff16815260200190815260200160002054905092915050565b612dc261322b565b73ffffffffffffffffffffffffffffffffffffffff16612de06117dd565b73ffffffffffffffffffffffffffffffffffffffff1614612e69576040517f08c379a00000000000000000000000000000000000000000000000000000000081526004018080602001828103825260208152602001807f4f776e61626c653a2063616c6c6572206973206e6f7420746865206f776e657281525060200191505060405180910390fd5b600073ffffffffffffffffffffffffffffffffffffffff168173ffffffffffffffffffffffffffffffffffffffff161415612eef576040517f08c379a00000000000000000000000000000000000000000000000000000000081526004018080602001828103825260268152602001806152d06026913960400191505060405180910390fd5b8073ffffffffffffffffffffffffffffffffffffffff16603360009054906101000a900473ffffffffffffffffffffffffffffffffffffffff1673ffffffffffffffffffffffffffffffffffffffff167f8be0079c531659141344cd1fd0a4f28419497f9722a3daafe3b4186f6b6457e060405160405180910390a380603360006101000a81548173ffffffffffffffffffffffffffffffffffffffff021916908373ffffffffffffffffffffffffffffffffffffffff16021790555050565b600080612fba61518c565b60fc60008673ffffffffffffffffffffffffffffffffffffffff1673ffffffffffffffffffffffffffffffffffffffff16815260200190815260200160002060008560ff1660ff168152602001908152602001600020604051806101200160405290816000820160009054906101000a900460ff1660ff1660ff1681526020016001820154815260200160028201548152602001600382015481526020016004820160009054906101000a900460ff1660ff1660ff1681526020016004820160019054906101000a900460ff1660ff1660ff168152602001600582015481526020016006820160009054906101000a900460ff161515151581526020016006820160019054906101000a900460ff16151515158152505090506130ea8160c001518361411590919063ffffffff16565b9150806101000151156131115761310e81604001518361411590919063ffffffff16565b91505b819250505092915050565b60008083141561312f576000905061319c565b600082840290508284828161314057fe5b0414613197576040517f08c379a00000000000000000000000000000000000000000000000000000000081526004018080602001828103825260218152602001806153f46021913960400191505060405180910390fd5b809150505b92915050565b6000808211613219576040517f08c379a000000000000000000000000000000000000000000000000000000000815260040180806020018281038252601a8152602001807f536166654d6174683a206469766973696f6e206279207a65726f00000000000081525060200191505060405180910390fd5b81838161322257fe5b04905092915050565b600033905090565b600073ffffffffffffffffffffffffffffffffffffffff168373ffffffffffffffffffffffffffffffffffffffff1614156132b9576040517f08c379a00000000000000000000000000000000000000000000000000000000081526004018080602001828103825260248152602001806154be6024913960400191505060405180910390fd5b600073ffffffffffffffffffffffffffffffffffffffff168273ffffffffffffffffffffffffffffffffffffffff16141561333f576040517f08c379a00000000000000000000000000000000000000000000000000000000081526004018080602001828103825260228152602001806152f66022913960400191505060405180910390fd5b80606660008573ffffffffffffffffffffffffffffffffffffffff1673ffffffffffffffffffffffffffffffffffffffff16815260200190815260200160002060008473ffffffffffffffffffffffffffffffffffffffff1673ffffffffffffffffffffffffffffffffffffffff168152602001908152602001600020819055508173ffffffffffffffffffffffffffffffffffffffff168373ffffffffffffffffffffffffffffffffffffffff167f8c5be1e5ebec7d5bd14f71427d1e84f3dd0314c0f7b2291e5b200ac8c7c3b925836040518082815260200191505060405180910390a3505050565b6000828260fc60008373ffffffffffffffffffffffffffffffffffffffff1673ffffffffffffffffffffffffffffffffffffffff16815260200190815260200160002060008260ff1660ff16815260200190815260200160002060060160009054906101000a900460ff166134ea576040517f08c379a000000000000000000000000000000000000000000000000000000000815260040180806020018281038252602681526020018061533e6026913960400191505060405180910390fd5b6134f261518c565b60fc60008773ffffffffffffffffffffffffffffffffffffffff1673ffffffffffffffffffffffffffffffffffffffff16815260200190815260200160002060008660ff1660ff168152602001908152602001600020604051806101200160405290816000820160009054906101000a900460ff1660ff1660ff1681526020016001820154815260200160028201548152602001600382015481526020016004820160009054906101000a900460ff1660ff1660ff1681526020016004820160019054906101000a900460ff1660ff1660ff168152602001600582015481526020016006820160009054906101000a900460ff161515151581526020016006820160019054906101000a900460ff161515151581525050905060006136178787612faf565b905060006136258888611807565b90506000811161369d576040517f08c379a00000000000000000000000000000000000000000000000000000000081526004018080602001828103825260158152602001807f4e6f20746f6b656e7320746f207472616e73666572000000000000000000000081525060200191505060405180910390fd5b60006136a830611624565b9050818111613702576040517f08c379a00000000000000000000000000000000000000000000000000000000081526004018080602001828103825260248152602001806154e26024913960400191505060405180910390fd5b836020015161371a838561411590919063ffffffff16565b111561378e576040517f08c379a00000000000000000000000000000000000000000000000000000000081526004018080602001828103825260208152602001807f43616e6e6f7420436c61696d206d6f7265207468616e20416c6c6f636174656481525060200191505060405180910390fd5b818460c001818151019150818152505083602001516137b6838561411590919063ffffffff16565b14156137ce5760008460e00190151590811515815250505b8360fc60008b73ffffffffffffffffffffffffffffffffffffffff1673ffffffffffffffffffffffffffffffffffffffff16815260200190815260200160002060008a60ff1660ff16815260200190815260200160002060008201518160000160006101000a81548160ff021916908360ff16021790555060208201518160010155604082015181600201556060820151816003015560808201518160040160006101000a81548160ff021916908360ff16021790555060a08201518160040160016101000a81548160ff021916908360ff16021790555060c0820151816005015560e08201518160060160006101000a81548160ff0219169083151502179055506101008201518160060160016101000a81548160ff0219169083151502179055509050506138fe8983613c8a565b5050505050505092915050565b600073ffffffffffffffffffffffffffffffffffffffff168373ffffffffffffffffffffffffffffffffffffffff161415613991576040517f08c379a00000000000000000000000000000000000000000000000000000000081526004018080602001828103825260258152602001806154996025913960400191505060405180910390fd5b600073ffffffffffffffffffffffffffffffffffffffff168273ffffffffffffffffffffffffffffffffffffffff161415613a17576040517f08c379a00000000000000000000000000000000000000000000000000000000081526004018080602001828103825260238152602001806152ad6023913960400191505060405180910390fd5b613a22838383614ab6565b613a8e8160405180606001604052806026815260200161531860269139606560008773ffffffffffffffffffffffffffffffffffffffff1673ffffffffffffffffffffffffffffffffffffffff16815260200190815260200160002054613bd09092919063ffffffff16565b606560008573ffffffffffffffffffffffffffffffffffffffff1673ffffffffffffffffffffffffffffffffffffffff16815260200190815260200160002081905550613b2381606560008573ffffffffffffffffffffffffffffffffffffffff1673ffffffffffffffffffffffffffffffffffffffff1681526020019081526020016000205461411590919063ffffffff16565b606560008473ffffffffffffffffffffffffffffffffffffffff1673ffffffffffffffffffffffffffffffffffffffff168152602001908152602001600020819055508173ffffffffffffffffffffffffffffffffffffffff168373ffffffffffffffffffffffffffffffffffffffff167fddf252ad1be2c89b69c2b068fc378daa952ba7f163c4a11628f55a4df523b3ef836040518082815260200191505060405180910390a3505050565b6000838311158290613c7d576040517f08c379a00000000000000000000000000000000000000000000000000000000081526004018080602001828103825283818151815260200191508051906020019080838360005b83811015613c42578082015181840152602081019050613c27565b50505050905090810190601f168015613c6f5780820380516001836020036101000a031916815260200191505b509250505060405180910390fd5b5082840390509392505050565b6000613c9730848461390b565b6001905092915050565b6000613cab612099565b613cb3611056565b11613d09576040517f08c379a00000000000000000000000000000000000000000000000000000000081526004018080602001828103825260268152602001806154736026913960400191505060405180910390fd5b828260fc60008373ffffffffffffffffffffffffffffffffffffffff1673ffffffffffffffffffffffffffffffffffffffff16815260200190815260200160002060008260ff1660ff16815260200190815260200160002060060160009054906101000a900460ff16613dc7576040517f08c379a000000000000000000000000000000000000000000000000000000000815260040180806020018281038252602681526020018061533e6026913960400191505060405180910390fd5b613dcf61518c565b60fc60008773ffffffffffffffffffffffffffffffffffffffff1673ffffffffffffffffffffffffffffffffffffffff16815260200190815260200160002060008660ff1660ff168152602001908152602001600020604051806101200160405290816000820160009054906101000a900460ff1660ff1660ff1681526020016001820154815260200160028201548152602001600382015481526020016004820160009054906101000a900460ff1660ff1660ff1681526020016004820160019054906101000a900460ff1660ff1660ff168152602001600582015481526020016006820160009054906101000a900460ff161515151581526020016006820160019054906101000a900460ff16151515158152505090506007816000015160ff1610158015613f0857506009816000015160ff1611155b613f5d576040517f08c379a000000000000000000000000000000000000000000000000000000000815260040180806020018281038252602f815260200180615364602f913960400191505060405180910390fd5b60001515816101000151151514613fbf576040517f08c379a000000000000000000000000000000000000000000000000000000000815260040180806020018281038252603681526020018061543d6036913960400191505060405180910390fd5b6000816040015190506001826101000190151590811515815250508160fc60008973ffffffffffffffffffffffffffffffffffffffff1673ffffffffffffffffffffffffffffffffffffffff16815260200190815260200160002060008860ff1660ff16815260200190815260200160002060008201518160000160006101000a81548160ff021916908360ff16021790555060208201518160010155604082015181600201556060820151816003015560808201518160040160006101000a81548160ff021916908360ff16021790555060a08201518160040160016101000a81548160ff021916908360ff16021790555060c0820151816005015560e08201518160060160006101000a81548160ff0219169083151502179055506101008201518160060160016101000a81548160ff02191690831515021790555090505061410a8782613c8a565b505050505092915050565b600080828401905083811015614193576040517f08c379a000000000000000000000000000000000000000000000000000000000815260040180806020018281038252601b8152602001807f536166654d6174683a206164646974696f6e206f766572666c6f77000000000081525060200191505060405180910390fd5b8091505092915050565b868660008160ff16101580156141b7575060098160ff1611155b614229576040517f08c379a00000000000000000000000000000000000000000000000000000000081526004018080602001828103825260158152602001807f496e76616c69642056657374696e6720496e646578000000000000000000000081525060200191505060405180910390fd5b600073ffffffffffffffffffffffffffffffffffffffff168273ffffffffffffffffffffffffffffffffffffffff1614156142cc576040517f08c379a000000000000000000000000000000000000000000000000000000000815260040180806020018281038252600f8152602001807f496e76616c69642041646472657373000000000000000000000000000000000081525060200191505060405180910390fd5b60fc60008373ffffffffffffffffffffffffffffffffffffffff1673ffffffffffffffffffffffffffffffffffffffff16815260200190815260200160002060008260ff1660ff16815260200190815260200160002060060160009054906101000a900460ff1615614389576040517f08c379a00000000000000000000000000000000000000000000000000000000081526004018080602001828103825260338152602001806153c16033913960400191505060405180910390fd5b61439161518c565b6040518061012001604052808a60ff1681526020018981526020018681526020018581526020018760ff1681526020018860ff168152602001600081526020016001151581526020016000151581525090508060fc60008c73ffffffffffffffffffffffffffffffffffffffff1673ffffffffffffffffffffffffffffffffffffffff16815260200190815260200160002060008b60ff1660ff16815260200190815260200160002060008201518160000160006101000a81548160ff021916908360ff16021790555060208201518160010155604082015181600201556060820151816003015560808201518160040160006101000a81548160ff021916908360ff16021790555060a08201518160040160016101000a81548160ff021916908360ff16021790555060c0820151816005015560e08201518160060160006101000a81548160ff0219169083151502179055506101008201518160060160016101000a81548160ff02191690831515021790555090505050505050505050505050565b60008282111561458d576040517f08c379a000000000000000000000000000000000000000000000000000000000815260040180806020018281038252601e8152602001807f536166654d6174683a207375627472616374696f6e206f766572666c6f77000081525060200191505060405180910390fd5b818303905092915050565b600062278d00905090565b60006145ae30614b24565b15905090565b600060019054906101000a900460ff16806145d357506145d26145a3565b5b806145ea57506000809054906101000a900460ff16155b61463f576040517f08c379a000000000000000000000000000000000000000000000000000000000815260040180806020018281038252602e815260200180615393602e913960400191505060405180910390fd5b60008060019054906101000a900460ff16159050801561468f576001600060016101000a81548160ff02191690831515021790555060016000806101000a81548160ff0219169083151502179055505b614697614b37565b61469f614c36565b80156146c05760008060016101000a81548160ff0219169083151502179055505b50565b600060019054906101000a900460ff16806146e257506146e16145a3565b5b806146f957506000809054906101000a900460ff16155b61474e576040517f08c379a000000000000000000000000000000000000000000000000000000000815260040180806020018281038252602e815260200180615393602e913960400191505060405180910390fd5b60008060019054906101000a900460ff16159050801561479e576001600060016101000a81548160ff02191690831515021790555060016000806101000a81548160ff0219169083151502179055505b6147a6614b37565b6147b08383614dde565b80156147d15760008060016101000a81548160ff0219169083151502179055505b505050565b600060019054906101000a900460ff16806147f557506147f46145a3565b5b8061480c57506000809054906101000a900460ff16155b614861576040517f08c379a000000000000000000000000000000000000000000000000000000000815260040180806020018281038252602e815260200180615393602e913960400191505060405180910390fd5b60008060019054906101000a900460ff1615905080156148b1576001600060016101000a81548160ff02191690831515021790555060016000806101000a81548160ff0219169083151502179055505b6148b9614b37565b6148c1614f29565b6148c9615043565b80156148ea5760008060016101000a81548160ff0219169083151502179055505b50565b600073ffffffffffffffffffffffffffffffffffffffff168273ffffffffffffffffffffffffffffffffffffffff161415614990576040517f08c379a000000000000000000000000000000000000000000000000000000000815260040180806020018281038252601f8152602001807f45524332303a206d696e7420746f20746865207a65726f20616464726573730081525060200191505060405180910390fd5b61499c60008383614ab6565b6149b18160675461411590919063ffffffff16565b606781905550614a0981606560008573ffffffffffffffffffffffffffffffffffffffff1673ffffffffffffffffffffffffffffffffffffffff1681526020019081526020016000205461411590919063ffffffff16565b606560008473ffffffffffffffffffffffffffffffffffffffff1673ffffffffffffffffffffffffffffffffffffffff168152602001908152602001600020819055508173ffffffffffffffffffffffffffffffffffffffff16600073ffffffffffffffffffffffffffffffffffffffff167fddf252ad1be2c89b69c2b068fc378daa952ba7f163c4a11628f55a4df523b3ef836040518082815260200191505060405180910390a35050565b614ac1838383615142565b614ac96115fb565b15614b1f576040517f08c379a000000000000000000000000000000000000000000000000000000000815260040180806020018281038252602a81526020018061552b602a913960400191505060405180910390fd5b505050565b600080823b905060008111915050919050565b600060019054906101000a900460ff1680614b565750614b556145a3565b5b80614b6d57506000809054906101000a900460ff16155b614bc2576040517f08c379a000000000000000000000000000000000000000000000000000000000815260040180806020018281038252602e815260200180615393602e913960400191505060405180910390fd5b60008060019054906101000a900460ff161590508015614c12576001600060016101000a81548160ff02191690831515021790555060016000806101000a81548160ff0219169083151502179055505b8015614c335760008060016101000a81548160ff0219169083151502179055505b50565b600060019054906101000a900460ff1680614c555750614c546145a3565b5b80614c6c57506000809054906101000a900460ff16155b614cc1576040517f08c379a000000000000000000000000000000000000000000000000000000000815260040180806020018281038252602e815260200180615393602e913960400191505060405180910390fd5b60008060019054906101000a900460ff161590508015614d11576001600060016101000a81548160ff02191690831515021790555060016000806101000a81548160ff0219169083151502179055505b6000614d1b61322b565b905080603360006101000a81548173ffffffffffffffffffffffffffffffffffffffff021916908373ffffffffffffffffffffffffffffffffffffffff1602179055508073ffffffffffffffffffffffffffffffffffffffff16600073ffffffffffffffffffffffffffffffffffffffff167f8be0079c531659141344cd1fd0a4f28419497f9722a3daafe3b4186f6b6457e060405160405180910390a3508015614ddb5760008060016101000a81548160ff0219169083151502179055505b50565b600060019054906101000a900460ff1680614dfd5750614dfc6145a3565b5b80614e1457506000809054906101000a900460ff16155b614e69576040517f08c379a000000000000000000000000000000000000000000000000000000000815260040180806020018281038252602e815260200180615393602e913960400191505060405180910390fd5b60008060019054906101000a900460ff161590508015614eb9576001600060016101000a81548160ff02191690831515021790555060016000806101000a81548160ff0219169083151502179055505b8260689080519060200190614ecf929190615207565b508160699080519060200190614ee6929190615207565b506012606a60006101000a81548160ff021916908360ff1602179055508015614f245760008060016101000a81548160ff0219169083151502179055505b505050565b600060019054906101000a900460ff1680614f485750614f476145a3565b5b80614f5f57506000809054906101000a900460ff16155b614fb4576040517f08c379a000000000000000000000000000000000000000000000000000000000815260040180806020018281038252602e815260200180615393602e913960400191505060405180910390fd5b60008060019054906101000a900460ff161590508015615004576001600060016101000a81548160ff02191690831515021790555060016000806101000a81548160ff0219169083151502179055505b6000609760006101000a81548160ff02191690831515021790555080156150405760008060016101000a81548160ff0219169083151502179055505b50565b600060019054906101000a900460ff168061506257506150616145a3565b5b8061507957506000809054906101000a900460ff16155b6150ce576040517f08c379a000000000000000000000000000000000000000000000000000000000815260040180806020018281038252602e815260200180615393602e913960400191505060405180910390fd5b60008060019054906101000a900460ff16159050801561511e576001600060016101000a81548160ff02191690831515021790555060016000806101000a81548160ff0219169083151502179055505b801561513f5760008060016101000a81548160ff0219169083151502179055505b50565b505050565b6040518060c00160405280600060ff168152602001600060ff168152602001600060ff168152602001600060ff168152602001600060ff168152602001600081525090565b604051806101200160405280600060ff168152602001600081526020016000815260200160008152602001600060ff168152602001600060ff168152602001600081526020016000151581526020016000151581525090565b6040518060800160405280600490602082028038833980820191505090505090565b828054600181600116156101000203166002900490600052602060002090601f016020900481019282601f1061524857805160ff1916838001178555615276565b82800160010185558215615276579182015b8281111561527557825182559160200191906001019061525a565b5b5090506152839190615287565b5090565b6152a991905b808211156152a557600081600090555060010161528d565b5090565b9056fe45524332303a207472616e7366657220746f20746865207a65726f20616464726573734f776e61626c653a206e6577206f776e657220697320746865207a65726f206164647265737345524332303a20617070726f766520746f20746865207a65726f206164647265737345524332303a207472616e7366657220616d6f756e7420657863656564732062616c616e636555736572204e4f5420616464656420746f20616e792056657374696e672043617465676f727956657374696e672043617465676f727920646f65736e27742062656c6f6e6720746f2053414c452056457374696e67496e697469616c697a61626c653a20636f6e747261637420697320616c726561647920696e697469616c697a6564557365722056657374696e672044657461696c7320416c726561647920416464656420746f20746869732043617465676f7279536166654d6174683a206d756c7469706c69636174696f6e206f766572666c6f7745524332303a207472616e7366657220616d6f756e74206578636565647320616c6c6f77616e636554474520546f6b656e73204861766520616c7265616479206265656e20636c61696d656420666f7220476976656e2041646472657373546f6b656e2047656e65726174696f6e204576656e74204e6f7420537461727465642059657445524332303a207472616e736665722066726f6d20746865207a65726f206164647265737345524332303a20617070726f76652066726f6d20746865207a65726f20616464726573734e6f7420456e6f75676820546f6b656e2042616c616e636520696e20436f6e747261637445524332303a2064656372656173656420616c6c6f77616e63652062656c6f77207a65726f45524332305061757361626c653a20746f6b656e207472616e73666572207768696c6520706175736564a2646970667358221220f08d70d42ee59b71459e300c68498c2f5056acbac786754e289f7bd9b9774bfc64736f6c63430006020033",
  "source": "pragma solidity 0.6.2;\n// SPDX-License-Identifier: MIT\n\nimport \"@openzeppelin/contracts-upgradeable/token/ERC20/ERC20Upgradeable.sol\";\nimport \"@openzeppelin/contracts-upgradeable/math/SafeMathUpgradeable.sol\";\nimport \"@openzeppelin/contracts-upgradeable/access/OwnableUpgradeable.sol\";\nimport \"@openzeppelin/contracts-upgradeable/proxy/Initializable.sol\";\nimport \"@openzeppelin/contracts-upgradeable/token/ERC20/ERC20PausableUpgradeable.sol\";\nimport \"@openzeppelin/contracts-upgradeable/math/SafeMathUpgradeable.sol\";\nimport \"./safety/ILocker.sol\";\n\n\ncontract PlaycentTokenV1 is\n    Initializable,\n    OwnableUpgradeable,\n    ERC20PausableUpgradeable,\n    ILockerUser\n{\n    using SafeMathUpgradeable for uint256;\n    /**\n     * Category 0 - Team\n     * Category 1 - Operations\n     * Category 2 - Marketing/Partners\n     * Category 3 - Advisors\n     * Category 4 - Staking/Earn Incentives\n     * Category 5 - Play/Mining\n     * Category 6 - Reserve\n     * Category 7 - Seed Sale\n     * Category 8 - Private 1\n     * Category 9 - Private 2\n     */\n  struct VestType {\n        uint8 indexId;\n        uint8 lockPeriod;\n        uint8 vestingDuration;\n        uint8 tgePercent;\n        uint8 monthlyPercent;\n        uint256 totalTokenAllocation;\n    }\n\n   struct VestAllocation {\n        uint8 vestIndexID;\n        uint256 totalTokensAllocated;\n        uint256 totalTGETokens;\n        uint256 monthlyTokens;\n        uint8 vestingDuration;\n        uint8 lockPeriod;\n        uint256 totalVestTokensClaimed;\n        bool isVesting;\n        bool isTgeTokensClaimed;\n    }\n\n\n    mapping(uint256 => VestType) public vestTypes;\n    mapping(address => mapping(uint8 => VestAllocation))\n        public walletToVestAllocations;\n\n    ILocker public override locker;\n\n    function initialize(address _PublicSaleAddress) public initializer {\n        __Ownable_init();\n        __ERC20_init(\"Playcent\", \"PCNT\");\n        __ERC20Pausable_init();\n        _mint(owner(), 57600000 ether);\n        _mint(_PublicSaleAddress, 2400000 ether);\n\n        vestTypes[0] = VestType(0, 12, 32, 0, 5, 9000000 ether); // Team\n        vestTypes[1] = VestType(1, 3, 13, 0, 10, 4800000 ether); // Operations\n        vestTypes[2] = VestType(2, 3, 13, 0, 10, 4800000 ether); // Marketing/Partners\n        vestTypes[3] = VestType(3, 1, 11, 0, 10, 2400000 ether); // Advisors\n        vestTypes[4] = VestType(4, 1, 11, 0, 10, 4800000 ether); //Staking/Early Incentive Rewards\n        vestTypes[5] = VestType(5, 3, 28, 0, 4, 9000000 ether); //Play Mining\n        vestTypes[6] = VestType(6, 6, 31, 0, 4, 4200000 ether); //Reserve\n        // Sale Vesting Strategies\n        vestTypes[7] = VestType(7, 1, 7, 10, 15, 5700000 ether); // Seed Sale\n        vestTypes[8] = VestType(8, 1, 5, 15, 20, 5400000 ether); // Private Sale 1\n        vestTypes[9] = VestType(9, 1, 4, 20, 20, 5100000 ether); // Private Sale 2\n    }\n\n    modifier onlyValidVestingBenifciary(\n        address _userAddresses,\n        uint8 _vestingIndex\n    ) {\n        require(\n            _vestingIndex >= 0 && _vestingIndex <= 9,\n            \"Invalid Vesting Index\"\n        );\n        require(_userAddresses != address(0), \"Invalid Address\");\n        require(\n            !walletToVestAllocations[_userAddresses][_vestingIndex].isVesting,\n            \"User Vesting Details Already Added to this Category\"\n        );\n        _;\n    }\n\n    modifier checkVestingStatus(address _userAddresses, uint8 _vestingIndex) {\n        require(\n            walletToVestAllocations[_userAddresses][_vestingIndex].isVesting,\n            \"User NOT added to any Vesting Category\"\n        );\n        _;\n    }\n\n    modifier onlyAfterTGE(){ \n        require (getCurrentTime() > getTgeTIME(), \"Token Generation Event Not Started Yet\");\n        _; \n    }\n\n    function setLocker(address _locker) external onlyOwner() {\n        locker = ILocker(_locker);\n    }\n\n    // function _transfer(address sender, address recipient, uint256 amount) internal virtual override {\n    //     if (address(locker) != address(0)) {\n    //         locker.lockOrGetPenalty(sender, recipient);\n    //     }\n    //     return ERC20._transfer(sender, recipient, amount);\n    // }\n\n    function transfer(address recipient, uint256 amount) public virtual override returns (bool) {\n        \n        if (address(locker) != address(0)) {\n            locker.lockOrGetPenalty(_msgSender(), recipient);\n        }\n        \n        _transfer(_msgSender(), recipient, amount);\n        return true;\n    }\n\n\n    function getCurrentTime() public view returns (uint256) {\n        return block.timestamp;\n    }\n\n    function monthInSeconds() internal pure returns (uint256) {\n        return 2592000;\n    }\n\n    function getTgeTIME() public pure returns (uint256) {\n        return 1615018379; // Sat Mar 06 2021 11:30:00 GMT+0000\n    }\n\n    function percentage(\n        uint256 _totalAmount,\n        uint256 _rate\n    ) public pure returns (uint256) {\n        return _totalAmount.mul(_rate).div(100);\n    }\n\n    /**\n     * @notice - Allows only the Owner to ADD an array of Addresses as well as their Vesting Amount\n               - The array of user and amounts should be passed along with the vestingCategory Index. \n               - Thus, a particular batch of addresses shall be added under only one Vesting Category Index \n     * @param _userAddresses array of addresses of the Users\n     * @param _vestingAmounts array of amounts to be vested\n     * @param _vestnigType allows the owner to select the type of vesting category\n     * @return - true if Function executes successfully\n     */\n\n    function addVestingDetails(\n        address[] calldata _userAddresses,\n        uint256[] calldata _vestingAmounts,\n        uint8 _vestnigType\n    ) external onlyOwner returns (bool) {\n        require(\n            _userAddresses.length == _vestingAmounts.length,\n            \"Unequal arrays passed\"\n        );\n\n        // Get Vesting Category Details\n        VestType memory vestData = vestTypes[_vestnigType];\n        uint256 arrayLength = _userAddresses.length;\n\n        for (uint256 i = 0; i < arrayLength; i++) {\n            uint8 vestIndexID = _vestnigType;\n            address userAddress = _userAddresses[i];\n            uint256 totalAllocation = _vestingAmounts[i];\n            uint8 lockPeriod = vestData.lockPeriod;\n            uint8 vestingDuration = vestData.vestingDuration;\n            uint256 tgeAmount =\n                percentage(totalAllocation, vestData.tgePercent);\n            uint256 monthlyAmount =\n                percentage(\n                    totalAllocation,\n                    vestData.monthlyPercent\n                );\n\n            addUserVestingDetails(\n                userAddress,\n                vestIndexID,\n                totalAllocation,\n                lockPeriod,\n                vestingDuration,\n                tgeAmount,\n                monthlyAmount\n            );\n        }\n        return true;\n    }\n\n    /** @notice - Internal functions that is initializes the VestAllocation Struct with the respective arguments passed\n     * @param _userAddresses addresses of the User\n     * @param _totalAllocation total amount to be lockedUp\n     * @param _vestingIndex denotes the type of vesting selected\n     * @param _lockPeriod denotes the lock of the vesting category selcted\n     * @param _vestingDuration denotes the total duration of the vesting category selcted\n     * @param _tgeAmount denotes the total TGE amount to be transferred to the userVestingData\n     * @param _monthlyAmount denotes the total Monthly Amount to be transferred to the user\n     */\n\n    function addUserVestingDetails(\n        address _userAddresses,\n        uint8 _vestingIndex,\n        uint256 _totalAllocation,\n        uint8 _lockPeriod,\n        uint8 _vestingDuration,\n        uint256 _tgeAmount,\n        uint256 _monthlyAmount\n    ) internal onlyValidVestingBenifciary(_userAddresses, _vestingIndex) {\n        VestAllocation memory userVestingData =\n            VestAllocation(\n                _vestingIndex,\n                _totalAllocation,\n                _tgeAmount,\n                _monthlyAmount,\n                _vestingDuration,\n                _lockPeriod,\n                0,\n                true,\n                false\n            );\n        walletToVestAllocations[_userAddresses][_vestingIndex] = userVestingData;\n    }\n\n    function totalTokensClaimed(address _userAddresses, uint8 _vestingIndex)\n        public\n        view\n        returns (uint256)\n    {\n        // Get Vesting Details\n        uint256 totalClaimedTokens;\n        VestAllocation memory vestData =\n            walletToVestAllocations[_userAddresses][_vestingIndex];\n\n        totalClaimedTokens = totalClaimedTokens.add(\n            vestData.totalVestTokensClaimed\n        );\n\n        if (vestData.isTgeTokensClaimed) {\n            totalClaimedTokens = totalClaimedTokens.add(\n                vestData.totalTGETokens\n            );\n        }\n\n        return totalClaimedTokens;\n    }\n\n    /**\n     * @notice Calculates the amount of tokens to be transferred at any given point of time\n     * @param _userAddresses address of the User\n     */\n    function calculateClaimableTokens(\n        address _userAddresses,\n        uint8 _vestingIndex\n    )\n        public\n        view\n        checkVestingStatus(_userAddresses, _vestingIndex)\n        returns (uint256)\n    {\n        // Get Vesting Details\n        VestAllocation memory vestData =\n            walletToVestAllocations[_userAddresses][_vestingIndex];\n\n        // Get Time Details\n        uint256 actualClaimableAmount;\n        uint256 tokensAfterElapsedMonths;\n        uint256 vestStartTime = getTgeTIME();\n        uint256 currentTime = getCurrentTime();\n        uint256 timeElapsed = currentTime.sub(vestStartTime);\n        uint256 totalMonthsElapsed = timeElapsed.div(monthInSeconds());\n        \n\n        //Check whether or not the VESTING CLIFF has been reached\n        require(\n            totalMonthsElapsed > vestData.lockPeriod,\n            \"Vesting Cliff Not Crossed Yet\"\n        );\n\n        // If total duration of Vesting already crossed, return pending tokens to claimed\n        if (totalMonthsElapsed > vestData.vestingDuration) {\n            uint256 _totalTokensClaimed =\n            totalTokensClaimed(_userAddresses, _vestingIndex);\n            actualClaimableAmount = vestData.totalTokensAllocated.sub(\n                _totalTokensClaimed\n            );\n            // if current time has crossed the Vesting Cliff but not the total Vesting Duration\n            // Calculating Actual Months(Excluding the CLIFF) to initiate vesting\n        } else {\n            uint256 actualMonthElapsed =\n                totalMonthsElapsed.sub(vestData.lockPeriod);\n            require(actualMonthElapsed > 0, \"Number of months elapsed is ZERO\");\n            // Calculate the Total Tokens on the basis of Vesting Index and Month elapsed\n            if (vestData.vestIndexID == 9) {\n\n                uint256[4] memory monthsToRates;\n                monthsToRates[1] = 20;\n                monthsToRates[2] = 50;\n                monthsToRates[3] = 80;\n                tokensAfterElapsedMonths = percentage(\n                    vestData.totalTokensAllocated,\n                    monthsToRates[actualMonthElapsed]\n                );\n            } else {\n                tokensAfterElapsedMonths = vestData.monthlyTokens.mul(\n                    actualMonthElapsed\n                );\n            }\n            require(\n                tokensAfterElapsedMonths > vestData.totalVestTokensClaimed,\n                \"No Claimable Tokens at this Time\"\n            );\n            // Get the actual Claimable Tokens\n            actualClaimableAmount = tokensAfterElapsedMonths.sub(\n                vestData.totalVestTokensClaimed\n            );\n        }\n        return actualClaimableAmount;\n    }\n\n    /**\n     * @notice Function to transfer tokens from this contract to the user\n     * @param _beneficiary address of the User\n     * @param _amountOfTokens number of tokens to be transferred\n     */\n    function _sendTokens(address _beneficiary, uint256 _amountOfTokens)\n        private\n        returns (bool)\n    {\n        _transfer(address(this), _beneficiary, _amountOfTokens);\n        return true;\n    }\n\n    /**\n     * @notice Calculates and Transfer the total tokens to be transferred to the user after Token Generation Event is over\n     * @dev The function shall only work for users under Sale Vesting Category(index - 7,8,9).\n     * @dev The function can only be called once by the user(only if the isTgeTokensClaimed boolean value is FALSE).\n     * Once the tokens have been transferred, isTgeTokensClaimed becomes TRUE for that particular address\n     * @param _userAddresses address of the User\n     */\n    function _claimTGETokens(address _userAddresses, uint8 _vestingIndex)\n        internal\n        onlyAfterTGE\n        checkVestingStatus(_userAddresses, _vestingIndex)\n        returns (bool)\n    {\n        // Get Vesting Details\n        VestAllocation memory vestData =\n            walletToVestAllocations[_userAddresses][_vestingIndex];\n\n        require(\n            vestData.vestIndexID >= 7 && vestData.vestIndexID <= 9,\n            \"Vesting Category doesn't belong to SALE VEsting\"\n        );\n        require(\n            vestData.isTgeTokensClaimed == false,\n            \"TGE Tokens Have already been claimed for Given Address\"\n        );\n\n        uint256 tokensToTransfer = vestData.totalTGETokens;\n\n        // Updating Contract State\n        vestData.isTgeTokensClaimed = true;\n        walletToVestAllocations[_userAddresses][_vestingIndex] = vestData;\n        _sendTokens(_userAddresses, tokensToTransfer);\n    }\n\n    function claimTGETokensOnlyOwner(address _userAddresses,uint8 _vestingIndex) external onlyOwner returns(bool){\n            _claimTGETokens(_userAddresses,_vestingIndex);\n    }\n\n    function claimTGETokens(uint8 _vestingIndex) external returns(bool){\n            _claimTGETokens(msg.sender,_vestingIndex);  \n        \n    }\n\n    /**\n     * @notice Calculates and Transfers the total tokens to be transferred to the user by calculating the Amount of tokens to be transferred at the given time\n     * @dev The function shall only work for users under Vesting Category is valid(index - 1 to 9).\n     * @dev isVesting becomes false if all allocated tokens have been claimed.\n     * @dev User cannot claim more tokens than actually allocated to them by the OWNER\n     * @param _userAddresses address of the User\n     */\n    function _claimVestTokens(address _userAddresses, uint8 _vestingIndex)\n        internal\n        checkVestingStatus(_userAddresses, _vestingIndex)\n        returns (bool)\n    {\n        // Get Vesting Details\n        VestAllocation memory vestData =\n            walletToVestAllocations[_userAddresses][_vestingIndex];\n\n        // Get total token amount to be transferred\n        uint256 _totalTokensClaimed =\n            totalTokensClaimed(_userAddresses, _vestingIndex);\n        uint256 tokensToTransfer =\n            calculateClaimableTokens(_userAddresses, _vestingIndex);\n\n        require(tokensToTransfer > 0, \"No tokens to transfer\");\n        uint256 contractTokenBalance = balanceOf(address(this));\n        require(\n            contractTokenBalance > tokensToTransfer,\n            \"Not Enough Token Balance in Contract\"\n        );\n        require(\n            _totalTokensClaimed.add(tokensToTransfer) <=\n                vestData.totalTokensAllocated,\n            \"Cannot Claim more than Allocated\"\n        );\n\n        vestData.totalVestTokensClaimed += tokensToTransfer;\n        if (\n            _totalTokensClaimed.add(tokensToTransfer) ==\n            vestData.totalTokensAllocated\n        ) {\n            vestData.isVesting = false;\n        }\n        walletToVestAllocations[_userAddresses][_vestingIndex] = vestData;\n        _sendTokens(_userAddresses, tokensToTransfer);\n    }\n\n    function claimVestTokensOnlyOwner(address _userAddresses,uint8 _vestingIndex) external onlyOwner returns(bool){\n            _claimVestTokens(_userAddresses,_vestingIndex);\n    }\n\n    function claimVestTokens(uint8 _vestingIndex) external returns(bool){\n            _claimVestTokens(msg.sender,_vestingIndex); \n    }\n\n    function withdrawContractTokens() onlyOwner external returns(bool){\n        uint256 remainingTokens = balanceOf(address(this));\n        _sendTokens(owner(),remainingTokens);   \n    }\n        \n}\n\n",
  "sourcePath": "/home/jay/playcent/ico-contract/contracts/PlaycentTokenV1.sol",
  "compiler": {
    "name": "solc",
    "version": "0.6.2+commit.bacdbe57.Linux.g++"
  },
  "schemaVersion": "3.3.4",
  "updatedAt": "2021-03-02T17:14:16.603Z",
  "devdoc": {
    "methods": {
      "addVestingDetails(address[],uint256[],uint8)": {
        "params": {
          "_userAddresses": "array of addresses of the Users",
          "_vestingAmounts": "array of amounts to be vested",
          "_vestnigType": "allows the owner to select the type of vesting category"
        },
        "returns": {
          "_0": "- true if Function executes successfully"
        }
      },
      "allowance(address,address)": {
        "details": "See {IERC20-allowance}."
      },
      "approve(address,uint256)": {
        "details": "See {IERC20-approve}.     * Requirements:     * - `spender` cannot be the zero address."
      },
      "balanceOf(address)": {
        "details": "See {IERC20-balanceOf}."
      },
      "calculateClaimableTokens(address,uint8)": {
        "params": {
          "_userAddresses": "address of the User"
        }
      },
      "decimals()": {
        "details": "Returns the number of decimals used to get its user representation. For example, if `decimals` equals `2`, a balance of `505` tokens should be displayed to a user as `5,05` (`505 / 10 ** 2`).     * Tokens usually opt for a value of 18, imitating the relationship between Ether and Wei. This is the value {ERC20} uses, unless {_setupDecimals} is called.     * NOTE: This information is only used for _display_ purposes: it in no way affects any of the arithmetic of the contract, including {IERC20-balanceOf} and {IERC20-transfer}."
      },
      "decreaseAllowance(address,uint256)": {
        "details": "Atomically decreases the allowance granted to `spender` by the caller.     * This is an alternative to {approve} that can be used as a mitigation for problems described in {IERC20-approve}.     * Emits an {Approval} event indicating the updated allowance.     * Requirements:     * - `spender` cannot be the zero address. - `spender` must have allowance for the caller of at least `subtractedValue`."
      },
      "increaseAllowance(address,uint256)": {
        "details": "Atomically increases the allowance granted to `spender` by the caller.     * This is an alternative to {approve} that can be used as a mitigation for problems described in {IERC20-approve}.     * Emits an {Approval} event indicating the updated allowance.     * Requirements:     * - `spender` cannot be the zero address."
      },
      "name()": {
        "details": "Returns the name of the token."
      },
      "owner()": {
        "details": "Returns the address of the current owner."
      },
      "paused()": {
        "details": "Returns true if the contract is paused, and false otherwise."
      },
      "renounceOwnership()": {
        "details": "Leaves the contract without owner. It will not be possible to call `onlyOwner` functions anymore. Can only be called by the current owner.     * NOTE: Renouncing ownership will leave the contract without an owner, thereby removing any functionality that is only available to the owner."
      },
      "symbol()": {
        "details": "Returns the symbol of the token, usually a shorter version of the name."
      },
      "totalSupply()": {
        "details": "See {IERC20-totalSupply}."
      },
      "transferFrom(address,address,uint256)": {
        "details": "See {IERC20-transferFrom}.     * Emits an {Approval} event indicating the updated allowance. This is not required by the EIP. See the note at the beginning of {ERC20}.     * Requirements:     * - `sender` and `recipient` cannot be the zero address. - `sender` must have a balance of at least `amount`. - the caller must have allowance for ``sender``'s tokens of at least `amount`."
      },
      "transferOwnership(address)": {
        "details": "Transfers ownership of the contract to a new account (`newOwner`). Can only be called by the current owner."
      }
    }
  },
  "userdoc": {
    "methods": {
      "addVestingDetails(address[],uint256[],uint8)": {
        "notice": "- Allows only the Owner to ADD an array of Addresses as well as their Vesting Amount - The array of user and amounts should be passed along with the vestingCategory Index.  - Thus, a particular batch of addresses shall be added under only one Vesting Category Index "
      },
      "calculateClaimableTokens(address,uint8)": {
        "notice": "Calculates the amount of tokens to be transferred at any given point of time"
      }
    }
  }
}