{
  "contractName": "PlaycentToken",
  "abi": [
    {
      "anonymous": false,
      "inputs": [
        {
          "indexed": true,
          "internalType": "address",
          "name": "owner",
          "type": "address"
        },
        {
          "indexed": true,
          "internalType": "address",
          "name": "spender",
          "type": "address"
        },
        {
          "indexed": false,
          "internalType": "uint256",
          "name": "value",
          "type": "uint256"
        }
      ],
      "name": "Approval",
      "type": "event"
    },
    {
      "anonymous": false,
      "inputs": [
        {
          "indexed": true,
          "internalType": "address",
          "name": "previousOwner",
          "type": "address"
        },
        {
          "indexed": true,
          "internalType": "address",
          "name": "newOwner",
          "type": "address"
        }
      ],
      "name": "OwnershipTransferred",
      "type": "event"
    },
    {
      "anonymous": false,
      "inputs": [
        {
          "indexed": false,
          "internalType": "address",
          "name": "account",
          "type": "address"
        }
      ],
      "name": "Paused",
      "type": "event"
    },
    {
      "anonymous": false,
      "inputs": [
        {
          "indexed": true,
          "internalType": "address",
          "name": "from",
          "type": "address"
        },
        {
          "indexed": true,
          "internalType": "address",
          "name": "to",
          "type": "address"
        },
        {
          "indexed": false,
          "internalType": "uint256",
          "name": "value",
          "type": "uint256"
        }
      ],
      "name": "Transfer",
      "type": "event"
    },
    {
      "anonymous": false,
      "inputs": [
        {
          "indexed": false,
          "internalType": "address",
          "name": "account",
          "type": "address"
        }
      ],
      "name": "Unpaused",
      "type": "event"
    },
    {
      "inputs": [
        {
          "internalType": "address",
          "name": "owner",
          "type": "address"
        },
        {
          "internalType": "address",
          "name": "spender",
          "type": "address"
        }
      ],
      "name": "allowance",
      "outputs": [
        {
          "internalType": "uint256",
          "name": "",
          "type": "uint256"
        }
      ],
      "stateMutability": "view",
      "type": "function",
      "constant": true
    },
    {
      "inputs": [
        {
          "internalType": "address",
          "name": "spender",
          "type": "address"
        },
        {
          "internalType": "uint256",
          "name": "amount",
          "type": "uint256"
        }
      ],
      "name": "approve",
      "outputs": [
        {
          "internalType": "bool",
          "name": "",
          "type": "bool"
        }
      ],
      "stateMutability": "nonpayable",
      "type": "function"
    },
    {
      "inputs": [
        {
          "internalType": "address",
          "name": "account",
          "type": "address"
        }
      ],
      "name": "balanceOf",
      "outputs": [
        {
          "internalType": "uint256",
          "name": "",
          "type": "uint256"
        }
      ],
      "stateMutability": "view",
      "type": "function",
      "constant": true
    },
    {
      "inputs": [],
      "name": "decimals",
      "outputs": [
        {
          "internalType": "uint8",
          "name": "",
          "type": "uint8"
        }
      ],
      "stateMutability": "view",
      "type": "function",
      "constant": true
    },
    {
      "inputs": [
        {
          "internalType": "address",
          "name": "spender",
          "type": "address"
        },
        {
          "internalType": "uint256",
          "name": "subtractedValue",
          "type": "uint256"
        }
      ],
      "name": "decreaseAllowance",
      "outputs": [
        {
          "internalType": "bool",
          "name": "",
          "type": "bool"
        }
      ],
      "stateMutability": "nonpayable",
      "type": "function"
    },
    {
      "inputs": [
        {
          "internalType": "address",
          "name": "spender",
          "type": "address"
        },
        {
          "internalType": "uint256",
          "name": "addedValue",
          "type": "uint256"
        }
      ],
      "name": "increaseAllowance",
      "outputs": [
        {
          "internalType": "bool",
          "name": "",
          "type": "bool"
        }
      ],
      "stateMutability": "nonpayable",
      "type": "function"
    },
    {
      "inputs": [],
      "name": "name",
      "outputs": [
        {
          "internalType": "string",
          "name": "",
          "type": "string"
        }
      ],
      "stateMutability": "view",
      "type": "function",
      "constant": true
    },
    {
      "inputs": [],
      "name": "owner",
      "outputs": [
        {
          "internalType": "address",
          "name": "",
          "type": "address"
        }
      ],
      "stateMutability": "view",
      "type": "function",
      "constant": true
    },
    {
      "inputs": [],
      "name": "paused",
      "outputs": [
        {
          "internalType": "bool",
          "name": "",
          "type": "bool"
        }
      ],
      "stateMutability": "view",
      "type": "function",
      "constant": true
    },
    {
      "inputs": [],
      "name": "renounceOwnership",
      "outputs": [],
      "stateMutability": "nonpayable",
      "type": "function"
    },
    {
      "inputs": [],
      "name": "symbol",
      "outputs": [
        {
          "internalType": "string",
          "name": "",
          "type": "string"
        }
      ],
      "stateMutability": "view",
      "type": "function",
      "constant": true
    },
    {
      "inputs": [],
      "name": "totalSupply",
      "outputs": [
        {
          "internalType": "uint256",
          "name": "",
          "type": "uint256"
        }
      ],
      "stateMutability": "view",
      "type": "function",
      "constant": true
    },
    {
      "inputs": [
        {
          "internalType": "address",
          "name": "recipient",
          "type": "address"
        },
        {
          "internalType": "uint256",
          "name": "amount",
          "type": "uint256"
        }
      ],
      "name": "transfer",
      "outputs": [
        {
          "internalType": "bool",
          "name": "",
          "type": "bool"
        }
      ],
      "stateMutability": "nonpayable",
      "type": "function"
    },
    {
      "inputs": [
        {
          "internalType": "address",
          "name": "sender",
          "type": "address"
        },
        {
          "internalType": "address",
          "name": "recipient",
          "type": "address"
        },
        {
          "internalType": "uint256",
          "name": "amount",
          "type": "uint256"
        }
      ],
      "name": "transferFrom",
      "outputs": [
        {
          "internalType": "bool",
          "name": "",
          "type": "bool"
        }
      ],
      "stateMutability": "nonpayable",
      "type": "function"
    },
    {
      "inputs": [
        {
          "internalType": "address",
          "name": "newOwner",
          "type": "address"
        }
      ],
      "name": "transferOwnership",
      "outputs": [],
      "stateMutability": "nonpayable",
      "type": "function"
    },
    {
      "inputs": [
        {
          "internalType": "address",
          "name": "",
          "type": "address"
        },
        {
          "internalType": "uint8",
          "name": "",
          "type": "uint8"
        }
      ],
      "name": "userToVestingDetails",
      "outputs": [
        {
          "internalType": "uint8",
          "name": "categoryId",
          "type": "uint8"
        },
        {
          "internalType": "address",
          "name": "walletAddress",
          "type": "address"
        },
        {
          "internalType": "uint256",
          "name": "totalAmount",
          "type": "uint256"
        },
        {
          "internalType": "uint256",
          "name": "startTime",
          "type": "uint256"
        },
        {
          "internalType": "uint256",
          "name": "vestingDuration",
          "type": "uint256"
        },
        {
          "internalType": "uint256",
          "name": "vestingCliff",
          "type": "uint256"
        },
        {
          "internalType": "uint256",
          "name": "vestingPercent",
          "type": "uint256"
        },
        {
          "internalType": "uint256",
          "name": "totalAmountClaimed",
          "type": "uint256"
        },
        {
          "internalType": "bool",
          "name": "isVesting",
          "type": "bool"
        },
        {
          "internalType": "bool",
          "name": "tgeTokensClaimed",
          "type": "bool"
        }
      ],
      "stateMutability": "view",
      "type": "function",
      "constant": true
    },
    {
      "inputs": [
        {
          "internalType": "uint256",
          "name": "",
          "type": "uint256"
        }
      ],
      "name": "vestCategory",
      "outputs": [
        {
          "internalType": "uint8",
          "name": "categoryId",
          "type": "uint8"
        },
        {
          "internalType": "uint256",
          "name": "cliff",
          "type": "uint256"
        },
        {
          "internalType": "uint256",
          "name": "lockUpPeriod",
          "type": "uint256"
        },
        {
          "internalType": "uint256",
          "name": "vestPercentage",
          "type": "uint256"
        },
        {
          "internalType": "uint256",
          "name": "totalAllocatedToken",
          "type": "uint256"
        }
      ],
      "stateMutability": "view",
      "type": "function",
      "constant": true
    },
    {
      "inputs": [],
      "name": "initialize",
      "outputs": [],
      "stateMutability": "nonpayable",
      "type": "function"
    },
    {
      "inputs": [],
      "name": "getCurrentTime",
      "outputs": [
        {
          "internalType": "uint256",
          "name": "",
          "type": "uint256"
        }
      ],
      "stateMutability": "view",
      "type": "function",
      "constant": true
    },
    {
      "inputs": [],
      "name": "getTgeTIME",
      "outputs": [
        {
          "internalType": "uint256",
          "name": "",
          "type": "uint256"
        }
      ],
      "stateMutability": "pure",
      "type": "function",
      "constant": true
    },
    {
      "inputs": [
        {
          "internalType": "address[]",
          "name": "_userAddresses",
          "type": "address[]"
        },
        {
          "internalType": "uint256[]",
          "name": "_vestingAmounts",
          "type": "uint256[]"
        },
        {
          "internalType": "uint8",
          "name": "_vestnigType",
          "type": "uint8"
        }
      ],
      "name": "addVestingDetails",
      "outputs": [
        {
          "internalType": "bool",
          "name": "",
          "type": "bool"
        }
      ],
      "stateMutability": "nonpayable",
      "type": "function"
    },
    {
      "inputs": [
        {
          "internalType": "address",
          "name": "_userAddresses",
          "type": "address"
        },
        {
          "internalType": "uint8",
          "name": "_vestingIndex",
          "type": "uint8"
        }
      ],
      "name": "getVestingRate",
      "outputs": [
        {
          "internalType": "uint256",
          "name": "",
          "type": "uint256"
        }
      ],
      "stateMutability": "view",
      "type": "function",
      "constant": true
    },
    {
      "inputs": [
        {
          "internalType": "address",
          "name": "_userAddresses",
          "type": "address"
        },
        {
          "internalType": "uint8",
          "name": "_vestingIndex",
          "type": "uint8"
        }
      ],
      "name": "calculateClaimableTokens",
      "outputs": [
        {
          "internalType": "uint256",
          "name": "",
          "type": "uint256"
        }
      ],
      "stateMutability": "view",
      "type": "function",
      "constant": true
    },
    {
      "inputs": [
        {
          "internalType": "address",
          "name": "_userAddresses",
          "type": "address"
        },
        {
          "internalType": "uint8",
          "name": "_vestingIndex",
          "type": "uint8"
        }
      ],
      "name": "claimTGETokens",
      "outputs": [
        {
          "internalType": "bool",
          "name": "",
          "type": "bool"
        }
      ],
      "stateMutability": "nonpayable",
      "type": "function"
    },
    {
      "inputs": [
        {
          "internalType": "address",
          "name": "_userAddresses",
          "type": "address"
        },
        {
          "internalType": "uint8",
          "name": "_vestingIndex",
          "type": "uint8"
        }
      ],
      "name": "claimVestTokens",
      "outputs": [
        {
          "internalType": "bool",
          "name": "",
          "type": "bool"
        }
      ],
      "stateMutability": "nonpayable",
      "type": "function"
    }
  ],
  "bytecode": "0x608060405234801561001057600080fd5b50614cba806100206000396000f3fe608060405234801561001057600080fd5b5060043610610190576000357c0100000000000000000000000000000000000000000000000000000000900480638129fc1c116100fb578063a9059cbb116100b4578063dd62ed3e1161008e578063dd62ed3e1461089e578063e4f150be14610916578063f2fde38b146109f4578063f864e1c514610a3857610190565b8063a9059cbb146107b5578063b09ee1931461081b578063ce997dbb1461083957610190565b80638129fc1c146105aa5780638da5cb5b146105b45780638e6e9e22146105fe5780638f9335e41461066757806395d89b41146106cc578063a457c2d71461074f57610190565b8063395093511161014d578063395093511461036457806352985d2a146103ca57806358a91b76146104bd5780635c975abb1461052657806370a0823114610548578063715018a6146105a057610190565b806306fdde0314610195578063095ea7b31461021857806318160ddd1461027e57806323b872dd1461029c57806329cb924d14610322578063313ce56714610340575b600080fd5b61019d610a9c565b6040518080602001828103825283818151815260200191508051906020019080838360005b838110156101dd5780820151818401526020810190506101c2565b50505050905090810190601f16801561020a5780820380516001836020036101000a031916815260200191505b509250505060405180910390f35b6102646004803603604081101561022e57600080fd5b81019080803573ffffffffffffffffffffffffffffffffffffffff16906020019092919080359060200190929190505050610b3e565b604051808215151515815260200191505060405180910390f35b610286610b5c565b6040518082815260200191505060405180910390f35b610308600480360360608110156102b257600080fd5b81019080803573ffffffffffffffffffffffffffffffffffffffff169060200190929190803573ffffffffffffffffffffffffffffffffffffffff16906020019092919080359060200190929190505050610b66565b604051808215151515815260200191505060405180910390f35b61032a610c3f565b6040518082815260200191505060405180910390f35b610348610c47565b604051808260ff1660ff16815260200191505060405180910390f35b6103b06004803603604081101561037a57600080fd5b81019080803573ffffffffffffffffffffffffffffffffffffffff16906020019092919080359060200190929190505050610c5e565b604051808215151515815260200191505060405180910390f35b6104a3600480360360608110156103e057600080fd5b81019080803590602001906401000000008111156103fd57600080fd5b82018360208201111561040f57600080fd5b8035906020019184602083028401116401000000008311171561043157600080fd5b90919293919293908035906020019064010000000081111561045257600080fd5b82018360208201111561046457600080fd5b8035906020019184602083028401116401000000008311171561048657600080fd5b9091929391929390803560ff169060200190929190505050610d11565b604051808215151515815260200191505060405180910390f35b61050c600480360360408110156104d357600080fd5b81019080803573ffffffffffffffffffffffffffffffffffffffff169060200190929190803560ff169060200190929190505050610f58565b604051808215151515815260200191505060405180910390f35b61052e6113f5565b604051808215151515815260200191505060405180910390f35b61058a6004803603602081101561055e57600080fd5b81019080803573ffffffffffffffffffffffffffffffffffffffff16906020019092919050505061140c565b6040518082815260200191505060405180910390f35b6105a8611455565b005b6105b26115c5565b005b6105bc611dd5565b604051808273ffffffffffffffffffffffffffffffffffffffff1673ffffffffffffffffffffffffffffffffffffffff16815260200191505060405180910390f35b61064d6004803603604081101561061457600080fd5b81019080803573ffffffffffffffffffffffffffffffffffffffff169060200190929190803560ff169060200190929190505050611dff565b604051808215151515815260200191505060405180910390f35b6106b66004803603604081101561067d57600080fd5b81019080803573ffffffffffffffffffffffffffffffffffffffff169060200190929190803560ff169060200190929190505050612310565b6040518082815260200191505060405180910390f35b6106d4612716565b6040518080602001828103825283818151815260200191508051906020019080838360005b838110156107145780820151818401526020810190506106f9565b50505050905090810190601f1680156107415780820380516001836020036101000a031916815260200191505b509250505060405180910390f35b61079b6004803603604081101561076557600080fd5b81019080803573ffffffffffffffffffffffffffffffffffffffff169060200190929190803590602001909291905050506127b8565b604051808215151515815260200191505060405180910390f35b610801600480360360408110156107cb57600080fd5b81019080803573ffffffffffffffffffffffffffffffffffffffff16906020019092919080359060200190929190505050612885565b604051808215151515815260200191505060405180910390f35b6108236128a3565b6040518082815260200191505060405180910390f35b6108886004803603604081101561084f57600080fd5b81019080803573ffffffffffffffffffffffffffffffffffffffff169060200190929190803560ff1690602001909291905050506128af565b6040518082815260200191505060405180910390f35b610900600480360360408110156108b457600080fd5b81019080803573ffffffffffffffffffffffffffffffffffffffff169060200190929190803573ffffffffffffffffffffffffffffffffffffffff169060200190929190505050612af7565b6040518082815260200191505060405180910390f35b6109656004803603604081101561092c57600080fd5b81019080803573ffffffffffffffffffffffffffffffffffffffff169060200190929190803560ff169060200190929190505050612b7e565b604051808b60ff1660ff1681526020018a73ffffffffffffffffffffffffffffffffffffffff1673ffffffffffffffffffffffffffffffffffffffff16815260200189815260200188815260200187815260200186815260200185815260200184815260200183151515158152602001821515151581526020019a505050505050505050505060405180910390f35b610a3660048036036020811015610a0a57600080fd5b81019080803573ffffffffffffffffffffffffffffffffffffffff169060200190929190505050612c26565b005b610a6460048036036020811015610a4e57600080fd5b8101908080359060200190929190505050612e1b565b604051808660ff1660ff1681526020018581526020018481526020018381526020018281526020019550505050505060405180910390f35b606060688054600181600116156101000203166002900480601f016020809104026020016040519081016040528092919081815260200182805460018160011615610100020316600290048015610b345780601f10610b0957610100808354040283529160200191610b34565b820191906000526020600020905b815481529060010190602001808311610b1757829003601f168201915b5050505050905090565b6000610b52610b4b612e5e565b8484612e66565b6001905092915050565b6000606754905090565b6000610b7384848461305d565b610c3484610b7f612e5e565b610c2f85604051806060016040528060288152602001614b4560289139606660008b73ffffffffffffffffffffffffffffffffffffffff1673ffffffffffffffffffffffffffffffffffffffff1681526020019081526020016000206000610be5612e5e565b73ffffffffffffffffffffffffffffffffffffffff1673ffffffffffffffffffffffffffffffffffffffff168152602001908152602001600020546133229092919063ffffffff16565b612e66565b600190509392505050565b600042905090565b6000606a60009054906101000a900460ff16905090565b6000610d07610c6b612e5e565b84610d028560666000610c7c612e5e565b73ffffffffffffffffffffffffffffffffffffffff1673ffffffffffffffffffffffffffffffffffffffff16815260200190815260200160002060008973ffffffffffffffffffffffffffffffffffffffff1673ffffffffffffffffffffffffffffffffffffffff168152602001908152602001600020546133dc90919063ffffffff16565b612e66565b6001905092915050565b6000610d1b612e5e565b73ffffffffffffffffffffffffffffffffffffffff16610d39611dd5565b73ffffffffffffffffffffffffffffffffffffffff1614610dc2576040517f08c379a00000000000000000000000000000000000000000000000000000000081526004018080602001828103825260208152602001807f4f776e61626c653a2063616c6c6572206973206e6f7420746865206f776e657281525060200191505060405180910390fd5b838390508686905014610e3d576040517f08c379a00000000000000000000000000000000000000000000000000000000081526004018080602001828103825260158152602001807f556e657175616c2061727261797320706173736564000000000000000000000081525060200191505060405180910390fd5b610e45614895565b60fb60008460ff1681526020019081526020016000206040518060a00160405290816000820160009054906101000a900460ff1660ff1660ff1681526020016001820154815260200160028201548152602001600382015481526020016004820154815250509050600087879050905060008090505b81811015610f4857600085905060008a8a84818110610ed657fe5b9050602002013573ffffffffffffffffffffffffffffffffffffffff1690506000898985818110610f0357fe5b905060200201359050600086604001519050600087602001519050600088606001519050610f35858786858786613464565b5050505050508080600101915050610ebb565b5060019250505095945050505050565b6000828260fc60008373ffffffffffffffffffffffffffffffffffffffff1673ffffffffffffffffffffffffffffffffffffffff16815260200190815260200160002060008260ff1660ff16815260200190815260200160002060070160009054906101000a900460ff16611018576040517f08c379a0000000000000000000000000000000000000000000000000000000008152600401808060200182810382526026815260200180614a6e6026913960400191505060405180910390fd5b6110206148c7565b60fc60008773ffffffffffffffffffffffffffffffffffffffff1673ffffffffffffffffffffffffffffffffffffffff16815260200190815260200160002060008660ff1660ff168152602001908152602001600020604051806101400160405290816000820160009054906101000a900460ff1660ff1660ff1681526020016000820160019054906101000a900473ffffffffffffffffffffffffffffffffffffffff1673ffffffffffffffffffffffffffffffffffffffff1673ffffffffffffffffffffffffffffffffffffffff1681526020016001820154815260200160028201548152602001600382015481526020016004820154815260200160058201548152602001600682015481526020016007820160009054906101000a900460ff161515151581526020016007820160019054906101000a900460ff161515151581525050905060006111758787612310565b905060006111823061140c565b90508181116111dc576040517f08c379a0000000000000000000000000000000000000000000000000000000008152600401808060200182810382526024815260200180614c126024913960400191505060405180910390fd5b82604001516111f8838560e001516133dc90919063ffffffff16565b111561126c576040517f08c379a00000000000000000000000000000000000000000000000000000000081526004018080602001828103825260208152602001807f43616e6e6f7420436c61696d206d6f7265207468616e20416c6c6f636174656481525060200191505060405180910390fd5b818360e001818151019150818152505082604001518360e00151141561129f576000836101000190151590811515815250505b8260fc60008a73ffffffffffffffffffffffffffffffffffffffff1673ffffffffffffffffffffffffffffffffffffffff16815260200190815260200160002060008960ff1660ff16815260200190815260200160002060008201518160000160006101000a81548160ff021916908360ff16021790555060208201518160000160016101000a81548173ffffffffffffffffffffffffffffffffffffffff021916908373ffffffffffffffffffffffffffffffffffffffff16021790555060408201518160010155606082015181600201556080820151816003015560a0820151816004015560c0820151816005015560e082015181600601556101008201518160070160006101000a81548160ff0219169083151502179055506101208201518160070160016101000a81548160ff0219169083151502179055509050506113e9888361380b565b50505050505092915050565b6000609760009054906101000a900460ff16905090565b6000606560008373ffffffffffffffffffffffffffffffffffffffff1673ffffffffffffffffffffffffffffffffffffffff168152602001908152602001600020549050919050565b61145d612e5e565b73ffffffffffffffffffffffffffffffffffffffff1661147b611dd5565b73ffffffffffffffffffffffffffffffffffffffff1614611504576040517f08c379a00000000000000000000000000000000000000000000000000000000081526004018080602001828103825260208152602001807f4f776e61626c653a2063616c6c6572206973206e6f7420746865206f776e657281525060200191505060405180910390fd5b600073ffffffffffffffffffffffffffffffffffffffff16603360009054906101000a900473ffffffffffffffffffffffffffffffffffffffff1673ffffffffffffffffffffffffffffffffffffffff167f8be0079c531659141344cd1fd0a4f28419497f9722a3daafe3b4186f6b6457e060405160405180910390a36000603360006101000a81548173ffffffffffffffffffffffffffffffffffffffff021916908373ffffffffffffffffffffffffffffffffffffffff160217905550565b600060019054906101000a900460ff16806115e457506115e3613822565b5b806115fb57506000809054906101000a900460ff16155b611650576040517f08c379a000000000000000000000000000000000000000000000000000000000815260040180806020018281038252602e815260200180614ac3602e913960400191505060405180910390fd5b60008060019054906101000a900460ff1615905080156116a0576001600060016101000a81548160ff02191690831515021790555060016000806101000a81548160ff0219169083151502179055505b6116a8613833565b61171c6040518060400160405280600881526020017f506c617963656e740000000000000000000000000000000000000000000000008152506040518060400160405280600481526020017f50434e5400000000000000000000000000000000000000000000000000000000815250613942565b611724613a55565b61174061172f611dd5565b6a31a17e847807b1bc000000613b6c565b6040518060a00160405280600060ff1681526020016301da9c0081526020016304f1a0008152602001674563918244f4000081526020016a0771d2fa45345aa900000081525060fb600080815260200190815260200160002060008201518160000160006101000a81548160ff021916908360ff160217905550602082015181600101556040820151816002015560608201518160030155608082015181600401559050506040518060a00160405280600160ff1681526020016276a700815260200163020229008152602001678ac7230489e8000081526020016a03f870857a3e0e3800000081525060fb60006001815260200190815260200160002060008201518160000160006101000a81548160ff021916908360ff160217905550602082015181600101556040820151816002015560608201518160030155608082015181600401559050506040518060a00160405280600260ff1681526020016276a700815260200163020229008152602001678ac7230489e8000081526020016a03f870857a3e0e3800000081525060fb60006002815260200190815260200160002060008201518160000160006101000a81548160ff021916908360ff160217905550602082015181600101556040820151816002015560608201518160030155608082015181600401559050506040518060a00160405280600360ff16815260200162278d0081526020016301b30f008152602001678ac7230489e8000081526020016a01fc3842bd1f071c00000081525060fb60006003815260200190815260200160002060008201518160000160006101000a81548160ff021916908360ff160217905550602082015181600101556040820151816002015560608201518160030155608082015181600401559050506040518060a00160405280600460ff16815260200162093a80815260200163018b82008152602001678ac7230489e8000081526020016a03f870857a3e0e3800000081525060fb60006004815260200190815260200160002060008201518160000160006101000a81548160ff021916908360ff160217905550602082015181600101556040820151816002015560608201518160030155608082015181600401559050506040518060a00160405280600560ff1681526020016276a70081526020016304536c008152602001673782dace9d90000081526020016a0771d2fa45345aa900000081525060fb60006005815260200190815260200160002060008201518160000160006101000a81548160ff021916908360ff160217905550602082015181600101556040820151816002015560608201518160030155608082015181600401559050506040518060a00160405280600660ff16815260200162ed4e0081526020016304a2860081526020016739bb49f599a0000081526020016a03796274caf64c7100000081525060fb60006006815260200190815260200160002060008201518160000160006101000a81548160ff021916908360ff160217905550602082015181600101556040820151816002015560608201518160030155608082015181600401559050506040518060a00160405280600760ff168152602001624f1a008152602001630114db008152602001678ac7230489e8000081526020016a04b7059e8129b0e280000081525060fb60006007815260200190815260200160002060008201518160000160006101000a81548160ff021916908360ff160217905550602082015181600101556040820151816002015560608201518160030155608082015181600401559050506040518060a00160405280600860ff168152602001624f1a00815260200162c5c100815260200167d02ab486cedc000081526020016a04777e962985cfff00000081525060fb60006008815260200190815260200160002060008201518160000160006101000a81548160ff021916908360ff160217905550602082015181600101556040820151816002015560608201518160030155608082015181600401559050506040518060a00160405280600960ff168152602001624f1a008152602001629e340081526020016801158e460913d0000081526020016a0437f78dd1e1ef1b80000081525060fb60006009815260200190815260200160002060008201518160000160006101000a81548160ff021916908360ff160217905550602082015181600101556040820151816002015560608201518160030155608082015181600401559050508015611dd25760008060016101000a81548160ff0219169083151502179055505b50565b6000603360009054906101000a900473ffffffffffffffffffffffffffffffffffffffff16905090565b6000828260fc60008373ffffffffffffffffffffffffffffffffffffffff1673ffffffffffffffffffffffffffffffffffffffff16815260200190815260200160002060008260ff1660ff16815260200190815260200160002060070160009054906101000a900460ff16611ebf576040517f08c379a0000000000000000000000000000000000000000000000000000000008152600401808060200182810382526026815260200180614a6e6026913960400191505060405180910390fd5b6000611ec9610c3f565b9050611ed36128a3565b8111611f2a576040517f08c379a0000000000000000000000000000000000000000000000000000000008152600401808060200182810382526026815260200180614ba36026913960400191505060405180910390fd5b611f326148c7565b60fc60008873ffffffffffffffffffffffffffffffffffffffff1673ffffffffffffffffffffffffffffffffffffffff16815260200190815260200160002060008760ff1660ff168152602001908152602001600020604051806101400160405290816000820160009054906101000a900460ff1660ff1660ff1681526020016000820160019054906101000a900473ffffffffffffffffffffffffffffffffffffffff1673ffffffffffffffffffffffffffffffffffffffff1673ffffffffffffffffffffffffffffffffffffffff1681526020016001820154815260200160028201548152602001600382015481526020016004820154815260200160058201548152602001600682015481526020016007820160009054906101000a900460ff161515151581526020016007820160019054906101000a900460ff16151515158152505090506007816000015160ff161015801561209b57506009816000015160ff1611155b6120f0576040517f08c379a000000000000000000000000000000000000000000000000000000000815260040180806020018281038252602f815260200180614a94602f913960400191505060405180910390fd5b60001515816101200151151514612152576040517f08c379a0000000000000000000000000000000000000000000000000000000008152600401808060200182810382526036815260200180614b6d6036913960400191505060405180910390fd5b60008160400151905060008260c001519050600061219468056bc75e2d631000006121868486613d3590919063ffffffff16565b613dbb90919063ffffffff16565b9050808460e00181815101915081815250506001846101200190151590811515815250508360fc60008c73ffffffffffffffffffffffffffffffffffffffff1673ffffffffffffffffffffffffffffffffffffffff16815260200190815260200160002060008b60ff1660ff16815260200190815260200160002060008201518160000160006101000a81548160ff021916908360ff16021790555060208201518160000160016101000a81548173ffffffffffffffffffffffffffffffffffffffff021916908373ffffffffffffffffffffffffffffffffffffffff16021790555060408201518160010155606082015181600201556080820151816003015560a0820151816004015560c0820151816005015560e082015181600601556101008201518160070160006101000a81548160ff0219169083151502179055506101208201518160070160016101000a81548160ff0219169083151502179055509050506123028a8261380b565b505050505050505092915050565b6000828260fc60008373ffffffffffffffffffffffffffffffffffffffff1673ffffffffffffffffffffffffffffffffffffffff16815260200190815260200160002060008260ff1660ff16815260200190815260200160002060070160009054906101000a900460ff166123d0576040517f08c379a0000000000000000000000000000000000000000000000000000000008152600401808060200182810382526026815260200180614a6e6026913960400191505060405180910390fd5b6123d86148c7565b60fc60008773ffffffffffffffffffffffffffffffffffffffff1673ffffffffffffffffffffffffffffffffffffffff16815260200190815260200160002060008660ff1660ff168152602001908152602001600020604051806101400160405290816000820160009054906101000a900460ff1660ff1660ff1681526020016000820160019054906101000a900473ffffffffffffffffffffffffffffffffffffffff1673ffffffffffffffffffffffffffffffffffffffff1673ffffffffffffffffffffffffffffffffffffffff1681526020016001820154815260200160028201548152602001600382015481526020016004820154815260200160058201548152602001600682015481526020016007820160009054906101000a900460ff161515151581526020016007820160019054906101000a900460ff16151515158152505090506000806000836060015190506000612537610c3f565b905060006125528660a00151846133dc90919063ffffffff16565b9050600061256d8760800151856133dc90919063ffffffff16565b905060006125848585613e4490919063ffffffff16565b90506000612590613ec7565b905061259c8e8e6128af565b9750838510156125b85760009b5050505050505050505061270e565b828511156125e2576125db8960e001518a60400151613e4490919063ffffffff16565b9650612701565b600061261668056bc75e2d631000006126088b8d60400151613d3590919063ffffffff16565b613dbb90919063ffffffff16565b9050600061262d8385613dbb90919063ffffffff16565b9050600061265a61264b858e60a00151613dbb90919063ffffffff16565b83613e4490919063ffffffff16565b9050600081116126d2576040517f08c379a00000000000000000000000000000000000000000000000000000000081526004018080602001828103825260208152602001807f4e756d626572206f66206d6f6e74687320656c6170736564206973205a45524f81525060200191505060405180910390fd5b6126fb8c60e001516126ed8386613d3590919063ffffffff16565b613e4490919063ffffffff16565b99505050505b869b505050505050505050505b505092915050565b606060698054600181600116156101000203166002900480601f0160208091040260200160405190810160405280929190818152602001828054600181600116156101000203166002900480156127ae5780601f10612783576101008083540402835291602001916127ae565b820191906000526020600020905b81548152906001019060200180831161279157829003601f168201915b5050505050905090565b600061287b6127c5612e5e565b8461287685604051806060016040528060258152602001614c3660259139606660006127ef612e5e565b73ffffffffffffffffffffffffffffffffffffffff1673ffffffffffffffffffffffffffffffffffffffff16815260200190815260200160002060008a73ffffffffffffffffffffffffffffffffffffffff1673ffffffffffffffffffffffffffffffffffffffff168152602001908152602001600020546133229092919063ffffffff16565b612e66565b6001905092915050565b6000612899612892612e5e565b848461305d565b6001905092915050565b600063604e5628905090565b6000828260fc60008373ffffffffffffffffffffffffffffffffffffffff1673ffffffffffffffffffffffffffffffffffffffff16815260200190815260200160002060008260ff1660ff16815260200190815260200160002060070160009054906101000a900460ff1661296f576040517f08c379a0000000000000000000000000000000000000000000000000000000008152600401808060200182810382526026815260200180614a6e6026913960400191505060405180910390fd5b60006129796148c7565b60fc60008873ffffffffffffffffffffffffffffffffffffffff1673ffffffffffffffffffffffffffffffffffffffff16815260200190815260200160002060008760ff1660ff168152602001908152602001600020604051806101400160405290816000820160009054906101000a900460ff1660ff1660ff1681526020016000820160019054906101000a900473ffffffffffffffffffffffffffffffffffffffff1673ffffffffffffffffffffffffffffffffffffffff1673ffffffffffffffffffffffffffffffffffffffff1681526020016001820154815260200160028201548152602001600382015481526020016004820154815260200160058201548152602001600682015481526020016007820160009054906101000a900460ff161515151581526020016007820160019054906101000a900460ff16151515158152505090506006816000015160ff1611612add578060c001519150612aea565b612ae78787613ed2565b91505b8194505050505092915050565b6000606660008473ffffffffffffffffffffffffffffffffffffffff1673ffffffffffffffffffffffffffffffffffffffff16815260200190815260200160002060008373ffffffffffffffffffffffffffffffffffffffff1673ffffffffffffffffffffffffffffffffffffffff16815260200190815260200160002054905092915050565b60fc602052816000526040600020602052806000526040600020600091509150508060000160009054906101000a900460ff16908060000160019054906101000a900473ffffffffffffffffffffffffffffffffffffffff16908060010154908060020154908060030154908060040154908060050154908060060154908060070160009054906101000a900460ff16908060070160019054906101000a900460ff1690508a565b612c2e612e5e565b73ffffffffffffffffffffffffffffffffffffffff16612c4c611dd5565b73ffffffffffffffffffffffffffffffffffffffff1614612cd5576040517f08c379a00000000000000000000000000000000000000000000000000000000081526004018080602001828103825260208152602001807f4f776e61626c653a2063616c6c6572206973206e6f7420746865206f776e657281525060200191505060405180910390fd5b600073ffffffffffffffffffffffffffffffffffffffff168173ffffffffffffffffffffffffffffffffffffffff161415612d5b576040517f08c379a0000000000000000000000000000000000000000000000000000000008152600401808060200182810382526026815260200180614a006026913960400191505060405180910390fd5b8073ffffffffffffffffffffffffffffffffffffffff16603360009054906101000a900473ffffffffffffffffffffffffffffffffffffffff1673ffffffffffffffffffffffffffffffffffffffff167f8be0079c531659141344cd1fd0a4f28419497f9722a3daafe3b4186f6b6457e060405160405180910390a380603360006101000a81548173ffffffffffffffffffffffffffffffffffffffff021916908373ffffffffffffffffffffffffffffffffffffffff16021790555050565b60fb6020528060005260406000206000915090508060000160009054906101000a900460ff16908060010154908060020154908060030154908060040154905085565b600033905090565b600073ffffffffffffffffffffffffffffffffffffffff168373ffffffffffffffffffffffffffffffffffffffff161415612eec576040517f08c379a0000000000000000000000000000000000000000000000000000000008152600401808060200182810382526024815260200180614bee6024913960400191505060405180910390fd5b600073ffffffffffffffffffffffffffffffffffffffff168273ffffffffffffffffffffffffffffffffffffffff161415612f72576040517f08c379a0000000000000000000000000000000000000000000000000000000008152600401808060200182810382526022815260200180614a266022913960400191505060405180910390fd5b80606660008573ffffffffffffffffffffffffffffffffffffffff1673ffffffffffffffffffffffffffffffffffffffff16815260200190815260200160002060008473ffffffffffffffffffffffffffffffffffffffff1673ffffffffffffffffffffffffffffffffffffffff168152602001908152602001600020819055508173ffffffffffffffffffffffffffffffffffffffff168373ffffffffffffffffffffffffffffffffffffffff167f8c5be1e5ebec7d5bd14f71427d1e84f3dd0314c0f7b2291e5b200ac8c7c3b925836040518082815260200191505060405180910390a3505050565b600073ffffffffffffffffffffffffffffffffffffffff168373ffffffffffffffffffffffffffffffffffffffff1614156130e3576040517f08c379a0000000000000000000000000000000000000000000000000000000008152600401808060200182810382526025815260200180614bc96025913960400191505060405180910390fd5b600073ffffffffffffffffffffffffffffffffffffffff168273ffffffffffffffffffffffffffffffffffffffff161415613169576040517f08c379a00000000000000000000000000000000000000000000000000000000081526004018080602001828103825260238152602001806149dd6023913960400191505060405180910390fd5b6131748383836141f9565b6131e081604051806060016040528060268152602001614a4860269139606560008773ffffffffffffffffffffffffffffffffffffffff1673ffffffffffffffffffffffffffffffffffffffff168152602001908152602001600020546133229092919063ffffffff16565b606560008573ffffffffffffffffffffffffffffffffffffffff1673ffffffffffffffffffffffffffffffffffffffff1681526020019081526020016000208190555061327581606560008573ffffffffffffffffffffffffffffffffffffffff1673ffffffffffffffffffffffffffffffffffffffff168152602001908152602001600020546133dc90919063ffffffff16565b606560008473ffffffffffffffffffffffffffffffffffffffff1673ffffffffffffffffffffffffffffffffffffffff168152602001908152602001600020819055508173ffffffffffffffffffffffffffffffffffffffff168373ffffffffffffffffffffffffffffffffffffffff167fddf252ad1be2c89b69c2b068fc378daa952ba7f163c4a11628f55a4df523b3ef836040518082815260200191505060405180910390a3505050565b60008383111582906133cf576040517f08c379a00000000000000000000000000000000000000000000000000000000081526004018080602001828103825283818151815260200191508051906020019080838360005b83811015613394578082015181840152602081019050613379565b50505050905090810190601f1680156133c15780820380516001836020036101000a031916815260200191505b509250505060405180910390fd5b5082840390509392505050565b60008082840190508381101561345a576040517f08c379a000000000000000000000000000000000000000000000000000000000815260040180806020018281038252601b8152602001807f536166654d6174683a206164646974696f6e206f766572666c6f77000000000081525060200191505060405180910390fd5b8091505092915050565b858560008160ff161015801561347e575060098160ff1611155b6134f0576040517f08c379a00000000000000000000000000000000000000000000000000000000081526004018080602001828103825260158152602001807f496e76616c69642056657374696e6720496e646578000000000000000000000081525060200191505060405180910390fd5b600073ffffffffffffffffffffffffffffffffffffffff168273ffffffffffffffffffffffffffffffffffffffff161415613593576040517f08c379a000000000000000000000000000000000000000000000000000000000815260040180806020018281038252600f8152602001807f496e76616c69642041646472657373000000000000000000000000000000000081525060200191505060405180910390fd5b60fc60008373ffffffffffffffffffffffffffffffffffffffff1673ffffffffffffffffffffffffffffffffffffffff16815260200190815260200160002060008260ff1660ff16815260200190815260200160002060070160009054906101000a900460ff1615613650576040517f08c379a0000000000000000000000000000000000000000000000000000000008152600401808060200182810382526033815260200180614af16033913960400191505060405180910390fd5b6136586148c7565b6040518061014001604052808960ff1681526020018a73ffffffffffffffffffffffffffffffffffffffff168152602001888152602001428152602001868152602001878152602001858152602001600081526020016001151581526020016000151581525090508060fc60008b73ffffffffffffffffffffffffffffffffffffffff1673ffffffffffffffffffffffffffffffffffffffff16815260200190815260200160002060008a60ff1660ff16815260200190815260200160002060008201518160000160006101000a81548160ff021916908360ff16021790555060208201518160000160016101000a81548173ffffffffffffffffffffffffffffffffffffffff021916908373ffffffffffffffffffffffffffffffffffffffff16021790555060408201518160010155606082015181600201556080820151816003015560a0820151816004015560c0820151816005015560e082015181600601556101008201518160070160006101000a81548160ff0219169083151502179055506101208201518160070160016101000a81548160ff021916908315150217905550905050505050505050505050565b600061381830848461305d565b6001905092915050565b600061382d30614267565b15905090565b600060019054906101000a900460ff16806138525750613851613822565b5b8061386957506000809054906101000a900460ff16155b6138be576040517f08c379a000000000000000000000000000000000000000000000000000000000815260040180806020018281038252602e815260200180614ac3602e913960400191505060405180910390fd5b60008060019054906101000a900460ff16159050801561390e576001600060016101000a81548160ff02191690831515021790555060016000806101000a81548160ff0219169083151502179055505b61391661427a565b61391e614379565b801561393f5760008060016101000a81548160ff0219169083151502179055505b50565b600060019054906101000a900460ff16806139615750613960613822565b5b8061397857506000809054906101000a900460ff16155b6139cd576040517f08c379a000000000000000000000000000000000000000000000000000000000815260040180806020018281038252602e815260200180614ac3602e913960400191505060405180910390fd5b60008060019054906101000a900460ff161590508015613a1d576001600060016101000a81548160ff02191690831515021790555060016000806101000a81548160ff0219169083151502179055505b613a2561427a565b613a2f8383614521565b8015613a505760008060016101000a81548160ff0219169083151502179055505b505050565b600060019054906101000a900460ff1680613a745750613a73613822565b5b80613a8b57506000809054906101000a900460ff16155b613ae0576040517f08c379a000000000000000000000000000000000000000000000000000000000815260040180806020018281038252602e815260200180614ac3602e913960400191505060405180910390fd5b60008060019054906101000a900460ff161590508015613b30576001600060016101000a81548160ff02191690831515021790555060016000806101000a81548160ff0219169083151502179055505b613b3861427a565b613b4061466c565b613b48614786565b8015613b695760008060016101000a81548160ff0219169083151502179055505b50565b600073ffffffffffffffffffffffffffffffffffffffff168273ffffffffffffffffffffffffffffffffffffffff161415613c0f576040517f08c379a000000000000000000000000000000000000000000000000000000000815260040180806020018281038252601f8152602001807f45524332303a206d696e7420746f20746865207a65726f20616464726573730081525060200191505060405180910390fd5b613c1b600083836141f9565b613c30816067546133dc90919063ffffffff16565b606781905550613c8881606560008573ffffffffffffffffffffffffffffffffffffffff1673ffffffffffffffffffffffffffffffffffffffff168152602001908152602001600020546133dc90919063ffffffff16565b606560008473ffffffffffffffffffffffffffffffffffffffff1673ffffffffffffffffffffffffffffffffffffffff168152602001908152602001600020819055508173ffffffffffffffffffffffffffffffffffffffff16600073ffffffffffffffffffffffffffffffffffffffff167fddf252ad1be2c89b69c2b068fc378daa952ba7f163c4a11628f55a4df523b3ef836040518082815260200191505060405180910390a35050565b600080831415613d485760009050613db5565b6000828402905082848281613d5957fe5b0414613db0576040517f08c379a0000000000000000000000000000000000000000000000000000000008152600401808060200182810382526021815260200180614b246021913960400191505060405180910390fd5b809150505b92915050565b6000808211613e32576040517f08c379a000000000000000000000000000000000000000000000000000000000815260040180806020018281038252601a8152602001807f536166654d6174683a206469766973696f6e206279207a65726f00000000000081525060200191505060405180910390fd5b818381613e3b57fe5b04905092915050565b600082821115613ebc576040517f08c379a000000000000000000000000000000000000000000000000000000000815260040180806020018281038252601e8152602001807f536166654d6174683a207375627472616374696f6e206f766572666c6f77000081525060200191505060405180910390fd5b818303905092915050565b600062278d00905090565b6000613edc6148c7565b60fc60008573ffffffffffffffffffffffffffffffffffffffff1673ffffffffffffffffffffffffffffffffffffffff16815260200190815260200160002060008460ff1660ff168152602001908152602001600020604051806101400160405290816000820160009054906101000a900460ff1660ff1660ff1681526020016000820160019054906101000a900473ffffffffffffffffffffffffffffffffffffffff1673ffffffffffffffffffffffffffffffffffffffff1673ffffffffffffffffffffffffffffffffffffffff1681526020016001820154815260200160028201548152602001600382015481526020016004820154815260200160058201548152602001600682015481526020016007820160009054906101000a900460ff161515151581526020016007820160019054906101000a900460ff161515151581525050905060008160000151905060078160ff1610158015614046575060098160ff1611155b6140b8576040517f08c379a00000000000000000000000000000000000000000000000000000000081526004018080602001828103825260178152602001807f496e76616c69642053616c65205665737420496e64657800000000000000000081525060200191505060405180910390fd5b60006140c2610c3f565b905060008360600151905060006140e28284613e4490919063ffffffff16565b905060006140ee614885565b905060006141058284613dbb90919063ffffffff16565b9050600060078760ff16141561413857603c82118015614126575060d58211155b156141375767d02ab486cedc000090505b5b60088760ff16141561419057603c82118015614155575060788211155b1561416b576801158e460913d00000905061418f565b60788211801561417c575060968211155b1561418e5768015af1d78b58c4000090505b5b5b60098760ff1614156141e857603c821180156141ad5750605a8211155b156141c3576801158e460913d0000090506141e7565b605a821180156141d4575060788211155b156141e6576801a055690d9db8000090505b5b5b809850505050505050505092915050565b614204838383614890565b61420c6113f5565b15614262576040517f08c379a000000000000000000000000000000000000000000000000000000000815260040180806020018281038252602a815260200180614c5b602a913960400191505060405180910390fd5b505050565b600080823b905060008111915050919050565b600060019054906101000a900460ff16806142995750614298613822565b5b806142b057506000809054906101000a900460ff16155b614305576040517f08c379a000000000000000000000000000000000000000000000000000000000815260040180806020018281038252602e815260200180614ac3602e913960400191505060405180910390fd5b60008060019054906101000a900460ff161590508015614355576001600060016101000a81548160ff02191690831515021790555060016000806101000a81548160ff0219169083151502179055505b80156143765760008060016101000a81548160ff0219169083151502179055505b50565b600060019054906101000a900460ff16806143985750614397613822565b5b806143af57506000809054906101000a900460ff16155b614404576040517f08c379a000000000000000000000000000000000000000000000000000000000815260040180806020018281038252602e815260200180614ac3602e913960400191505060405180910390fd5b60008060019054906101000a900460ff161590508015614454576001600060016101000a81548160ff02191690831515021790555060016000806101000a81548160ff0219169083151502179055505b600061445e612e5e565b905080603360006101000a81548173ffffffffffffffffffffffffffffffffffffffff021916908373ffffffffffffffffffffffffffffffffffffffff1602179055508073ffffffffffffffffffffffffffffffffffffffff16600073ffffffffffffffffffffffffffffffffffffffff167f8be0079c531659141344cd1fd0a4f28419497f9722a3daafe3b4186f6b6457e060405160405180910390a350801561451e5760008060016101000a81548160ff0219169083151502179055505b50565b600060019054906101000a900460ff1680614540575061453f613822565b5b8061455757506000809054906101000a900460ff16155b6145ac576040517f08c379a000000000000000000000000000000000000000000000000000000000815260040180806020018281038252602e815260200180614ac3602e913960400191505060405180910390fd5b60008060019054906101000a900460ff1615905080156145fc576001600060016101000a81548160ff02191690831515021790555060016000806101000a81548160ff0219169083151502179055505b8260689080519060200190614612929190614937565b508160699080519060200190614629929190614937565b506012606a60006101000a81548160ff021916908360ff16021790555080156146675760008060016101000a81548160ff0219169083151502179055505b505050565b600060019054906101000a900460ff168061468b575061468a613822565b5b806146a257506000809054906101000a900460ff16155b6146f7576040517f08c379a000000000000000000000000000000000000000000000000000000000815260040180806020018281038252602e815260200180614ac3602e913960400191505060405180910390fd5b60008060019054906101000a900460ff161590508015614747576001600060016101000a81548160ff02191690831515021790555060016000806101000a81548160ff0219169083151502179055505b6000609760006101000a81548160ff02191690831515021790555080156147835760008060016101000a81548160ff0219169083151502179055505b50565b600060019054906101000a900460ff16806147a557506147a4613822565b5b806147bc57506000809054906101000a900460ff16155b614811576040517f08c379a000000000000000000000000000000000000000000000000000000000815260040180806020018281038252602e815260200180614ac3602e913960400191505060405180910390fd5b60008060019054906101000a900460ff161590508015614861576001600060016101000a81548160ff02191690831515021790555060016000806101000a81548160ff0219169083151502179055505b80156148825760008060016101000a81548160ff0219169083151502179055505b50565b600062015180905090565b505050565b6040518060a00160405280600060ff168152602001600081526020016000815260200160008152602001600081525090565b604051806101400160405280600060ff168152602001600073ffffffffffffffffffffffffffffffffffffffff1681526020016000815260200160008152602001600081526020016000815260200160008152602001600081526020016000151581526020016000151581525090565b828054600181600116156101000203166002900490600052602060002090601f016020900481019282601f1061497857805160ff19168380011785556149a6565b828001600101855582156149a6579182015b828111156149a557825182559160200191906001019061498a565b5b5090506149b391906149b7565b5090565b6149d991905b808211156149d55760008160009055506001016149bd565b5090565b9056fe45524332303a207472616e7366657220746f20746865207a65726f20616464726573734f776e61626c653a206e6577206f776e657220697320746865207a65726f206164647265737345524332303a20617070726f766520746f20746865207a65726f206164647265737345524332303a207472616e7366657220616d6f756e7420657863656564732062616c616e636555736572204e4f5420616464656420746f20616e792056657374696e672043617465676f727956657374696e672043617465676f727920646f65736e27742062656c6f6e6720746f2053414c452056457374696e67496e697469616c697a61626c653a20636f6e747261637420697320616c726561647920696e697469616c697a6564557365722056657374696e672044657461696c7320416c726561647920416464656420746f20746869732043617465676f7279536166654d6174683a206d756c7469706c69636174696f6e206f766572666c6f7745524332303a207472616e7366657220616d6f756e74206578636565647320616c6c6f77616e636554474520546f6b656e73204861766520616c7265616479206265656e20636c61696d656420666f7220476976656e2041646472657373546f6b656e2047656e65726174696f6e204576656e74204e6f7420537461727465642059657445524332303a207472616e736665722066726f6d20746865207a65726f206164647265737345524332303a20617070726f76652066726f6d20746865207a65726f20616464726573734e6f7420456e6f75676820546f6b656e2042616c616e636520696e20436f6e747261637445524332303a2064656372656173656420616c6c6f77616e63652062656c6f77207a65726f45524332305061757361626c653a20746f6b656e207472616e73666572207768696c6520706175736564a2646970667358221220d23a6a96cd7435f0316d9afbc87c9b5e17a1af6bf834943af1d9ea3a19d4c5bb64736f6c63430006020033",
  "source": "pragma solidity 0.6.2;\n// SPDX-License-Identifier: MIT\n\nimport \"@openzeppelin/contracts-upgradeable/token/ERC20/ERC20Upgradeable.sol\";\nimport \"@openzeppelin/contracts-upgradeable/math/SafeMathUpgradeable.sol\";\nimport \"@openzeppelin/contracts-upgradeable/access/OwnableUpgradeable.sol\";\nimport \"@openzeppelin/contracts-upgradeable/proxy/Initializable.sol\";\nimport \"@openzeppelin/contracts-upgradeable/token/ERC20/ERC20PausableUpgradeable.sol\";\nimport \"@openzeppelin/contracts-upgradeable/math/SafeMathUpgradeable.sol\";\n\n\ncontract PlaycentToken is Initializable,OwnableUpgradeable,ERC20PausableUpgradeable{\n\tusing SafeMathUpgradeable for uint;\n\t/**\n\t * Category 0 - Team\n\t * Category 1 - Operations\n\t * Category 2 - Marketing/Partners\n\t * Category 3 - Advisors\n\t * Category 4 - Staking/Earn Incentives\n\t * Category 5 - Play/Mining\n\t * Category 6 - Reserve\n\t * Category 7 - Seed Sale\n\t * Category 8 - Private 1\n\t * Category 9 - Private 2\n\t */\n\tstruct vestingDetails{\n\t\tuint8 categoryId;\n\t\tuint cliff;\n\t\tuint lockUpPeriod;\n\t\tuint vestPercentage;\n\t\tuint totalAllocatedToken;\n\t}\n\n\tstruct vestAccountDetails{\n\t\tuint8 categoryId;\n\t\taddress walletAddress;\n\t\tuint totalAmount;\n\t\tuint startTime;\n\t\tuint vestingDuration;\n\t\tuint vestingCliff;\n\t\tuint vestingPercent;\n\t\tuint totalAmountClaimed;\n\t\tbool isVesting;\n\t\tbool tgeTokensClaimed;\n\t}\n\nmapping (uint => vestingDetails) public vestCategory;\nmapping(address => mapping(uint8 => vestAccountDetails)) public userToVestingDetails;\n\t\n\tfunction initialize() initializer public{\n\t\t__Ownable_init();\n        __ERC20_init('Playcent','PCNT');\t\t\n\t\t__ERC20Pausable_init();\n\t\t_mint(owner(),60000000 ether);\n \t\t\n \t\tvestCategory[0] = vestingDetails(0,360 days,960 days,5 ether,9000000 ether); // Team\n\t\tvestCategory[1] = vestingDetails(1,90 days, 390 days,10 ether,4800000 ether); // Operations\n\t\tvestCategory[2] = vestingDetails(2,90 days, 390 days,10 ether,4800000 ether); // Marketing/Partners\n\t\tvestCategory[3] = vestingDetails(3,30 days, 330 days,10 ether,2400000 ether); // Advisors\n\t\tvestCategory[4] = vestingDetails(4,7 days, 300 days,10 ether,4800000 ether); //Staking/Early Incentive Rewards\n\t\tvestCategory[5] = vestingDetails(5,90 days, 840 days,4 ether,9000000 ether); //Play Mining\t\n\t\tvestCategory[6] = vestingDetails(6,180 days, 900 days,4160000000000000000,4200000 ether); //Reserve\t\n\t\t// Sale Vesting Strategies\n\t\tvestCategory[7] = vestingDetails(7,60 days,210 days,10 ether,5700000 ether); // Seed Sale\n\t\tvestCategory[8] = vestingDetails(8,60 days,150 days,15 ether,5400000 ether); // Private Sale 1\n\t\tvestCategory[9] = vestingDetails(9,60 days,120 days,20 ether,5100000 ether); // Private Sale 2\n\t}\n\n\n\t\n\tmodifier onlyValidVestingBenifciary(address _userAddresses,uint8 _vestingIndex) { \n\t\trequire(_vestingIndex >= 0 && _vestingIndex <= 9,\"Invalid Vesting Index\");\t\t  \n\t\trequire (_userAddresses != address(0),\"Invalid Address\");\n\t\trequire (!userToVestingDetails[_userAddresses][_vestingIndex].isVesting,\"User Vesting Details Already Added to this Category\");\n\t\t_; \n\t}\n\n\tmodifier checkValidVestingCategory(uint8 _index){ \n\t\trequire(_index >= 0 && _index <= 9,\"Invalid Vesting Index\");\n\t\t_; \n\t}\n\n\tmodifier checkVestingStatus(address _userAddresses,uint8 _vestingIndex){ \n\t \trequire (userToVestingDetails[_userAddresses][_vestingIndex].isVesting,\"User NOT added to any Vesting Category\");\n\t\t_; \n\t}\n\n\tfunction getCurrentTime() public view returns(uint256){\n\t\treturn block.timestamp;\n\t}\t\n\n\tfunction monthInSeconds() internal pure returns(uint256){\t\t\n\t\treturn 2592000;\n\t}\n\t\n\tfunction daysInSeconds() internal pure returns(uint256){\t\t\n\t\treturn 86400;\n\t}\n\n\tfunction  getTgeTIME() public pure returns(uint256){\n\t\treturn 1615746600; // March 15th\n\t}\n\t\n\t/**\n\t * @notice - Allows only the Owner to ADD an array of Addresses as well as their Vesting Amount\n\t \t\t   - The array of user and amounts should be passed along with the vestingCategory Index. \n\t \t\t   - Thus, a particular batch of addresses shall be added under only one Vesting Category Index \n\t * @param _userAddresses array of addresses of the Users\n\t * @param _vestingAmounts array of amounts to be vested\n\t * @param _vestnigType allows the owner to select the type of vesting category\n\t * @return - true if Function executes successfully\n\t */\n\n\tfunction addVestingDetails(address[] calldata _userAddresses, uint256[] calldata _vestingAmounts, uint8 _vestnigType) external onlyOwner returns(bool){\n\t\trequire(_userAddresses.length == _vestingAmounts.length,\"Unequal arrays passed\");\n\n\t\tvestingDetails memory vestData = vestCategory[_vestnigType];\n\t\tuint arrayLength = _userAddresses.length;\n\n\t\tfor(uint i= 0; i<arrayLength; i++){\n\t\t\tuint8 categoryId = _vestnigType;\n\t\t\taddress user = _userAddresses[i];\n\t\t\tuint256 amount = _vestingAmounts[i];\n\t\t\tuint256 vestingDuration = vestData.lockUpPeriod;\n\t\t\tuint256 vestingCliff = vestData.cliff;\n\t\t\tuint256 vestPercent = vestData.vestPercentage;\n\n\n\t\t\taddUserVestingDetails(user,categoryId,amount,vestingCliff,vestingDuration,vestPercent);\n\t\t}\n\t\treturn true;\n\t}\n\n\n\t/** @notice - Internal functions that is initializes the vestAccountDetails Struct with the respective arguments passed\n\t * @param _userAddresses addresses of the User\n\t * @param _totalAmount total amount to be lockedUp\n\t * @param _categoryId denotes the type of vesting selected\n\t * @param _vestingCliff denotes the cliff of the vesting category selcted\n\t * @param _vestingDuration denotes the total duration of the vesting category selcted\n\t * @param _vestPercent denotes the percentage of total amount to be vested after cliff period\n\t */\n\t \n\tfunction addUserVestingDetails(address _userAddresses, uint8 _categoryId, uint256 _totalAmount, uint256 _vestingCliff, uint256 _vestingDuration,uint256 _vestPercent) onlyValidVestingBenifciary(_userAddresses,_categoryId) internal{\t\n\t\tvestAccountDetails memory userVestingData = vestAccountDetails(\n\t\t\t_categoryId,\n\t\t\t_userAddresses,\n\t\t\t_totalAmount,\n\t\t\tblock.timestamp,\n\t\t\t_vestingDuration,\n\t\t\t_vestingCliff,\n\t\t\t_vestPercent,\n\t\t\t0,\n\t\t\ttrue,\n\t\t\tfalse\t\n\t\t);\n\t\tuserToVestingDetails[_userAddresses][_categoryId] = userVestingData;\n\t}\n\n\t/**\n\t * @notice Calculates the Variable Rate of Vest depending on the amount of time(months) elapsed\n\t * @param user address of the User  \n\t */\n\tfunction _getSaleVestRate(address user,uint8 _vestingIndex) internal view returns(uint256){\n\t\tvestAccountDetails memory vestingData = userToVestingDetails[user][_vestingIndex];\n\t\tuint8 category = vestingData.categoryId;\n\t\t//Check whether the category id is of any particular Sale(Seed,Private 1 or Private 2)\n\t\trequire(category >= 7 && category <= 9,\"Invalid Sale Vest Index\");\n\n\t\tuint256 currentTime = getCurrentTime();\n\t\tuint256 userStartTime = vestingData.startTime;\n\t\tuint256 timeElapsed = currentTime.sub(userStartTime);\n\t\tuint256 oneDayInSeconds = daysInSeconds();\n\n\t\tuint256 timeElapsedInDays = timeElapsed.div(oneDayInSeconds);\n\t\tuint256 currentVestRate;\n\n\t\tif(category == 7){\n            if(timeElapsedInDays > 60 && timeElapsedInDays <= 213 ){\n            \tcurrentVestRate = 15 ether;\n            }\n\t\t}\n\t\tif(category == 8){\n            if(timeElapsedInDays > 60 && timeElapsedInDays <= 120 ){\n            \tcurrentVestRate = 20 ether;\n            }else if(timeElapsedInDays > 120 && timeElapsedInDays <= 150 ){\n            \tcurrentVestRate = 25 ether;\n            }\n\t\t}\n\t\tif(category == 9){\n            if(timeElapsedInDays > 60 && timeElapsedInDays <= 90 ){\n            \tcurrentVestRate = 20 ether;\n            }else if(timeElapsedInDays > 90 && timeElapsedInDays <= 120 ){\n            \tcurrentVestRate = 30 ether;\n            }\n\t\t}\n\t\treturn currentVestRate;\n\t}\n\n\tfunction getVestingRate(address _userAddresses,uint8 _vestingIndex) public checkVestingStatus(_userAddresses,_vestingIndex) view returns(uint256){\n\t\tuint256 vestRate;\n\t\tvestAccountDetails memory vestData = userToVestingDetails[_userAddresses][_vestingIndex];\n\n\t\tif(vestData.categoryId <= 6){\n\t \t\tvestRate = vestData.vestingPercent;\n\t \t}else{\n\t \t\tvestRate = _getSaleVestRate(_userAddresses,_vestingIndex);\n\t \t}\n\n\t \treturn vestRate;\n\t}\n\t\n   /**\n\t * @notice Calculates the amount of tokens to be transferred at any given point of time\n\t * @param _userAddresses address of the User  \n\t */\n\t function calculateClaimableTokens(address _userAddresses,uint8 _vestingIndex) public view checkVestingStatus(_userAddresses,_vestingIndex) returns(uint256){\t \t\n\t \t// Get Vesting Details\n\t \tvestAccountDetails memory vestData = userToVestingDetails[_userAddresses][_vestingIndex];\n\t \t\n\t \tuint256 vestRate;\n\t \tuint256 totalClaimableAmount;\n\t \tuint256 vestStartTime = vestData.startTime;\n\t \tuint256 currentTime = getCurrentTime();\n\t \tuint256 vestCliff = vestStartTime.add(vestData.vestingCliff);\n\t \tuint256 vestDuration = vestStartTime.add(vestData.vestingDuration);\n\t \t\n\t \t\n\t \tuint256 timeElapsed = currentTime.sub(vestStartTime);\n\t \tuint256 oneMonthInSeconds = monthInSeconds();\n\n\t\tvestRate = getVestingRate(_userAddresses,_vestingIndex);\n\t \t// Finally check the Claimable Amount by comparing the timeElapsed with the Current Time\n\n\t \tif(currentTime < vestCliff){  // If Vesting Cliff is not reached yet\n\t \t\treturn 0;\n\t \t}else if(currentTime > vestDuration){ // If total duration of Vesting already crossed\n\t \t\ttotalClaimableAmount = vestData.totalAmount.sub(vestData.totalAmountClaimed);\n\t \t}else{ // if current time has crossed the Vesting Cliff but not the total Vesting Duration\n\t \t\t\n\t \t\tuint256 amountPerMonth = (vestData.totalAmount.mul(vestRate)).div(100000000000000000000);\n\t \t\tuint256 totalMonthsElapsed = timeElapsed.div(oneMonthInSeconds);\n\t \t\t\n\t \t\t// Calculating Actual Months(Excluding the CLIFF) to initiate vesting\n\t \t\t\n\t \t\tuint actualMonthElapsed = totalMonthsElapsed.sub(vestData.vestingCliff.div(oneMonthInSeconds)); \n\t \t\trequire (actualMonthElapsed > 0,\"Number of months elapsed is ZERO\");\n\t \t\ttotalClaimableAmount = (amountPerMonth.mul(actualMonthElapsed)).sub(vestData.totalAmountClaimed);\n\t \t}\n\t \treturn totalClaimableAmount;\n\n\t }\n\t \n\n   /**\n\t * @notice An Internal Function to transfer tokens from this contract to the user\n\t * @param _beneficiary address of the User  \n\t * @param _amountOfTokens number of tokens to be transferred\n\t */\n\tfunction _sendTokens(address _beneficiary, uint256 _amountOfTokens) internal returns(bool){\n\t\t_transfer(address(this),_beneficiary,_amountOfTokens);\n\t\treturn true;\n\t}\n\n\t/**\n\t * @notice Calculates and Transfer the total tokens to be transferred to the user after Token Generation Event is over\n\t * @dev The function shall only work for users under Sale Vesting Category(index - 7,8,9). \n\t * @dev The function can only be called once by the user(only if the tgeTokensClaimed boolean value is FALSE). \n\t * Once the tokens have been transferred, tgeTokensClaimed becomes TRUE for that particular address\n\t * @param _userAddresses address of the User  \n\t */\n\tfunction  claimTGETokens(address _userAddresses,uint8 _vestingIndex) external checkVestingStatus(_userAddresses,_vestingIndex) returns(bool){\n\t\tuint256 currentTime = getCurrentTime();\n\t\trequire (currentTime>getTgeTIME(), \"Token Generation Event Not Started Yet\");\n\t\t// Get Vesting Details\n\t \tvestAccountDetails memory vestData = userToVestingDetails[_userAddresses][_vestingIndex];\n\n\t \trequire (vestData.categoryId >= 7 && vestData.categoryId <= 9, \"Vesting Category doesn't belong to SALE VEsting\" );\n\t \trequire (vestData.tgeTokensClaimed == false, \"TGE Tokens Have already been claimed for Given Address\");\n\t \t\n\t \tuint256 totalAmount = vestData.totalAmount;\n\t \tuint256 vestRate = vestData.vestingPercent;\n\n\t \tuint256 tokensToTransfer = totalAmount.mul(vestRate).div(100000000000000000000);\n\n\t \t// Updating Contract State\n\t \tvestData.totalAmountClaimed += tokensToTransfer;\n\t\tvestData.tgeTokensClaimed = true;\n\t\tuserToVestingDetails[_userAddresses][_vestingIndex] = vestData;\n\t\t_sendTokens(_userAddresses,tokensToTransfer);\n\n\n\t}\n\t\n\t/**\n\t * @notice Calculates and Transfers the total tokens to be transferred to the user by calculating the Amount of tokens to be transferred at the given time\n\t * @dev The function shall only work for users under Vesting Category is valid(index - 1 to 9). \n\t * @dev isVesting becomes false if all allocated tokens have been claimed.\n\t * @dev User cannot claim more tokens than actually allocated to them by the OWNER\n\t * @param _userAddresses address of the User  \n\t */\n\tfunction claimVestTokens(address _userAddresses,uint8 _vestingIndex) external checkVestingStatus(_userAddresses,_vestingIndex) returns(bool){\n\t\t// Get Vesting Details\n\t \tvestAccountDetails memory vestData = userToVestingDetails[_userAddresses][_vestingIndex];\n\t\t\n\t\t// Get total token amount to be transferred\n\t\tuint256 tokensToTransfer = calculateClaimableTokens(_userAddresses,_vestingIndex);\n\t\tuint256 contractTokenBalance = balanceOf(address(this));\n\t\trequire(contractTokenBalance > tokensToTransfer,\"Not Enough Token Balance in Contract\");\n\t\trequire(vestData.totalAmountClaimed.add(tokensToTransfer) <= vestData.totalAmount,\"Cannot Claim more than Allocated\");\n\t\t\n\n\t\tvestData.totalAmountClaimed += tokensToTransfer;\n\t\tif(vestData.totalAmountClaimed == vestData.totalAmount){\n\t\t\tvestData.isVesting = false;\n\t\t}\n\t\tuserToVestingDetails[_userAddresses][_vestingIndex] = vestData;\n\t\t_sendTokens(_userAddresses,tokensToTransfer);\n\t}\n\t\n\t\n}",
  "sourcePath": "/home/zaryab/blockchain_begins/all_about_ethereum/quillHash_CODES/bloqueLabs/playcentGIT/ico-contract/contracts/pcntTokenVesting.sol",
  "compiler": {
    "name": "solc",
    "version": "0.6.2+commit.bacdbe57.Linux.g++"
  },
  "schemaVersion": "3.3.3",
  "updatedAt": "2021-02-27T06:38:37.398Z",
  "networkType": "ethereum",
  "devdoc": {
    "methods": {
      "addVestingDetails(address[],uint256[],uint8)": {
        "params": {
          "_userAddresses": "array of addresses of the Users",
          "_vestingAmounts": "array of amounts to be vested",
          "_vestnigType": "allows the owner to select the type of vesting category"
        },
        "returns": {
          "_0": "- true if Function executes successfully"
        }
      },
      "allowance(address,address)": {
        "details": "See {IERC20-allowance}."
      },
      "approve(address,uint256)": {
        "details": "See {IERC20-approve}.     * Requirements:     * - `spender` cannot be the zero address."
      },
      "balanceOf(address)": {
        "details": "See {IERC20-balanceOf}."
      },
      "calculateClaimableTokens(address,uint8)": {
        "params": {
          "_userAddresses": "address of the User  "
        }
      },
      "claimTGETokens(address,uint8)": {
        "details": "The function shall only work for users under Sale Vesting Category(index - 7,8,9). The function can only be called once by the user(only if the tgeTokensClaimed boolean value is FALSE).  Once the tokens have been transferred, tgeTokensClaimed becomes TRUE for that particular address",
        "params": {
          "_userAddresses": "address of the User  "
        }
      },
      "claimVestTokens(address,uint8)": {
        "details": "The function shall only work for users under Vesting Category is valid(index - 1 to 9). isVesting becomes false if all allocated tokens have been claimed.User cannot claim more tokens than actually allocated to them by the OWNER",
        "params": {
          "_userAddresses": "address of the User  "
        }
      },
      "decimals()": {
        "details": "Returns the number of decimals used to get its user representation. For example, if `decimals` equals `2`, a balance of `505` tokens should be displayed to a user as `5,05` (`505 / 10 ** 2`).     * Tokens usually opt for a value of 18, imitating the relationship between Ether and Wei. This is the value {ERC20} uses, unless {_setupDecimals} is called.     * NOTE: This information is only used for _display_ purposes: it in no way affects any of the arithmetic of the contract, including {IERC20-balanceOf} and {IERC20-transfer}."
      },
      "decreaseAllowance(address,uint256)": {
        "details": "Atomically decreases the allowance granted to `spender` by the caller.     * This is an alternative to {approve} that can be used as a mitigation for problems described in {IERC20-approve}.     * Emits an {Approval} event indicating the updated allowance.     * Requirements:     * - `spender` cannot be the zero address. - `spender` must have allowance for the caller of at least `subtractedValue`."
      },
      "increaseAllowance(address,uint256)": {
        "details": "Atomically increases the allowance granted to `spender` by the caller.     * This is an alternative to {approve} that can be used as a mitigation for problems described in {IERC20-approve}.     * Emits an {Approval} event indicating the updated allowance.     * Requirements:     * - `spender` cannot be the zero address."
      },
      "name()": {
        "details": "Returns the name of the token."
      },
      "owner()": {
        "details": "Returns the address of the current owner."
      },
      "paused()": {
        "details": "Returns true if the contract is paused, and false otherwise."
      },
      "renounceOwnership()": {
        "details": "Leaves the contract without owner. It will not be possible to call `onlyOwner` functions anymore. Can only be called by the current owner.     * NOTE: Renouncing ownership will leave the contract without an owner, thereby removing any functionality that is only available to the owner."
      },
      "symbol()": {
        "details": "Returns the symbol of the token, usually a shorter version of the name."
      },
      "totalSupply()": {
        "details": "See {IERC20-totalSupply}."
      },
      "transfer(address,uint256)": {
        "details": "See {IERC20-transfer}.     * Requirements:     * - `recipient` cannot be the zero address. - the caller must have a balance of at least `amount`."
      },
      "transferFrom(address,address,uint256)": {
        "details": "See {IERC20-transferFrom}.     * Emits an {Approval} event indicating the updated allowance. This is not required by the EIP. See the note at the beginning of {ERC20}.     * Requirements:     * - `sender` and `recipient` cannot be the zero address. - `sender` must have a balance of at least `amount`. - the caller must have allowance for ``sender``'s tokens of at least `amount`."
      },
      "transferOwnership(address)": {
        "details": "Transfers ownership of the contract to a new account (`newOwner`). Can only be called by the current owner."
      }
    }
  },
  "userdoc": {
    "methods": {
      "addVestingDetails(address[],uint256[],uint8)": {
        "notice": "- Allows only the Owner to ADD an array of Addresses as well as their Vesting Amount - The array of user and amounts should be passed along with the vestingCategory Index.  - Thus, a particular batch of addresses shall be added under only one Vesting Category Index "
      },
      "calculateClaimableTokens(address,uint8)": {
        "notice": "Calculates the amount of tokens to be transferred at any given point of time"
      },
      "claimTGETokens(address,uint8)": {
        "notice": "Calculates and Transfer the total tokens to be transferred to the user after Token Generation Event is over"
      },
      "claimVestTokens(address,uint8)": {
        "notice": "Calculates and Transfers the total tokens to be transferred to the user by calculating the Amount of tokens to be transferred at the given time"
      }
    }
  }
}