{
  "contractName": "PlayToken",
  "abi": [
    {
      "anonymous": false,
      "inputs": [
        {
          "indexed": true,
          "internalType": "address",
          "name": "owner",
          "type": "address"
        },
        {
          "indexed": true,
          "internalType": "address",
          "name": "spender",
          "type": "address"
        },
        {
          "indexed": false,
          "internalType": "uint256",
          "name": "value",
          "type": "uint256"
        }
      ],
      "name": "Approval",
      "type": "event"
    },
    {
      "anonymous": false,
      "inputs": [
        {
          "indexed": true,
          "internalType": "address",
          "name": "previousOwner",
          "type": "address"
        },
        {
          "indexed": true,
          "internalType": "address",
          "name": "newOwner",
          "type": "address"
        }
      ],
      "name": "OwnershipTransferred",
      "type": "event"
    },
    {
      "anonymous": false,
      "inputs": [
        {
          "indexed": false,
          "internalType": "address",
          "name": "account",
          "type": "address"
        }
      ],
      "name": "Paused",
      "type": "event"
    },
    {
      "anonymous": false,
      "inputs": [
        {
          "indexed": true,
          "internalType": "address",
          "name": "from",
          "type": "address"
        },
        {
          "indexed": true,
          "internalType": "address",
          "name": "to",
          "type": "address"
        },
        {
          "indexed": false,
          "internalType": "uint256",
          "name": "value",
          "type": "uint256"
        }
      ],
      "name": "Transfer",
      "type": "event"
    },
    {
      "anonymous": false,
      "inputs": [
        {
          "indexed": false,
          "internalType": "address",
          "name": "account",
          "type": "address"
        }
      ],
      "name": "Unpaused",
      "type": "event"
    },
    {
      "inputs": [
        {
          "internalType": "address",
          "name": "owner",
          "type": "address"
        },
        {
          "internalType": "address",
          "name": "spender",
          "type": "address"
        }
      ],
      "name": "allowance",
      "outputs": [
        {
          "internalType": "uint256",
          "name": "",
          "type": "uint256"
        }
      ],
      "stateMutability": "view",
      "type": "function"
    },
    {
      "inputs": [
        {
          "internalType": "address",
          "name": "spender",
          "type": "address"
        },
        {
          "internalType": "uint256",
          "name": "amount",
          "type": "uint256"
        }
      ],
      "name": "approve",
      "outputs": [
        {
          "internalType": "bool",
          "name": "",
          "type": "bool"
        }
      ],
      "stateMutability": "nonpayable",
      "type": "function"
    },
    {
      "inputs": [
        {
          "internalType": "address",
          "name": "account",
          "type": "address"
        }
      ],
      "name": "balanceOf",
      "outputs": [
        {
          "internalType": "uint256",
          "name": "",
          "type": "uint256"
        }
      ],
      "stateMutability": "view",
      "type": "function"
    },
    {
      "inputs": [],
      "name": "decimals",
      "outputs": [
        {
          "internalType": "uint8",
          "name": "",
          "type": "uint8"
        }
      ],
      "stateMutability": "view",
      "type": "function"
    },
    {
      "inputs": [
        {
          "internalType": "address",
          "name": "spender",
          "type": "address"
        },
        {
          "internalType": "uint256",
          "name": "subtractedValue",
          "type": "uint256"
        }
      ],
      "name": "decreaseAllowance",
      "outputs": [
        {
          "internalType": "bool",
          "name": "",
          "type": "bool"
        }
      ],
      "stateMutability": "nonpayable",
      "type": "function"
    },
    {
      "inputs": [
        {
          "internalType": "address",
          "name": "spender",
          "type": "address"
        },
        {
          "internalType": "uint256",
          "name": "addedValue",
          "type": "uint256"
        }
      ],
      "name": "increaseAllowance",
      "outputs": [
        {
          "internalType": "bool",
          "name": "",
          "type": "bool"
        }
      ],
      "stateMutability": "nonpayable",
      "type": "function"
    },
    {
      "inputs": [],
      "name": "name",
      "outputs": [
        {
          "internalType": "string",
          "name": "",
          "type": "string"
        }
      ],
      "stateMutability": "view",
      "type": "function"
    },
    {
      "inputs": [],
      "name": "owner",
      "outputs": [
        {
          "internalType": "address",
          "name": "",
          "type": "address"
        }
      ],
      "stateMutability": "view",
      "type": "function"
    },
    {
      "inputs": [],
      "name": "paused",
      "outputs": [
        {
          "internalType": "bool",
          "name": "",
          "type": "bool"
        }
      ],
      "stateMutability": "view",
      "type": "function"
    },
    {
      "inputs": [],
      "name": "renounceOwnership",
      "outputs": [],
      "stateMutability": "nonpayable",
      "type": "function"
    },
    {
      "inputs": [],
      "name": "symbol",
      "outputs": [
        {
          "internalType": "string",
          "name": "",
          "type": "string"
        }
      ],
      "stateMutability": "view",
      "type": "function"
    },
    {
      "inputs": [],
      "name": "totalSupply",
      "outputs": [
        {
          "internalType": "uint256",
          "name": "",
          "type": "uint256"
        }
      ],
      "stateMutability": "view",
      "type": "function"
    },
    {
      "inputs": [
        {
          "internalType": "address",
          "name": "recipient",
          "type": "address"
        },
        {
          "internalType": "uint256",
          "name": "amount",
          "type": "uint256"
        }
      ],
      "name": "transfer",
      "outputs": [
        {
          "internalType": "bool",
          "name": "",
          "type": "bool"
        }
      ],
      "stateMutability": "nonpayable",
      "type": "function"
    },
    {
      "inputs": [
        {
          "internalType": "address",
          "name": "sender",
          "type": "address"
        },
        {
          "internalType": "address",
          "name": "recipient",
          "type": "address"
        },
        {
          "internalType": "uint256",
          "name": "amount",
          "type": "uint256"
        }
      ],
      "name": "transferFrom",
      "outputs": [
        {
          "internalType": "bool",
          "name": "",
          "type": "bool"
        }
      ],
      "stateMutability": "nonpayable",
      "type": "function"
    },
    {
      "inputs": [
        {
          "internalType": "address",
          "name": "newOwner",
          "type": "address"
        }
      ],
      "name": "transferOwnership",
      "outputs": [],
      "stateMutability": "nonpayable",
      "type": "function"
    },
    {
      "inputs": [
        {
          "internalType": "uint256",
          "name": "",
          "type": "uint256"
        }
      ],
      "name": "vestTypes",
      "outputs": [
        {
          "internalType": "uint8",
          "name": "indexId",
          "type": "uint8"
        },
        {
          "internalType": "uint8",
          "name": "lockPeriod",
          "type": "uint8"
        },
        {
          "internalType": "uint8",
          "name": "vestingDuration",
          "type": "uint8"
        },
        {
          "internalType": "uint8",
          "name": "tgePercent",
          "type": "uint8"
        },
        {
          "internalType": "uint8",
          "name": "monthlyPercent",
          "type": "uint8"
        },
        {
          "internalType": "uint256",
          "name": "totalTokenAllocation",
          "type": "uint256"
        }
      ],
      "stateMutability": "view",
      "type": "function"
    },
    {
      "inputs": [
        {
          "internalType": "address",
          "name": "",
          "type": "address"
        },
        {
          "internalType": "uint8",
          "name": "",
          "type": "uint8"
        }
      ],
      "name": "walletToVestAllocations",
      "outputs": [
        {
          "internalType": "uint8",
          "name": "vestIndexID",
          "type": "uint8"
        },
        {
          "internalType": "uint256",
          "name": "totalTokensAllocated",
          "type": "uint256"
        },
        {
          "internalType": "uint256",
          "name": "totalTGETokens",
          "type": "uint256"
        },
        {
          "internalType": "uint256",
          "name": "monthlyTokens",
          "type": "uint256"
        },
        {
          "internalType": "uint8",
          "name": "vestingDuration",
          "type": "uint8"
        },
        {
          "internalType": "uint8",
          "name": "lockPeriod",
          "type": "uint8"
        },
        {
          "internalType": "uint256",
          "name": "totalVestTokensClaimed",
          "type": "uint256"
        },
        {
          "internalType": "bool",
          "name": "isVesting",
          "type": "bool"
        },
        {
          "internalType": "bool",
          "name": "isTgeTokensClaimed",
          "type": "bool"
        }
      ],
      "stateMutability": "view",
      "type": "function"
    },
    {
      "inputs": [
        {
          "internalType": "address",
          "name": "_PublicSaleAddress",
          "type": "address"
        }
      ],
      "name": "initialize",
      "outputs": [],
      "stateMutability": "nonpayable",
      "type": "function"
    },
    {
      "inputs": [],
      "name": "getCurrentTime",
      "outputs": [
        {
          "internalType": "uint256",
          "name": "",
          "type": "uint256"
        }
      ],
      "stateMutability": "view",
      "type": "function"
    },
    {
      "inputs": [],
      "name": "getTgeTIME",
      "outputs": [
        {
          "internalType": "uint256",
          "name": "",
          "type": "uint256"
        }
      ],
      "stateMutability": "pure",
      "type": "function"
    },
    {
      "inputs": [
        {
          "internalType": "uint256",
          "name": "x",
          "type": "uint256"
        },
        {
          "internalType": "uint256",
          "name": "y",
          "type": "uint256"
        },
        {
          "internalType": "uint256",
          "name": "z",
          "type": "uint256"
        }
      ],
      "name": "getTokenAmount",
      "outputs": [
        {
          "internalType": "uint256",
          "name": "",
          "type": "uint256"
        }
      ],
      "stateMutability": "pure",
      "type": "function"
    },
    {
      "inputs": [
        {
          "internalType": "address[]",
          "name": "_userAddresses",
          "type": "address[]"
        },
        {
          "internalType": "uint256[]",
          "name": "_vestingAmounts",
          "type": "uint256[]"
        },
        {
          "internalType": "uint8",
          "name": "_vestnigType",
          "type": "uint8"
        }
      ],
      "name": "addVestingDetails",
      "outputs": [
        {
          "internalType": "bool",
          "name": "",
          "type": "bool"
        }
      ],
      "stateMutability": "nonpayable",
      "type": "function"
    },
    {
      "inputs": [
        {
          "internalType": "address",
          "name": "_userAddresses",
          "type": "address"
        },
        {
          "internalType": "uint8",
          "name": "_vestingIndex",
          "type": "uint8"
        }
      ],
      "name": "totalTokensClaimed",
      "outputs": [
        {
          "internalType": "uint256",
          "name": "",
          "type": "uint256"
        }
      ],
      "stateMutability": "view",
      "type": "function"
    },
    {
      "inputs": [
        {
          "internalType": "address",
          "name": "_userAddresses",
          "type": "address"
        },
        {
          "internalType": "uint8",
          "name": "_vestingIndex",
          "type": "uint8"
        }
      ],
      "name": "calculateClaimableTokens",
      "outputs": [
        {
          "internalType": "uint256",
          "name": "",
          "type": "uint256"
        }
      ],
      "stateMutability": "view",
      "type": "function"
    },
    {
      "inputs": [
        {
          "internalType": "address",
          "name": "_userAddresses",
          "type": "address"
        },
        {
          "internalType": "uint8",
          "name": "_vestingIndex",
          "type": "uint8"
        }
      ],
      "name": "claimTGETokensOnlyOwner",
      "outputs": [
        {
          "internalType": "bool",
          "name": "",
          "type": "bool"
        }
      ],
      "stateMutability": "nonpayable",
      "type": "function"
    },
    {
      "inputs": [
        {
          "internalType": "uint8",
          "name": "_vestingIndex",
          "type": "uint8"
        }
      ],
      "name": "claimTGETokens",
      "outputs": [
        {
          "internalType": "bool",
          "name": "",
          "type": "bool"
        }
      ],
      "stateMutability": "nonpayable",
      "type": "function"
    },
    {
      "inputs": [
        {
          "internalType": "address",
          "name": "_userAddresses",
          "type": "address"
        },
        {
          "internalType": "uint8",
          "name": "_vestingIndex",
          "type": "uint8"
        }
      ],
      "name": "claimVestTokensOnlyOwner",
      "outputs": [
        {
          "internalType": "bool",
          "name": "",
          "type": "bool"
        }
      ],
      "stateMutability": "nonpayable",
      "type": "function"
    },
    {
      "inputs": [
        {
          "internalType": "uint8",
          "name": "_vestingIndex",
          "type": "uint8"
        }
      ],
      "name": "claimVestTokens",
      "outputs": [
        {
          "internalType": "bool",
          "name": "",
          "type": "bool"
        }
      ],
      "stateMutability": "nonpayable",
      "type": "function"
    },
    {
      "inputs": [],
      "name": "pullRemainingTokens",
      "outputs": [
        {
          "internalType": "bool",
          "name": "",
          "type": "bool"
        }
      ],
      "stateMutability": "nonpayable",
      "type": "function"
    }
  ],
  "bytecode": "0x608060405234801561001057600080fd5b5061526d806100206000396000f3fe608060405234801561001057600080fd5b50600436106101ec576000357c010000000000000000000000000000000000000000000000000000000090048063655894c21161012157806395d89b41116100bf578063c4d66de81161008e578063c4d66de814610acf578063dd62ed3e14610b13578063f2fde38b14610b8b578063f70c12d314610bcf576101ec565b806395d89b4114610962578063a457c2d7146109e5578063a9059cbb14610a4b578063b09ee19314610ab1576101ec565b80638da5cb5b116100fb5780638da5cb5b146107b35780638f9335e4146107fd5780639301854714610862578063943e7b7b14610919576101ec565b8063655894c21461070857806370a0823114610751578063715018a6146107a9576101ec565b8063313ce5671161018e5780633950935111610168578063395093511461056b5780633c569d2c146105d157806352985d2a146105f35780635c975abb146106e6576101ec565b8063313ce5671461045b578063316fb2f51461047f57806337285ee914610502576101ec565b806318160ddd116101ca57806318160ddd1461034357806323b872dd1461036157806329cb924d146103e75780632be7d64814610405576101ec565b806306fdde03146101f1578063095ea7b31461027457806317228d1e146102da575b600080fd5b6101f9610c34565b6040518080602001828103825283818151815260200191508051906020019080838360005b8381101561023957808201518184015260208101905061021e565b50505050905090810190601f1680156102665780820380516001836020036101000a031916815260200191505b509250505060405180910390f35b6102c06004803603604081101561028a57600080fd5b81019080803573ffffffffffffffffffffffffffffffffffffffff16906020019092919080359060200190929190505050610cd6565b604051808215151515815260200191505060405180910390f35b610329600480360360408110156102f057600080fd5b81019080803573ffffffffffffffffffffffffffffffffffffffff169060200190929190803560ff169060200190929190505050610cf4565b604051808215151515815260200191505060405180910390f35b61034b610db6565b6040518082815260200191505060405180910390f35b6103cd6004803603606081101561037757600080fd5b81019080803573ffffffffffffffffffffffffffffffffffffffff169060200190929190803573ffffffffffffffffffffffffffffffffffffffff16906020019092919080359060200190929190505050610dc0565b604051808215151515815260200191505060405180910390f35b6103ef610e99565b6040518082815260200191505060405180910390f35b6104456004803603606081101561041b57600080fd5b81019080803590602001909291908035906020019092919080359060200190929190505050610ea1565b6040518082815260200191505060405180910390f35b610463610ed1565b604051808260ff1660ff16815260200191505060405180910390f35b6104ab6004803603602081101561049557600080fd5b8101908080359060200190929190505050610ee8565b604051808760ff1660ff1681526020018660ff1660ff1681526020018560ff1660ff1681526020018460ff1660ff1681526020018360ff1660ff168152602001828152602001965050505050505060405180910390f35b6105516004803603604081101561051857600080fd5b81019080803573ffffffffffffffffffffffffffffffffffffffff169060200190929190803560ff169060200190929190505050610f65565b604051808215151515815260200191505060405180910390f35b6105b76004803603604081101561058157600080fd5b81019080803573ffffffffffffffffffffffffffffffffffffffff16906020019092919080359060200190929190505050611027565b604051808215151515815260200191505060405180910390f35b6105d96110da565b604051808215151515815260200191505060405180910390f35b6106cc6004803603606081101561060957600080fd5b810190808035906020019064010000000081111561062657600080fd5b82018360208201111561063857600080fd5b8035906020019184602083028401116401000000008311171561065a57600080fd5b90919293919293908035906020019064010000000081111561067b57600080fd5b82018360208201111561068d57600080fd5b803590602001918460208302840111640100000000831117156106af57600080fd5b9091929391929390803560ff1690602001909291905050506111ae565b604051808215151515815260200191505060405180910390f35b6106ee611496565b604051808215151515815260200191505060405180910390f35b6107376004803603602081101561071e57600080fd5b81019080803560ff1690602001909291905050506114ad565b604051808215151515815260200191505060405180910390f35b6107936004803603602081101561076757600080fd5b81019080803573ffffffffffffffffffffffffffffffffffffffff1690602001909291905050506114bf565b6040518082815260200191505060405180910390f35b6107b1611508565b005b6107bb611678565b604051808273ffffffffffffffffffffffffffffffffffffffff1673ffffffffffffffffffffffffffffffffffffffff16815260200191505060405180910390f35b61084c6004803603604081101561081357600080fd5b81019080803573ffffffffffffffffffffffffffffffffffffffff169060200190929190803560ff1690602001909291905050506116a2565b6040518082815260200191505060405180910390f35b6108b16004803603604081101561087857600080fd5b81019080803573ffffffffffffffffffffffffffffffffffffffff169060200190929190803560ff169060200190929190505050611b67565b604051808a60ff1660ff1681526020018981526020018881526020018781526020018660ff1660ff1681526020018560ff1660ff1681526020018481526020018315151515815260200182151515158152602001995050505050505050505060405180910390f35b6109486004803603602081101561092f57600080fd5b81019080803560ff169060200190929190505050611c03565b604051808215151515815260200191505060405180910390f35b61096a611c15565b6040518080602001828103825283818151815260200191508051906020019080838360005b838110156109aa57808201518184015260208101905061098f565b50505050905090810190601f1680156109d75780820380516001836020036101000a031916815260200191505b509250505060405180910390f35b610a31600480360360408110156109fb57600080fd5b81019080803573ffffffffffffffffffffffffffffffffffffffff16906020019092919080359060200190929190505050611cb7565b604051808215151515815260200191505060405180910390f35b610a9760048036036040811015610a6157600080fd5b81019080803573ffffffffffffffffffffffffffffffffffffffff16906020019092919080359060200190929190505050611d84565b604051808215151515815260200191505060405180910390f35b610ab9611da2565b6040518082815260200191505060405180910390f35b610b1160048036036020811015610ae557600080fd5b81019080803573ffffffffffffffffffffffffffffffffffffffff169060200190929190505050611dae565b005b610b7560048036036040811015610b2957600080fd5b81019080803573ffffffffffffffffffffffffffffffffffffffff169060200190929190803573ffffffffffffffffffffffffffffffffffffffff169060200190929190505050612a16565b6040518082815260200191505060405180910390f35b610bcd60048036036020811015610ba157600080fd5b81019080803573ffffffffffffffffffffffffffffffffffffffff169060200190929190505050612a9d565b005b610c1e60048036036040811015610be557600080fd5b81019080803573ffffffffffffffffffffffffffffffffffffffff169060200190929190803560ff169060200190929190505050612c92565b6040518082815260200191505060405180910390f35b606060688054600181600116156101000203166002900480601f016020809104026020016040519081016040528092919081815260200182805460018160011615610100020316600290048015610ccc5780601f10610ca157610100808354040283529160200191610ccc565b820191906000526020600020905b815481529060010190602001808311610caf57829003601f168201915b5050505050905090565b6000610cea610ce3612dff565b8484612e07565b6001905092915050565b6000610cfe612dff565b73ffffffffffffffffffffffffffffffffffffffff16610d1c611678565b73ffffffffffffffffffffffffffffffffffffffff1614610da5576040517f08c379a00000000000000000000000000000000000000000000000000000000081526004018080602001828103825260208152602001807f4f776e61626c653a2063616c6c6572206973206e6f7420746865206f776e657281525060200191505060405180910390fd5b610daf8383612ffe565b5092915050565b6000606754905090565b6000610dcd8484846134df565b610e8e84610dd9612dff565b610e89856040518060600160405280602881526020016150f860289139606660008b73ffffffffffffffffffffffffffffffffffffffff1673ffffffffffffffffffffffffffffffffffffffff1681526020019081526020016000206000610e3f612dff565b73ffffffffffffffffffffffffffffffffffffffff1673ffffffffffffffffffffffffffffffffffffffff168152602001908152602001600020546137a49092919063ffffffff16565b612e07565b600190509392505050565b600042905090565b6000610ec882610eba858761385e90919063ffffffff16565b6138e490919063ffffffff16565b90509392505050565b6000606a60009054906101000a900460ff16905090565b60fb6020528060005260406000206000915090508060000160009054906101000a900460ff16908060000160019054906101000a900460ff16908060000160029054906101000a900460ff16908060000160039054906101000a900460ff16908060000160049054906101000a900460ff16908060010154905086565b6000610f6f612dff565b73ffffffffffffffffffffffffffffffffffffffff16610f8d611678565b73ffffffffffffffffffffffffffffffffffffffff1614611016576040517f08c379a00000000000000000000000000000000000000000000000000000000081526004018080602001828103825260208152602001807f4f776e61626c653a2063616c6c6572206973206e6f7420746865206f776e657281525060200191505060405180910390fd5b611020838361396d565b5092915050565b60006110d0611034612dff565b846110cb8560666000611045612dff565b73ffffffffffffffffffffffffffffffffffffffff1673ffffffffffffffffffffffffffffffffffffffff16815260200190815260200160002060008973ffffffffffffffffffffffffffffffffffffffff1673ffffffffffffffffffffffffffffffffffffffff16815260200190815260200160002054613de190919063ffffffff16565b612e07565b6001905092915050565b60006110e4612dff565b73ffffffffffffffffffffffffffffffffffffffff16611102611678565b73ffffffffffffffffffffffffffffffffffffffff161461118b576040517f08c379a00000000000000000000000000000000000000000000000000000000081526004018080602001828103825260208152602001807f4f776e61626c653a2063616c6c6572206973206e6f7420746865206f776e657281525060200191505060405180910390fd5b6000611196306114bf565b90506111a96111a3611678565b82613e69565b505090565b60006111b8612dff565b73ffffffffffffffffffffffffffffffffffffffff166111d6611678565b73ffffffffffffffffffffffffffffffffffffffff161461125f576040517f08c379a00000000000000000000000000000000000000000000000000000000081526004018080602001828103825260208152602001807f4f776e61626c653a2063616c6c6572206973206e6f7420746865206f776e657281525060200191505060405180910390fd5b8383905086869050146112da576040517f08c379a00000000000000000000000000000000000000000000000000000000081526004018080602001828103825260158152602001807f556e657175616c2061727261797320706173736564000000000000000000000081525060200191505060405180910390fd5b6112e2614e2a565b60fb60008460ff1681526020019081526020016000206040518060c00160405290816000820160009054906101000a900460ff1660ff1660ff1681526020016000820160019054906101000a900460ff1660ff1660ff1681526020016000820160029054906101000a900460ff1660ff1660ff1681526020016000820160039054906101000a900460ff1660ff1660ff1681526020016000820160049054906101000a900460ff1660ff1660ff1681526020016001820154815250509050600087879050905060008090505b8181101561148657600085905060008a8a848181106113c957fe5b9050602002013573ffffffffffffffffffffffffffffffffffffffff16905060008989858181106113f657fe5b90506020020135905060008660200151905060008760400151905060006114388d8d8981811061142257fe5b905060200201358a6060015160ff166064610ea1565b905060006114618e8e8a81811061144b57fe5b905060200201358b6080015160ff166064610ea1565b905061147286888787878787613e80565b5050505050505080806001019150506113ae565b5060019250505095945050505050565b6000609760009054906101000a900460ff16905090565b60006114b93383612ffe565b50919050565b6000606560008373ffffffffffffffffffffffffffffffffffffffff1673ffffffffffffffffffffffffffffffffffffffff168152602001908152602001600020549050919050565b611510612dff565b73ffffffffffffffffffffffffffffffffffffffff1661152e611678565b73ffffffffffffffffffffffffffffffffffffffff16146115b7576040517f08c379a00000000000000000000000000000000000000000000000000000000081526004018080602001828103825260208152602001807f4f776e61626c653a2063616c6c6572206973206e6f7420746865206f776e657281525060200191505060405180910390fd5b600073ffffffffffffffffffffffffffffffffffffffff16603360009054906101000a900473ffffffffffffffffffffffffffffffffffffffff1673ffffffffffffffffffffffffffffffffffffffff167f8be0079c531659141344cd1fd0a4f28419497f9722a3daafe3b4186f6b6457e060405160405180910390a36000603360006101000a81548173ffffffffffffffffffffffffffffffffffffffff021916908373ffffffffffffffffffffffffffffffffffffffff160217905550565b6000603360009054906101000a900473ffffffffffffffffffffffffffffffffffffffff16905090565b6000828260fc60008373ffffffffffffffffffffffffffffffffffffffff1673ffffffffffffffffffffffffffffffffffffffff16815260200190815260200160002060008260ff1660ff16815260200190815260200160002060060160009054906101000a900460ff16611762576040517f08c379a00000000000000000000000000000000000000000000000000000000081526004018080602001828103825260268152602001806150216026913960400191505060405180910390fd5b61176a614e6f565b60fc60008773ffffffffffffffffffffffffffffffffffffffff1673ffffffffffffffffffffffffffffffffffffffff16815260200190815260200160002060008660ff1660ff168152602001908152602001600020604051806101200160405290816000820160009054906101000a900460ff1660ff1660ff1681526020016001820154815260200160028201548152602001600382015481526020016004820160009054906101000a900460ff1660ff1660ff1681526020016004820160019054906101000a900460ff1660ff1660ff168152602001600582015481526020016006820160009054906101000a900460ff161515151581526020016006820160019054906101000a900460ff16151515158152505090506000806000611890611da2565b9050600061189c610e99565b905060006118b383836141f890919063ffffffff16565b905060006118d16118c261427b565b836138e490919063ffffffff16565b90508660a0015160ff16811161194f576040517f08c379a000000000000000000000000000000000000000000000000000000000815260040180806020018281038252601d8152602001807f56657374696e6720436c696666204e6f742043726f737365642059657400000081525060200191505060405180910390fd5b866080015160ff1681111561198b57600061196a8d8d612c92565b90506119838189602001516141f890919063ffffffff16565b965050611b55565b60006119a78860a0015160ff16836141f890919063ffffffff16565b905060008111611a1f576040517f08c379a00000000000000000000000000000000000000000000000000000000081526004018080602001828103825260208152602001807f4e756d626572206f66206d6f6e74687320656c6170736564206973205a45524f81525060200191505060405180910390fd5b6009886000015160ff161415611aa757611a37614ec8565b601481600160048110611a4657fe5b602002018181525050603281600260048110611a5e57fe5b602002018181525050605081600360048110611a7657fe5b602002018181525050611a9f8960200151828460048110611a9357fe5b60200201516064610ea1565b965050611ac1565b611abe81896060015161385e90919063ffffffff16565b95505b8760c001518611611b3a576040517f08c379a00000000000000000000000000000000000000000000000000000000081526004018080602001828103825260208152602001807f4e6f20436c61696d61626c6520546f6b656e7320617420746869732054696d6581525060200191505060405180910390fd5b611b518860c00151876141f890919063ffffffff16565b9650505b85995050505050505050505092915050565b60fc602052816000526040600020602052806000526040600020600091509150508060000160009054906101000a900460ff16908060010154908060020154908060030154908060040160009054906101000a900460ff16908060040160019054906101000a900460ff16908060050154908060060160009054906101000a900460ff16908060060160019054906101000a900460ff16905089565b6000611c0f338361396d565b50919050565b606060698054600181600116156101000203166002900480601f016020809104026020016040519081016040528092919081815260200182805460018160011615610100020316600290048015611cad5780601f10611c8257610100808354040283529160200191611cad565b820191906000526020600020905b815481529060010190602001808311611c9057829003601f168201915b5050505050905090565b6000611d7a611cc4612dff565b84611d75856040518060600160405280602581526020016151e96025913960666000611cee612dff565b73ffffffffffffffffffffffffffffffffffffffff1673ffffffffffffffffffffffffffffffffffffffff16815260200190815260200160002060008a73ffffffffffffffffffffffffffffffffffffffff1673ffffffffffffffffffffffffffffffffffffffff168152602001908152602001600020546137a49092919063ffffffff16565b612e07565b6001905092915050565b6000611d98611d91612dff565b84846134df565b6001905092915050565b6000636043398b905090565b600060019054906101000a900460ff1680611dcd5750611dcc614286565b5b80611de457506000809054906101000a900460ff16155b611e39576040517f08c379a000000000000000000000000000000000000000000000000000000000815260040180806020018281038252602e815260200180615076602e913960400191505060405180910390fd5b60008060019054906101000a900460ff161590508015611e89576001600060016101000a81548160ff02191690831515021790555060016000806101000a81548160ff0219169083151502179055505b611e91614297565b611f056040518060400160405280600881526020017f506c617963656e740000000000000000000000000000000000000000000000008152506040518060400160405280600481526020017f50434e54000000000000000000000000000000000000000000000000000000008152506143a6565b611f0d6144b9565b611f29611f18611678565b6a2fa54641bae8aaa00000006145d0565b611f3e826a01fc3842bd1f071c0000006145d0565b6040518060c00160405280600060ff168152602001600c60ff168152602001602060ff168152602001600060ff168152602001600560ff1681526020016a0771d2fa45345aa900000081525060fb600080815260200190815260200160002060008201518160000160006101000a81548160ff021916908360ff16021790555060208201518160000160016101000a81548160ff021916908360ff16021790555060408201518160000160026101000a81548160ff021916908360ff16021790555060608201518160000160036101000a81548160ff021916908360ff16021790555060808201518160000160046101000a81548160ff021916908360ff16021790555060a082015181600101559050506040518060c00160405280600160ff168152602001600360ff168152602001600d60ff168152602001600060ff168152602001600a60ff1681526020016a03f870857a3e0e3800000081525060fb60006001815260200190815260200160002060008201518160000160006101000a81548160ff021916908360ff16021790555060208201518160000160016101000a81548160ff021916908360ff16021790555060408201518160000160026101000a81548160ff021916908360ff16021790555060608201518160000160036101000a81548160ff021916908360ff16021790555060808201518160000160046101000a81548160ff021916908360ff16021790555060a082015181600101559050506040518060c00160405280600260ff168152602001600360ff168152602001600d60ff168152602001600060ff168152602001600a60ff1681526020016a03f870857a3e0e3800000081525060fb60006002815260200190815260200160002060008201518160000160006101000a81548160ff021916908360ff16021790555060208201518160000160016101000a81548160ff021916908360ff16021790555060408201518160000160026101000a81548160ff021916908360ff16021790555060608201518160000160036101000a81548160ff021916908360ff16021790555060808201518160000160046101000a81548160ff021916908360ff16021790555060a082015181600101559050506040518060c00160405280600360ff168152602001600160ff168152602001600b60ff168152602001600060ff168152602001600a60ff1681526020016a01fc3842bd1f071c00000081525060fb60006003815260200190815260200160002060008201518160000160006101000a81548160ff021916908360ff16021790555060208201518160000160016101000a81548160ff021916908360ff16021790555060408201518160000160026101000a81548160ff021916908360ff16021790555060608201518160000160036101000a81548160ff021916908360ff16021790555060808201518160000160046101000a81548160ff021916908360ff16021790555060a082015181600101559050506040518060c00160405280600460ff168152602001600160ff168152602001600b60ff168152602001600060ff168152602001600a60ff1681526020016a03f870857a3e0e3800000081525060fb60006004815260200190815260200160002060008201518160000160006101000a81548160ff021916908360ff16021790555060208201518160000160016101000a81548160ff021916908360ff16021790555060408201518160000160026101000a81548160ff021916908360ff16021790555060608201518160000160036101000a81548160ff021916908360ff16021790555060808201518160000160046101000a81548160ff021916908360ff16021790555060a082015181600101559050506040518060c00160405280600560ff168152602001600360ff168152602001601c60ff168152602001600060ff168152602001600460ff1681526020016a0771d2fa45345aa900000081525060fb60006005815260200190815260200160002060008201518160000160006101000a81548160ff021916908360ff16021790555060208201518160000160016101000a81548160ff021916908360ff16021790555060408201518160000160026101000a81548160ff021916908360ff16021790555060608201518160000160036101000a81548160ff021916908360ff16021790555060808201518160000160046101000a81548160ff021916908360ff16021790555060a082015181600101559050506040518060c00160405280600660ff168152602001600660ff168152602001601f60ff168152602001600060ff168152602001600460ff1681526020016a03796274caf64c7100000081525060fb60006006815260200190815260200160002060008201518160000160006101000a81548160ff021916908360ff16021790555060208201518160000160016101000a81548160ff021916908360ff16021790555060408201518160000160026101000a81548160ff021916908360ff16021790555060608201518160000160036101000a81548160ff021916908360ff16021790555060808201518160000160046101000a81548160ff021916908360ff16021790555060a082015181600101559050506040518060c00160405280600760ff168152602001600160ff168152602001600760ff168152602001600a60ff168152602001600f60ff1681526020016a04b7059e8129b0e280000081525060fb60006007815260200190815260200160002060008201518160000160006101000a81548160ff021916908360ff16021790555060208201518160000160016101000a81548160ff021916908360ff16021790555060408201518160000160026101000a81548160ff021916908360ff16021790555060608201518160000160036101000a81548160ff021916908360ff16021790555060808201518160000160046101000a81548160ff021916908360ff16021790555060a082015181600101559050506040518060c00160405280600860ff168152602001600160ff168152602001600560ff168152602001600f60ff168152602001601460ff1681526020016a04777e962985cfff00000081525060fb60006008815260200190815260200160002060008201518160000160006101000a81548160ff021916908360ff16021790555060208201518160000160016101000a81548160ff021916908360ff16021790555060408201518160000160026101000a81548160ff021916908360ff16021790555060608201518160000160036101000a81548160ff021916908360ff16021790555060808201518160000160046101000a81548160ff021916908360ff16021790555060a082015181600101559050506040518060c00160405280600960ff168152602001600160ff168152602001600460ff168152602001601460ff168152602001601460ff1681526020016a0437f78dd1e1ef1b80000081525060fb60006009815260200190815260200160002060008201518160000160006101000a81548160ff021916908360ff16021790555060208201518160000160016101000a81548160ff021916908360ff16021790555060408201518160000160026101000a81548160ff021916908360ff16021790555060608201518160000160036101000a81548160ff021916908360ff16021790555060808201518160000160046101000a81548160ff021916908360ff16021790555060a082015181600101559050508015612a125760008060016101000a81548160ff0219169083151502179055505b5050565b6000606660008473ffffffffffffffffffffffffffffffffffffffff1673ffffffffffffffffffffffffffffffffffffffff16815260200190815260200160002060008373ffffffffffffffffffffffffffffffffffffffff1673ffffffffffffffffffffffffffffffffffffffff16815260200190815260200160002054905092915050565b612aa5612dff565b73ffffffffffffffffffffffffffffffffffffffff16612ac3611678565b73ffffffffffffffffffffffffffffffffffffffff1614612b4c576040517f08c379a00000000000000000000000000000000000000000000000000000000081526004018080602001828103825260208152602001807f4f776e61626c653a2063616c6c6572206973206e6f7420746865206f776e657281525060200191505060405180910390fd5b600073ffffffffffffffffffffffffffffffffffffffff168173ffffffffffffffffffffffffffffffffffffffff161415612bd2576040517f08c379a0000000000000000000000000000000000000000000000000000000008152600401808060200182810382526026815260200180614fb36026913960400191505060405180910390fd5b8073ffffffffffffffffffffffffffffffffffffffff16603360009054906101000a900473ffffffffffffffffffffffffffffffffffffffff1673ffffffffffffffffffffffffffffffffffffffff167f8be0079c531659141344cd1fd0a4f28419497f9722a3daafe3b4186f6b6457e060405160405180910390a380603360006101000a81548173ffffffffffffffffffffffffffffffffffffffff021916908373ffffffffffffffffffffffffffffffffffffffff16021790555050565b600080612c9d614e6f565b60fc60008673ffffffffffffffffffffffffffffffffffffffff1673ffffffffffffffffffffffffffffffffffffffff16815260200190815260200160002060008560ff1660ff168152602001908152602001600020604051806101200160405290816000820160009054906101000a900460ff1660ff1660ff1681526020016001820154815260200160028201548152602001600382015481526020016004820160009054906101000a900460ff1660ff1660ff1681526020016004820160019054906101000a900460ff1660ff1660ff168152602001600582015481526020016006820160009054906101000a900460ff161515151581526020016006820160019054906101000a900460ff1615151515815250509050612dcd8160c0015183613de190919063ffffffff16565b915080610100015115612df457612df1816040015183613de190919063ffffffff16565b91505b819250505092915050565b600033905090565b600073ffffffffffffffffffffffffffffffffffffffff168373ffffffffffffffffffffffffffffffffffffffff161415612e8d576040517f08c379a00000000000000000000000000000000000000000000000000000000081526004018080602001828103825260248152602001806151a16024913960400191505060405180910390fd5b600073ffffffffffffffffffffffffffffffffffffffff168273ffffffffffffffffffffffffffffffffffffffff161415612f13576040517f08c379a0000000000000000000000000000000000000000000000000000000008152600401808060200182810382526022815260200180614fd96022913960400191505060405180910390fd5b80606660008573ffffffffffffffffffffffffffffffffffffffff1673ffffffffffffffffffffffffffffffffffffffff16815260200190815260200160002060008473ffffffffffffffffffffffffffffffffffffffff1673ffffffffffffffffffffffffffffffffffffffff168152602001908152602001600020819055508173ffffffffffffffffffffffffffffffffffffffff168373ffffffffffffffffffffffffffffffffffffffff167f8c5be1e5ebec7d5bd14f71427d1e84f3dd0314c0f7b2291e5b200ac8c7c3b925836040518082815260200191505060405180910390a3505050565b6000828260fc60008373ffffffffffffffffffffffffffffffffffffffff1673ffffffffffffffffffffffffffffffffffffffff16815260200190815260200160002060008260ff1660ff16815260200190815260200160002060060160009054906101000a900460ff166130be576040517f08c379a00000000000000000000000000000000000000000000000000000000081526004018080602001828103825260268152602001806150216026913960400191505060405180910390fd5b6130c6614e6f565b60fc60008773ffffffffffffffffffffffffffffffffffffffff1673ffffffffffffffffffffffffffffffffffffffff16815260200190815260200160002060008660ff1660ff168152602001908152602001600020604051806101200160405290816000820160009054906101000a900460ff1660ff1660ff1681526020016001820154815260200160028201548152602001600382015481526020016004820160009054906101000a900460ff1660ff1660ff1681526020016004820160019054906101000a900460ff1660ff1660ff168152602001600582015481526020016006820160009054906101000a900460ff161515151581526020016006820160019054906101000a900460ff161515151581525050905060006131eb8787612c92565b905060006131f988886116a2565b905060008111613271576040517f08c379a00000000000000000000000000000000000000000000000000000000081526004018080602001828103825260158152602001807f4e6f20746f6b656e7320746f207472616e73666572000000000000000000000081525060200191505060405180910390fd5b600061327c306114bf565b90508181116132d6576040517f08c379a00000000000000000000000000000000000000000000000000000000081526004018080602001828103825260248152602001806151c56024913960400191505060405180910390fd5b83602001516132ee8385613de190919063ffffffff16565b1115613362576040517f08c379a00000000000000000000000000000000000000000000000000000000081526004018080602001828103825260208152602001807f43616e6e6f7420436c61696d206d6f7265207468616e20416c6c6f636174656481525060200191505060405180910390fd5b818460c0018181510191508181525050836020015161338a8385613de190919063ffffffff16565b14156133a25760008460e00190151590811515815250505b8360fc60008b73ffffffffffffffffffffffffffffffffffffffff1673ffffffffffffffffffffffffffffffffffffffff16815260200190815260200160002060008a60ff1660ff16815260200190815260200160002060008201518160000160006101000a81548160ff021916908360ff16021790555060208201518160010155604082015181600201556060820151816003015560808201518160040160006101000a81548160ff021916908360ff16021790555060a08201518160040160016101000a81548160ff021916908360ff16021790555060c0820151816005015560e08201518160060160006101000a81548160ff0219169083151502179055506101008201518160060160016101000a81548160ff0219169083151502179055509050506134d28983613e69565b5050505050505092915050565b600073ffffffffffffffffffffffffffffffffffffffff168373ffffffffffffffffffffffffffffffffffffffff161415613565576040517f08c379a000000000000000000000000000000000000000000000000000000000815260040180806020018281038252602581526020018061517c6025913960400191505060405180910390fd5b600073ffffffffffffffffffffffffffffffffffffffff168273ffffffffffffffffffffffffffffffffffffffff1614156135eb576040517f08c379a0000000000000000000000000000000000000000000000000000000008152600401808060200182810382526023815260200180614f906023913960400191505060405180910390fd5b6135f6838383614799565b61366281604051806060016040528060268152602001614ffb60269139606560008773ffffffffffffffffffffffffffffffffffffffff1673ffffffffffffffffffffffffffffffffffffffff168152602001908152602001600020546137a49092919063ffffffff16565b606560008573ffffffffffffffffffffffffffffffffffffffff1673ffffffffffffffffffffffffffffffffffffffff168152602001908152602001600020819055506136f781606560008573ffffffffffffffffffffffffffffffffffffffff1673ffffffffffffffffffffffffffffffffffffffff16815260200190815260200160002054613de190919063ffffffff16565b606560008473ffffffffffffffffffffffffffffffffffffffff1673ffffffffffffffffffffffffffffffffffffffff168152602001908152602001600020819055508173ffffffffffffffffffffffffffffffffffffffff168373ffffffffffffffffffffffffffffffffffffffff167fddf252ad1be2c89b69c2b068fc378daa952ba7f163c4a11628f55a4df523b3ef836040518082815260200191505060405180910390a3505050565b6000838311158290613851576040517f08c379a00000000000000000000000000000000000000000000000000000000081526004018080602001828103825283818151815260200191508051906020019080838360005b838110156138165780820151818401526020810190506137fb565b50505050905090810190601f1680156138435780820380516001836020036101000a031916815260200191505b509250505060405180910390fd5b5082840390509392505050565b60008083141561387157600090506138de565b600082840290508284828161388257fe5b04146138d9576040517f08c379a00000000000000000000000000000000000000000000000000000000081526004018080602001828103825260218152602001806150d76021913960400191505060405180910390fd5b809150505b92915050565b600080821161395b576040517f08c379a000000000000000000000000000000000000000000000000000000000815260040180806020018281038252601a8152602001807f536166654d6174683a206469766973696f6e206279207a65726f00000000000081525060200191505060405180910390fd5b81838161396457fe5b04905092915050565b6000613977611da2565b61397f610e99565b116139d5576040517f08c379a00000000000000000000000000000000000000000000000000000000081526004018080602001828103825260268152602001806151566026913960400191505060405180910390fd5b828260fc60008373ffffffffffffffffffffffffffffffffffffffff1673ffffffffffffffffffffffffffffffffffffffff16815260200190815260200160002060008260ff1660ff16815260200190815260200160002060060160009054906101000a900460ff16613a93576040517f08c379a00000000000000000000000000000000000000000000000000000000081526004018080602001828103825260268152602001806150216026913960400191505060405180910390fd5b613a9b614e6f565b60fc60008773ffffffffffffffffffffffffffffffffffffffff1673ffffffffffffffffffffffffffffffffffffffff16815260200190815260200160002060008660ff1660ff168152602001908152602001600020604051806101200160405290816000820160009054906101000a900460ff1660ff1660ff1681526020016001820154815260200160028201548152602001600382015481526020016004820160009054906101000a900460ff1660ff1660ff1681526020016004820160019054906101000a900460ff1660ff1660ff168152602001600582015481526020016006820160009054906101000a900460ff161515151581526020016006820160019054906101000a900460ff16151515158152505090506007816000015160ff1610158015613bd457506009816000015160ff1611155b613c29576040517f08c379a000000000000000000000000000000000000000000000000000000000815260040180806020018281038252602f815260200180615047602f913960400191505060405180910390fd5b60001515816101000151151514613c8b576040517f08c379a00000000000000000000000000000000000000000000000000000000081526004018080602001828103825260368152602001806151206036913960400191505060405180910390fd5b6000816040015190506001826101000190151590811515815250508160fc60008973ffffffffffffffffffffffffffffffffffffffff1673ffffffffffffffffffffffffffffffffffffffff16815260200190815260200160002060008860ff1660ff16815260200190815260200160002060008201518160000160006101000a81548160ff021916908360ff16021790555060208201518160010155604082015181600201556060820151816003015560808201518160040160006101000a81548160ff021916908360ff16021790555060a08201518160040160016101000a81548160ff021916908360ff16021790555060c0820151816005015560e08201518160060160006101000a81548160ff0219169083151502179055506101008201518160060160016101000a81548160ff021916908315150217905550905050613dd68782613e69565b505050505092915050565b600080828401905083811015613e5f576040517f08c379a000000000000000000000000000000000000000000000000000000000815260040180806020018281038252601b8152602001807f536166654d6174683a206164646974696f6e206f766572666c6f77000000000081525060200191505060405180910390fd5b8091505092915050565b6000613e763084846134df565b6001905092915050565b868660008160ff1610158015613e9a575060098160ff1611155b613f0c576040517f08c379a00000000000000000000000000000000000000000000000000000000081526004018080602001828103825260158152602001807f496e76616c69642056657374696e6720496e646578000000000000000000000081525060200191505060405180910390fd5b600073ffffffffffffffffffffffffffffffffffffffff168273ffffffffffffffffffffffffffffffffffffffff161415613faf576040517f08c379a000000000000000000000000000000000000000000000000000000000815260040180806020018281038252600f8152602001807f496e76616c69642041646472657373000000000000000000000000000000000081525060200191505060405180910390fd5b60fc60008373ffffffffffffffffffffffffffffffffffffffff1673ffffffffffffffffffffffffffffffffffffffff16815260200190815260200160002060008260ff1660ff16815260200190815260200160002060060160009054906101000a900460ff161561406c576040517f08c379a00000000000000000000000000000000000000000000000000000000081526004018080602001828103825260338152602001806150a46033913960400191505060405180910390fd5b614074614e6f565b6040518061012001604052808a60ff1681526020018981526020018681526020018581526020018760ff1681526020018860ff168152602001600081526020016001151581526020016000151581525090508060fc60008c73ffffffffffffffffffffffffffffffffffffffff1673ffffffffffffffffffffffffffffffffffffffff16815260200190815260200160002060008b60ff1660ff16815260200190815260200160002060008201518160000160006101000a81548160ff021916908360ff16021790555060208201518160010155604082015181600201556060820151816003015560808201518160040160006101000a81548160ff021916908360ff16021790555060a08201518160040160016101000a81548160ff021916908360ff16021790555060c0820151816005015560e08201518160060160006101000a81548160ff0219169083151502179055506101008201518160060160016101000a81548160ff02191690831515021790555090505050505050505050505050565b600082821115614270576040517f08c379a000000000000000000000000000000000000000000000000000000000815260040180806020018281038252601e8152602001807f536166654d6174683a207375627472616374696f6e206f766572666c6f77000081525060200191505060405180910390fd5b818303905092915050565b600062278d00905090565b600061429130614807565b15905090565b600060019054906101000a900460ff16806142b657506142b5614286565b5b806142cd57506000809054906101000a900460ff16155b614322576040517f08c379a000000000000000000000000000000000000000000000000000000000815260040180806020018281038252602e815260200180615076602e913960400191505060405180910390fd5b60008060019054906101000a900460ff161590508015614372576001600060016101000a81548160ff02191690831515021790555060016000806101000a81548160ff0219169083151502179055505b61437a61481a565b614382614919565b80156143a35760008060016101000a81548160ff0219169083151502179055505b50565b600060019054906101000a900460ff16806143c557506143c4614286565b5b806143dc57506000809054906101000a900460ff16155b614431576040517f08c379a000000000000000000000000000000000000000000000000000000000815260040180806020018281038252602e815260200180615076602e913960400191505060405180910390fd5b60008060019054906101000a900460ff161590508015614481576001600060016101000a81548160ff02191690831515021790555060016000806101000a81548160ff0219169083151502179055505b61448961481a565b6144938383614ac1565b80156144b45760008060016101000a81548160ff0219169083151502179055505b505050565b600060019054906101000a900460ff16806144d857506144d7614286565b5b806144ef57506000809054906101000a900460ff16155b614544576040517f08c379a000000000000000000000000000000000000000000000000000000000815260040180806020018281038252602e815260200180615076602e913960400191505060405180910390fd5b60008060019054906101000a900460ff161590508015614594576001600060016101000a81548160ff02191690831515021790555060016000806101000a81548160ff0219169083151502179055505b61459c61481a565b6145a4614c0c565b6145ac614d26565b80156145cd5760008060016101000a81548160ff0219169083151502179055505b50565b600073ffffffffffffffffffffffffffffffffffffffff168273ffffffffffffffffffffffffffffffffffffffff161415614673576040517f08c379a000000000000000000000000000000000000000000000000000000000815260040180806020018281038252601f8152602001807f45524332303a206d696e7420746f20746865207a65726f20616464726573730081525060200191505060405180910390fd5b61467f60008383614799565b61469481606754613de190919063ffffffff16565b6067819055506146ec81606560008573ffffffffffffffffffffffffffffffffffffffff1673ffffffffffffffffffffffffffffffffffffffff16815260200190815260200160002054613de190919063ffffffff16565b606560008473ffffffffffffffffffffffffffffffffffffffff1673ffffffffffffffffffffffffffffffffffffffff168152602001908152602001600020819055508173ffffffffffffffffffffffffffffffffffffffff16600073ffffffffffffffffffffffffffffffffffffffff167fddf252ad1be2c89b69c2b068fc378daa952ba7f163c4a11628f55a4df523b3ef836040518082815260200191505060405180910390a35050565b6147a4838383614e25565b6147ac611496565b15614802576040517f08c379a000000000000000000000000000000000000000000000000000000000815260040180806020018281038252602a81526020018061520e602a913960400191505060405180910390fd5b505050565b600080823b905060008111915050919050565b600060019054906101000a900460ff16806148395750614838614286565b5b8061485057506000809054906101000a900460ff16155b6148a5576040517f08c379a000000000000000000000000000000000000000000000000000000000815260040180806020018281038252602e815260200180615076602e913960400191505060405180910390fd5b60008060019054906101000a900460ff1615905080156148f5576001600060016101000a81548160ff02191690831515021790555060016000806101000a81548160ff0219169083151502179055505b80156149165760008060016101000a81548160ff0219169083151502179055505b50565b600060019054906101000a900460ff16806149385750614937614286565b5b8061494f57506000809054906101000a900460ff16155b6149a4576040517f08c379a000000000000000000000000000000000000000000000000000000000815260040180806020018281038252602e815260200180615076602e913960400191505060405180910390fd5b60008060019054906101000a900460ff1615905080156149f4576001600060016101000a81548160ff02191690831515021790555060016000806101000a81548160ff0219169083151502179055505b60006149fe612dff565b905080603360006101000a81548173ffffffffffffffffffffffffffffffffffffffff021916908373ffffffffffffffffffffffffffffffffffffffff1602179055508073ffffffffffffffffffffffffffffffffffffffff16600073ffffffffffffffffffffffffffffffffffffffff167f8be0079c531659141344cd1fd0a4f28419497f9722a3daafe3b4186f6b6457e060405160405180910390a3508015614abe5760008060016101000a81548160ff0219169083151502179055505b50565b600060019054906101000a900460ff1680614ae05750614adf614286565b5b80614af757506000809054906101000a900460ff16155b614b4c576040517f08c379a000000000000000000000000000000000000000000000000000000000815260040180806020018281038252602e815260200180615076602e913960400191505060405180910390fd5b60008060019054906101000a900460ff161590508015614b9c576001600060016101000a81548160ff02191690831515021790555060016000806101000a81548160ff0219169083151502179055505b8260689080519060200190614bb2929190614eea565b508160699080519060200190614bc9929190614eea565b506012606a60006101000a81548160ff021916908360ff1602179055508015614c075760008060016101000a81548160ff0219169083151502179055505b505050565b600060019054906101000a900460ff1680614c2b5750614c2a614286565b5b80614c4257506000809054906101000a900460ff16155b614c97576040517f08c379a000000000000000000000000000000000000000000000000000000000815260040180806020018281038252602e815260200180615076602e913960400191505060405180910390fd5b60008060019054906101000a900460ff161590508015614ce7576001600060016101000a81548160ff02191690831515021790555060016000806101000a81548160ff0219169083151502179055505b6000609760006101000a81548160ff0219169083151502179055508015614d235760008060016101000a81548160ff0219169083151502179055505b50565b600060019054906101000a900460ff1680614d455750614d44614286565b5b80614d5c57506000809054906101000a900460ff16155b614db1576040517f08c379a000000000000000000000000000000000000000000000000000000000815260040180806020018281038252602e815260200180615076602e913960400191505060405180910390fd5b60008060019054906101000a900460ff161590508015614e01576001600060016101000a81548160ff02191690831515021790555060016000806101000a81548160ff0219169083151502179055505b8015614e225760008060016101000a81548160ff0219169083151502179055505b50565b505050565b6040518060c00160405280600060ff168152602001600060ff168152602001600060ff168152602001600060ff168152602001600060ff168152602001600081525090565b604051806101200160405280600060ff168152602001600081526020016000815260200160008152602001600060ff168152602001600060ff168152602001600081526020016000151581526020016000151581525090565b6040518060800160405280600490602082028038833980820191505090505090565b828054600181600116156101000203166002900490600052602060002090601f016020900481019282601f10614f2b57805160ff1916838001178555614f59565b82800160010185558215614f59579182015b82811115614f58578251825591602001919060010190614f3d565b5b509050614f669190614f6a565b5090565b614f8c91905b80821115614f88576000816000905550600101614f70565b5090565b9056fe45524332303a207472616e7366657220746f20746865207a65726f20616464726573734f776e61626c653a206e6577206f776e657220697320746865207a65726f206164647265737345524332303a20617070726f766520746f20746865207a65726f206164647265737345524332303a207472616e7366657220616d6f756e7420657863656564732062616c616e636555736572204e4f5420616464656420746f20616e792056657374696e672043617465676f727956657374696e672043617465676f727920646f65736e27742062656c6f6e6720746f2053414c452056457374696e67496e697469616c697a61626c653a20636f6e747261637420697320616c726561647920696e697469616c697a6564557365722056657374696e672044657461696c7320416c726561647920416464656420746f20746869732043617465676f7279536166654d6174683a206d756c7469706c69636174696f6e206f766572666c6f7745524332303a207472616e7366657220616d6f756e74206578636565647320616c6c6f77616e636554474520546f6b656e73204861766520616c7265616479206265656e20636c61696d656420666f7220476976656e2041646472657373546f6b656e2047656e65726174696f6e204576656e74204e6f7420537461727465642059657445524332303a207472616e736665722066726f6d20746865207a65726f206164647265737345524332303a20617070726f76652066726f6d20746865207a65726f20616464726573734e6f7420456e6f75676820546f6b656e2042616c616e636520696e20436f6e747261637445524332303a2064656372656173656420616c6c6f77616e63652062656c6f77207a65726f45524332305061757361626c653a20746f6b656e207472616e73666572207768696c6520706175736564a2646970667358221220ee256d84b3d2ea90faa928e8e7dc55ed21b38257f872c5895f149e7d790f6c6464736f6c63430006020033",
  "source": "pragma solidity 0.6.2;\n// SPDX-License-Identifier: MIT\n\nimport \"@openzeppelin/contracts-upgradeable/token/ERC20/ERC20Upgradeable.sol\";\nimport \"@openzeppelin/contracts-upgradeable/math/SafeMathUpgradeable.sol\";\nimport \"@openzeppelin/contracts-upgradeable/access/OwnableUpgradeable.sol\";\nimport \"@openzeppelin/contracts-upgradeable/proxy/Initializable.sol\";\nimport \"@openzeppelin/contracts-upgradeable/token/ERC20/ERC20PausableUpgradeable.sol\";\nimport \"@openzeppelin/contracts-upgradeable/math/SafeMathUpgradeable.sol\";\n\ncontract PlayToken is\n    Initializable,\n    OwnableUpgradeable,\n    ERC20PausableUpgradeable\n{\n    using SafeMathUpgradeable for uint256;\n    /**\n     * Category 0 - Team\n     * Category 1 - Operations\n     * Category 2 - Marketing/Partners\n     * Category 3 - Advisors\n     * Category 4 - Staking/Earn Incentives\n     * Category 5 - Play/Mining\n     * Category 6 - Reserve\n     * Category 7 - Seed Sale\n     * Category 8 - Private 1\n     * Category 9 - Private 2\n     */\n  struct VestType {\n        uint8 indexId;\n        uint8 lockPeriod;\n        uint8 vestingDuration;\n        uint8 tgePercent;\n        uint8 monthlyPercent;\n        uint256 totalTokenAllocation;\n    }\n\n   struct VestAllocation {\n        uint8 vestIndexID;\n        uint256 totalTokensAllocated;\n        uint256 totalTGETokens;\n        uint256 monthlyTokens;\n        uint8 vestingDuration;\n        uint8 lockPeriod;\n        uint256 totalVestTokensClaimed;\n        bool isVesting;\n        bool isTgeTokensClaimed;\n    }\n\n\n    mapping(uint256 => VestType) public vestTypes;\n    mapping(address => mapping(uint8 => VestAllocation))\n        public walletToVestAllocations;\n\n    function initialize(address _PublicSaleAddress) public initializer {\n        __Ownable_init();\n        __ERC20_init(\"Playcent\", \"PCNT\");\n        __ERC20Pausable_init();\n        _mint(owner(), 57600000 ether);\n        _mint(_PublicSaleAddress, 2400000 ether);\n\n        vestTypes[0] = VestType(0, 12, 32, 0, 5, 9000000 ether); // Team\n        vestTypes[1] = VestType(1, 3, 13, 0, 10, 4800000 ether); // Operations\n        vestTypes[2] = VestType(2, 3, 13, 0, 10, 4800000 ether); // Marketing/Partners\n        vestTypes[3] = VestType(3, 1, 11, 0, 10, 2400000 ether); // Advisors\n        vestTypes[4] = VestType(4, 1, 11, 0, 10, 4800000 ether); //Staking/Early Incentive Rewards\n        vestTypes[5] = VestType(5, 3, 28, 0, 4, 9000000 ether); //Play Mining\n        vestTypes[6] = VestType(6, 6, 31, 0, 4, 4200000 ether); //Reserve\n        // Sale Vesting Strategies\n        vestTypes[7] = VestType(7, 1, 7, 10, 15, 5700000 ether); // Seed Sale\n        vestTypes[8] = VestType(8, 1, 5, 15, 20, 5400000 ether); // Private Sale 1\n        vestTypes[9] = VestType(9, 1, 4, 20, 20, 5100000 ether); // Private Sale 2\n    }\n\n    modifier onlyValidVestingBenifciary(\n        address _userAddresses,\n        uint8 _vestingIndex\n    ) {\n        require(\n            _vestingIndex >= 0 && _vestingIndex <= 9,\n            \"Invalid Vesting Index\"\n        );\n        require(_userAddresses != address(0), \"Invalid Address\");\n        require(\n            !walletToVestAllocations[_userAddresses][_vestingIndex].isVesting,\n            \"User Vesting Details Already Added to this Category\"\n        );\n        _;\n    }\n\n    modifier checkVestingStatus(address _userAddresses, uint8 _vestingIndex) {\n        require(\n            walletToVestAllocations[_userAddresses][_vestingIndex].isVesting,\n            \"User NOT added to any Vesting Category\"\n        );\n        _;\n    }\n\n    modifier onlyAfterTGE(){ \n        require (getCurrentTime() > getTgeTIME(), \"Token Generation Event Not Started Yet\");\n        _; \n    }\n    function getCurrentTime() public view returns (uint256) {\n        return block.timestamp;\n    }\n\n    function monthInSeconds() internal pure returns (uint256) {\n        return 2592000;\n    }\n\n    function daysInSeconds() internal pure returns (uint256) {\n        return 86400;\n    }\n\n    function getTgeTIME() public pure returns (uint256) {\n        return 1615018379; // Sat Mar 06 2021 11:30:00 GMT+0000\n    }\n\n    function getTokenAmount(\n        uint256 x,\n        uint256 y,\n        uint256 z\n    ) public pure returns (uint256) {\n        return x.mul(y).div(z);\n    }\n\n    /**\n     * @notice - Allows only the Owner to ADD an array of Addresses as well as their Vesting Amount\n               - The array of user and amounts should be passed along with the vestingCategory Index. \n               - Thus, a particular batch of addresses shall be added under only one Vesting Category Index \n     * @param _userAddresses array of addresses of the Users\n     * @param _vestingAmounts array of amounts to be vested\n     * @param _vestnigType allows the owner to select the type of vesting category\n     * @return - true if Function executes successfully\n     */\n\n    function addVestingDetails(\n        address[] calldata _userAddresses,\n        uint256[] calldata _vestingAmounts,\n        uint8 _vestnigType\n    ) external onlyOwner returns (bool) {\n        require(\n            _userAddresses.length == _vestingAmounts.length,\n            \"Unequal arrays passed\"\n        );\n\n        // Get Vesting Category Details\n        VestType memory vestData = vestTypes[_vestnigType];\n        uint256 arrayLength = _userAddresses.length;\n\n        for (uint256 i = 0; i < arrayLength; i++) {\n            uint8 vestIndexID = _vestnigType;\n            address user = _userAddresses[i];\n            uint256 amount = _vestingAmounts[i];\n            uint8 lockPeriod = vestData.lockPeriod;\n            uint8 vestingDuration = vestData.vestingDuration;\n            uint256 tgeAmount =\n                getTokenAmount(_vestingAmounts[i], vestData.tgePercent, 100);\n            uint256 monthlyAmount =\n                getTokenAmount(\n                    _vestingAmounts[i],\n                    vestData.monthlyPercent,\n                    100\n                );\n\n            addUserVestingDetails(\n                user,\n                vestIndexID,\n                amount,\n                lockPeriod,\n                vestingDuration,\n                tgeAmount,\n                monthlyAmount\n            );\n        }\n        return true;\n    }\n\n    /** @notice - Internal functions that is initializes the VestAllocation Struct with the respective arguments passed\n     * @param _userAddresses addresses of the User\n     * @param _totalAmount total amount to be lockedUp\n     * @param _vestingIndex denotes the type of vesting selected\n     * @param _vestingCliff denotes the cliff of the vesting category selcted\n     * @param _vestingDuration denotes the total duration of the vesting category selcted\n     * @param _tgeAmount denotes the total TGE amount to be transferred to the userVestingData\n     * @param _monthlyAmount denotes the total Monthly Amount to be transferred to the user\n     */\n\n    function addUserVestingDetails(\n        address _userAddresses,\n        uint8 _vestingIndex,\n        uint256 _totalAmount,\n        uint8 _vestingCliff,\n        uint8 _vestingDuration,\n        uint256 _tgeAmount,\n        uint256 _monthlyAmount\n    ) internal onlyValidVestingBenifciary(_userAddresses, _vestingIndex) {\n        VestAllocation memory userVestingData =\n            VestAllocation(\n                _vestingIndex,\n                _totalAmount,\n                _tgeAmount,\n                _monthlyAmount,\n                _vestingDuration,\n                _vestingCliff,\n                0,\n                true,\n                false\n            );\n        walletToVestAllocations[_userAddresses][_vestingIndex] = userVestingData;\n    }\n\n    function totalTokensClaimed(address _userAddresses, uint8 _vestingIndex)\n        public\n        view\n        returns (uint256)\n    {\n        // Get Vesting Details\n        uint256 totalClaimedTokens;\n        VestAllocation memory vestData =\n            walletToVestAllocations[_userAddresses][_vestingIndex];\n\n        totalClaimedTokens = totalClaimedTokens.add(\n            vestData.totalVestTokensClaimed\n        );\n\n        if (vestData.isTgeTokensClaimed) {\n            totalClaimedTokens = totalClaimedTokens.add(\n                vestData.totalTGETokens\n            );\n        }\n\n        return totalClaimedTokens;\n    }\n\n    /**\n     * @notice Calculates the amount of tokens to be transferred at any given point of time\n     * @param _userAddresses address of the User\n     */\n    function calculateClaimableTokens(\n        address _userAddresses,\n        uint8 _vestingIndex\n    )\n        public\n        view\n        checkVestingStatus(_userAddresses, _vestingIndex)\n        returns (uint256)\n    {\n        // Get Vesting Details\n        VestAllocation memory vestData =\n            walletToVestAllocations[_userAddresses][_vestingIndex];\n\n        // Get Time Details\n        uint256 actualClaimableAmount;\n        uint256 tokensAfterElapsedMonths;\n        uint256 vestStartTime = getTgeTIME();\n        uint256 currentTime = getCurrentTime();\n        uint256 timeElapsed = currentTime.sub(vestStartTime);\n        uint256 totalMonthsElapsed = timeElapsed.div(monthInSeconds());\n        \n\n        //Check whether or not the VESTING CLIFF has been reached\n        require(\n            totalMonthsElapsed > vestData.lockPeriod,\n            \"Vesting Cliff Not Crossed Yet\"\n        );\n\n        // If total duration of Vesting already crossed, return pending tokens to claimed\n        if (totalMonthsElapsed > vestData.vestingDuration) {\n            uint256 _totalTokensClaimed =\n            totalTokensClaimed(_userAddresses, _vestingIndex);\n            actualClaimableAmount = vestData.totalTokensAllocated.sub(\n                _totalTokensClaimed\n            );\n            // if current time has crossed the Vesting Cliff but not the total Vesting Duration\n            // Calculating Actual Months(Excluding the CLIFF) to initiate vesting\n        } else {\n            uint256 actualMonthElapsed =\n                totalMonthsElapsed.sub(vestData.lockPeriod);\n            require(actualMonthElapsed > 0, \"Number of months elapsed is ZERO\");\n            // Calculate the Total Tokens on the basis of Vesting Index and Month elapsed\n            if (vestData.vestIndexID == 9) {\n\n                uint256[4] memory monthsToRates;\n                monthsToRates[1] = 20;\n                monthsToRates[2] = 50;\n                monthsToRates[3] = 80;\n                tokensAfterElapsedMonths = getTokenAmount(\n                    vestData.totalTokensAllocated,\n                    monthsToRates[actualMonthElapsed],\n                    100\n                );\n            } else {\n                tokensAfterElapsedMonths = vestData.monthlyTokens.mul(\n                    actualMonthElapsed\n                );\n            }\n            require(\n                tokensAfterElapsedMonths > vestData.totalVestTokensClaimed,\n                \"No Claimable Tokens at this Time\"\n            );\n            // Get the actual Claimable Tokens\n            actualClaimableAmount = tokensAfterElapsedMonths.sub(\n                vestData.totalVestTokensClaimed\n            );\n        }\n        return actualClaimableAmount;\n    }\n\n    /**\n     * @notice Function to transfer tokens from this contract to the user\n     * @param _beneficiary address of the User\n     * @param _amountOfTokens number of tokens to be transferred\n     */\n    function _sendTokens(address _beneficiary, uint256 _amountOfTokens)\n        private\n        returns (bool)\n    {\n        _transfer(address(this), _beneficiary, _amountOfTokens);\n        return true;\n    }\n\n    /**\n     * @notice Calculates and Transfer the total tokens to be transferred to the user after Token Generation Event is over\n     * @dev The function shall only work for users under Sale Vesting Category(index - 7,8,9).\n     * @dev The function can only be called once by the user(only if the isTgeTokensClaimed boolean value is FALSE).\n     * Once the tokens have been transferred, isTgeTokensClaimed becomes TRUE for that particular address\n     * @param _userAddresses address of the User\n     */\n    function _claimTGETokens(address _userAddresses, uint8 _vestingIndex)\n        internal\n        onlyAfterTGE\n        checkVestingStatus(_userAddresses, _vestingIndex)\n        returns (bool)\n    {\n        // Get Vesting Details\n        VestAllocation memory vestData =\n            walletToVestAllocations[_userAddresses][_vestingIndex];\n\n        require(\n            vestData.vestIndexID >= 7 && vestData.vestIndexID <= 9,\n            \"Vesting Category doesn't belong to SALE VEsting\"\n        );\n        require(\n            vestData.isTgeTokensClaimed == false,\n            \"TGE Tokens Have already been claimed for Given Address\"\n        );\n\n        uint256 tokensToTransfer = vestData.totalTGETokens;\n\n        // Updating Contract State\n        vestData.isTgeTokensClaimed = true;\n        walletToVestAllocations[_userAddresses][_vestingIndex] = vestData;\n        _sendTokens(_userAddresses, tokensToTransfer);\n    }\n\n    function claimTGETokensOnlyOwner(address _userAddresses,uint8 _vestingIndex) external onlyOwner returns(bool){\n            _claimTGETokens(_userAddresses,_vestingIndex);\n    }\n\n    function claimTGETokens(uint8 _vestingIndex) external returns(bool){\n            _claimTGETokens(msg.sender,_vestingIndex);  \n        \n    }\n\n    /**\n     * @notice Calculates and Transfers the total tokens to be transferred to the user by calculating the Amount of tokens to be transferred at the given time\n     * @dev The function shall only work for users under Vesting Category is valid(index - 1 to 9).\n     * @dev isVesting becomes false if all allocated tokens have been claimed.\n     * @dev User cannot claim more tokens than actually allocated to them by the OWNER\n     * @param _userAddresses address of the User\n     */\n    function _claimVestTokens(address _userAddresses, uint8 _vestingIndex)\n        internal\n        checkVestingStatus(_userAddresses, _vestingIndex)\n        returns (bool)\n    {\n        // Get Vesting Details\n        VestAllocation memory vestData =\n            walletToVestAllocations[_userAddresses][_vestingIndex];\n\n        // Get total token amount to be transferred\n        uint256 _totalTokensClaimed =\n            totalTokensClaimed(_userAddresses, _vestingIndex);\n        uint256 tokensToTransfer =\n            calculateClaimableTokens(_userAddresses, _vestingIndex);\n\n        require(tokensToTransfer > 0, \"No tokens to transfer\");\n        uint256 contractTokenBalance = balanceOf(address(this));\n        require(\n            contractTokenBalance > tokensToTransfer,\n            \"Not Enough Token Balance in Contract\"\n        );\n        require(\n            _totalTokensClaimed.add(tokensToTransfer) <=\n                vestData.totalTokensAllocated,\n            \"Cannot Claim more than Allocated\"\n        );\n\n        vestData.totalVestTokensClaimed += tokensToTransfer;\n        if (\n            _totalTokensClaimed.add(tokensToTransfer) ==\n            vestData.totalTokensAllocated\n        ) {\n            vestData.isVesting = false;\n        }\n        walletToVestAllocations[_userAddresses][_vestingIndex] = vestData;\n        _sendTokens(_userAddresses, tokensToTransfer);\n    }\n\n    function claimVestTokensOnlyOwner(address _userAddresses,uint8 _vestingIndex) external onlyOwner returns(bool){\n            _claimVestTokens(_userAddresses,_vestingIndex);\n    }\n\n    function claimVestTokens(uint8 _vestingIndex) external returns(bool){\n            _claimVestTokens(msg.sender,_vestingIndex); \n    }\n\n    function pullRemainingTokens() onlyOwner external returns(bool){\n        uint256 remainingTokens = balanceOf(address(this));\n        _sendTokens(owner(),remainingTokens);   \n    }\n        \n}\n\n",
  "sourcePath": "/home/zaryab/blockchain_begins/all_about_ethereum/quillHash_CODES/bloqueLabs/gitPlaycent/ico-contract/contracts/pcntTokenVesting.sol",
  "compiler": {
    "name": "solc",
    "version": "0.6.2+commit.bacdbe57.Linux.g++"
  },
  "schemaVersion": "3.3.3",
  "updatedAt": "2021-03-02T14:02:23.059Z",
  "devdoc": {
    "methods": {
      "addVestingDetails(address[],uint256[],uint8)": {
        "params": {
          "_userAddresses": "array of addresses of the Users",
          "_vestingAmounts": "array of amounts to be vested",
          "_vestnigType": "allows the owner to select the type of vesting category"
        },
        "returns": {
          "_0": "- true if Function executes successfully"
        }
      },
      "allowance(address,address)": {
        "details": "See {IERC20-allowance}."
      },
      "approve(address,uint256)": {
        "details": "See {IERC20-approve}.     * Requirements:     * - `spender` cannot be the zero address."
      },
      "balanceOf(address)": {
        "details": "See {IERC20-balanceOf}."
      },
      "calculateClaimableTokens(address,uint8)": {
        "params": {
          "_userAddresses": "address of the User"
        }
      },
      "decimals()": {
        "details": "Returns the number of decimals used to get its user representation. For example, if `decimals` equals `2`, a balance of `505` tokens should be displayed to a user as `5,05` (`505 / 10 ** 2`).     * Tokens usually opt for a value of 18, imitating the relationship between Ether and Wei. This is the value {ERC20} uses, unless {_setupDecimals} is called.     * NOTE: This information is only used for _display_ purposes: it in no way affects any of the arithmetic of the contract, including {IERC20-balanceOf} and {IERC20-transfer}."
      },
      "decreaseAllowance(address,uint256)": {
        "details": "Atomically decreases the allowance granted to `spender` by the caller.     * This is an alternative to {approve} that can be used as a mitigation for problems described in {IERC20-approve}.     * Emits an {Approval} event indicating the updated allowance.     * Requirements:     * - `spender` cannot be the zero address. - `spender` must have allowance for the caller of at least `subtractedValue`."
      },
      "increaseAllowance(address,uint256)": {
        "details": "Atomically increases the allowance granted to `spender` by the caller.     * This is an alternative to {approve} that can be used as a mitigation for problems described in {IERC20-approve}.     * Emits an {Approval} event indicating the updated allowance.     * Requirements:     * - `spender` cannot be the zero address."
      },
      "name()": {
        "details": "Returns the name of the token."
      },
      "owner()": {
        "details": "Returns the address of the current owner."
      },
      "paused()": {
        "details": "Returns true if the contract is paused, and false otherwise."
      },
      "renounceOwnership()": {
        "details": "Leaves the contract without owner. It will not be possible to call `onlyOwner` functions anymore. Can only be called by the current owner.     * NOTE: Renouncing ownership will leave the contract without an owner, thereby removing any functionality that is only available to the owner."
      },
      "symbol()": {
        "details": "Returns the symbol of the token, usually a shorter version of the name."
      },
      "totalSupply()": {
        "details": "See {IERC20-totalSupply}."
      },
      "transfer(address,uint256)": {
        "details": "See {IERC20-transfer}.     * Requirements:     * - `recipient` cannot be the zero address. - the caller must have a balance of at least `amount`."
      },
      "transferFrom(address,address,uint256)": {
        "details": "See {IERC20-transferFrom}.     * Emits an {Approval} event indicating the updated allowance. This is not required by the EIP. See the note at the beginning of {ERC20}.     * Requirements:     * - `sender` and `recipient` cannot be the zero address. - `sender` must have a balance of at least `amount`. - the caller must have allowance for ``sender``'s tokens of at least `amount`."
      },
      "transferOwnership(address)": {
        "details": "Transfers ownership of the contract to a new account (`newOwner`). Can only be called by the current owner."
      }
    }
  },
  "userdoc": {
    "methods": {
      "addVestingDetails(address[],uint256[],uint8)": {
        "notice": "- Allows only the Owner to ADD an array of Addresses as well as their Vesting Amount - The array of user and amounts should be passed along with the vestingCategory Index.  - Thus, a particular batch of addresses shall be added under only one Vesting Category Index "
      },
      "calculateClaimableTokens(address,uint8)": {
        "notice": "Calculates the amount of tokens to be transferred at any given point of time"
      }
    }
  }
}